:100000000C9465000C948D000C948D000C948D0064
:100010000C948D000C948D000C948D000C948D002C
:100020000C948D000C948D000C948D000C94440560
:100030000C948D000C948D000C948D000C948D000C
:100040000C9427060C948D000C948D000C948D005C
:100050000C948D000C948D000C948D000C948D00EC
:100060000C948D000C948D000000000024002700EB
:100070002A0000000000250028002B0000000000DE
:1000800023002600290004040404040404040202DA
:100090000202020203030303030301020408102007
:1000A0004080010204081020010204081020000012
:1000B0000007000201000003040600000000000029
:1000C000000091006001D001610111241FBECFEF3B
:1000D000D8E0DEBFCDBF11E0A0E0B1E0E2EFFFE08D
:1000E00002C005900D92A030B107D9F712E0A0E050
:1000F000B1E001C01D92A336B107E1F710E0C8ECF2
:10010000D0E004C02297FE010E94E807C23CD1075C
:10011000C9F70E94A4070C94EC070C940000089502
:10012000089580E091E064E070E049E050E023E071
:1001300030E00E94810483E291E00E94A40486E200
:1001400091E00E94A40408950E946F0660932A0122
:1001500070932B0180932C0190932D0180E091E00E
:100160006FE870E040E950E00E94BA0180912A01F6
:1001700090912B01A0912C01B0912D0120912E0185
:1001800030912F014091300150913101821B930B2E
:10019000A40BB50BC397A105B105E8F180E091E090
:1001A0000E94280380E091E061E271E00E94B201C8
:1001B00080912A0190912B01A0912C01B0912D01E9
:1001C00080932E0190932F01A0933001B0933101C1
:1001D00086E580931F0180E091E060E070E64BE1EE
:1001E0000E94040480E091E066E071E00E941A023F
:1001F00080E091E00E94F10280912901882329F09A
:100200001092290181E060E004C081E0809329011F
:1002100061E00E94500720912A0130912B0140910A
:100220002C0150912D0182E391E061E271E00E9486
:10023000620108950F931F9383E291E065E070E0FF
:100240000E943D0586E291E066E070E00E943D0577
:1002500000E011E0C8010E946504C8010E946B0221
:10026000C8016EEF7AEC0E94DF02C80161E070E61F
:100270000E94CD02C80161E00E946102C80161E0F4
:100280000E94B10380E161E00E94110781E161E019
:100290000E941107789482E390E090930801809384
:1002A000070182E391E00E94A70181E061E00E94E2
:1002B000110785E061E00E9411071F910F910895D9
:1002C00008950895CF93DF93EC01FB018881998114
:1002D000AA81BB81281739074A075B07A9F1288340
:1002E00039834A835B8320812223F9F08C81E82FB4
:1002F000F0E0822F992787FD909597FF03C0909596
:1003000081959F4F64E170E00E94BF07E617F707F1
:1003100064F427FD03C081E161E009C081E160E090
:100320000E94500780E161E006C081E160E00E9428
:10033000500780E160E00E9450078C81853018F4FE
:100340008F5F8C8301C01C82DF91CF910895FC01E7
:10035000148281E161E00E94110780E161E00E9466
:1003600011070895FB0180913F0180838091400136
:1003700081830895CF93DF93FB01EA0180913701D8
:10038000882319F01092370109958091380188234C
:1003900021F010923801FE010995DF91CF91089567
:1003A0008BE090E090933A01809339010895FF9299
:1003B0000F931F93CF93DF938C01EB01F42EFC017D
:1003C000828160E00E945007CE0123E096958795D8
:1003D0002A95E1F780688EBD0DB407FEFDCF8EB57E
:1003E0009E012295220F207E822F80618EBD0DB44A
:1003F00007FEFDCF8EB5FEBC0DB407FEFDCF8EB55A
:10040000F801828161E00E945007DF91CF911F9136
:100410000F91FF900895462F50E04B50504034E02C
:10042000440F551F3A95E1F7436060E072E00E9487
:10043000D7010895EF92FF920F931F93CF93DF930D
:100440007C018B01CCE0D0E0C701BE01F8014191F5
:100450008F010E94D7012196C732D105A9F7DF91FC
:10046000CF911F910F91FF90EF9008950F931F93DD
:10047000CF93DF93EC01162F042F8A8160E00E9456
:100480005007110F1E7711601EBD0DB407FEFDCF82
:100490008EB50EBD0DB407FEFDCF8EB58A8161E02D
:1004A0000E945007DF91CF911F910F91089569E34A
:1004B00040E00E943602089569E344E00E9436025B
:1004C0000895662319F060E041E002C060E040E07A
:1004D0000E94360208950F931F938C0168E148E94A
:1004E0000E943602C8016EE245E90E943602C80148
:1004F00060E072E043E00E94D701C80161E072E071
:1005000041E00E94D701C80162E072E040E80E9429
:10051000D701C80163E072E048E20E94D701C80138
:1005200066E072E040E90E94D701C80167E072E02E
:1005300040E80E94D701C80168E072E040E10E94F3
:10054000D701C80160E272E041E20E94D701C80110
:100550006AE340E80E943602C8016FE340E60E9469
:100560003602C8016EE340E40E943602C8016CE026
:100570000E940B02C80166E344E00E943602C801F3
:1005800066E340E00E94360261E070E080E090E0C7
:100590000E947D061F910F910895FF920F931F9364
:1005A0008C01F62E472F64E00E943602C80163E0FA
:1005B0004F2D0E9436021F910F91FF900895FF92D8
:1005C0000F931F938C01F62E472F62E00E94360294
:1005D000C80161E04F2D0E9436021F910F91FF90DC
:1005E00008956BE145E00E9436020895EF92FF9274
:1005F0001F93CF93DF937C01EB01FC01828160E0CC
:100600000E945007CE0143E0969587954A95E1F701
:1006100080688EBD0DB407FEFDCF8EB59E0122957C
:10062000220F207E2EBD0DB407FEFDCF8EB51EBC61
:100630000DB407FEFDCF1EB5F701828161E00E9477
:100640005007812FDF91CF911F91FF90EF90089578
:10065000CF92DF92EF92FF920F931F93CF93DF938E
:100660007C010E945C02C70160E073E00E94F60218
:10067000D82E80913B01882399F0C1E0D3E00D2D65
:1006800010E00F5F1C4F09C0C701BE010E94F602B7
:10069000FE01EC54F14080832196C017D107A1F7E9
:1006A000C7016AE073E00E94F602C82EC1E0D0E004
:1006B0000BC0BE01665F7C4FC7010E94F602FE01BF
:1006C000E25CFE4F8083219680913E0190E0209174
:1006D000390130913A01821B930BC817D9074CF3AB
:1006E000D0923E010D2D10E00F5F1C4FC701B801E5
:1006F0000E94F6028093B3010F5F1F4FC701B8013C
:100700000E94F6028093B401C7010E9457028C2D0B
:10071000C11081E0DF91CF911F910F91FF90EF9079
:10072000DF90CF9008951F93CF93DF93EC01162FA6
:100730008A8160E00E945007110F1E771EBD0DB424
:1007400007FEFDCF8EB51EBC0DB407FEFDCF1EB556
:100750008A8161E00E945007812FDF91CF911F9124
:100760000895CF93DF93EC016623C1F064E30E9408
:100770009303482F4860CE0164E30E943602CE0105
:1007800063E30E949303482F4860CE0163E30E9415
:100790003602CE016FE272E047E003C06FE272E022
:1007A00040E00E94D701DF91CF910895FF920F930F
:1007B0001F938C0164E00E949303F82EC80163E04C
:1007C0000E9493035F2D40E0282F30E0242B352B2F
:1007D000C9011F910F91FF900895FF920F931F93EE
:1007E0008C0162E00E949303F82EC80161E00E9430
:1007F00093035F2D40E0282F30E0242B352BC901D7
:100800001F910F91FF900895DF92EF92FF920F9347
:100810001F938C01E62ED72EF42E60E070E049E0A5
:100820000E94D70140913C01475F4F0DC80161E034
:1008300070E00E94D701C80162E070E041E60E94CA
:10084000D701C80163E070E048E80E94D701C80101
:1008500064E070E041E00E94D701C8010E94ED030E
:10086000482FF92EC80165E070E00E94D701C80149
:1008700066E070E04F2D0E94D701C80167E070E08C
:100880004E2D0E94D701C80168E070E04D2D0E94F6
:10089000D701C8010E94D603482FF92EC80169E08C
:1008A00070E00E94D701C8016AE070E04F2D0E94FD
:1008B000D701C8016BE070E04AE20E94D7011F91A6
:1008C0000F91FF90EF90DF9008950F931F938C018D
:1008D000FC01808160E00E9450076AE070E080E0E7
:1008E00090E00E947D06F801808161E00E9450073F
:1008F00064E170E080E090E00E947D061F910F911E
:1009000008950F931F938C01862FF80160837183E4
:10091000538342833583248361E00E941107F801E9
:10092000828161E00E941107F801848160E00E94E9
:10093000110781E00E94020680E00E940B060E94DF
:1009400010061F910F910895FC01809134028C30A4
:1009500090F480838F5F80933402815090E0FC019B
:10096000EE0FFF1FE80FF91FEB5CFD4F88EB9BE0DC
:100970009283818308958FEF80830895CF92DF92D1
:10098000EF92FF921F93CF93DF93EC01162F7A0122
:10099000690188818C3008F064C0862F61E00E9474
:1009A0001107888190E0FC01EE0FFF1FE80FF91F8F
:1009B000EB5CFD4F1F738081807C812B808380E204
:1009C00092E08E199F0964E070E00E94BF0769837E
:1009D00080E699E08C199D0964E070E00E94BF07F1
:1009E0006A83A8818A2F6CE00E94B307682F70E0A9
:1009F000AB01440F551F460F571F440F551F440F9F
:100A0000551F20E030E0C901840F951FFC01EE0F57
:100A1000FF1FE80FF91FEB5CFD4F808186FD15C0BD
:100A20002F5F3F4F2C30310571F724C010928000AA
:100A300082E0809381001092850010928400B19A28
:100A400080916F00826080936F008A2F90E0FC019C
:100A5000EE0FFF1FE80FF91FEB5CFD4F80818064F4
:100A600080838881DF91CF911F91FF90EF90DF907D
:100A7000CF900895672BD1F2E8CF40E252E020E614
:100A800039E00E94BE0408951F920F920FB60F9294
:100A900011242F933F934F935F936F937F938F9383
:100AA0009F93AF93BF93EF93FF938091590287FF7A
:100AB00005C010928500109284002BC0209159022D
:100AC000332727FD30958091340290E028173907AD
:100AD00004F580915902992787FD9095FC01EE0F4E
:100AE000FF1FE80FF91FEB5CFD4F808186FF11C0EF
:100AF00080915902992787FD9095FC01EE0FFF1F09
:100B0000E80FF91FEB5CFD4F80818F7360E00E945E
:100B10005007809159028F5F8093590220915902AA
:100B2000332727FD30958091340290E0281739074C
:100B30000CF04EC0809159028C300CF049C02091CD
:100B400084003091850080915902992787FD909506
:100B5000FC01EE0FFF1FE80FF91FEB5CFD4F8181D9
:100B60009281280F391F309389002093880080914B
:100B70005902992787FD9095FC01EE0FFF1FE80FA2
:100B8000F91FEB5CFD4F808186FF2BC080915902DD
:100B9000992787FD9095FC01EE0FFF1FE80FF91FC5
:100BA000EB5CFD4F80818F7361E00E94500719C09C
:100BB00080E49CE905C080918400909185000496B2
:100BC00090938900809388008FEF8093590209C029
:100BD0008091840090918500049680549C4940F354
:100BE000EACFFF91EF91BF91AF919F918F917F914C
:100BF0006F915F914F913F912F910F900FBE0F908A
:100C00001F901895882319F48CB5806202C08CB5AA
:100C10008F7D8CBD08959CB5937F982B9CBD0895C6
:100C20008AE061E00E9450078AE061E00E941107BB
:100C30008CB580618CBD8CB580648CBD8DE061E02D
:100C40000E9411078BE061E00E94110708951F9236
:100C50000F920FB60F9211242F933F938F939F9370
:100C6000AF93BF9380915E0290915F02A09160026A
:100C7000B0916102309162020196A11DB11D232F36
:100C80002D5F2D3720F02D570196A11DB11D20930A
:100C9000620280935E0290935F02A0936002B09321
:100CA000610280915A0290915B02A0915C02B09126
:100CB0005D020196A11DB11D80935A0290935B02C3
:100CC000A0935C02B0935D02BF91AF919F918F9111
:100CD0003F912F910F900FBE0F901F9018958FB7D7
:100CE000F89420915E0230915F0240916002509131
:100CF00061028FBFB901CA0108959B01AC017FB7A2
:100D0000F89480915A0290915B02A0915C02B0919C
:100D10005D0266B5A89B05C06F3F19F00196A11D45
:100D2000B11D7FBFBA2FA92F982F8827860F911D3D
:100D3000A11DB11D62E0880F991FAA1FBB1F6A95F4
:100D4000D1F7BC012DC0FFB7F89480915A02909161
:100D50005B02A0915C02B0915D02E6B5A89B05C064
:100D6000EF3F19F00196A11DB11DFFBFBA2FA92FAA
:100D7000982F88278E0F911DA11DB11DE2E0880FCD
:100D8000991FAA1FBB1FEA95D1F7861B970B885E98
:100D90009340C8F2215030404040504068517C4F51
:100DA000211531054105510571F60895789484B5F2
:100DB000826084BD84B5816084BD85B5826085BD57
:100DC00085B5816085BDEEE6F0E08081816080833D
:100DD000E1E8F0E010828081826080838081816020
:100DE0008083E0E8F0E0808181608083E1EBF0E0E7
:100DF000808184608083E0EBF0E08081816080838B
:100E0000EAE7F0E080818460808380818260808373
:100E10008081816080838081806880831092C1009E
:100E20000895CF93DF93482F50E0CA0186569F4F15
:100E3000FC0134914A575F4FFA018491882369F18C
:100E400090E0880F991FFC01E859FF4FA591B491DC
:100E5000FC01EE58FF4FC591D491662351F42FB792
:100E6000F8948C91932F909589238C938881892372
:100E70000BC0623061F42FB7F8948C91932F90954A
:100E800089238C938881832B88832FBF06C09FB7CB
:100E9000F8948C91832B8C939FBFDF91CF91089511
:100EA000482F50E0CA0182559F4FFC012491CA018E
:100EB00086569F4FFC0194914A575F4FFA01349137
:100EC000332309F440C0222351F1233071F0243040
:100ED00028F42130A1F0223011F514C02630B1F0F1
:100EE0002730C1F02430D9F404C0809180008F777E
:100EF00003C0809180008F7D8093800010C084B5F6
:100F00008F7702C084B58F7D84BD09C08091B00009
:100F10008F7703C08091B0008F7D8093B000E32F66
:100F2000F0E0EE0FFF1FEE58FF4FA591B4912FB7E1
:100F3000F894662321F48C919095892302C08C91BA
:100F4000892B8C932FBF0895CF93DF930E94D606F1
:100F50000E941A01C0E0D0E00E94A4002097E1F3B3
:100F60000E940000F9CF991B79E004C0991F9617E1
:100F700008F0961B881F7A95C9F78095089597FB0E
:100F8000092E07260AD077FD04D00CD006D0002009
:100F90001AF4709561957F4F0895F6F790958195B5
:100FA0009F4F0895AA1BBB1B51E107C0AA1FBB1F7F
:100FB000A617B70710F0A61BB70B881F991F5A95E5
:100FC000A9F780959095BC01CD010895EE0FFF1F04
:100FD0000590F491E02D099410E0C8ECD0E004C035
:100FE000FE010E94E8072296CA3CD107C9F7F8948F
:020FF000FFCF31
:00000001FF
