:100000000C9465000C94BD050C94EA050C948D00CD
:100010000C948D000C948D000C948D000C948D002C
:100020000C948D000C948D000C948D000C94B704EE
:100030000C948D000C948D000C948D000C948D000C
:100040000C9417060C948D000C948D000C948D006C
:100050000C948D000C948D000C948D000C948D00EC
:100060000C948D000C948D000000000024002700EB
:100070002A0000000000250028002B0000000000DE
:1000800023002600290004040404040404040202DA
:100090000202020203030303030301020408102007
:1000A0004080010204081020010204081020000012
:1000B0000007000201000003040600000000000029
:1000C000000090004601B901470111241FBECFEF87
:1000D000D8E0DEBFCDBF11E0A0E0B1E0E2EDFFE08F
:1000E00002C005900D92A030B107D9F712E0A0E050
:1000F000B1E001C01D92AF35B107E1F710E0C8ECE7
:10010000D0E004C02297FE010E94D807C23CD1076C
:10011000C9F70E9494070C94DC070C940000089522
:1001200080E091E064E070E049E050E023E030E0FE
:100130000E94F40383E291E00E94170486E291E0BA
:100140000E941704089580E091E00E94B601FC012E
:10015000808180FF11C080912901882339F010929D
:10016000290181E060E00E944007089581E08093CA
:10017000290161E00E944007089580E091E06FE866
:1001800070E043EA50E00E94A0018EE780932101D5
:100190000E945F069B01AC018BE291E061E271E09D
:1001A0000E94480180E091E061E271E00E949801C4
:1001B00080912A01882339F010922A0185E060E0BD
:1001C0000E944007089580E091E00E94AA038150B8
:1001D000904669F480E091E00E94C103892B39F0D8
:1001E00081E080932A0185E061E00E944007089544
:1001F0000F931F9383E291E065E070E00E94B004EA
:1002000086E291E066E070E00E94B00400E011E058
:10021000C8010E94D803C8010E943F02C8016EEFC6
:100220007AEC0E94B002C80161E070E60E949E0272
:10023000C80161E00E94F40181E061E471E041E005
:1002400050E00E949A0580E161E00E94010781E18F
:1002500061E00E940107789482E390E090930801A6
:10026000809307018BE291E00E948D0181E061E0C3
:100270000E94010785E061E00E9401071F910F9134
:10028000089580E091E00E94120308950895089572
:10029000CF93DF93EC01FB0188819981AA81BB8117
:1002A000281739074A075B07A9F1288339834A834E
:1002B0005B8320812223F9F08C81E82FF0E0822FEC
:1002C000992787FD909597FF03C0909581959F4F43
:1002D00064E170E00E94AF07E617F70764F427FDBA
:1002E00003C081E161E009C081E160E00E94400754
:1002F00080E161E006C081E160E00E94400780E1AA
:1003000060E00E9440078C81853018F48F5F8C83F9
:1003100001C01C82DF91CF910895FC01148281E11C
:1003200061E00E94010780E161E00E9401070895F9
:10033000FB0180913601808380913701818308958C
:10034000CF93DF93FB01EA0180913001882319F0FC
:1003500010923001099580913101882321F010928B
:100360003101FE010995DF91CF9108958BE292E072
:1003700008958BE090E090933301809332010895CB
:10038000FF920F931F93CF93DF938C01EB01F42E19
:10039000FC01828160E00E944007CE0123E0969537
:1003A00087952A95E1F780688EBD0DB407FEFDCFD5
:1003B0008EB59E012295220F207E822F80618EBDF8
:1003C0000DB407FEFDCF8EB5FEBC0DB407FEFDCF0C
:1003D0008EB5F801828161E00E944007DF91CF91E4
:1003E0001F910F91FF900895662321F06FE272E054
:1003F00047E003C06FE272E040E00E94C001089550
:10040000462F50E04B50504034E0440F551F3A9572
:10041000E1F7436060E072E00E94C00108950F932D
:100420001F93CF93DF93EC01162F042F8A8160E096
:100430000E944007110F1E7711601EBD0DB407FE0C
:10044000FDCF8EB50EBD0DB407FEFDCF8EB58A81F2
:1004500061E00E944007DF91CF911F910F910895B5
:1004600069E340E00E940F02089569E344E00E94BE
:100470000F02089562E346EF0E940F0208950F9362
:100480001F938C0168E148E90E940F02C8016EE2E7
:1004900045E90E940F02C80160E072E043E00E945B
:1004A000C001C80161E072E041E00E94C001C801E2
:1004B00062E072E040E80E94C001C80166E072E0BC
:1004C00040E90E94C001C80167E072E040E80E9474
:1004D000C001C80168E072E040E10E94C001C801AB
:1004E00060E272E041E20E94C001C8016AE340E8B4
:1004F0000E940F02C8016FE340E60E940F02C8018C
:100500006EE340E40E940F02C8010E943A02C80153
:100510006CE00E940002C80166E344E00E940F0202
:10052000C80166E340E00E940F0261E070E080E0F5
:1005300090E00E946D061F910F910895FF920F9316
:100540001F938C01F62E472F64E00E940F02C80112
:1005500063E04F2D0E940F021F910F91FF900895AD
:10056000FF920F931F938C01F62E472F62E00E949B
:100570000F02C80161E04F2D0E940F021F910F91E1
:10058000FF900895EF92FF921F93CF93DF937C012A
:10059000EB01FC01828160E00E944007CE0143E054
:1005A000969587954A95E1F780688EBD0DB407FE54
:1005B000FDCF8EB59E012295220F207E2EBD0DB45B
:1005C00007FEFDCF8EB51EBC0DB407FEFDCF1EB5D8
:1005D000F701828161E00E944007812FDF91CF9176
:1005E0001F91FF90EF9008951F93CF93DF93EC013D
:1005F000162F8A8160E00E944007110F1E771EBDF2
:100600000DB407FEFDCF8EB51EBC0DB407FEFDCFA9
:100610001EB58A8161E00E944007812FDF91CF9152
:100620001F910895AF92BF92DF92EF92FF920F93C6
:100630001F93CF93DF937C0161E30E94F402A82E05
:1006400083FF5BC0809130018F5F80933001F8940D
:10065000C7010E943502C70160E073E00E94C20238
:10066000D82E80913401882339F0C1E0D3E00D2DDC
:1006700010E00F5F1C4F0EC006E311E0C0E0D0E0B9
:1006800018C0C701BE010E94C202FE01E555F1403B
:1006900080832196C017D107A1F7EECFC65FDC4F4C
:1006A000C701BE010E94C202F80181938F01C950A7
:1006B000D3408091350190E0209132013091330197
:1006C000821B930BC817D9074CF3D09235010D2D1F
:1006D00010E00F5F1C4FC701B8010E94C202809357
:1006E000AA010F5F1F4FC701B8010E94C202809389
:1006F000AB01C7010E9430027894A0FE21C0809116
:1007000031018F5F80933101C70164E20E94F402DE
:10071000282F30E040E0C9018E7F892B09F441E0A9
:1007200080912B02887F56E0359527955A95E1F701
:10073000922F9370990F842B892B877F80932B02A4
:10074000DF91CF911F910F91FF90EF90DF90BF90BD
:10075000AF900895FF920F931F938C0164E00E9465
:10076000F402F82EC80163E00E94F4025F2D40E01D
:10077000282F30E0242B352BC9011F910F91FF90BA
:100780000895FF920F931F938C0162E00E94F40280
:10079000F82EC80161E00E94F4025F2D40E0282F8E
:1007A00030E0242B352BC9011F910F91FF90089544
:1007B0000F931F938C01FC01808160E00E94400731
:1007C0006AE070E080E090E00E946D06F8018081B0
:1007D00061E00E94400764E170E080E090E00E94E8
:1007E0006D061F910F9108950F931F938C01862F13
:1007F000F80160837183538342833583248361E0EE
:100800000E940107F801828161E00E940107F8015E
:10081000848160E00E94010781E00E94750580E00C
:100820000E947E050E9483051F910F910895FC018F
:1008300080912C028C3090F480838F5F80932C0207
:10084000815090E0FC01EE0FFF1FE80FF91FE35D00
:10085000FD4F88EB9BE09283818308958FEF808327
:100860000895CF92DF92EF92FF921F93CF93DF9381
:10087000EC01162F7A01690188818C3008F064C080
:10088000862F61E00E940107888190E0FC01EE0F55
:10089000FF1FE80FF91FE35DFD4F1F738081807C10
:1008A000812B808380E292E08E199F0964E070E0E2
:1008B0000E94AF07698380E699E08C199D0964E086
:1008C00070E00E94AF076A83A8818A2F6CE00E94C3
:1008D000A307682F70E0AB01440F551F460F571F49
:1008E000440F551F440F551F20E030E0C901840F0D
:1008F000951FFC01EE0FFF1FE80FF91FE35DFD4F91
:10090000808186FD15C02F5F3F4F2C30310571F778
:1009100024C01092800082E08093810010928500B4
:1009200010928400B19A80916F00826080936F0072
:100930008A2F90E0FC01EE0FFF1FE80FF91FE35D27
:10094000FD4F8081806480838881DF91CF911F91EA
:10095000FF90EF90DF90CF900895672BD1F2E8CF12
:1009600040E252E020E639E00E94310408951F92EF
:100970000F920FB60F9211242F933F934F935F93D3
:100980006F937F938F939F93AF93BF93EF93FF9357
:100990008091510287FF05C010928500109284005B
:1009A0002BC020915102332727FD309580912C02D6
:1009B00090E02817390704F580915102992787FDA7
:1009C0009095FC01EE0FFF1FE80FF91FE35DFD4F4F
:1009D000808186FF11C080915102992787FD9095F3
:1009E000FC01EE0FFF1FE80FF91FE35DFD4F808153
:1009F0008F7360E00E944007809151028F5F809367
:100A0000510220915102332727FD309580912C020D
:100A100090E0281739070CF04EC0809151028C30BD
:100A20000CF049C0209184003091850080915102E2
:100A3000992787FD9095FC01EE0FFF1FE80FF91F26
:100A4000E35DFD4F81819281280F391F309389002A
:100A50002093880080915102992787FD9095FC0191
:100A6000EE0FFF1FE80FF91FE35DFD4F808186FF4A
:100A70002BC080915102992787FD9095FC01EE0FC4
:100A8000FF1FE80FF91FE35DFD4F80818F7361E069
:100A90000E94400719C080E49CE905C08091840051
:100AA00090918500049690938900809388008FEF41
:100AB0008093510209C08091840090918500049632
:100AC00080549C4940F3EACFFF91EF91BF91AF91E1
:100AD0009F918F917F916F915F914F913F912F9156
:100AE0000F900FBE0F901F901895882319F48CB5A6
:100AF000806202C08CB58F7D8CBD08959CB5937FBC
:100B0000982B9CBD08958AE061E00E9440078AE02E
:100B100061E00E9401078CB580618CBD8CB580645A
:100B20008CBD8DE061E00E9401078BE061E00E94D6
:100B300001070895823000F5E82FF0E0EE0FFF1F67
:100B4000EE5AFD4F71836083882319F08130A1F440
:100B500008C0809169008C7F842B80936900E89A9B
:100B6000089580916900440F551F440F551F837FDE
:100B7000842B80936900E99A08951F920F920FB613
:100B80000F9211242F933F934F935F936F937F9313
:100B90008F939F93AF93BF93EF93FF9380915202F4
:100BA00090915302892B29F0E0915202F091530267
:100BB0000995FF91EF91BF91AF919F918F917F9197
:100BC0006F915F914F913F912F910F900FBE0F90BA
:100BD0001F9018951F920F920FB60F9211242F930A
:100BE0003F934F935F936F937F938F939F93AF93B5
:100BF000BF93EF93FF938091540290915502892BFC
:100C000029F0E0915402F09155020995FF91EF917E
:100C1000BF91AF919F918F917F916F915F914F9114
:100C20003F912F910F900FBE0F901F9018951F921C
:100C30000F920FB60F9211242F933F938F939F9390
:100C4000AF93BF9380915A0290915B02A0915C0296
:100C5000B0915D0230915E020196A11DB11D232F5E
:100C60002D5F2D3720F02D570196A11DB11D20932A
:100C70005E0280935A0290935B02A0935C02B09351
:100C80005D028091560290915702A0915802B09156
:100C900059020196A11DB11D8093560290935702EF
:100CA000A0935802B0935902BF91AF919F918F9139
:100CB0003F912F910F900FBE0F901F9018958FB7F7
:100CC000F89420915A0230915B0240915C0250915D
:100CD0005D028FBFB901CA0108959B01AC017FB7C6
:100CE000F8948091560290915702A0915802B091C9
:100CF000590266B5A89B05C06F3F19F00196A11D6A
:100D0000B11D7FBFBA2FA92F982F8827860F911D5D
:100D1000A11DB11D62E0880F991FAA1FBB1F6A9514
:100D2000D1F7BC012DC0FFB7F89480915602909185
:100D30005702A0915802B0915902E6B5A89B05C090
:100D4000EF3F19F00196A11DB11DFFBFBA2FA92FCA
:100D5000982F88278E0F911DA11DB11DE2E0880FED
:100D6000991FAA1FBB1FEA95D1F7861B970B885EB8
:100D70009340C8F2215030404040504068517C4F71
:100D8000211531054105510571F60895789484B512
:100D9000826084BD84B5816084BD85B5826085BD77
:100DA00085B5816085BDEEE6F0E08081816080835D
:100DB000E1E8F0E010828081826080838081816040
:100DC0008083E0E8F0E0808181608083E1EBF0E007
:100DD000808184608083E0EBF0E0808181608083AB
:100DE000EAE7F0E080818460808380818260808394
:100DF0008081816080838081806880831092C100BF
:100E00000895CF93DF93482F50E0CA0186569F4F35
:100E1000FC0134914A575F4FFA018491882369F1AC
:100E200090E0880F991FFC01E859FF4FA591B491FC
:100E3000FC01EE58FF4FC591D491662351F42FB7B2
:100E4000F8948C91932F909589238C938881892392
:100E50000BC0623061F42FB7F8948C91932F90956A
:100E600089238C938881832B88832FBF06C09FB7EB
:100E7000F8948C91832B8C939FBFDF91CF91089531
:100E8000482F50E0CA0182559F4FFC012491CA01AE
:100E900086569F4FFC0194914A575F4FFA01349157
:100EA000332309F440C0222351F1233071F0243060
:100EB00028F42130A1F0223011F514C02630B1F011
:100EC0002730C1F02430D9F404C0809180008F779E
:100ED00003C0809180008F7D8093800010C084B516
:100EE0008F7702C084B58F7D84BD09C08091B0002A
:100EF0008F7703C08091B0008F7D8093B000E32F87
:100F0000F0E0EE0FFF1FEE58FF4FA591B4912FB701
:100F1000F894662321F48C919095892302C08C91DA
:100F2000892B8C932FBF0895CF93DF930E94C60621
:100F30000E94F800C0E0D0E00E94BD002097E1F3DD
:100F40000E940000F9CF991B79E004C0991F961701
:100F500008F0961B881F7A95C9F78095089597FB2E
:100F6000092E07260AD077FD04D00CD006D0002029
:100F70001AF4709561957F4F0895F6F790958195D5
:100F80009F4F0895AA1BBB1B51E107C0AA1FBB1F9F
:100F9000A617B70710F0A61BB70B881F991F5A9505
:100FA000A9F780959095BC01CD010895EE0FFF1F24
:100FB0000590F491E02D099410E0C8ECD0E004C055
:100FC000FE010E94D8072296CA3CD107C9F7F894BF
:020FD000FFCF51
:00000001FF
