:100000000C9465000C94E5060C9412070C948D007A
:100010000C948D000C948D000C948D000C948D002C
:100020000C948D000C948D000C948D000C940C029B
:100030000C948D000C948D000C948D000C948D000C
:100040000C943F070C948D000C948D000C948D0043
:100050000C948D000C948D000C948D000C948D00EC
:100060000C948D000C948D000000000024002700EB
:100070002A0000000000250028002B0000000000DE
:1000800023002600290004040404040404040202DA
:100090000202020203030303030301020408102007
:1000A0004080010204081020010204081020000012
:1000B0000007000201000003040600000000000029
:1000C00000009100EF025F03F00211241FBECFEF8A
:1000D000D8E0DEBFCDBF11E0A0E0B1E0EAE3F2E19D
:1000E00002C005900D92A030B107D9F712E0A0E050
:1000F000B1E001C01D92A836B107E1F710E0C8ECED
:10010000D0E004C02297FE010E940C09C23CD10736
:10011000C9F70E94C8080C9410090C9400000895B7
:10012000089580E091E064E070E049E050E023E071
:1001300030E00E949F0683E291E00E946C0186E21B
:1001400091E00E946C0108950E94930760932A0138
:1001500070932B0180932C0190932D0180E091E00E
:100160006FE870E040E950E00E94490380912A0165
:1001700090912B01A0912C01B0912D0120912E0185
:1001800030912F014091300150913101821B930B2E
:10019000A40BB50BC397A105B105E8F180E091E090
:1001A0000E94B70480E091E061E271E00E944103A7
:1001B00080912A0190912B01A0912C01B0912D01E9
:1001C00080932E0190932F01A0933001B0933101C1
:1001D00086E580931F0180E091E060E070E64BE1EE
:1001E0000E94280680E091E066E071E00E94A90389
:1001F00080E091E00E94800480912901882329F009
:100200001092290181E060E004C081E0809329011F
:1002100061E00E94740820912A0130912B014091E5
:100220002C0150912D0188E591E061E271E00E947E
:10023000F10208950F931F9383E291E065E070E06F
:100240000E94050286E291E066E070E00E940502ED
:1002500000E011E0C8010E948306C8010E94FA0371
:10026000C8016EEF7AEC0E946E04C80161E070E68E
:100270000E945C04C80161E00E94F003C80161E0D3
:100280000E94380581E067E671E041E050E00E949D
:10029000C20680E161E00E94350881E161E00E94D0
:1002A0003508789482E390E09093080180930701E9
:1002B00088E591E00E94360381E061E00E94350804
:1002C00085E061E00E9435081F910F91089580E05C
:1002D00091E00E945D050895FC01809132018C300F
:1002E00090F480838F5F80933201815090E0FC0115
:1002F000EE0FFF1FE80FF91FED5CFE4F8CED95E050
:100300009283818308958FEF80830895CF92DF9247
:10031000EF92FF921F93CF93DF93EC01162F7A0198
:10032000690188818C3008F064C0862F61E00E94EA
:100330003508888190E0FC01EE0FFF1FE80FF91FE0
:10034000ED5CFE4F1F738081807C812B808380E277
:1003500092E08E199F0964E070E00E94E3086983CF
:1003600080E699E08C199D0964E070E00E94E30842
:100370006A83A8818A2F6CE00E94D708682F70E0FA
:10038000AB01440F551F460F571F440F551F440F15
:10039000551F20E030E0C901840F951FFC01EE0FCE
:1003A000FF1FE80FF91FED5CFE4F808186FD15C031
:1003B0002F5F3F4F2C30310571F724C01092800021
:1003C00082E0809381001092850010928400B19A9F
:1003D00080916F00826080936F008A2F90E0FC0113
:1003E000EE0FFF1FE80FF91FED5CFE4F8081806468
:1003F00080838881DF91CF911F91FF90EF90DF90F4
:10040000CF900895672BD1F2E8CF40E252E020E68A
:1004100039E00E94860108951F920F920FB60F9245
:1004200011242F933F934F935F936F937F938F93F9
:100430009F93AF93BF93EF93FF938091570187FFF3
:1004400005C010928500109284002BC020915701A6
:10045000332727FD30958091320190E02817390726
:1004600004F580915701992787FD9095FC01EE0FC7
:10047000FF1FE80FF91FED5CFE4F808186FF11C062
:1004800080915701992787FD9095FC01EE0FFF1F82
:10049000E80FF91FED5CFE4F80818F7360E00E94D2
:1004A0007408809157018F5F809357012091570105
:1004B000332727FD30958091320190E028173907C6
:1004C0000CF04EC0809157018C300CF049C0209147
:1004D00084003091850080915701992787FD909580
:1004E000FC01EE0FFF1FE80FF91FED5CFE4F81814D
:1004F0009281280F391F30938900209388008091C2
:100500005701992787FD9095FC01EE0FFF1FE80F1B
:10051000F91FED5CFE4F808186FF2BC08091570153
:10052000992787FD9095FC01EE0FFF1FE80FF91F3B
:10053000ED5CFE4F80818F7361E00E94740819C0EA
:1005400080E29EE405C0809184009091850004962D
:1005500090938900809388008FEF8093570109C0A2
:100560008091840090918500049680529E4440F3CF
:10057000EACFFF91EF91BF91AF919F918F917F91C2
:100580006F915F914F913F912F910F900FBE0F9000
:100590001F901895882319F48CB5806202C08CB521
:1005A0008F7D8CBD08959CB5937F982B9CBD08953D
:1005B0008AE061E00E9474088AE061E00E943508E8
:1005C0008CB580618CBD8CB580648CBD8DE061E0A4
:1005D0000E9435088BE061E00E9435080895089577
:1005E0000895CF93DF93EC01FB0188819981AA8163
:1005F000BB81281739074A075B07A9F1288339838C
:100600004A835B8320812223F9F08C81E82FF0E07C
:10061000822F992787FD909597FF03C0909581952C
:100620009F4F64E170E00E94E308E617F70764F467
:1006300027FD03C081E161E009C081E160E00E9423
:10064000740880E161E006C081E160E00E94740806
:1006500080E160E00E9474088C81853018F48F5F1F
:100660008C8301C01C82DF91CF910895FC0114821C
:1006700081E161E00E94350880E161E00E94350877
:100680000895FB01809165018083809166018183DB
:100690000895CF93DF93FB01EA0180915D018823E8
:1006A00019F010925D01099580915E01882321F077
:1006B00010925E01FE010995DF91CF9108958BE0C4
:1006C00090E09093600180935F010895FF920F93F3
:1006D0001F93CF93DF938C01EB01F42EFC018281F9
:1006E00060E00E947408CE0123E0969587952A95D4
:1006F000E1F780688EBD0DB407FEFDCF8EB59E017B
:100700002295220F207E822F80618EBD0DB407FEC0
:10071000FDCF8EB5FEBC0DB407FEFDCF8EB5F80142
:10072000828161E00E947408DF91CF911F910F9147
:10073000FF900895462F50E04B50504034E0440F56
:10074000551F3A95E1F7436060E072E00E9466034E
:100750000895EF92FF920F931F93CF93DF937C0145
:100760008B01CBE0D0E0C701BE01F80141918F01C0
:100770000E9466032196C632D105A9F7DF91CF9179
:100780001F910F91FF90EF9008950F931F93CF93B8
:10079000DF93EC01162F042F8A8160E00E94740819
:1007A000110F1E7711601EBD0DB407FEFDCF8EB573
:1007B0000EBD0DB407FEFDCF8EB58A8161E00E94AB
:1007C0007408DF91CF911F910F91089569E340E084
:1007D0000E94C503089569E344E00E94C50308959B
:1007E000662319F060E041E002C060E040E00E9452
:1007F000C50308950F931F938C0168E148E90E9497
:10080000C503C8016EE245E90E94C503C80160E066
:1008100072E043E00E946603C80161E072E041E0DB
:100820000E946603C80162E072E040E80E9466032D
:10083000C80163E072E048E20E946603C80166E016
:1008400072E040E90E946603C80167E072E040E898
:100850000E946603C80168E072E040E10E946603FE
:10086000C80160E272E041E20E946603C8016AE3E7
:1008700040E80E94C503C8016FE340E60E94C5033B
:10088000C8016EE340E40E94C503C8016CE00E9409
:100890009A03C80166E344E00E94C503C80166E309
:1008A00040E00E94C50361E070E080E090E00E94BB
:1008B000A1071F910F910895FF920F931F938C0131
:1008C000F62E472F64E00E94C503C80163E04F2D58
:1008D0000E94C5031F910F91FF900895FF920F93FF
:1008E0001F938C01F62E472F62E00E94C503C801BA
:1008F00061E04F2D0E94C5031F910F91FF90089555
:100900006BE145E00E94C5030895EF92FF921F93AB
:10091000CF93DF937C01EB01FC01828160E00E94B8
:100920007408CE0143E0969587954A95E1F7806873
:100930008EBD0DB407FEFDCF8EB59E012295220F10
:10094000207E2EBD0DB407FEFDCF8EB51EBC0DB4AE
:1009500007FEFDCF1EB5F701828161E00E94740899
:10096000812FDF91CF911F91FF90EF900895DF923B
:10097000EF92FF920F931F93CF93DF937C010E941E
:10098000EB03C70160E073E00E948504D82E8091DC
:100990006101882339F0C1E0D3E00D2D10E00F5F35
:1009A0001C4F0EC005E611E0C0E0D0E018C0C70142
:1009B000BE010E948504FE01E652F140808321962B
:1009C000C017D107A1F7EECFC65FDC4FC701BE014C
:1009D0000E948504F80181938F01C950D340809112
:1009E000640190E020915F0130916001821B930BC4
:1009F000C817D9074CF3D09264010D2D10E00F5F9A
:100A00001C4FC701B8010E9485048093D9010F5F74
:100A10001F4FC701B8010E9485048093DA01C70106
:100A20000E94E603DF91CF911F910F91FF90EF900D
:100A3000DF9008951F93CF93DF93EC01162F8A81E7
:100A400060E00E947408110F1E771EBD0DB407FEF2
:100A5000FDCF8EB51EBC0DB407FEFDCF1EB58A813D
:100A600061E00E947408812FDF91CF911F9108955A
:100A7000CF93DF93EC016623C1F064E30E941A0573
:100A8000482F4860CE0164E30E94C503CE0163E3B2
:100A90000E941A05482F4860CE0163E30E94C503F7
:100AA000CE016FE272E047E003C06FE272E040E027
:100AB0000E946603DF91CF910895AF92BF92DF92BB
:100AC000EF92FF920F931F93CF93DF937C0161E32B
:100AD0000E941A05A82E83FF5BC080915D018F5F85
:100AE00080935D01F894C7010E94EB03C70160E0A9
:100AF00073E00E948504D82E80916101882339F02B
:100B0000C1E0D3E00D2D10E00F5F1C4F0EC005E6D5
:100B100011E0C0E0D0E018C0C701BE010E9485040A
:100B2000FE01E652F14080832196C017D107A1F75C
:100B3000EECFC65FDC4FC701BE010E948504F801FD
:100B400081938F01C950D3408091640190E020913E
:100B50005F0130916001821B930BC817D9074CF3DA
:100B6000D09264010D2D10E00F5F1C4FC701B8013A
:100B70000E9485048093D9010F5F1F4FC701B80100
:100B80000E9485048093DA01C7010E94E6037894ED
:100B9000A0FE21C080915E018F5F80935E01C7013E
:100BA00064E20E941A05282F30E040E0C9018E7FE0
:100BB000892B09F441E080915A02887F56E03595EF
:100BC00027955A95E1F7922F9370990F842B892BD3
:100BD000877F80935A02C70161E340E00E94C5030A
:100BE000DF91CF911F910F91FF90EF90DF90BF9019
:100BF000AF900895FF920F931F938C0164E00E94C1
:100C00001A05F82EC80163E00E941A055F2D40E026
:100C1000282F30E0242B352BC9011F910F91FF9015
:100C20000895FF920F931F938C0162E00E941A05B2
:100C3000F82EC80161E00E941A055F2D40E0282FC0
:100C400030E0242B352BC9011F910F91FF9008959F
:100C5000DF92EF92FF920F931F938C01E62ED72E17
:100C6000F42E60E070E049E00E946603409162016A
:100C7000475F4F0DC80161E070E00E946603C80144
:100C800062E070E041E60E946603C80163E070E044
:100C900048E80E946603C80164E070E041E00E94F9
:100CA0006603C8010E941106482FF92EC80165E0AD
:100CB00070E00E946603C80166E070E04F2D0E945C
:100CC0006603C80167E070E04E2D0E946603C8010C
:100CD00068E070E04D2D0E946603C8010E94FA058D
:100CE000482FF92EC80169E070E00E946603C80130
:100CF0006AE070E04F2D0E9466031F910F91FF90F4
:100D0000EF90DF9008950F931F938C01FC01808179
:100D100060E00E9474086AE070E080E090E00E9469
:100D2000A107F801808161E00E94740864E170E02D
:100D300080E090E00E94A1071F910F9108950F930A
:100D40001F938C01862FF801608371835383428344
:100D50003583248361E00E943508F801828161E0D7
:100D60000E943508F801848160E00E94350881E026
:100D70000E94CA0280E00E94D3020E94D8021F9102
:100D80000F910895823000F5E82FF0E0EE0FFF1F7D
:100D9000E55AFD4F71836083882319F08130A1F4F7
:100DA00008C0809169008C7F842B80936900E89A49
:100DB000089580916900440F551F440F551F837F8C
:100DC000842B80936900E99A08951F920F920FB6C1
:100DD0000F9211242F933F934F935F936F937F93C1
:100DE0008F939F93AF93BF93EF93FF9380915B0299
:100DF00090915C02892B29F0E0915B02F0915C02FA
:100E00000995FF91EF91BF91AF919F918F917F9144
:100E10006F915F914F913F912F910F900FBE0F9067
:100E20001F9018951F920F920FB60F9211242F93B7
:100E30003F934F935F936F937F938F939F93AF9362
:100E4000BF93EF93FF9380915D0290915E02892B97
:100E500029F0E0915D02F0915E020995FF91EF911A
:100E6000BF91AF919F918F917F916F915F914F91C2
:100E70003F912F910F900FBE0F901F9018951F92CA
:100E80000F920FB60F9211242F933F934F935F93BE
:100E90006F937F938F939F93AF93BF932091630240
:100EA0003091640240916502509166027091670230
:100EB000DA01C9010296A11DB11D672F6A5F6D3766
:100EC00030F06D57DA01C9010396A11DB11D609381
:100ED00067028093630290936402A0936502B093CB
:100EE000660280915F0290916002A0916102B091D0
:100EF00062020196A11DB11D80935F029093600272
:100F0000A0936102B0936202BF91AF919F918F91C4
:100F10007F916F915F914F913F912F910F900FBEF5
:100F20000F901F9018958FB7F8942091630230911D
:100F3000640240916502509166028FBFB901CA01F7
:100F400008959B01AC017FB7F89480915F02909166
:100F50006002A0916102B091620266B5A89B05C0D3
:100F60006F3F19F00196A11DB11D7FBFBA2FA92FA8
:100F7000982F8827860F911DA11DB11D63E0880F52
:100F8000991FAA1FBB1F6A95D1F7BC012DC0FFB7DF
:100F9000F89480915F0290916002A0916102B091FB
:100FA0006202E6B5A89B05C0EF3F19F00196A11DAE
:100FB000B11DFFBFBA2FA92F982F88278E0F911D23
:100FC000A11DB11DE3E0880F991FAA1FBB1FEA9561
:100FD000D1F7861B970B885E9340C8F221503040B2
:100FE0004040504068517C4F211531054105510565
:100FF00071F60895789484B5826084BD84B581606B
:1010000084BD85B5826085BD85B5816085BDEEE610
:10101000F0E0808181608083E1E8F0E010828081EF
:1010200082608083808181608083E0E8F0E080815D
:1010300081608083E1EBF0E0808184608083E0EB7D
:10104000F0E0808181608083EAE7F0E08081846065
:1010500080838081826080838081816080838081C1
:10106000806880831092C1000895CF93DF93482F4A
:1010700050E0CA0186569F4FFC0134914A575F4F9A
:10108000FA018491882369F190E0880F991FFC018F
:10109000E859FF4FA591B491FC01EE58FF4FC5915F
:1010A000D491662351F42FB7F8948C91932F909597
:1010B00089238C93888189230BC0623061F42FB718
:1010C000F8948C91932F909589238C938881832B0E
:1010D00088832FBF06C09FB7F8948C91832B8C9385
:1010E0009FBFDF91CF910895482F50E0CA018255EC
:1010F0009F4FFC012491CA0186569F4FFC01949199
:101100004A575F4FFA013491332309F440C0222338
:1011100051F1233071F0243028F42130A1F0223035
:1011200011F514C02630B1F02730C1F02430D9F4C5
:1011300004C0809180008F7703C0809180008F7DF4
:101140008093800010C084B58F7702C084B58F7DF6
:1011500084BD09C08091B0008F7703C08091B0003A
:101160008F7D8093B000E32FF0E0EE0FFF1FEE586D
:10117000FF4FA591B4912FB7F894662321F48C9179
:101180009095892302C08C91892B8C932FBF089551
:10119000CF93DF930E94FA070E941A01C0E0D0E0CB
:1011A0000E94A4002097E1F30E940000F9CF991B50
:1011B00079E004C0991F961708F0961B881F7A954E
:1011C000C9F78095089597FB092E07260AD077FD69
:1011D00004D00CD006D000201AF4709561957F4F92
:1011E0000895F6F7909581959F4F0895AA1BBB1B14
:1011F00051E107C0AA1FBB1FA617B70710F0A61B17
:10120000B70B881F991F5A95A9F780959095BC0137
:10121000CD010895EE0FFF1F0590F491E02D099484
:1012200010E0C8ECD0E004C0FE010E940C09229638
:0A123000CA3CD107C9F7F894FFCFBC
:00000001FF
