S011000050726F786944656D6F2E737265637C
S11300000EC01DC01CC01BC01AC019C018C017C028
S11300103BC015C014C013C012C011C010C01124BD
S11300201FBECFE5D2E0DEBFCDBF20E0A0E6B0E04A
S113003001C01D92A436B207E1F702D07FC0E0CF21
S1130040A39ABA9ABC9AC49A83E087B9379A339A26
S1130050329A7894369AFFCF0F931F9300E010E002
S11300609801061717072807390759F0E9EFF0E058
S11300703197F1F700C000000F5F1F4F2F4F3F4F24
S1130080F0CF1F910F9108951F920F920FB60F9208
S113009011242F933F934F935F936F937F938F9389
S11300A09F93AF93BF93CF93EF93FF93F89484B14F
S11300B025B190E0922B20916300222341F0C49A51
S11300C090936200809361001092630023C0C498EF
S11300D02091610030916200821B930B8B3091055B
S11300E030F020916000222311F0C29A01C0C2981E
S11300F0C1E0C0936300843B910550F464EB70E06D
S1130100681B790B80E090E0A7DF80916000C8272E
S1130110C0936000369A7894FF91EF91CF91BF918C
S1130120AF919F918F917F916F915F914F913F918B
S11301302F910F900FBE0F901F901895F894FFCF3A
S9030000FC
