:1000000002C100002CC100002AC1000028C100006C
:1000100026C1000024C1000022C1000020C1000050
:100020001EC100001CC100001AC1000018C1000060
:1000300016C1000014C1000012C1000010C1000070
:100040000EC100000CC100000AC1000008C1000080
:1000500006C1000004C1000002C100003FC1000051
:10006000FEC0000024C3000066C40000F8C0000009
:10007000F6C00000F4C00000F2C00000F0C00000B4
:10008000EEC00000ECC00000EAC00000E8C00000C4
:100090004EC300008FC40000E2C00000E0C00000BA
:1000A000DEC00000DCC00000DAC00000D8C00000E4
:1000B000D6C00000D4C00000D2C00000D0C00000F4
:1000C000CEC00000CCC00000CAC0000070C3000059
:1000D000B0C40000C4C00000AAC30000E9C400000E
:1000E000BEC0000000002100240027002A002D00CF
:1000F0003000330001010000040107010A01000083
:100100002200250028002B002E00310034000201BF
:100110000000050108010B0100002000230026005B
:1001200029002C002F00320000010000030106010D
:10013000090105050505070508080808020202026D
:100140000A0A080804040404010101010101010173
:100150000303030303030303040707070C0C0C0C3E
:100160000C0C0C0C02020202060606060606060627
:100170000B0B0B0B0B0B0B0B0102102020080810B4
:100180002040102040800201020108040201010207
:1001900004081020408080402010080402018004E0
:1001A000020180402010080402010804020101023B
:1001B0000408102040800102040810204080000044
:1001C000090A02080B0C0D070603040100000000D9
:1001D000000000000000000000000000000000001F
:1001E0000000000000000000000011100F000000DF
:1001F00000000000000000000000000000000000FF
:1002000000000000C70611241FBECFEFD1E2DEBF01
:10021000CDBF00E00CBF12E0A0E0B2E0ECE0F3E103
:1002200000E00BBF02C007900D92AA32B107D9F7C8
:100230001BBE14E0AAE2B2E001C01D92AB3DB107C3
:10024000E1F712E0C6E0D2E004C02297FE010E946E
:100250008009C430D107C9F7D0D60C948409D0CE18
:100260001F9383E594E060E072E0F6D78DEC8EBDDD
:100270000DB407FEFDCF8EB51EBC0DB407FEFDCF3D
:100280001EB583E594E06FE072E0E4D783E594E087
:10029000612F70E04AE050E0C0D764EF71E080E089
:1002A00090E064D01F91089583E594E040E855E222
:1002B00060E070E03CD400C085E361E0C5D185E337
:1002C00061E00FD18CB580618CBD8CB580648CBD34
:1002D00084E361E006D183E361E003C11F920F92E2
:1002E0000FB60F9211242F933F938F939F93AF9349
:1002F000BF9380912E0290912F02A0913002B09175
:100300003102309132020196A11DB11D232F2D5FC4
:100310002D3720F02D570196A11DB11D20933202DB
:1003200080932E0290932F02A0933002B09331025B
:1003300080912A0290912B02A0912C02B0912D0263
:100340000196A11DB11D80932A0290932B02A093C8
:100350002C02B0932D02BF91AF919F918F913F914D
:100360002F910F900FBE0F901F9018959B01AC011D
:100370007FB7F89480912A0290912B02A0912C02D1
:10038000B0912D0266B5A89B05C06F3F19F001968C
:10039000A11DB11D7FBFBA2FA92F982F8827860FC7
:1003A000911DA11DB11D62E0880F991FAA1FBB1FDF
:1003B0006A95D1F7BC012DC0FFB7F89480912A024D
:1003C00090912B02A0912C02B0912D02E6B5A89B32
:1003D00005C0EF3F19F00196A11DB11DFFBFBA2F57
:1003E000A92F982F88278E0F911DA11DB11DE2E026
:1003F000880F991FAA1FBB1FEA95D1F7861B970B81
:10040000885E9340C8F221503040404050406851CF
:100410007C4F211531054105510571F608957894F9
:1004200084B5826084BD84B5816084BD85B58260F9
:1004300085BD85B5816085BDEEE6F0E08081816097
:100440008083E1E8F0E01082808182608083808197
:1004500081608083E0E8F0E0808181608083E1EB6F
:10046000F0E0808184608083E0EBF0E08081816057
:100470008083E1E9F0E08081826080838081816017
:100480008083E0E9F0E0808181608083E1EAF0E050
:10049000808182608083808181608083E0EAF0E0F7
:1004A000808181608083E1E2F1E0808182608083ED
:1004B000808181608083E0E2F1E0808181608083DF
:1004C000EAE7F0E0808184608083808182608083BD
:1004D0008081816080838081806880831092C100E8
:1004E0000895CF93DF93482F50E0CA0188589E4F5C
:1004F000FC0134914E5C5E4FFA018491882369F1CE
:1005000090E0880F991FFC01EC51FF4FA591B49129
:10051000FC01E250FF4FC591D491662351F42FB7EF
:10052000F8948C91932F909589238C9388818923BB
:100530000BC0623061F42FB7F8948C91932F909593
:1005400089238C938881832B88832FBF06C09FB714
:10055000F8948C91832B8C939FBFDF91CF9108955A
:10056000893009F449C08A30A0F4843051F18530D3
:1005700040F4823079F1833000F5813009F063C0B6
:1005800026C0873079F1883098F5863009F05BC055
:1005900025C08D3009F442C08E3028F48B30B1F183
:1005A0008C30C0F52DC0803109F442C0813109F48E
:1005B00045C08F3009F047C037C0809180008F77E9
:1005C00003C0809180008F7D80938000089584B562
:1005D0008F7702C084B58F7D84BD08958091B0006F
:1005E0008F7703C08091B0008F7D8093B000089515
:1005F000809190008F7707C0809190008F7D03C01D
:1006000080919000877F8093900008958091A00052
:100610008F7707C08091A0008F7D03C08091A000DC
:10062000877F8093A0000895809120018F7703C079
:10063000809120018F7D8093200108958091200179
:10064000877F809320010895FF920F931F93F62ECA
:10065000482F50E0CA0182549E4FFC012491CA01E8
:1006600088589E4FFC0114914E5C5E4FFA01049134
:100670000023C1F0222311F0822F72DFE02FF0E07F
:10068000EE0FFF1FE250FF4FA591B4919FB7F89472
:10069000FF2021F48C911095812302C08C91812B35
:1006A0008C939FBF1F910F91FF90089508951F9203
:1006B0000F920FB60F920BB60F9211242F933F9308
:1006C0004F938F939F93EF93FF938091C00082FD90
:1006D0001DC04091C60020917302309174022F5FBB
:1006E0003F4F2F73307080917502909176022817DA
:1006F000390771F0E0917302F0917402ED5CFD4FE7
:100700004083309374022093730202C08091C6002C
:10071000FF91EF919F918F914F913F912F910F906A
:100720000BBE0F900FBE0F901F90189508951F924B
:100730000F920FB60F920BB60F9211242F933F9387
:100740004F938F939F93EF93FF938091C80082FD07
:100750001DC04091CE002091FB023091FC022F5F22
:100760003F4F2F7330708091FD029091FE02281749
:10077000390771F0E091FB02F091FC02E554FD4F66
:1007800040833093FC022093FB0202C08091CE0094
:10079000FF91EF919F918F914F913F912F910F90EA
:1007A0000BBE0F900FBE0F901F90189508951F92CB
:1007B0000F920FB60F920BB60F9211242F933F9307
:1007C0004F938F939F93EF93FF938091D00082FD7F
:1007D0001DC04091D60020918303309184032F5F88
:1007E0003F4F2F73307080918503909186032817B7
:1007F000390771F0E0918303F0918403ED5BFC4FC6
:100800004083309384032093830302C08091D600F9
:10081000FF91EF919F918F914F913F912F910F9069
:100820000BBE0F900FBE0F901F90189508951F924A
:100830000F920FB60F920BB60F9211242F933F9386
:100840004F938F939F93EF93FF938091300182FD9D
:100850001DC04091360120910B0430910C042F5F94
:100860003F4F2F73307080910D0490910E04281724
:10087000390771F0E0910B04F0910C04E553FC4F43
:10088000408330930C0420930B0402C08091360106
:10089000FF91EF919F918F914F913F912F910F90E9
:1008A0000BBE0F900FBE0F901F901895E0915F0444
:1008B000F0916004E05CFF4F819191912081318142
:1008C000821B930B8F739070892B09F0EFDEE09100
:1008D0008104F0918204E05CFF4F8191919120812D
:1008E0003181821B930B8F739070892B09F01EDF6F
:1008F000E091A304F091A404E05CFF4F81919191F9
:1009000020813181821B930B8F739070892B09F0AA
:100910004DDFE091C504F091C604E05CFF4F81918A
:10092000919120813181821B930B8F739070892B61
:1009300009F07CCF08951F920F920FB60F920BB65D
:100940000F9211242F933F938F939F93EF93FF93D5
:100950002091B7023091B8028091B9029091BA0209
:100960002817390731F48091C1008F7D8093C10031
:1009700014C0E091B902F091BA02E958FD4F20810C
:100980008091B9029091BA0201968F739070909302
:10099000BA028093B9022093C600FF91EF919F9114
:1009A0008F913F912F910F900BBE0F900FBE0F9024
:1009B0001F9018951F920F920FB60F920BB60F92C1
:1009C00011242F933F938F939F93EF93FF93209145
:1009D0003F033091400380914103909142032817D7
:1009E000390731F48091C9008F7D8093C90014C00C
:1009F000E0914103F0914203E150FD4F208180914D
:100A000041039091420301968F739070909342033B
:100A1000809341032093CE00FF91EF919F918F919E
:100A20003F912F910F900BBE0F900FBE0F901F9014
:100A300018951F920F920FB60F920BB60F921124BA
:100A40002F933F938F939F93EF93FF932091C7032F
:100A50003091C8038091C9039091CA0328173907C0
:100A600031F48091D1008F7D8093D10014C0E0914A
:100A7000C903F091CA03E957FC4F20818091C90353
:100A80009091CA0301968F7390709093CA038093DC
:100A9000C9032093D600FF91EF919F918F913F91D1
:100AA0002F910F900BBE0F900FBE0F901F901895B7
:100AB0001F920F920FB60F920BB60F9211242F9325
:100AC0003F938F939F93EF93FF9320914F04309127
:100AD000500480915104909152042817390731F441
:100AE000809131018F7D8093310114C0E0915104D8
:100AF000F0915204E15FFB4F20818091510490916D
:100B0000520401968F739070909352048093510415
:100B100020933601FF91EF919F918F913F912F91FB
:100B20000F900BBE0F900FBE0F901F901895AF92B5
:100B3000BF92DF92EF92FF920F931F93CF93DF93B9
:100B4000EC017A018B01DD24403081EE580780E012
:100B5000680780E0780711F0DD24D39491E0A92E96
:100B6000B12CEC89FD89DD2069F0C50108A002C027
:100B7000880F991F0A94E2F7808360E079E08DE3A3
:100B800090E005C0108260E874E88EE190E0A80172
:100B9000970192D3215030404040504056954795A0
:100BA0003795279580E12030380720F0DD2011F0BF
:100BB000DD24D7CFE889F9893083EA89FB8920834E
:100BC00019A2EE89FF89408121E030E0C9010C8C37
:100BD00002C0880F991F0A94E2F7482B4083EE89E0
:100BE000FF894081C9010D8C02C0880F991F0A94AA
:100BF000E2F7482B4083EE89FF894081C9010E8CC2
:100C000002C0880F991F0A94E2F7482B4083EE89AF
:100C1000FF8980810F8C02C0220F331F0A94E2F7F4
:100C2000209528232083DF91CF911F910F91FF9072
:100C3000EF90DF90BF90AF900895DC011C96ED918E
:100C4000FC911D97E05CFF4F219131918081918152
:100C5000281B390B2F733070C9010895DC011C96D5
:100C6000ED91FC911D97E05CFF4F20813181E054B4
:100C7000F040DF01AE5BBF4F8D919C91119728171B
:100C8000390719F42FEF3FEF07C08D919C91E80FC2
:100C9000F91F8081282F30E0C9010895DC011C96DE
:100CA000ED91FC911D97E05CFF4F20813181E05474
:100CB000F040DF01AE5BBF4F8D919C9111972817DB
:100CC000390719F42FEF3FEF10C08D919C911197C8
:100CD000E80FF91F20818D919C91119701968F73D8
:100CE000907011969C938E9330E0C9010895DC01B9
:100CF00091968C919197882339F05496ED91FC91BF
:100D00005597808186FFF9CF91961C920895CF93D5
:100D1000DF93EC01EE85FF85E05CFF4F20813181A0
:100D2000E054F0402F5F3F4F2F733070DF01AE5B18
:100D3000BF4F8D919C91119728173907D1F3E05C33
:100D4000FF4F80819181E054F040E80FF91F6083EC
:100D5000EE85FF85E05CFF4F31832083EE89FF89BC
:100D6000208181E090E00F8C02C0880F991F0A94C7
:100D7000E2F7282B208381E089A3EC89FD8980811B
:100D80008064808381E090E0DF91CF9108951F938C
:100D9000109256041092550428EE33E040E050E0E3
:100DA00020935704309358044093590450935A04A5
:100DB0006EE172E0709354046093530483E392E015
:100DC0009093600480935F0487E792E090936204BD
:100DD0008093610485EC90E09093640480936304B5
:100DE00084EC90E0909366048093650480EC90E03E
:100DF000909368048093670481EC90E090936A0478
:100E00008093690482EC90E090936C0480936B046F
:100E100086EC90E090936E0480936D0414E0109340
:100E20006F04B3E0B0937004A7E0A0937104F5E001
:100E3000F0937204E1E0E09373041092780410924E
:100E400077042093790430937A0440937B04509381
:100E50007C0470937604609375048BEB92E090931E
:100E60008204809381048FEF92E0909384048093B6
:100E700083048DEC90E090938604809385048CEC41
:100E800090E0909388048093870488EC90E090939E
:100E90008A048093890489EC90E090938C04809379
:100EA0008B048AEC90E090938E0480938D048EECFA
:100EB00090E09093900480938F0410939104B093EA
:100EC0009204A0939304F0939404E09395041092F9
:100ED0009A041092990420939B0430939C044093AD
:100EE0009D0450939E04709398046093970483E448
:100EF00093E09093A4048093A30487E893E09093F5
:100F0000A6048093A50485ED90E09093A8048093B7
:100F1000A70484ED90E09093AA048093A90480ED47
:100F200090E09093AC048093AB0481ED90E09093BB
:100F3000AE048093AD0482ED90E09093B004809372
:100F4000AF0486ED90E09093B2048093B1041093C7
:100F5000B304B093B404A093B504F093B604E09343
:100F6000B7041092BC041092BB042093BD043093CC
:100F7000BE044093BF045093C0047093BA046093BE
:100F8000B9048BEC93E09093C6048093C5048FE082
:100F900094E09093C8048093C70485E391E0909314
:100FA000CA048093C90484E391E09093CC048093B5
:100FB000CB0480E391E09093CE048093CD0481E351
:100FC00091E09093D0048093CF0482E391E09093DA
:100FD000D2048093D10486E391E09093D40480936B
:100FE000D3041093D504B093D604A093D704F09300
:100FF000D804E093D9041F910895CF93DF930FDABB
:1010000053D9C6E5D4E02CD92097E9F34FDCFBCFC8
:10101000CF92DF92EF92FF920F931F93CF93DF93C4
:101020007C016B018A01C0E0D0E00FC0D6016D9158
:101030006D01D701ED91FC910190F081E02DC70188
:101040001995C80FD91F015010400115110571F7EE
:10105000CE01DF91CF911F910F91FF90EF90DF9024
:10106000CF900895EF92FF920F931F938C01DC01B4
:10107000ED91FC910190F081E02D6DE019957C01DE
:10108000D801ED91FC910190F081E02DC8016AE05A
:1010900019959C012E0D3F1DC9011F910F91FF90C5
:1010A000EF900895CF93DF93EC016115710519F46A
:1010B00020E030E00FC0DB010D900020E9F7119730
:1010C000A61BB70BE881F9810280F381E02DAD0109
:1010D00019959C01C901DF91CF9108954F925F92BC
:1010E0007F928F929F92AF92BF92CF92DF92EF92B8
:1010F000FF920F931F93DF93CF93CDB7DEB7A197E6
:101100000FB6F894DEBF0FBECDBF2C01742ECB01FD
:10111000223008F42AE019A231E2C32ED12CCC0EE1
:10112000DD1E822E9924AA24BB24672D752FA501CC
:101130009401C2D079018A01C801B701A5019401C7
:101140009CD0472D461B0894C108D1084A3014F49E
:10115000405D01C0495CF6014083E114F1040105E2
:10116000110521F07E2C5F2DC801DFCFC201B60131
:1011700099DFA1960FB6F894DEBF0FBECDBFCF9119
:10118000DF911F910F91FF90EF90DF90CF90BF9074
:10119000AF909F908F907F905F904F900895CF92E7
:1011A000DF92EF92FF920F931F93CF93DF93EC01A7
:1011B0006A017B012115310541F4E881F981019033
:1011C000F081E02D642F19951DC02A303105C9F436
:1011D00077FF16C0E881F9810190F081E02D6DE282
:1011E00019958C0144275527BA014C195D096E09E0
:1011F0007F09CE012AE072DF9801280F391F03C052
:101200002AE06CDF9C01C901DF91CF911F910F9102
:10121000FF90EF90DF90CF900895CF92DF92EF9202
:10122000FF920F931F936C017B019A010027F7FC3B
:101230000095102FB801A701B2DF8C01C60112DFA3
:10124000080F191FC8011F910F91FF90EF90DF90B9
:10125000CF90089527CF0895EF92FF920F931F9399
:101260007C0120DF8C01C701FDDE080F191FC801BA
:101270001F910F91FF90EF900895629FD001739F8F
:10128000F001829FE00DF11D649FE00DF11D929F22
:10129000F00D839FF00D749FF00D659FF00D992761
:1012A000729FB00DE11DF91F639FB00DE11DF91F85
:1012B000BD01CF0111240895A1E21A2EAA1BBB1B68
:1012C000FD010DC0AA1FBB1FEE1FFF1FA217B30712
:1012D000E407F50720F0A21BB30BE40BF50B661F28
:1012E000771F881F991F1A9469F7609570958095EC
:1012F00090959B01AC01BD01CF010895EE0FFF1F3A
:0C1300000590F491E02D1994F894FFCFB3
:10130C00547878696E6720726571756573740052D4
:10131C006573706F6E73653A2000000000008706DD
:0A132C0008081D064E062E0677067F
:00000001FF
