:100000000C945D000C94AD040C9486040C94850053
:100010000C9485000C9485000C9485000C9485004C
:100020000C9485000C9485000C9485000C9485003C
:100030000C9485000C9485000C9485000C9485002C
:100040000C943C040C9485000C940A040C94E40376
:100050000C9485000C9485000C9485000C9485000C
:100060000C9485000C9485000000000025002800F9
:100070002B0000000008000201000003040700003C
:1000800000000000000000000000240027002A00FB
:10009000010204081020408001020408102001021F
:1000A00004081020040404040404040402020202EC
:1000B0000202030303030303D40411241FBECFEF82
:1000C000D8E0DEBFCDBF11E0A0E0B1E0EEE6FFE09A
:1000D00002C005900D92A43AB107D9F722E0A4EA34
:1000E000B1E001C01D92A13DB207E1F710E0CDE5FE
:1000F000D0E004C02197FE010E94AA07CC35D107A9
:10010000C9F70E9478050C94B5070C940000CF92B3
:10011000DF92EF92FF920F931F93CF93DF936C01C7
:100120007A018B01C0E0D0E0CE15DF0589F0D8015F
:100130006D918D01D601ED91FC910190F081E02D42
:10014000C6010995892B11F47E0102C02196ECCFDE
:10015000C701DF91CF911F910F91FF90EF90DF903A
:10016000CF900895089580E090E00895FC01538DAC
:10017000448D252F30E0842F90E0821B930B541781
:1001800010F0CF96089501970895FC01918D828D0E
:10019000981761F0828DDF01A80FB11D5D968C91DB
:1001A000928D9F5F9F73928F90E008958FEF9FEFE6
:1001B0000895FC01918D828D981731F0828DE80FA2
:1001C000F11D858D90E008958FEF9FEF0895FC015C
:1001D000918D228D892F90E0805C9F4F821B910929
:1001E0008F73992708958BE292E00E94E70021E047
:1001F000892B09F420E0822F0895FC01848DDF0112
:10020000A80FB11DA35ABF4F2C91848D90E0019689
:100210008F739927848FA689B7892C93A089B18978
:100220008C9180648C93938D848D981306C0028882
:10023000F389E02D80818F7D80830895EF92FF9276
:100240000F931F93CF93DF93EC0181E0888F9B8DF9
:100250008C8D981305C0E889F989808185FD24C0BB
:10026000F62E0B8D10E00F5F1F4F0F731127E02E3E
:100270008C8DE8120CC00FB607FCFACFE889F9891B
:10028000808185FFF5CFCE010E94FD00F1CF8B8DDF
:10029000FE01E80FF11DE35AFF4FF0820B8FEA8950
:1002A000FB898081806207C0EE89FF896083E889CD
:1002B000F98980818064808381E090E0DF91CF9133
:1002C0001F910F91FF90EF900895CF93DF93EC0172
:1002D000888D8823C9F0EA89FB89808185FD05C066
:1002E000A889B9898C9186FD0FC00FB607FCF5CFA0
:1002F000808185FFF2CFA889B9898C9185FFEDCFE8
:10030000CE010E94FD00E7CFDF91CF91089580E0FC
:1003100090E0892B29F00E94F30081110C940000D9
:10032000089590E0FC01EE58FF4F3491FC01E05736
:10033000FF4F2491FC01EC55FF4FE491EE2309F4AB
:100340003BC0332339F1333091F038F43130A9F028
:10035000323001F584B58F7D12C0373091F03830DE
:10036000A1F03430B9F4809180008F7D03C080917A
:1003700080008F77809380000DC084B58F7784BD17
:1003800009C08091B0008F7703C08091B0008F7D4D
:100390008093B000F0E0EE0FFF1FE859FF4FA591EA
:1003A000B4918FB7F894EC91611103C020952E237E
:1003B00001C02E2B2C938FBF0895CF93DF9390E035
:1003C000FC01E057FF4F2491FC01EC55FF4F849155
:1003D000882361F190E0880F991FFC01EA57FF4FD5
:1003E000C591D491FC01E859FF4FA591B4916111D9
:1003F00009C09FB7F8948881209582238883EC9167
:100400002E230BC0623061F49FB7F8943881822F9D
:10041000809583238883EC912E2B2C939FBF06C05D
:100420008FB7F894E8812E2B28838FBFDF91CF916F
:1004300008953FB7F8948091A5019091A601A091ED
:10044000A701B091A80126B5A89B05C02F3F19F0C0
:100450000196A11DB11D3FBFBA2FA92F982F882744
:10046000820F911DA11DB11DBC01CD0142E0660F9F
:10047000771F881F991F4A95D1F708958F929F92F1
:10048000AF92BF92CF92DF92EF92FF926B017C010D
:100490000E9419024B015C01C114D104E104F10472
:1004A000F1F00E941902DC01CB0188199909AA090F
:1004B000BB09883E9340A105B10570F321E0C21A43
:1004C000D108E108F10888EE880E83E0981EA11C8F
:1004D000B11CC114D104E104F10419F7DDCFFF9080
:1004E000EF90DF90CF90BF90AF909F908F90089546
:1004F00008958EBD00000DB407FEFDCF8EB50895A2
:100500000F931F93CF93C82F0BEC12E060E0F8011C
:1005100082810E9491018C2F880F8E770E94790230
:1005200080E00E947902C82F61E0F80182810E9478
:1005300091018C2FCF911F910F9108950F931F93CD
:10054000CF93DF93C82FD62F0BEC12E060E0F801B9
:1005500082810E949101CC0F8C2F8E7781600E9446
:1005600079028D2F0E94790261E0F8018281DF918A
:10057000CF911F910F910C9491010F931F93CF93E3
:10058000DF938C01CBECD2E060E08A810E94910184
:10059000C80123E0969587952A95E1F780680E9427
:1005A0007902802F8295880F807E0E94790280E0F8
:1005B0000E947902182F61E08A810E949101812FA7
:1005C000DF91CF911F910F910895FF920F931F9389
:1005D000CF93DF93EC01F62E0BEC12E060E0F80114
:1005E00082810E949101CE0123E0969587952A95FC
:1005F000E1F780680E9479028C2F8295880F807EB7
:1006000080610E9479028F2D0E94790261E0F801D9
:100610008281DF91CF911F910F91FF900C949101F6
:10062000FF920F931F93CF93DF9381E30E94800289
:10063000F82E83FF3FC0909122029F5F9093220289
:10064000F89464E089E30E949E0280E093E00E94B7
:10065000BD02C82F00E010E02091AA0130E0809197
:10066000C8029091C902281B390B0217130764F4C2
:100670000F5F1F4FC801875F9C4F0E94BD02F801AA
:10068000E655FE4F8083E8CFC093AA01D0E0CE01AB
:100690008F5F9C4F0E94BD0280931F02CE018E5F30
:1006A0009C4F0E94BD028093200260E089E30E947B
:1006B0009E027894F0FE1FC0809121028F5F80938C
:1006C000210284E20E94800290E0AC014E7F31E082
:1006D000452B09F030E02091A90130FB20F936E0EC
:1006E000959587953A95E1F78370880F297F822B3E
:1006F000877F8093A901DF91CF911F910F91FF9088
:100700000895009769F0FC0101900020E9F7319706
:10071000AF01481B590BBC018BE292E00C9487009F
:1007200080E090E00895CF93DF930E948103EC0175
:1007300086E191E00E9481038C0F9D1FDF91CF9194
:1007400008958F929F92AF92BF920F931F93CF9372
:10075000DF93CDB7DEB7A1970FB6F894DEBF0FBE1B
:10076000CDBF19A2423008F44AE08E010F5D1F4F41
:10077000842E912CA12CB12CA50194010E948807F4
:10078000E62FB901CA0101501109EA3014F4E05D05
:1007900001C0E95CD801EC93232B242B252B61F7B6
:1007A000C8010E948103A1960FB6F894DEBF0FBE68
:1007B000CDBFDF91CF911F910F91BF90AF909F90D0
:1007C0008F9008950E94B0071F920F920FB60F925C
:1007D00011242F933F934F935F936F937F938F9346
:1007E0009F93AF93BF93EF93FF938BE292E00E94AE
:1007F000FD00FF91EF91BF91AF919F918F917F91FC
:100800006F915F914F913F912F910F900FBE0F907D
:100810001F9018951F920F920FB60F9211242F93CD
:100820008F939F93EF93FF93E0913B02F0913C02F3
:100830008081E0914102F091420282FD12C09081DC
:10084000809144028F5F8F7320914502821751F08F
:10085000E0914402F0E0E55DFD4F958F8093440206
:1008600001C08081FF91EF919F918F912F910F9007
:100870000FBE0F901F9018951F920F920FB60F92F8
:1008800011242F933F938F939F93AF93BF938091A6
:10089000230290912402A0912502B091260230916A
:1008A000A40123E0230F2D3720F40196A11DB11DD3
:1008B00005C026E8230F0296A11DB11D2093A401B7
:1008C0008093230290932402A0932502B0932602E2
:1008D0008091A5019091A601A091A701B091A801D6
:1008E0000196A11DB11D8093A5019093A601A0932F
:1008F000A701B093A801BF91AF919F918F913F91B4
:100900002F910F900FBE0F901F9018951F920F926E
:100910000FB60F9211242F933F934F935F936F93D2
:100920007F938F939F93AF93BF93EF93FF93E09148
:100930000201F09103010995FF91EF91BF91AF91F1
:100940009F918F917F916F915F914F913F912F91E7
:100950000F900FBE0F901F9018951F920F920FB619
:100960000F9211242F933F934F935F936F937F9335
:100970008F939F93AF93BF93EF93FF93E091000109
:10098000F09101010995FF91EF91BF91AF919F9176
:100990008F917F916F915F914F913F912F910F9028
:1009A0000FBE0F901F901895CF9310922E021092A9
:1009B0002D0288EE93E0A0E0B0E080932F029093A8
:1009C0003002A0933102B093320288E091E090931C
:1009D0002C0280932B0285EC90E090933802809358
:1009E000370284EC90E090933A028093390280ECD5
:1009F00090E090933C0280933B0281EC90E09093D6
:100A00003E0280933D0282EC90E0909340028093FE
:100A10003F0286EC90E09093420280934102109254
:100A200044021092450210924602109247028BE057
:100A300090E09093C9028093C80284E090E0909384
:100A4000CC028093CB0289E090E09093CE02809319
:100A5000CD0282E090E09093D0028093CF0261E0DB
:100A600084E00E94DD0161E08091CD020E94DD0101
:100A700060E08091CF020E94DD018CB58F7D8CBD3E
:100A80008CB5837F8CBDCFB7F8948091CA02811159
:100A900027C0EEEAF0E08491EAE9F0E09491E82FD3
:100AA000F0E0EE0FFF1FEA57FF4FA591B491EC91D4
:100AB000E92321F461E08AE00E94910161E08AE08B
:100AC0000E94DD018CB580618CBD8CB580648CBDCD
:100AD00061E08DE00E94DD0161E08BE00E94DD01BC
:100AE0008091CA028F5F8093CA02CFBFCF910895D1
:100AF000789484B5826084BD84B5816084BD85B5F9
:100B0000826085BD85B5816085BD80916E00816004
:100B100080936E00109281008091810082608093AA
:100B200081008091810081608093810080918000AC
:100B30008160809380008091B10084608093B100D7
:100B40008091B00081608093B00080917A008460D1
:100B500080937A0080917A00826080937A008091FD
:100B60007A00816080937A0080917A008068809317
:100B70007A001092C100E0913B02F0913C0282E0C9
:100B80008083E0913702F09138021082E0913902BF
:100B9000F0913A028FEC808310924302E0913F0281
:100BA000F091400286E08083E0913D02F0913E02A8
:100BB000808180618083E0913D02F0913E028081DE
:100BC00088608083E0913D02F0913E0280818068E0
:100BD0008083E0913D02F0913E0280818F7D808391
:100BE00060E08091CB020E9491016AE070E080E0B9
:100BF00090E00E943E0261E08091CB020E94910150
:100C000064E170E080E090E00E943E0268E988E1E3
:100C10000E949E0265E98EE20E949E0263E080E0EF
:100C200092E00E94E50261E081E092E00E94E5022C
:100C300060E882E092E00E94E50260E986E092E0EE
:100C40000E94E50260E887E092E00E94E50260E130
:100C500088E092E00E94E50261E280E292E00E9478
:100C6000E50260E88AE30E949E0260E68FE30E944C
:100C70009E0260E48EE30E949E0266EF82E30E9481
:100C80009E0263E180E092E00E94E50264E086E378
:100C90000E949E0260E086E30E949E0261E070E096
:100CA00080E090E00E943E0267E08FE292E00E94C6
:100CB000E5026AEC82E00E949E026EEF81E00E94F3
:100CC0009E0262E484E00E949E0262E083E00E9451
:100CD0009E0280E193E09093010180930001809156
:100CE00069008C7F816080936900E89A2FB7F8943F
:100CF0008091230290912402A0912502B0912602B6
:100D00002FBF8093270290932802A0932902B093CB
:100D10002A02789480912202882309F44AC0109212
:100D2000220289E191E00E9481036091AA0170E0B2
:100D300080E090E04AE00E94A1038CE291E00E94F2
:100D4000930388E391E00E949303CAEAD1E09E01F5
:100D50002A5A314021968091AA0190E04091C80220
:100D60005091C902841B950B2817390734F4688108
:100D70008BE292E00E941E01EACF86E591E00E949C
:100D8000810360911F0270E080E090E04AE00E94E1
:100D9000A10382E691E00E9481036091200270E04D
:100DA00080E090E04AE00E94A10386E191E00E9489
:100DB0008103809121028823D9F010922102809131
:100DC000A90180FF03C084E691E010C088E791E0AC
:100DD0000E9481036091A9016695637070E080E0D4
:100DE00090E04AE00E94A10389E891E00E94930309
:100DF0002FB7F8948091230290912402A0912502AC
:100E0000B09126022FBF4091270250912802609195
:100E1000290270912A028C019D01041B150B260BDF
:100E2000370BB901A801493E53406105710508F42B
:100E30006CC08093270290932802A0932902B0935C
:100E40002A0283E991E00E94930369E080E090E048
:100E50000E94E5026DE081E090E00E94E50261E61B
:100E600082E090E00E94E50268E883E090E00E9462
:100E7000E50261E084E090E00E94E50282E00E94E9
:100E80008002C82F81E00E948002D0E0DC2FCC27B6
:100E9000C82B6C2F85E090E00E94E5026D2F86E064
:100EA00090E00E94E50261E087E090E00E94E502A8
:100EB00060E688E090E00E94E50284E00E94800203
:100EC000C82F83E00E948002D0E0DC2FCC27C82B03
:100ED0006C2F89E090E00E94E5026D2F8AE090E09F
:100EE0000E94E5020EE911E0C0E0D0E0F801619156
:100EF0008F01CE010B960E94E5022196C430D105E8
:100F0000A9F765E08BE10E949E020E94870102CF53
:100F1000A1E21A2EAA1BBB1BFD010DC0AA1FBB1FFD
:100F2000EE1FFF1FA217B307E407F50720F0A21B6F
:100F3000B30BE40BF50B661F771F881F991F1A94DC
:100F400069F760957095809590959B01AC01BD0106
:100F5000CF010895EE0FFF1F0590F491E02D099445
:0E0F600081E090E0F8940C94B507F894FFCF70
:100F6E0078027802000000001E018700B6006501BD
:100F7E00E700C500D9000D0A0072656365697665E4
:100F8E00642061207061636B657420002062797447
:100F9E006573206C6F6E67000D0A415343494920FB
:100FAE0064617461202872656C6576616E7420646C
:100FBE00617461293A000D0A4C51492F525353491D
:100FCE003D002F0054582077656E74206F6B2C20D7
:100FDE00676F742061636B005458206661696C659D
:100FEE006420616674657220002072657472696592
:100FFE00730A0074787878696E672E2E2E006162FF
:04100E006364000017
:00000001FF
