:100000000C945D000C9485000C9485000C94850084
:100010000C9485000C9485000C9485000C9485004C
:100020000C9485000C9485000C9485000C94450379
:100030000C9485000C9485000C9485000C9485002C
:100040000C94FB020C9485000C94C9020C94A3023E
:100050000C9485000C9485000C9485000C9485000C
:100060000C9406040C9485000000000800020100B6
:100070000003040700000000000000000000000072
:10008000250028002B0000000000240027002A0083
:10009000040404040404040402020202020203032E
:1000A0000303030301020408102040800102040836
:1000B0001020010204081020340511241FBECFEFC8
:1000C000D8E0DEBFCDBF11E0A0E0B1E0E2EEFCE0A1
:1000D00002C005900D92AE32B107D9F722E0AEE230
:1000E000B1E001C01D92A937B207E1F710E0CDE5FC
:1000F000D0E004C02197FE010E946406CC35D107F0
:10010000C9F70E94A4050C946F060C940000CF92CE
:10011000DF92EF92FF920F931F93CF93DF936C01C7
:100120007A018B01C0E0D0E0CE15DF0589F0D8015F
:100130006D918D01D601ED91FC910190F081E02D42
:10014000C6010995892B11F47E0102C02196ECCFDE
:10015000C701DF91CF911F910F91FF90EF90DF903A
:10016000CF900895FC01538D448D252F30E0842FCE
:1001700090E0821B930B541710F0CF9608950197CF
:100180000895FC01918D828D981761F0828DDF01B9
:10019000A80FB11D5D968C91928D9F5F9F73928F7A
:1001A00090E008958FEF9FEF0895FC01918D828D6F
:1001B000981731F0828DE80FF11D858D90E008953C
:1001C0008FEF9FEF0895FC01918D228D892F90E094
:1001D000805C9F4F821B91098F739927089587EA4E
:1001E00091E00E94E30021E0892B09F420E0822FB6
:1001F0000895FC01848DDF01A80FB11DA35ABF4FE4
:100200002C91848D90E001968F739927848FA68915
:10021000B7892C93A089B1898C9180648C93938D3C
:10022000848D981306C00288F389E02D80818F7D2C
:1002300080830895EF92FF920F931F93CF93DF93E4
:10024000EC0181E0888F9B8D8C8D981305C0E88927
:10025000F989808185FD24C0F62E0B8D10E00F5F9B
:100260001F4F0F731127E02E8C8DE8120CC00FB6B4
:1002700007FCFACFE889F989808185FFF5CFCE01A7
:100280000E94F900F1CF8B8DFE01E80FF11DE35ABA
:10029000FF4FF0820B8FEA89FB898081806207C063
:1002A000EE89FF896083E889F98980818064808391
:1002B00081E090E0DF91CF911F910F91FF90EF903F
:1002C0000895CF93DF93EC01888D8823C9F0EA89E4
:1002D000FB89808185FD05C0A889B9898C9186FD3F
:1002E0000FC00FB607FCF5CF808185FFF2CFA8893C
:1002F000B9898C9185FFEDCFCE010E94F900E7CF3F
:10030000DF91CF91089580E090E0892B29F00E9441
:10031000EF0081110C940000089590E0FC01E85971
:10032000FF4F3491FC01EC55FF4F2491FC01E05745
:10033000FF4FE491EE2309F43BC0332339F133300E
:1003400091F038F43130A9F0323001F584B58F7D69
:1003500012C0373091F03830A1F03430B9F48091C8
:1003600080008F7D03C0809180008F778093800014
:100370000DC084B58F7784BD09C08091B0008F77A0
:1003800003C08091B0008F7D8093B000F0E0EE0F4D
:10039000FF1FE458FF4FA591B4918FB7F894EC91EB
:1003A000611103C020952E2301C02E2B2C938FBFEB
:1003B00008953FB7F8948091A3019091A401A09172
:1003C000A501B091A60126B5A89B05C02F3F19F045
:1003D0000196A11DB11D3FBFBA2FA92F982F8827C5
:1003E000820F911DA11DB11DBC01CD0142E0660F20
:1003F000771F881F991F4A95D1F708958F929F9272
:10040000AF92BF92CF92DF92EF92FF926B017C018D
:100410000E94D9014B015C01C114D104E104F10433
:10042000F1F00E94D901DC01CB0188199909AA09D0
:10043000BB09883E9340A105B10570F321E0C21AC3
:10044000D108E108F10888EE880E83E0981EA11C0F
:10045000B11CC114D104E104F10419F7DDCFFF9000
:10046000EF90DF90CF90BF90AF909F908F900895C6
:1004700085ED8093BC008091BC0084FDFCCF109280
:100480007701089540915101262F30E0240F311D4E
:1004900021323105DCF4209177012430C9F4FC01CC
:1004A00080E090E0861758F4309151012191DC01F1
:1004B000A15DBE4FA30FB11D2C930196F3CF809188
:1004C0005101680F6093510180E0089581E0089523
:1004D00082E0089508958FEF9FEF08958FEF9FEFCB
:1004E000089580912E0190E091958195910908954C
:1004F000CF93DF9300D0CDB7DEB7CB01642F498314
:100500005A830E9442024981842F5A81952F0F906D
:100510000F90DF91CF910895CF93DF931F92CDB7C6
:10052000DEB7698361E0CE0101960E94420281E05C
:1005300090E00F90DF91CF910895089580E090E0D2
:1005400008950E946A061F920F920FB60F9211240F
:100550002F933F934F935F936F937F938F939F93CB
:10056000AF93BF93EF93FF9387EA91E00E94F90066
:10057000FF91EF91BF91AF919F918F917F916F917B
:100580005F914F913F912F910F900FBE0F901F9051
:1005900018951F920F920FB60F9211242F938F93DD
:1005A0009F93EF93FF93E091B701F091B8018081A1
:1005B000E091BD01F091BE0182FD12C09081809159
:1005C000C0018F5F8F732091C101821751F0E091BC
:1005D000C001F0E0E955FE4F958F8093C00101C046
:1005E0008081FF91EF919F918F912F910F900FBE7E
:1005F0000F901F9018951F920F920FB60F92112413
:100600002F933F938F939F93AF93BF9380919F01BD
:100610009091A001A091A101B091A20130919E0101
:1006200023E0230F2D3720F40196A11DB11D05C035
:1006300026E8230F0296A11DB11D20939E018093F1
:100640009F019093A001A093A101B093A20180917A
:10065000A3019091A401A091A501B091A6010196DA
:10066000A11DB11D8093A3019093A401A093A501A6
:10067000B093A601BF91AF919F918F913F912F9120
:100680000F900FBE0F901F9018951F920F920FB6EC
:100690000F9211242F933F934F935F936F937F9308
:1006A0008F939F93AF93BF93EF93FF9380919D019F
:1006B00087FF05C010928500109284001BC0209116
:1006C0009D01022E000C330B8091740290E02817DC
:1006D000390784F480919D01082E000C990BFC01D0
:1006E000EE0FFF1F8E0F9F1FFC01E05BFD4F80810F
:1006F00086FD15C080919D018F5F80939D012091A3
:100700009D01022E000C330B8091740290E028179B
:100710003907C4F480919D018C3064F113C080913D
:100720009D01082E000C990BFC01EE0FFF1F8E0F90
:100730009F1FFC01E05BFD4F808160E08F730E9492
:100740008D01D8CF809184009091850004968034EB
:100750009C4918F480E49CE905C080918400909144
:100760008500049690938900809388008FEF809392
:100770009D013BC0209184003091850080919D01B6
:10078000082E000C990BFC01EE0FFF1F8E0F9F1F10
:10079000FC01E05BFD4F81819281820F931F90935A
:1007A00089008093880080919D01082E000C990B90
:1007B000FC01EE0FFF1F8E0F9F1FFC01E05BFD4F42
:1007C000808186FF12C080919D01082E000C990B3C
:1007D000FC01EE0FFF1F8E0F9F1FFC01E05BFD4F22
:1007E000808161E08F730E948D01FF91EF91BF9135
:1007F000AF919F918F917F916F915F914F913F91B9
:100800002F910F900FBE0F901F9018951F920F926F
:100810000FB60F9211242F933F934F935F936F93D3
:100820007F938F939F93AF93BF93EF93FF938091A9
:10083000B900887F803609F49CC068F5883209F4D5
:100840005BC090F4803109F454C038F4882309F473
:10085000F6C0883009F44DC0F6C0883109F44CC0A8
:10086000803209F45DC0EFC0803409F468C048F4F8
:10087000803309F455C0883309F0E5C080937601D0
:10088000D8C0803509F44FC0883509F45DC088347C
:1008900009F0D9C0D6C0883909F4C7C0A8F4883790
:1008A00009F467C038F4883609F463C0803709F466
:1008B00060C0C9C0883809F4B8C0803909F45FC085
:1008C000803809F0C0C05BC0803B09F486C038F4B2
:1008D000803A09F466C0883A09F47FC0B4C0803C0D
:1008E00009F4A7C0883C09F4A4C0883B09F48AC075
:1008F000AAC080919C0110C090919B0180919A01A7
:10090000981770F5E0919B0181E08E0F80939B0119
:10091000F0E0E658FE4F80818093BB0085EC86C0F6
:10092000809376018EC0E0919B0181E08E0F8093D1
:100930009B018091BB00F0E0E658FE4F80839091D0
:100940009B0180919A016EC0E0919B0181E08E0F26
:1009500080939B018091BB00F0E0E658FE4F8083BE
:100960008091790181116DC081E08093780184EAE2
:1009700061C083E08093770110927501CFCF8091A1
:100980007501803208F051C0E091750181E08E0F51
:10099000809375018091BB00F0E0EB5AFE4F80839D
:1009A000BDCF85EC8093BC001092770180917501DA
:1009B000803230F4E0917501F0E0EB5AFE4F108286
:1009C0006091750170E0E0915301F091540185E56B
:1009D00091E009951092750136C084E0809377010B
:1009E0001092520110925101E0914F01F09150018B
:1009F000099580915101811105C081E080935101D9
:100A000010922F01E091520181E08E0F80935201EC
:100A1000F0E0E15DFE4F80818093BB009091520138
:100A200080915101981708F479CF85E88093BC0034
:100A30000AC085EC8093BC001092770104C010922C
:100A400076010E943802FF91EF91BF91AF919F9183
:100A50008F917F916F915F914F913F912F910F9067
:100A60000FBE0F901F9018951092AA011092A90125
:100A700088EE93E0A0E0B0E08093AB019093AC01EE
:100A8000A093AD01B093AE0124E031E03093A80112
:100A90002093A70125EC30E03093B4012093B301FB
:100AA00024EC30E03093B6012093B50120EC30E027
:100AB0003093B8012093B70121EC30E03093BA01B4
:100AC0002093B90122EC30E03093BC012093BB01AC
:100AD00026EC30E03093BE012093BD011092C0019E
:100AE0001092C1011092C2011092C30110924702EC
:100AF000109246028093480290934902A0934A02C2
:100B0000B0934B0286E191E09093450280934402BA
:100B1000809174028C30A0F491E0980F909374024D
:100B20008093750290E0FC01EE0FFF1F8E0F9F1F58
:100B3000FC01E05BFD4F88EB9BE09283818308958D
:100B40008FEF809375020895789484B5826084BD98
:100B500084B5816084BD85B5826085BD85B58160C1
:100B600085BD80916E00816080936E00109281003F
:100B700080918100826080938100809181008160FA
:100B800080938100809180008160809380008091BB
:100B9000B10084608093B1008091B0008160809347
:100BA000B00080917A00846080937A0080917A000E
:100BB000826080937A0080917A00816080937A00CD
:100BC00080917A00806880937A001092C100EBEAED
:100BD000F0E02491E7E9F0E08491882399F090E037
:100BE000880F991FFC01EA57FF4FA591B491FC01B2
:100BF000E458FF4F859194918FB7F894EC91E22BD4
:100C0000EC938FBFE091B701F091B80182E080834F
:100C1000E091B301F091B4011082E091B501F0913F
:100C2000B6018FEC80831092BF01E091BB01F0917F
:100C3000BC0186E08083E091B901F091BA01808126
:100C400080618083E091B901F091BA018081886070
:100C50008083E091B901F091BA018081806880833E
:100C6000E091B901F091BA0180818F7D808345E0E8
:100C700050E064E271E087EA91E00E94870042E080
:100C800050E06AE271E087EA91E00E94870068EE36
:100C900073E080E090E00E94FE0161E087E00E9446
:100CA0008D0164EF71E080E090E00E94FE0160E061
:100CB00087E00E948D0164EF71E080E090E00E9487
:100CC000FE010E948301E9CFEE0FFF1F0590F49112
:100CD000E02D099481E090E0F8940C946F06F8946C
:020CE000FFCF44
:100CE200000000001A018700B2006101E300C100A8
:100CF200D500000000008C0278029E026A02710296
:0E0D02006E026B02626567696E000D0A0000EA
:00000001FF
