:100000000C9463000C94D0040C94FD040C948B00AD
:100010000C948B000C948B000C948B000C948B0034
:100020000C948B000C948B000C948B000C948B0024
:100030000C948B000C948B000C948B000C948B0014
:100040000C942A050C948B000C948B000C948B0060
:100050000C948B000C948B000C948B000C948B00F4
:100060000C948B000C948B000000000024002700EF
:100070002A0000000000250028002B0000000000DE
:1000800023002600290004040404040404040202DA
:100090000202020203030303030301020408102007
:1000A0004080010204081020010204081020000012
:1000B0000007000201000003040600000000000029
:1000C00000008E00C20311241FBECFEFD8E0DEBFB8
:1000D000CDBF11E0A0E0B1E0EAE5FEE002C005908E
:1000E0000D92A030B107D9F712E0A0E0B1E001C055
:1000F0001D92AF31B107E1F710E0C6ECD0E004C0CB
:100100002297FE010E942707C23CD107C9F70E942F
:1001100014070C942B070C940000089580E091E0E4
:1001200069E070E04FEF5FEF22E030E00E948E0464
:10013000089580E091E069E071E00E94A101809162
:100140001301882319F010921301089581E0809320
:100150001301089580E091E00E94DE020895CF939C
:10016000DF930E947E0560930B0170930C018093D6
:100170000D0190930E0180E091E069E970E04DE897
:1001800050E00E94A00380910B0190910C01A0917E
:100190000D01B0910E0120910F013091100140919D
:1001A000110150911201821B930BA40BB50B883CDB
:1001B0009105A105B10550F180910901992787FDAD
:1001C0009095909307018093060180E091E062E0B2
:1001D00072E442E00E94740280E091E066E071E027
:1001E0000E94E40180E091E00E94920180910B0165
:1001F00090910C01A0910D01B0910E0180930F011F
:1002000090931001A0931101B09312018AE06091C4
:1002100013010E94BF0680910901992787FD9095DF
:100220000097D9F0EC01CC0FDD1F181619063CF42D
:10023000219685E0BE010E94200686E013C085E07D
:1002400060E00E94BF06662777276C1B7D0B6F5FFF
:100250007F4F86E00E94200608C085E060E00E9493
:10026000BF0685E060E00E94BF06DF91CF91089550
:100270000F931F9300E011E0C8010E947204C801AF
:100280000E94C903C8016EEF7AEC0E941D02C801EA
:1002900061E070E60E943802C80161E00E94B60386
:1002A00080E06AEA70E041E050E00E94AD048AE03C
:1002B00090E0909307018093060185E061E00E9441
:1002C000800686E061E00E9480068AE061E00E948C
:1002D000800678941F910F910895882319F48CB5A6
:1002E000806202C08CB58F7D8CBD08959CB5937FD4
:1002F000982B9CBD08958AE061E00E94BF068AE0C9
:1003000061E00E9480068CB580618CBD8CB58064F4
:100310008CBD8DE061E00E9480068BE061E00E9470
:10032000800608952F9887E38EBD0DB407FEFDCF9C
:100330008EB585E08EBD0DB407FEFDCF8EB52F9A2C
:100340000895FB0180911C01808380911D018183B0
:1003500008952F98CB0123E0969587952A95E1F78C
:1003600080688EBD0DB407FEFDCF8EB5862F8295B9
:10037000880F807E8EBD0DB407FEFDCF8EB51EBCEE
:100380000DB407FEFDCF8EB52F9A08952F98CB019F
:1003900033E0969587953A95E1F780688EBD0DB468
:1003A00007FEFDCF8EB5862F8295880F807E8061F7
:1003B0008EBD0DB407FEFDCF8EB54EBD0DB407FE4C
:1003C000FDCF8EB52F9A0895EF92FF920F931F9352
:1003D0007C018B016BE070E0F80140810E94C60156
:1003E000C7016CE070E0F80141810E94C6011F91D5
:1003F0000F91FF90EF9008952F9884E08EBD0DB47B
:1004000007FEFDCF8EB51EBC0DB407FEFDCF3EB579
:100410002F9A2F9882E08EBD0DB407FEFDCF8EB5CA
:100420001EBC0DB407FEFDCF2EB52F9A932F80E092
:1004300030E0282B392BC90108952F9885E08EBD17
:100440000DB407FEFDCF8EB57EBD0DB407FEFDCF0A
:100450008EB52F9A2F9883E08EBD0DB407FEFDCF89
:100460008EB56EBD0DB407FEFDCF8EB52F9A0895E3
:100470002F9889E08EBD0DB407FEFDCF8EB57EBDF1
:100480000DB407FEFDCF8EB52F9A2F9887E08EBD55
:100490000DB407FEFDCF8EB56EBD0DB407FEFDCFCA
:1004A0008EB52F9A08952F9888E08EBD0DB407FE63
:1004B000FDCF8EB51EBC0DB407FEFDCF3EB52F9A05
:1004C0002F9886E08EBD0DB407FEFDCF8EB51EBC05
:1004D0000DB407FEFDCF2EB52F9A932F80E030E0AC
:1004E000282B392BC9010895DF92EF92FF920F93C9
:1004F0001F938C01E62ED72EF42E60E070E049E0C9
:100500000E94C60140911901475F4F0DC80161E08B
:1005100070E00E94C601C80162E070E041E60E94FE
:10052000C601C80163E070E048E80E94C601C80146
:1005300064E070E041E00E94C601C8010E94FC0135
:10054000482FF92EC80165E070E00E94C601C8017D
:1005500066E070E04F2D0E94C601C80167E070E0C0
:100560004E2D0E94C601C80168E070E04D2D0E942A
:10057000C601C8010E945302482FF92EC80169E044
:1005800070E00E94C601C8016AE070E04F2D0E9431
:10059000C6011F910F91FF90EF90DF900895462FB5
:1005A00050E04B50504064E0440F551F6A95E1F70E
:1005B000436060E072E00E94C6010895AF92BF926E
:1005C000CF92DF92EF92FF920F931F93CF93DF931F
:1005D0007C012F9882E68EBD0DB407FEFDCF8EB54F
:1005E0001EBC0DB407FEFDCF8EB52F9AA82E83FF3B
:1005F00070C0809114018F5F80931401F8942F983C
:1006000083E78EBD0DB407FEFDCF8EB584E08EBDB1
:100610000DB407FEFDCF8EB52F9AC70160E073E0E1
:100620000E94A901B82E80911801882339F0C1E0F9
:10063000D3E00B2D10E00F5F1C4F12C0C0901601CD
:10064000D09017010CE111E0C0E0D0E018C0C70164
:10065000BE010E94A901FE01EF56F1408083219660
:10066000C017D107A1F7EACFC65FDC4FC701BE01B3
:100670000E94A901F80181938F01C950D340809154
:100680001B0190E08C199D09C817D9076CF3B09233
:100690001B010B2D10E00F5F1C4FC701B8010E941A
:1006A000A901809390010F5F1F4FC701B8010E94FD
:1006B000A901809391012F9883E78EBD0DB407FEA9
:1006C000FDCF8EB51EBC0DB407FEFDCF8EB52F9AA3
:1006D0007894A0FE2AC0809115018F5F8093150148
:1006E0002F9888E48EBD0DB407FEFDCF8EB51EBCDD
:1006F0000DB407FEFDCF8EB52F9A282F30E040E0D5
:10070000C9018E7F892B09F441E080911102887F15
:1007100076E0359527957A95E1F7922F9370990FAA
:10072000842B892B877F80931102DF91CF911F91BA
:100730000F91FF90EF90DF90CF90BF90AF90089512
:10074000CF93DF93FB01EA0180911401882319F014
:1007500010921401099580911501882321F01092BF
:100760001501FE010995DF91CF910895662321F0CF
:100770006FE272E047E003C06FE272E040E00E9487
:10078000C60108958BE090E09093170180931601C5
:100790000895CF93DF93EC012F9881E38EBD0DB4C4
:1007A00007FEFDCF8EB588E98EBD0DB407FEFDCFE7
:1007B0008EB52F9A2F988DE58EBD0DB407FEFDCF17
:1007C0008EB585E98EBD0DB407FEFDCF8EB52F9A8F
:1007D000CE0160E072E043E00E94C601CE0161E01C
:1007E00072E041E00E94C601CE0162E072E040E8A2
:1007F0000E94C601CE0166E072E040E90E94C60197
:10080000CE0167E072E040E80E94C601CE0168E0D8
:1008100072E040E10E94C601CE0160E272E041E276
:100820000E94C6012F9885E78EBD0DB407FEFDCF4F
:100830008EB580E88EBD0DB407FEFDCF8EB52F9A24
:100840002F988FE78EBD0DB407FEFDCF8EB580E6E5
:100850008EBD0DB407FEFDCF8EB52F9A2F988DE774
:100860008EBD0DB407FEFDCF8EB580E48EBD0DB4F8
:1008700007FEFDCF8EB52F9A2F9885E68EBD0DB45D
:1008800007FEFDCF8EB586EF8EBD0DB407FEFDCF02
:100890008EB52F9ACE016CE00E94CF022F988DE684
:1008A0008EBD0DB407FEFDCF8EB584E08EBD0DB4B8
:1008B00007FEFDCF8EB52F9A2F988DE68EBD0DB415
:1008C00007FEFDCF8EB51EBC0DB407FEFDCF8EB565
:1008D0002F9A61E070E080E090E00E948C05DF914B
:1008E000CF9108950F931F938C01FC01808160E0EC
:1008F0000E94BF066AE070E080E090E00E948C05F4
:10090000F801808161E00E94BF0664E170E080E050
:1009100090E00E948C051F910F9108950F931F93F3
:100920008C01862FF8016083718353834283358362
:10093000248361E00E948006279AF801848160E0A8
:100940000E94800681E00E946D0180E00E94760195
:100950000E947B011F910F910895823000F5E82FCE
:10096000F0E0EE0FFF1FEE5EFD4F71836083882382
:1009700019F08130A1F408C0809169008C7F842B2C
:1009800080936900E89A089580916900440F551F8B
:10099000440F551F837F842B80936900E99A089543
:1009A0001F920F920FB60F9211242F933F934F93E4
:1009B0005F936F937F938F939F93AF93BF93EF93C7
:1009C000FF938091120290911302892B29F0E091FC
:1009D0001202F09113020995FF91EF91BF91AF912F
:1009E0009F918F917F916F915F914F913F912F9147
:1009F0000F900FBE0F901F9018951F920F920FB679
:100A00000F9211242F933F934F935F936F937F9394
:100A10008F939F93AF93BF93EF93FF9380911402B3
:100A200090911502892B29F0E0911402F0911502A2
:100A30000995FF91EF91BF91AF919F918F917F9118
:100A40006F915F914F913F912F910F900FBE0F903B
:100A50001F9018951F920F920FB60F9211242F938B
:100A60003F934F935F936F937F938F939F93AF9336
:100A7000BF9320911A0230911B0240911C025091A9
:100A80001D0270911E02DA01C9010296A11DB11D5D
:100A9000672F6A5F6D3730F06D57DA01C901039631
:100AA000A11DB11D60931E0280931A0290931B0238
:100AB000A0931C02B0931D02809116029091170220
:100AC000A0911802B09119020196A11DB11D809349
:100AD000160290931702A0931802B0931902BF91C7
:100AE000AF919F918F917F916F915F914F913F91C6
:100AF0002F910F900FBE0F901F9018958FB7F894FD
:100B000020911A0230911B0240911C0250911D024B
:100B10008FBFB901CA0108959B01AC017FB7F8945A
:100B20008091160290911702A0911802B0911902BB
:100B300066B5A89B05C06F3F19F00196A11DB11DB8
:100B40007FBFBA2FA92F982F8827860F911DA11D2F
:100B5000B11D63E0880F991FAA1FBB1F6A95D1F7CB
:100B6000BC012DC0FFB7F894809116029091170236
:100B7000A0911802B0911902E6B5A89B05C0EF3FFD
:100B800019F00196A11DB11DFFBFBA2FA92F982FF3
:100B900088278E0F911DA11DB11DE3E0880F991FBD
:100BA000AA1FBB1FEA95D1F7861B970B885E93405F
:100BB000C8F2215030404040504068517C4F2115D0
:100BC00031054105510571F60895789484B5826028
:100BD00084BD84B5816084BD85B5826085BD85B5E1
:100BE000816085BDEEE6F0E0808181608083E1E890
:100BF000F0E01082808182608083808181608083C8
:100C0000E0E8F0E0808181608083E1EBF0E08081CA
:100C100084608083E0EBF0E0808181608083EAE79C
:100C2000F0E0808184608083808182608083808125
:100C3000816080838081806880831092C1000895E4
:100C40001F93CF93DF93182FEB0161E00E94800682
:100C5000209709F44AC0CF3FD10509F449C0E12FDC
:100C6000F0E0E255FF4F84918330C1F0843028F4E6
:100C7000813051F08230B1F50CC0863019F18730E7
:100C800049F1843079F514C084B5806884BDC7BD4E
:100C900033C084B5806284BDC8BD2EC08091800001
:100CA000806880938000D0938900C093880024C01E
:100CB00080918000806280938000D0938B00C093ED
:100CC0008A001AC08091B00080688093B000C09301
:100CD000B30012C08091B00080628093B000C093D6
:100CE000B4000AC0C038D1051CF4812F60E002C0F6
:100CF000812F61E00E94BF06DF91CF911F9108957F
:100D0000CF93DF93482F50E0CA0186569F4FFC01D6
:100D100034914A575F4FFA018491882369F190E03A
:100D2000880F991FFC01E859FF4FA591B491FC0170
:100D3000EE58FF4FC591D491662351F42FB7F89424
:100D40008C91932F909589238C93888189230BC054
:100D5000623061F42FB7F8948C91932F909589238A
:100D60008C938881832B88832FBF06C09FB7F8940C
:100D70008C91832B8C939FBFDF91CF910895482F47
:100D800050E0CA0182559F4FFC012491CA0186564A
:100D90009F4FFC0194914A575F4FFA0134913323DE
:100DA00009F440C0222351F1233071F0243028F49B
:100DB0002130A1F0223011F514C02630B1F02730D7
:100DC000C1F02430D9F404C0809180008F7703C033
:100DD000809180008F7D8093800010C084B58F77D4
:100DE00002C084B58F7D84BD09C08091B0008F772B
:100DF00003C08091B0008F7D8093B000E32FF0E0BE
:100E0000EE0FFF1FEE58FF4FA591B4912FB7F89446
:100E1000662321F48C919095892302C08C91892BB3
:100E20008C932FBF08950895CF93DF930E94E5051B
:100E30000E9413070E943801C0E0D0E00E94AF007A
:100E40002097E1F30E940000F9CFEE0FFF1F0590FD
:0A0E5000F491E02D0994F894FFCF0F
:00000001FF
