:100000000C9474000C949C000C949C000C949C0028
:100010000C949C000C949C000C949C000C949C00F0
:100020000C949C000C949C000C949C000C94FB037E
:100030000C949C000C949C000C949C000C949C00D0
:100040000C9487030C949C000C9487020C9461021E
:100050000C949C000C949C000C949C000C949C00B0
:100060000C94F2040C949C00084AD73B3BCE016EE2
:1000700084BCBFFDC12F3D6C74319ABD56833DDAFF
:100080003D00C77F11BED9E4BB4C3E916BAAAABE0E
:10009000000000803F0000000000240027002A002C
:1000A00000000000250028002B00040404040404C0
:1000B0000404020202020202030303030303010217
:1000C00004081020408001020408102001020408E6
:1000D00010200000000800020100000304070000D7
:1000E000000000000000A00E11241FBECFEFD8E0DA
:1000F000DEBFCDBF11E0A0E0B1E0EAE3FAE202C06A
:1001000005900D92AA34B107D9F723E0AAE4B1E033
:1001100001C01D92A33BB207E1F710E0C4E7D0E0B5
:1001200004C02197FE010E940913C337D107C9F704
:100130000E9431090C941B150C940000FC01538D96
:10014000448D252F30E0842F90E0821B930B5417B1
:1001500010F0CF96089501970895FC01918D828D3E
:10016000981761F0828DDF01A80FB11D5D968C910B
:10017000928D9F5F9F73928F90E008958FEF9FEF16
:100180000895FC01918D828D981731F0828DE80FD2
:10019000F11D858D90E008958FEF9FEF0895FC018C
:1001A000918D228D892F90E0805C9F4F821B910959
:1001B0008F739927089585ED92E00E94CF0021E08A
:1001C000892B09F420E0822F0895FC01848DDF0142
:1001D000A80FB11DA35ABF4F2C91848D90E00196BA
:1001E0008F739927848FA689B7892C93A089B189A9
:1001F0008C9180648C93938D848D981306C00288B3
:10020000F389E02D80818F7D80830895EF92FF92A6
:100210000F931F93CF93DF93EC0181E0888F9B8D29
:100220008C8D981305C0E889F989808185FD24C0EB
:10023000F62E0B8D10E00F5F1F4F0F731127E02E6E
:100240008C8DE8120CC00FB607FCFACFE889F9894B
:10025000808185FFF5CFCE010E94E500F1CF8B8D27
:10026000FE01E80FF11DE35AFF4FF0820B8FEA8980
:10027000FB898081806207C0EE89FF896083E889FD
:10028000F98980818064808381E090E0DF91CF9163
:100290001F910F91FF90EF900895CF93DF93EC01A2
:1002A000888D8823C9F0EA89FB89808185FD05C096
:1002B000A889B9898C9186FD0FC00FB607FCF5CFD0
:1002C000808185FFF2CFA889B9898C9185FFEDCF18
:1002D000CE010E94E500E7CFDF91CF91089580E045
:1002E00090E0892B29F00E94DB0081110C94000022
:1002F00008953FB7F89480915E0290915F02A091BB
:100300006002B091610226B5A89B05C02F3F19F08D
:100310000196A11DB11D3FBFBA2FA92F982F882785
:10032000820F911DA11DB11DBC01CD0142E0660FE0
:10033000771F881F991F4A95D1F7089585ED8093FF
:10034000BC008091BC0084FDFCCF1092B0020895E7
:1003500040913202262F30E0240F311D2132310529
:10036000DCF42091B0022430C9F4FC0180E090E07C
:10037000861758F4309132022191DC01A05FBD4F05
:10038000A30FB11D2C930196F3CF80913202680F19
:100390006093320280E0089581E0089582E008953C
:1003A0000895E091630280916202E81730F4F0E072
:1003B000E659FD4F808190E008958FEF9FEF0895FB
:1003C0009091630280916202981750F4E92FF0E057
:1003D000E659FD4F208130E09F5F9093630202C099
:1003E0002FEF3FEFC90108958091620290E02091C4
:1003F0006302821B91090895CF92DF92EF92FF92E0
:100400000F931F93CF93DF937C01262F972F8A01A1
:100410008091B102882391F0C62FD72F6E01C40EB0
:10042000D51ECC15DD0571F06991D701ED91FC91D8
:100430000190F081E02DC7010995F3CF642F822F41
:100440000E94A801C801DF91CF911F910F91FF90E9
:10045000EF90DF90CF900895CF93DF931F92CDB7A9
:10046000DEB769832091B1022223D1F02091D4021A
:10047000203240F021E030E0FC013383228380E031
:1004800090E015C08091B202E82FF0E0ED54FD4FEE
:10049000998190838F5F8093B2028093D40205C0CC
:1004A00061E0CE0101960E94A80181E090E00F90EA
:1004B000DF91CF910895089580E090E008950E9423
:1004C00006151F920F920FB60F9211242F933F9390
:1004D0004F935F936F937F938F939F93AF93BF934C
:1004E000EF93FF9385ED92E00E94E500FF91EF917D
:1004F000BF91AF919F918F917F916F915F914F913C
:100500003F912F910F900FBE0F901F9018951F9243
:100510000F920FB60F9211242F938F939F93EF9307
:10052000FF93E091E502F091E6028081E091EB0219
:10053000F091EC0282FD12C090818091EE028F5FFB
:100540008F732091EF02821751F0E091EE02F0E0FC
:10055000EB52FD4F958F8093EE0201C08081FF9199
:10056000EF919F918F912F910F900FBE0F901F9041
:10057000189590E0FC01EE52FF4F3491FC01E254DB
:10058000FF4F2491FC01E655FF4FE491EE2309F45F
:100590003BC0332339F1333091F038F43130A9F0D6
:1005A000323001F584B58F7D12C0373091F038308C
:1005B000A1F03430B9F4809180008F7D03C0809128
:1005C00080008F77809380000DC084B58F7784BDC5
:1005D00009C08091B0008F7703C08091B0008F7DFB
:1005E0008093B000F0E0EE0FFF1FE056FF4FA591A3
:1005F000B4918FB7F894EC91611103C020952E232C
:1006000001C02E2B2C938FBF0895CF93DF9390E0E2
:10061000FC01E254FF4F2491FC01E655FF4F849109
:10062000882361F190E0880F991FFC01EA56FF4F83
:10063000C591D491FC01E056FF4FA591B491611191
:1006400009C09FB7F8948881209582238883EC9114
:100650002E230BC0623061F49FB7F8943881822F4B
:10066000809583238883EC912E2B2C939FBF06C00B
:100670008FB7F894E8812E2B28838FBFDF91CF911D
:1006800008958F929F92AF92BF92CF92DF92EF9296
:10069000FF926B017C010E9479014B015C01C11446
:1006A000D104E104F104F1F00E947901DC01CB01F5
:1006B00088199909AA09BB09883E9340A105B1058B
:1006C00070F321E0C21AD108E108F10888EE880E23
:1006D00083E0981EA11CB11CC114D104E104F104F3
:1006E00019F7DDCFFF90EF90DF90CF90BF90AF90E4
:1006F0009F908F9008952FB7F89460915A0270914F
:100700005B0280915C0290915D022FBF08951F9261
:100710000F920FB60F9211242F933F938F939F93B5
:10072000AF93BF9380915A0290915B02A0915C02BB
:10073000B0915D023091590223E0230F2D3720F450
:100740000196A11DB11D05C026E8230F0296A11D2B
:10075000B11D2093590280935A0290935B02A0939B
:100760005C02B0935D0280915E0290915F02A09165
:100770006002B09161020196A11DB11D80935E02DD
:1007800090935F02A0936002B0936102BF91AF911A
:100790009F918F913F912F910F900FBE0F901F90BF
:1007A00018958EBD00000DB407FEFDCF8EB50895DF
:1007B000CF93DF9326E0880F991F2A95E1F7EC018C
:1007C000D66060E08AE00E94B9028D2F0E94D103BA
:1007D0008C2F0E94D103D82F80E00E94D103C82F14
:1007E00061E08AE00E94B902DF708C2F90E09D2BBF
:1007F000DF91CF9108951F920F920FB60F9211249F
:100800002F933F934F935F936F937F938F939F9318
:10081000AF93BF93EF93FF938091580287FF05C07A
:1008200010928500109284001BC020915802022E65
:10083000000C330B8091960390E02817390784F45D
:1008400080915802082E000C990BFC01EE0FFF1F3F
:100850008E0F9F1FFC01EE58FC4F808186FD15C056
:10086000809158028F5F8093580220915802022E87
:10087000000C330B8091960390E028173907C4F4DD
:10088000809158028C3064F113C080915802082E78
:10089000000C990BFC01EE0FFF1F8E0F9F1FFC0138
:1008A000EE58FC4F808160E08F730E94B902D8CF70
:1008B0008091840090918500049680349C4918F4BE
:1008C00080E49CE905C080918400909185000496A5
:1008D00090938900809388008FEF809358023BC0EB
:1008E000209184003091850080915802082E000CE0
:1008F000990BFC01EE0FFF1F8E0F9F1FFC01EE589E
:10090000FC4F81819281820F931F90938900809385
:10091000880080915802082E000C990BFC01EE0F04
:10092000FF1F8E0F9F1FFC01EE58FC4F808186FF3A
:1009300012C080915802082E000C990BFC01EE0F9A
:10094000FF1F8E0F9F1FFC01EE58FC4F808161E05E
:100950008F730E94B902FF91EF91BF91AF919F9168
:100960008F917F916F915F914F913F912F910F9058
:100970000FBE0F901F901895CF93CFB7F89480912A
:100980005702811127C0E4EBF0E08491E8ECF0E03D
:100990009491E82FF0E0EE0FFF1FEA56FF4FA5916C
:1009A000B491EC91E92321F461E08AE00E94B9025C
:1009B00061E08AE00E9405038CB580618CBD8CB536
:1009C00080648CBD61E08DE00E94050361E08BE0F6
:1009D0000E940503809157028F5F80935702CFBF1B
:1009E000CF9108951F920F920FB60F9211242F935B
:1009F0003F934F935F936F937F938F939F93AF93A7
:100A0000BF93EF93FF938091B900887F803609F4FC
:100A10009CC068F5883209F45BC090F4803109F419
:100A200054C038F4882309F4F6C0883009F44DC066
:100A3000F6C0883109F44CC0803209F45DC0EFC0C3
:100A4000803409F468C048F4803309F455C0883311
:100A500009F0E5C08093AE02D8C0803509F44FC0DC
:100A6000883509F45DC0883409F0D9C0D6C088390A
:100A700009F4C7C0A8F4883709F467C038F4883689
:100A800009F463C0803709F460C0C9C0883809F42C
:100A9000B8C0803909F45FC0803809F0C0C05BC0BD
:100AA000803B09F486C038F4803A09F466C0883A7D
:100AB00009F47FC0B4C0803C09F4A7C0883C09F4A5
:100AC000A4C0883B09F48AC0AAC080918B0210C0E0
:100AD0009091AD028091AC02981770F5E091AD0253
:100AE00081E08E0F8093AD02F0E0E457FD4F8081EE
:100AF0008093BB0085EC86C08093AE028EC0E091EF
:100B0000AD0281E08E0F8093AD028091BB00F0E0DA
:100B1000E457FD4F80839091AD028091AC026EC08E
:100B2000E091AD0281E08E0F8093AD028091BB0019
:100B3000F0E0E457FD4F80838091AF0281116DC0DA
:100B400081E080938A0284EA61C083E08093B002EE
:100B500010925602CFCF80915602803208F051C0D9
:100B6000E091560281E08E0F809356028091BB0087
:100B7000F0E0EA5CFD4F8083BDCF85EC8093BC0044
:100B80001092B00280915602803230F4E091560209
:100B9000F0E0EA5CFD4F10826091560270E0E09157
:100BA0003402F091350286E392E0099510925602E4
:100BB00036C084E08093B002109233021092320269
:100BC000E0913002F0913102099580913202811159
:100BD00005C081E08093320210921002E09133024E
:100BE00081E08E0F80933302F0E0E05FFD4F808163
:100BF0008093BB009091330280913202981708F4E1
:100C000079CF85E88093BC000AC085EC8093BC0056
:100C10001092B00204C01092AE020E949E01FF9199
:100C2000EF91BF91AF919F918F917F916F915F9164
:100C30004F913F912F910F900FBE0F901F901895DD
:100C40001092B00281E08093AF0210928A0261E0BC
:100C500082E10E94B90261E083E10E94B902E9EBFE
:100C6000F0E080818E7F808380818D7F808388E427
:100C70008093B80085E48093BC0008950F931F9380
:100C80000E947B036093DD027093DE028093DF029B
:100C90009093E002E091D502F091D6020284F385B0
:100CA000E02D85ED92E0099597FF1FC00E947B0320
:100CB0000091DD021091DE022091DF023091E0020E
:100CC000DC01CB01801B910BA20BB30B0091D9026D
:100CD0001091DA022091DB023091DC02801791073B
:100CE000A207B307B8F28FEF9FEF1F910F910895FE
:100CF0000F931F93CF93DF93C82FD62F09EA13E0EA
:100D000060E0F80182810E94B902CC0F8C2F8E77AF
:100D100081600E94D1038D2F0E94D10361E0F80110
:100D20008281DF91CF911F910F910C94B902FF92B4
:100D30000F931F93CF93DF93EC01F62E09EA13E094
:100D400060E0F80182810E94B902CE0123E096950D
:100D500087952A95E1F780680E94D1038C2F8295B0
:100D6000880F807E80610E94D1038F2D0E94D10365
:100D700061E0F8018281DF91CF911F910F91FF9087
:100D80000C94B9020F931F93CF93C82F09EA13E075
:100D900060E0F80182810E94B9028C2F880F8E7763
:100DA0000E94D10380E00E94D103C82F61E0F801C6
:100DB00082810E94B9028C2FCF911F910F910895CB
:100DC000382F2091D4029091D302213208F049C0EB
:100DD0008091B0028111FCCF42E04093B002309389
:100DE000AF023FEF3093AE021092AD022093AC02FF
:100DF000A3EBB2E04CE852E0FA013E2F341B32176D
:100E000018F43D913193F9CF10928B0220918B020F
:100E1000990F922B90938B0290918A02913061F4FA
:100E200010928A0290918B029093BB009091BC002B
:100E300093FDF8CF95EC01C095EE9093BC00909196
:100E4000B0029230E1F39091AE029F3F79F0809131
:100E5000AE02803241F08091AE02803331F084E006
:100E600005C081E003C082E001C083E01092B202BD
:100E70001092D4021092B10208959091B002911193
:100E8000FCCF91E09093B0024093AF022FEF2093FC
:100E9000AE021092AD02260F2093AC0290938B020B
:100EA00090918B02880F892B80938B0280918A020C
:100EB000813061F410928A0280918B028093BB0092
:100EC0008091BC0083FDF8CF85EC01C085EE809356
:100ED000BC008091B0028130E1F38091AD028617B1
:100EE00010F46091AD02ACE8B2E02AE632E0F9011C
:100EF0008E2F821B861718F48D918193F9CF862F40
:100F00000895CF93DF93C4E6D2E09D81906221E003
:100F10002093B1029093D3021092B2021092D402A5
:100F2000682F8DE993E00E942C0281E00E94E00688
:100F30008D8141E061E080620E943D071092630272
:100F4000809362028DE993E00E94E001DF91CF91EE
:100F50000895CF93C62F90916902906221E020936B
:100F6000B1029093D3021092B2021092D402682F71
:100F70008DE993E00E942C026C2F8DE993E00E9492
:100F80002C0281E0CF910C94E006CF93C82F80E033
:100F90000E94810761E070E001C0660FCA95EAF720
:100FA0006095682380E0CF910C94A90780E480933A
:100FB0007C0080917A00806480937A0080917A002E
:100FC00086FDFCCF809178002091790090E0922BF3
:100FD0000895CF9382E00E94C206C82F81E00E944C
:100FE000C2062C2F30E0322F2227A901482BCA013C
:100FF000CF9108950F931F93CF93DF938C01C9EA8C
:10100000D3E060E08A810E94B902C80123E096958E
:1010100087952A95E1F780680E94D103802F8295F9
:10102000880F807E0E94D10380E00E94D103182F98
:1010300061E08A810E94B902812FDF91CF911F91D7
:101040000F910895009769F0FC0101900020E9F7E5
:101050003197AF01481B590BBC0185ED92E00C9410
:10106000DF0880E090E00895CF93DF930E9422088C
:10107000EC0186E391E00E9422088C0F9D1FDF9116
:10108000CF9108958F929F92AF92BF920F931F932B
:10109000CF93DF93CDB7DEB7A1970FB6F894DEBF3D
:1010A0000FBECDBF19A2423008F44AE08E010F5D99
:1010B0001F4F842E912CA12CB12CA50194010E94CC
:1010C000E110E62FB901CA0101501109EA3014F408
:1010D000E05D01C0E95CD801EC93232B242B252B88
:1010E00061F7C8010E942208A1960FB6F894DEBFEE
:1010F0000FBECDBFDF91CF911F910F91BF90AF90E9
:101100009F908F900895EF92FF920F931F93CF932C
:10111000DF9300D0CDB7DEB78C01FC0111821082C5
:10112000138212821582148260E070E00E940A0924
:10113000F8012081318181110EC02115310519F08E
:10114000C9010E94A413F801118210821582148231
:101150001382128226C0F8011582148268E371E0BE
:10116000C9010E9414151DC089831A82F801E48008
:10117000F580FFEFEF1AFF0AB701C8010E940A09C4
:10118000882379F0F8012081318184819581BE0125
:101190006F5F7F4F820F931F0E941415F801F58235
:1011A000E4820E943E0697FFDFCFC8010F900F90A8
:1011B000DF91CF911F910F91FF90EF900895CF9203
:1011C000DF92EF92FF920F931F93CF93DF936C0107
:1011D0007A018B01C0E0D0E0CE15DF0589F0D8019F
:1011E0006D918D01D601ED91FC910190F081E02D82
:1011F000C6010995892B11F47E0102C02196ECCF1E
:10120000C701DF91CF911F910F91FF90EF90DF9079
:10121000CF9008950F931F93CF93DF93EC018881B4
:101220009981009729F02A813B812617370788F496
:101230008B016F5F7F4F0E943C14009761F0998390
:1012400088831B830A832C813D81232B11F4FC01AD
:10125000108281E001C080E0DF91CF911F910F915A
:101260000895CF93DF93CDB7DEB760970FB6F894AC
:10127000DEBF0FBECDBF789484B5826084BD84B5D7
:10128000816084BD85B5826085BD85B5816085BD81
:1012900080916E00816080936E0010928100809139
:1012A00081008260809381008091810081608093C1
:1012B0008100809180008160809380008091B100E6
:1012C00084608093B1008091B00081608093B00011
:1012D00080917A00846080937A0080917A008260A5
:1012E00080937A0080917A00816080937A00809167
:1012F0007A00806880937A001092C10060E080914B
:10130000A9030E94B9026AE070E080E090E00E94C8
:10131000410361E08091A9030E94B90264E170E099
:1013200080E090E00E94410368E988E10E9478062D
:1013300065E98EE20E94780663E080E092E00E9418
:10134000970661E081E092E00E94970660E882E003
:1013500092E00E94970668E283E092E00E9497067E
:1013600060E986E092E00E94970660E887E092E0FC
:101370000E94970660E188E092E00E94970661E291
:1013800080E292E00E94970660E88AE30E94780675
:1013900060E68FE30E94780660E48EE30E947806A0
:1013A00063E180E092E00E94970664E086E30E9499
:1013B000780660E086E30E94780661E070E080E0F5
:1013C00090E00E9441036AEC82E00E9478066EEF92
:1013D00081E00E94780660E684E00E94780661E081
:1013E00083E00E94780684E30E94C206682F68604A
:1013F00084E30E94780683E30E94C206682F686037
:1014000083E30E94780667E08FE292E00E949706ED
:1014100061E080E00E94780610920B0261E081E1B9
:101420000E94050361E080E10E94050310926902B9
:1014300010926302109262021092B2021092D402D1
:101440000E94200680916902806291E09093B1022F
:101450008093D3021092B2021092D40260E08DE920
:1014600093E00E942C026FEF8DE993E00E942C0222
:1014700060E08DE993E00E942C0260E08DE993E04A
:101480000E942C0260E08DE993E00E942C0260E053
:101490008DE993E00E942C0260E08DE993E00E94C8
:1014A0002C0260E08DE993E00E942C0260E08DE95F
:1014B00093E00E942C0260E08DE993E00E942C02F0
:1014C00060E08DE993E00E942C0281E00E94E0063A
:1014D00087E00E94C50786E00E94C50785E00E945C
:1014E000C50761E088E00E94050361E08AE00E9490
:1014F000050361E08AE00E94B9020E94BC048CB539
:101500008C7F81608CBD8DB581608DBD809197038E
:101510008C3008F051C061E085E00E9405038091A5
:101520009703E82FF0E09F01220F331FE20FF31F14
:10153000EE58FC4F9081907C9560908310929803B8
:10154000109299036CE00E94CC122CE0829FB001B3
:10155000112440E050E09A01260F371FF901EE0FE9
:10156000FF1F2E0F3F1FF901EE58FC4F908196FD93
:1015700016C04F5F5F4F4C30510569F781110FC0A6
:101580001092800082E0809381001092850010927A
:101590008400B19A80916F00826080936F00E09127
:1015A0009703F0E0CF01880F991FE80FF91FEE585D
:1015B000FC4F80818064808361E087E00E940503A6
:1015C00010926302109262021092B2021092D40240
:1015D0000E94200681E08093B10288E68093D302C6
:1015E0001092B2021092D4026BE68DE993E00E9451
:1015F0002C0260E08DE993E00E942C0281E00E94C1
:10160000E00668EE73E080E090E00E9441030E94F3
:101610007B032B013C0185ED92E00E94CF00892BDA
:1016200009F493C0CE0101960E94830809811A81B2
:101630000115110531F0C8010E94410F6B017C01B9
:1016400003C0C12CD12C7601C8010E94A41332E042
:10165000C316D104E104F10481F143E0C416D104BE
:10166000E104F10409F46DC0CA94CD28CE28CF2836
:1016700009F06BC08CE291E00E94340885ED92E0A5
:101680000E94CF00892BD1F3CE0101960E948308DE
:1016900009811A810115110521F0C8010E94410F2D
:1016A00001C060E060930D02C8010E94A413609124
:1016B0000D0270E080E090E038C089E391E00E9484
:1016C000340885ED92E00E94CF00892BD1F3CE0142
:1016D00001960E94830809811A810115110521F0E4
:1016E000C8010E94410F01C060E060930C02C80174
:1016F0000E94A413C0900C020C2C000CDD08EE0814
:10170000FF08F7FE14C0E091D502F091D6020190D7
:10171000F081E02D6DE285ED92E00995662777274F
:10172000CB016C197D098E099F094AE003C04AE08C
:10173000C701B6010E94420886E391E00E94220898
:1017400004C083E491E00E943408809107029091E4
:101750000802A0910902B0910A02A3019201281B7C
:10176000390B4A0B5B0B2A30310541055105D8F185
:1017700040920702509208026092090270920A0297
:1017800020910C022223E9F0E0910B02F0E0822F7D
:10179000022E000C990B97FF03C09195819591093A
:1017A00064E170E00E94D812E617F70754F427FDB1
:1017B00002C061E007C060E081E10E94B90261E01F
:1017C00005C060E081E10E94B90260E080E10E9412
:1017D000B90280910B02853020F48F5F80930B0259
:1017E00002C010920B02A0910D029091990380917A
:1017F0009803F09097033BE03F1508F454C078E558
:10180000C72E72E0D72EC91AD10897FDD394CC0CFD
:10181000DD1CCC0CDD1C08E810E0081B110987FD5D
:101820001395000F111F000F111F4801012E000C0E
:10183000AA08BB080A2E000CBB0BB7FF02C0A0E031
:10184000B0E0A6010D2C000C660B770B9A01AB01E2
:10185000281939094A095B090E94A21024EB30E0DB
:1018600040E050E00E947810820E931EA41EB51E28
:10187000801691062CF08401C814D9040CF486015A
:1018800002501109000F111F2FB7F8948F2D90E00F
:10189000FC01EE0FFF1F8E0F9F1FFC01EE58FC4F47
:1018A000128301832FBF81E08093B10248E6409309
:1018B000D3021092B2021092D4026BE38DE993E04E
:1018C0000E942C0280E00E94E00641E066E088E68B
:1018D0000E943D0710926302809362028DE993E0BB
:1018E0000E94E001182F8DE993E00E94E001188723
:1018F0001F82AF81B8858A2B9B2B9093F301809335
:10190000F2018DE993E00E94E001182F8DE993E048
:101910000E94E0011A871986E985FA858E2B9F2B94
:101920009093F5018093F4018DE993E00E94E0012A
:10193000182F8DE993E00E94E0011C871B860B8520
:101940001C85082B192B1093F7010093F601609169
:10195000F2017091F301072E000C880B990B0E9485
:101960007F0F9B01AC01B801110F880B990B2D87DC
:101970003E874F87588B0E947F0F2D853E854F8570
:1019800058890E94251121EE3EE245E652E40E946C
:10199000BA0F0E94F2117093F9016093F801625F2F
:1019A0007F4F81E06D32710508F480E09091030271
:1019B00089130AC0809105029091060201969093C6
:1019C00006028093050206C01092060210920502DC
:1019D0008093030280910502909106024A9720F0BD
:1019E00080910302809304020E947B034B015C01FF
:1019F0002091FA013091FB014091FC015091FD01D1
:101A00006091FE017091FF018091000290910102AE
:101A100026503F4F4F4F5F4F6F4F7F4F8F4F9F4F1E
:101A20001901B42FA52FF62FE72F8C019401A501E2
:101A300060E070E080E090E05101CB2EDA2EEF2ED6
:101A4000FE2E0E94EC1239F130F1809104028823BD
:101A500039F09091020281E089278093020202C04E
:101A6000109202026091020287E00E94B9020E9475
:101A70007B038B019C016093FA011093FB0120937F
:101A8000FC013093FD011092FE011092FF011092B3
:101A900000021092010242EEE42E41E0F42E6701B2
:101AA00000E010E060E088E00E94B902C8010E94F6
:101AB000D8035C0161E088E00E94B902C8010E947D
:101AC000D8039501281B390BC90137FF02C080E0FC
:101AD00090E0D6018D939D936D010F5F1F4F0830ED
:101AE000110501F70E94D60711E084970CF010E071
:101AF00089E00E948107682F112311F0606801C0FE
:101B00006F7789E00E94A90789E00E948107682F0A
:101B1000112311F0606401C06F7B89E00E94A90766
:101B20008091DE019091DF01A091E001B091E1018F
:101B3000A3019201281B390B4A0B5B0B243631059C
:101B40004105510508F4F9C00E94E9078E3F9A4CFF
:101B5000F1F564E089E30E94780680E093E00E945A
:101B6000FA07082F8AE093E00E94FA07CC24C39476
:101B7000D12C80914A0190E020919B0330919C03ED
:101B8000821B930BC816D9066CF4C601865F9C4F66
:101B90000E94FA07F601E65BFE4F80834FEFC41AFE
:101BA000D40AE7CF00934A0110E0C8018F5F9C4F31
:101BB0000E94FA078093BF01C8018E5F9C4F0E946C
:101BC000FA078093C00160E089E30E947806809163
:101BD0004B0180930C0280914C0180930D0269E0CF
:101BE00080E090E00E94970664E281E090E00E942D
:101BF000970661E682E090E00E94970668E883E03D
:101C000090E00E94970661E084E090E00E949706D1
:101C10000E94E907192F682F85E090E00E9497063F
:101C2000612F86E090E00E94970660E087E090E0F8
:101C30000E94970660E688E090E00E94970684E0A4
:101C40000E94C206082F83E00E94C20610E0102FF7
:101C50000027082B602F89E090E00E949706612FF3
:101C60008AE090E00E9497066AE28BE090E00E9492
:101C7000970623ECC22E21E0D22E0CE010E0D60114
:101C80006D916D01C8010E9497060F5F1F4F0732CB
:101C90001105A9F765E08BE10E9478068FEF80932C
:101CA000C3010E94D60721E084970CF020E0209326
:101CB000CB0180916702909168029093CA01809352
:101CC000C90180916402909165029093C80180934C
:101CD000C7018091F8019091F9019093C50180931B
:101CE000C401809104028093C601ECECF1E0D701BD
:101CF0008D919D917D0181939193B2EFEB16B1E0AF
:101D0000FB06A9F74092DE015092DF016092E001EC
:101D10007092E1018091C201882329F01092C201E2
:101D200060E081E008C08091C10180FD06C081E0D3
:101D30008093C20161E00E94B9020E946F0167CCEA
:101D40001092D8021092D70288EE93E0A0E0B0E0A3
:101D50008093D9029093DA02A093DB02B093DC0265
:101D60008AE091E09093D6028093D50285EC90E0D2
:101D70009093E2028093E10284EC90E09093E4027D
:101D80008093E30280EC90E09093E6028093E5027A
:101D900081EC90E09093E8028093E70282EC90E07F
:101DA0009093EA028093E90286EC90E09093EC0233
:101DB0008093EB021092EE021092EF021092F0026A
:101DC0001092F102809196038C30A0F491E0980F6C
:101DD000909396038093970390E0FC01EE0FFF1F12
:101DE0008E0F9F1FFC01EE58FC4F88EB9BE0928307
:101DF000818303C08FEF809397038BE090E09093F3
:101E00009C0380939B031092A00310929F0388EE83
:101E100093E0A0E0B0E08093A1039093A203A0938D
:101E2000A303B093A4038EE191E090939E0380936B
:101E30009D0384E090E09093AA038093A90389E036
:101E400090E09093AC038093AB0383E090E0909399
:101E5000AE038093AD0361E084E00E94050361E07E
:101E60008091AB030E94050360E08091AD030E9466
:101E700005038CB58F7D8CBD8CB5837F8CBD0C9498
:101E8000BC041F93FC0199278827BC01E894119199
:101E90001032E9F3193010F01E30C8F31B3251F044
:101EA0001D3249F4689406C00E94680F610F711DCD
:101EB000811D911D119110531A30B0F33EF490958D
:101EC0008095709561957F4F8F4F9F4F1F9108951B
:101ED000592F482F372F262F660F771F881F991FDE
:101EE000660F771F881F991F620F731F841F951F2E
:101EF000660F771F881F991F0895E89409C097FB04
:101F00003EF490958095709561957F4F8F4F9F4FD0
:101F10009923A9F0F92F96E9BB279395F695879514
:101F200077956795B795F111F8CFFAF4BB0F11F4D7
:101F300060FF1BC06F5F7F4F8F4F9F4F16C088237E
:101F400011F096E911C0772321F09EE8872F762FB4
:101F500005C0662371F096E8862F70E060E02AF0F5
:101F60009A95660F771F881FDAF7880F96958795E1
:101F700097F908950E94CD0F0C943E100E943010E6
:101F800038F00E94371020F0952311F00C942710A0
:101F90000C942D1011240C9472100E944F1070F3A9
:101FA000959FC1F3950F50E0551F629FF001729FFE
:101FB000BB27F00DB11D639FAA27F00DB11DAA1F0D
:101FC000649F6627B00DA11D661F829F2227B00D5A
:101FD000A11D621F739FB00DA11D621F839FA00DE5
:101FE000611D221F749F3327A00D611D231F849F35
:101FF000600D211D822F762F6A2F11249F5750408C
:102000009AF0F1F088234AF0EE0FFF1FBB1F661F06
:10201000771F881F91505040A9F79E3F510580F0CF
:102020000C9427100C9472105F3FE4F3983ED4F3A5
:10203000869577956795B795F795E7959F5FC1F773
:10204000FE2B880F911D9695879597F9089597F91E
:102050009F6780E870E060E008959FEF80EC08954E
:1020600000240A9416161706180609060895002477
:102070000A9412161306140605060895092E0394F1
:10208000000C11F4882352F0BB0F40F4BF2B11F465
:1020900060FF04C06F5F7F4F8F4F9F4F089557FDC4
:1020A0009058440F551F59F05F3F71F04795880FC6
:1020B00097FB991F61F09F3F79F08795089512165D
:1020C00013061406551FF2CF4695F1DF08C0161609
:1020D00017061806991FF1CF8695710561050894BA
:1020E0000895E894BB2766277727CB0197F90895D1
:1020F000052E97FB1EF400940E948F1057FD07D009
:102100000E94E11007FC03D04EF40C948F10509500
:102110004095309521953F4F4F4F5F4F08959095D3
:102120008095709561957F4F8F4F9F4F08950E94C6
:102130000311A59F900DB49F900DA49F800D911D3C
:1021400011240895B7FF0C9497100E949710821BDA
:10215000930B08952F923F924F925F926F927F92CE
:102160008F929F92AF92BF92CF92DF92EF92FF92A7
:102170000F931F93CF93DF93CDB7DEB7CA1BDB0B53
:102180000FB6F894DEBF0FBECDBF09942A883988F8
:1021900048885F846E847D848C849B84AA84B984FF
:1021A000C884DF80EE80FD800C811B81AA81B9810B
:1021B000CE0FD11D0FB6F894DEBF0FBECDBFED011F
:1021C0000895A1E21A2EAA1BBB1BFD010DC0AA1F78
:1021D000BB1FEE1FFF1FA217B307E407F50720F090
:1021E000A21BB30BE40BF50B661F771F881F991F0B
:1021F0001A9469F760957095809590959B01AC0154
:10220000BD01CF010895A29FB001B39FC001A39F5C
:10221000700D811D1124911DB29F700D811D11241F
:10222000911D08950E94301060F080E891E009F45B
:102230009EEF0E94371028F040E851E071F45EEF05
:102240000CC00C942D100C947110E92FE0780E94B2
:102250004F1040F3092E052AB1F326173707480718
:10226000590738F00E2E07F8E02569F0E025E06404
:102270000AC0EF6307F8009407FADB01B9019D017A
:10228000DC01CA01AD01EF930E9497110E943E103C
:102290000E9455115F91552339F02BED3FE049E441
:1022A00050FD49EC0C945C120895DF93DD27B92FA3
:1022B000BF7740E85FE31616170648075B0718F478
:1022C000D92F0E944F129F938F937F936F930E94F9
:1022D0005712E8E6F0E00E9428120E943E102F916B
:1022E0003F914F915F910E94CD0FDD2351F09058A7
:1022F000A2EA2AED3FE049EC5FE3D0785D270E9437
:102300007312DF910C943E100E94371058F00E9417
:10231000301040F029F45F3F29F00C942710511140
:102320000C9472100C942D100E944F1068F3992396
:10233000B1F3552391F3951B550BBB27AA276217C1
:102340007307840738F09F5F5F4F220F331F441FCE
:10235000AA1FA9F335D00E2E3AF0E0E832D0915002
:102360005040E695001CCAF72BD0FE2F29D0660FEF
:10237000771F881FBB1F261737074807AB07B0E832
:1023800009F0BB0B802DBF01FF2793585F4F3AF038
:102390009E3F510578F00C9427100C9472105F3F0B
:1023A000E4F3983ED4F3869577956795B795F795BE
:1023B0009F5FC9F7880F911D9695879597F90895A6
:1023C000E1E0660F771F881FBB1F62177307840742
:1023D000BA0720F0621B730B840BBA0BEE1F88F751
:1023E000E09508950E94F9116894B1110C9472104F
:1023F00008950E94571088F09F5798F0B92F992799
:10240000B751B0F0E1F0660F771F881F991F1AF0DF
:10241000BA95C9F714C0B13091F00E947110B1E0C3
:1024200008950C947110672F782F8827B85F39F0C2
:10243000B93FCCF3869577956795B395D9F73EF478
:1024400090958095709561957F4F8F4F9F4F089520
:10245000DF93CF931F930F93FF92EF92DF927B0155
:102460008C01689406C0DA2EEF010E94CD0FFE01A8
:10247000E894A5912591359145915591A6F3EF01E9
:102480000E947312FE019701A801DA9469F7DF90A8
:10249000EF90FF900F911F91CF91DF9108959B01D5
:1024A000AC0160E070E080E89FE30C94C8129B01EF
:1024B000AC010C94BA0F5058BB27AA270E94731284
:1024C0000C943E100E94301038F00E94371020F01B
:1024D00039F49F3F19F426F40C942D100EF4E09576
:1024E000E7FB0C942710E92F0E944F1058F3BA17FE
:1024F000620773078407950720F079F4A6F50C941A
:1025000071100EF4E0950B2EBA2FA02D0B01B9011E
:1025100090010C01CA01A0011124FF27591B99F059
:10252000593F50F4503E68F11A16F040A22F232F65
:10253000342F4427585FF3CF469537952795A795B5
:10254000F0405395C9F77EF41F16BA0B620B730B5C
:10255000840BBAF09150A1F0FF0FBB1F661F771FCD
:10256000881FC2F70EC0BA0F621F731F841F48F482
:10257000879577956795B795F7959E3F08F0B0CF0B
:102580009395880F08F09927EE0F979587950895F2
:102590000E9494110C943E10991B79E004C0991F7D
:1025A000961708F0961B881F7A95C9F780950895AD
:1025B00097FB072E16F4009407D077FD09D00E94F0
:1025C000F51207FC05D03EF4909581959F4F089534
:1025D000709561957F4F08952A153B054C055D0563
:1025E0006E057F05800791070895AA1BBB1B51E16B
:1025F00007C0AA1FBB1FA617B70710F0A61BB70B73
:10260000881F991F5A95A9F780959095BC01CD0117
:102610000895EE0FFF1F0590F491E02D0994CF93DC
:10262000DF938230910510F482E090E0E091B103F5
:10263000F091B20320E030E0C0E0D0E0309711F13B
:102640004081518148175907C0F04817590761F474
:1026500082819381209719F09B838A832BC090936A
:10266000B2038093B10326C02115310519F042173A
:10267000530718F49A01BE01DF01EF010280F381D4
:10268000E02DDCCF2115310509F1281B390B243051
:10269000310590F412968D919C91139761157105F7
:1026A00021F0FB019383828304C09093B203809353
:1026B000B103FD01329644C0FD01E20FF31F819387
:1026C0009193225031092D933C933AC02091AF034E
:1026D0003091B003232B41F420910201309103018A
:1026E0003093B0032093AF0320910001309101019A
:1026F0002115310541F42DB73EB7409104015091A9
:102700000501241B350BE091AF03F091B003E217F4
:10271000F307A0F42E1B3F0B2817390778F0AC0104
:102720004E5F5F4F2417350748F04E0F5F1F5093E1
:10273000B0034093AF038193919302C0E0E0F0E0D7
:10274000CF01DF91CF9108950F931F93CF93DF9324
:10275000009709F48CC0FC01329713821282009119
:10276000B1031091B2030115110581F4208131816B
:10277000820F931F2091AF033091B00328173907C0
:1027800079F5F093B003E093AF0371C0D80140E056
:1027900050E0AE17BF0750F412962D913C9113975D
:1027A000AD012115310509F1D901F3CF9D01DA0100
:1027B0003383228360817181860F971F821793076D
:1027C00069F4EC0128813981260F371F2E5F3F4FB6
:1027D000318320838A819B8193838283452B29F4D3
:1027E000F093B203E093B10342C01396FC93EE93CF
:1027F0001297ED01499159919E01240F351FE2175F
:10280000F30771F480819181840F951F02961196D0
:102810009C938E938281938113969C938E931297AF
:10282000E0E0F0E0D80112968D919C91139700970B
:1028300019F0F8018C01F6CF8D919C9198012E5FD3
:102840003F4F820F931F2091AF033091B0032817A1
:10285000390769F4309729F41092B2031092B1034A
:1028600002C0138212821093B0030093AF03DF9172
:10287000CF911F910F910895A0E0B0E0E2E4F4E160
:102880000C94AE10EC01009721F4CB010E940F13C1
:10289000B8C0FC01E60FF71F9C0122503109E21776
:1028A000F30708F4ACC0D9010D911C9111970617DC
:1028B0001707B0F00530110508F49FC0C801049750
:1028C0008617970708F499C002501109061B170BC9
:1028D000019311936D937C93CF010E94A4138DC03B
:1028E0005B01A01AB10A4C01800E911EA091B103A8
:1028F000B091B20340E050E0E12CF12C109709F4C4
:102900004AC0A815B905D1F56D907C901197630167
:1029100082E0C80ED11CCA14DB0480F1A3014A195D
:102920005B096A0182E0C80ED11C1296BC90129716
:102930001396AC91B5E0CB16D10440F0B282A383DC
:1029400051834083D9016D937C930AC00E5F1F4F62
:10295000C301800F911FF90191838083EB2DFA2F22
:10296000E114F10431F0D7011396FC93EE93129722
:1029700044C0F093B203E093B1033FC08D919C91AA
:1029800011974817590708F4AC017D0112960D9074
:10299000BC91A02DB3CF8091AF039091B003881567
:1029A0009905E1F446175707C8F48091000190910A
:1029B0000101009741F48DB79EB7409104015091F9
:1029C0000501841B950BE817F907C8F4F093B003D1
:1029D000E093AF03F901718360830FC0CB010E94C4
:1029E0000F137C01009759F0A801BE010E940B153E
:1029F000CE010E94A413C70104C0CE0102C080E032
:102A000090E0CDB7DEB7EEE00C94CA1081E090E024
:102A1000F8940C941B15FB01DC0102C001900D928F
:102A200041505040D8F70895FB01DC0101900D9210
:0A2A30000020E1F70895F894FFCFAD
:102A3A000000B3038000000000000601DF089E00CA
:102A4A004D01CF00AD00C1000900000000002C02BA
:102A5A00FC015C02D001F401E001D1015374656507
:102A6A0072696E673A000D0A005468726F74746C6A
:0A2A7A00653A00526561643A0000FD
:107E0000112484B714BE81FFF0D085E080938100F7
:107E100082E08093C00088E18093C10086E0809377
:107E2000C20080E18093C4008EE0C9D0259A86E02C
:107E300020E33CEF91E0309385002093840096BBD3
:107E4000B09BFECF1D9AA8958150A9F7CC24DD24C4
:107E500088248394B5E0AB2EA1E19A2EF3E0BF2EE7
:107E6000A2D0813461F49FD0082FAFD0023811F036
:107E7000013811F484E001C083E08DD089C08234E0
:107E800011F484E103C0853419F485E0A6D080C0E4
:107E9000853579F488D0E82EFF2485D0082F10E0AE
:107EA000102F00270E291F29000F111F8ED06801E7
:107EB0006FC0863521F484E090D080E0DECF843638
:107EC00009F040C070D06FD0082F6DD080E0C81688
:107ED00080E7D80618F4F601B7BEE895C0E0D1E017
:107EE00062D089930C17E1F7F0E0CF16F0E7DF06D8
:107EF00018F0F601B7BEE89568D007B600FCFDCFD4
:107F0000A601A0E0B1E02C9130E011968C91119780
:107F100090E0982F8827822B932B1296FA010C0160
:107F200087BEE89511244E5F5F4FF1E0A038BF0790
:107F300051F7F601A7BEE89507B600FCFDCF97BE46
:107F4000E89526C08437B1F42ED02DD0F82E2BD052
:107F50003CD0F601EF2C8F010F5F1F4F84911BD097
:107F6000EA94F801C1F70894C11CD11CFA94CF0C13
:107F7000D11C0EC0853739F428D08EE10CD085E9AC
:107F80000AD08FE07ACF813511F488E018D01DD067
:107F900080E101D065CF982F8091C00085FFFCCF94
:107FA0009093C60008958091C00087FFFCCF809118
:107FB000C00084FD01C0A8958091C6000895E0E648
:107FC000F0E098E1908380830895EDDF803219F02E
:107FD00088E0F5DFFFCF84E1DECF1F93182FE3DFCA
:107FE0001150E9F7F2DF1F91089580E0E8DFEE27F6
:047FF000FF270994CA
:027FFE00040479
:0400000300007E007B
:00000001FF