:100000000C946E000C9496000C9496000C94960040
:100010000C9496000C9496000C9496000C94960008
:100020000C9496000C9496000C9496000C94A904E1
:100030000C9496000C9496000C9496000C949600E8
:100040000C94E0070C9496000C9496000C94960087
:100050000C9496000C9496000C9496000C949600C8
:100060000C944F060C94960000000000240027001A
:100070002A0000000000250028002B0000000000DE
:1000800023002600290004040404040404040202DA
:100090000202020203030303030301020408102007
:1000A0004080010204081020010204081020000012
:1000B0000007000201000003040600000000000029
:1000C000000098004E0122042404850488048D0455
:1000D000BC0523042504860487048E0411241FBE56
:1000E000CFEFD8E0DEBFCDBF11E0A0E0B1E0ECE49F
:1000F000F3E102C005900D92A031B107D9F713E0EA
:10010000A0E1B1E001C01D92AA32B107E1F710E011
:10011000C2EDD0E004C02297FE010E949509C23CC6
:10012000D107C9F70E945D090C9499090C9400004D
:1001300080E191E064E070E049E050E023E030E0ED
:100140000E94FF030895CF92DF92EF92FF920F93E8
:100150001F936C017B0100E111E0C8010E94E303E1
:10016000C8010E94E901C801B7010E945D02C801EF
:10017000B6010E944B02C80161E00E942F03C80132
:1001800061E00E94DF011F910F91FF90EF90DF90DF
:10019000CF900895EF92FF920F931F930E9428082B
:1001A0007B018C0183E392E061E371E0A801970198
:1001B0000E9426048091330190913401A091350171
:1001C000B0913601A8019701281B390B4A0B5B0B34
:1001D000243631054105510508F440C080913101B4
:1001E00080932F01809132018093300186E68093C5
:1001F000160180E191E00E94A60280E191E061E3B6
:1002000071E00E94460180E191E060E070E64BE120
:100210000E94820380E191E066E171E00E94980112
:1002200080E191E00E946F028FEF80931601E092CF
:100230003301F0923401009335011093360180911F
:100240003701882329F01092370181E060E004C073
:1002500081E08093370161E00E9409091F910F91AD
:10026000FF90EF90089581E090E66EEF7AEC0E94A7
:10027000A30083E392E00E947A0481E061E00E949F
:10028000CA0881E061E00E9409090895FB0180919C
:100290003E01808380913F01818308958BE090E04F
:1002A00090933901809338010895FF920F931F9323
:1002B000CF93DF938C01EB01F42EFC01828160E08F
:1002C0000E940909CE0123E0969587952A95E1F7CA
:1002D00080688EBD0DB407FEFDCF8EB59E012295C0
:1002E000220F207E822F80618EBD0DB407FEFDCFD0
:1002F0008EB5FEBC0DB407FEFDCF8EB5F801828130
:1003000061E00E940909DF91CF911F910F91FF9049
:100310000895462F50E04B50504034E0440F551F95
:100320003A95E1F7436060E072E00E94550108955C
:10033000EF92FF920F931F93CF93DF937C018B017A
:10034000CCE0D0E0C701BE01F80141918F010E94CD
:1003500055012196C732D105A9F7DF91CF911F91A1
:100360000F91FF90EF9008950F931F93CF93DF931A
:10037000EC01162F042F8A8160E00E940909110FF9
:100380001E7711601EBD0DB407FEFDCF8EB50EBDEC
:100390000DB407FEFDCF8EB58A8161E00E94090988
:1003A000DF91CF911F910F91089569E340E00E9482
:1003B000B401089569E344E00E94B40108956623FE
:1003C00019F060E041E002C060E040E00E94B4014A
:1003D00008950F931F938C0168E148E90E94B401CE
:1003E000C8016EE245E90E94B401C80160E072E014
:1003F00043E00E945501C80161E072E041E00E94C3
:100400005501C80162E072E040E80E945501C80150
:1004100063E072E048E20E945501C80166E072E0C4
:1004200040E90E945501C80167E072E040E80E947F
:100430005501C80168E072E040E10E945501C80121
:1004400060E272E041E20E945501C8016AE340E8BF
:100450000E94B401C8016FE340E60E94B401C801E4
:100460006EE340E40E94B401C8016CE00E9489017F
:10047000C80166E344E00E94B401C80166E340E0BD
:100480000E94B40161E070E080E090E00E943608D4
:100490001F910F910895FF920F931F938C01F62ED9
:1004A000472F64E00E94B401C80163E04F2D0E9411
:1004B000B4011F910F91FF900895FF920F931F9326
:1004C0008C01F62E472F62E00E94B401C80161E062
:1004D0004F2D0E94B4011F910F91FF9008956BE181
:1004E00045E00E94B4010895EF92FF921F93CF93CD
:1004F000DF937C01EB01FC01828160E00E9409092D
:10050000CE0143E0969587954A95E1F780688EBDC8
:100510000DB407FEFDCF8EB59E012295220F207EE1
:100520002EBD0DB407FEFDCF8EB51EBC0DB407FE6B
:10053000FDCF1EB5F701828161E00E940909812F7C
:10054000DF91CF911F91FF90EF900895CF92DF92AE
:10055000EF92FF920F931F93CF93DF937C010E9442
:10056000DA01C70160E073E00E947402D82E809126
:100570003A01882399F0C1E0D3E00D2D10E00F5F20
:100580001C4F09C0C701BE010E947402FE01ED5458
:10059000F14080832196C017D107A1F7C7016AE017
:1005A00073E00E947402C82EC1E0D0E00BC0BE010F
:1005B000665F7C4FC7010E947402FE01E35CFE4F40
:1005C0008083219680913D0190E020913801309107
:1005D0003901821B930BC817D9074CF3D0923D0108
:1005E0000D2D10E00F5F1C4FC701B8010E9474026F
:1005F0008093B2010F5F1F4FC701B8010E947402C0
:100600008093B301C7010E94D5018C2DC11081E0F8
:10061000DF91CF911F910F91FF90EF90DF90CF90DE
:1006200008951F93CF93DF93EC01162F8A8160E02A
:100630000E940909110F1E771EBD0DB407FEFDCFE4
:100640008EB51EBC0DB407FEFDCF1EB58A8161E0DC
:100650000E940909812FDF91CF911F910895CF93B7
:10066000DF93EC016623C1F064E30E941103482F7D
:100670004860CE0164E30E94B401CE0163E30E94AE
:100680001103482F4860CE0163E30E94B401CE01FC
:100690006FE272E047E003C06FE272E040E00E9468
:1006A0005501DF91CF910895FF920F931F938C0115
:1006B00064E00E941103F82EC80163E00E94110358
:1006C0005F2D40E0282F30E0242B352BC9011F91EE
:1006D0000F91FF900895FF920F931F938C0162E09A
:1006E0000E941103F82EC80161E00E9411035F2DE2
:1006F00040E0282F30E0242B352BC9011F910F91AA
:10070000FF900895DF92EF92FF920F931F938C0159
:10071000E62ED72EF42E60E070E049E00E945501ED
:1007200040913B01475F4F0DC80161E070E00E94BE
:100730005501C80162E070E041E60E945501C80120
:1007400063E070E048E80E945501C80164E070E091
:1007500041E00E945501C8010E946B03482FF92E09
:10076000C80165E070E00E945501C80166E070E0D4
:100770004F2D0E945501C80167E070E04E2D0E9488
:100780005501C80168E070E04D2D0E945501C80177
:100790000E945403482FF92EC80169E070E00E94BE
:1007A0005501C8016AE070E04F2D0E945501C80153
:1007B0006BE070E04AE20E9455011F910F91FF909B
:1007C000EF90DF9008950F931F938C01FC018081BF
:1007D00060E00E9409096AE070E080E090E00E9419
:1007E0003608F801808161E00E94090964E170E047
:1007F00080E090E00E9436081F910F9108950F93BA
:100800001F938C01862FF801608371835383428389
:100810003583248361E00E94CA08F801828161E087
:100820000E94CA08F801848160E00E94CA0881E041
:100830000E94670580E00E9470050E9475051F9167
:100840000F9108950895089508950895EF92FF92E5
:100850000F931F93CF93DF93EC01FB018881998164
:10086000AA81BB8179018A01E81AF90A0A0B1B0BDC
:10087000D801C7010A97A105B105A8F128833983DA
:100880004A835B8320812223F9F08C81E82FF0E0FA
:10089000822F992787FD909597FF03C090958195AA
:1008A0009F4F64E170E00E946C09E617F70764F45B
:1008B00027FD03C081E161E009C081E160E00E94A1
:1008C000090980E161E006C081E160E00E94090958
:1008D00080E160E00E9409098C81853018F48F5F07
:1008E0008C8301C01C82DF91CF911F910F91FF90EB
:1008F000EF900895FC01148281E161E00E94CA0832
:1009000080E161E00E94CA0808950895089508955D
:1009100088E392E00E948F04089508950895FC01F1
:1009200080913C028C3090F480838F5F80933C02F6
:10093000815090E0FC01EE0FFF1FE80FF91FE35C10
:10094000FD4F88EB9BE09283818308958FEF808336
:1009500008951F920F920FB60F9211242F933F9379
:100960004F935F936F937F938F939F93AF93BF93B7
:10097000EF93FF938091610287FF05C0109285007D
:10098000109284002BC020916102332727FD3095FF
:1009900080913C0290E02817390704F580916102AC
:1009A000992787FD9095FC01EE0FFF1FE80FF91FB7
:1009B000E35CFD4F808186FF11C080916102992721
:1009C00087FD9095FC01EE0FFF1FE80FF91FE35C18
:1009D000FD4F80818F7360E00E9409098091610260
:1009E0008F5F8093610220916102332727FD30954C
:1009F00080913C0290E0281739070CF04EC080919E
:100A000061028C300CF049C0209184003091850047
:100A100080916102992787FD9095FC01EE0FFF1FE1
:100A2000E80FF91FE35CFD4F81819281280F391F88
:100A3000309389002093880080916102992787FD77
:100A40009095FC01EE0FFF1FE80FF91FE35CFD4FCF
:100A5000808186FF2BC080916102992787FD909548
:100A6000FC01EE0FFF1FE80FF91FE35CFD4F8081D3
:100A70008F7361E00E94090919C080E49CE905C0F8
:100A800080918400909185000496909389008093D2
:100A900088008FEF8093610209C08091840090915B
:100AA0008500049680549C4940F3EACFFF91EF9172
:100AB000BF91AF919F918F917F916F915F914F9176
:100AC0003F912F910F900FBE0F901F901895882384
:100AD00019F48CB5806202C08CB58F7D8CBD0895F1
:100AE0009CB5937F982B9CBD08958AE061E00E949D
:100AF00009098AE061E00E94CA088CB580618CBD5A
:100B00008CB580648CBD8DE061E00E94CA088BE0EA
:100B100061E00E94CA0808952091830230E080912C
:100B20008202281B3109C9010895409182028091F7
:100B30008302481718F02FEF3FEF0AC0E42FF0E0D0
:100B4000EE59FD4F8081282F30E04F5F40938202A5
:100B5000C9010895E091820280918302E81718F09C
:100B6000EFEFFFEF06C0F0E0EE59FD4F8081E82F78
:100B7000F0E0CF01089508951092AA021092A90200
:100B800088EE93E0A0E0B0E08093AB029093AC02DB
:100B9000A093AD02B093AE0284E091E09093A802DE
:100BA0008093A7020895CF92DF92EF92FF920F9366
:100BB0001F93CF93DF937C016B018A018091A60282
:100BC0008823A1F0C0E0D0E00DC0D701ED91FC91E9
:100BD000D601AC0FBD1F0190F081E02DC7016C91D3
:100BE00009952196C017D10780F304C0CB01642F6B
:100BF0000E943406C801DF91CF911F910F91FF90A1
:100C0000EF90DF90CF900895DF93CF930F92CDB701
:100C1000DEB7FC0169838091A6028823C9F0809128
:100C2000A502803238F081E090E09383828320E057
:100C300030E015C08091A402E82FF0E0EC57FD4FA2
:100C4000998190838F5F8093A4028093A50205C051
:100C5000CE01019661E00E94340621E030E0C90136
:100C60000F90CF91DF910895482F613210F081E00D
:100C700008958091B302843011F082E0089560936A
:100C8000FE02ADEDB2E0842F9C01F90102C081911A
:100C90008D938E2F841B8617D0F380E008951F92CA
:100CA0000F920FB60F9211242F933F934F935F93A0
:100CB0006F937F938F939F93AF93BF93EF93FF9324
:100CC0008091B90090E0887F90708036910509F49A
:100CD000F2C081369105CCF58832910509F47BC0CC
:100CE00089329105B4F48031910509F46FC08131E6
:100CF00091053CF4009709F447C1089709F04FC1EA
:100D000065C08831910509F466C0809709F047C134
:100D100082C08034910509F4A4C08134910544F463
:100D20008033910509F482C0C89709F038C189C0A1
:100D30008035910509F489C08835910509F496C07C
:100D40008834910509F02BC1AEC08839910509F4AA
:100D500013C189399105ECF48837910509F4ABC0CA
:100D6000893791054CF48836910509F4A4C0803781
:100D7000910509F014C19FC08838910509F4FCC0A1
:100D80008039910509F49DC08038910509F007C1AB
:100D900098C0803B910509F4C6C0813B91054CF495
:100DA000803A910509F49FC0883A910509F0F7C08F
:100DB000BAC0803C910509F4E3C0883C910509F470
:100DC000DFC0883B910509F0EAC0C2C08091B4023F
:100DD0008093BB00CFC09091DB028091DC0298171A
:100DE00068F49091DB02E92FF0E0E554FD4F80813B
:100DF0008093BB009F5F9093DB02BCC08091B502E3
:100E0000882309F44BC085ED8093BC008091BC0021
:100E100084FDFCCFC2C080E28093200385ED8093E7
:100E2000BC008091BC0084FDFCCFB7C080E3809300
:100E3000200385ED8093BC008091BC0084FDFCCF35
:100E4000ACC088E3809320039BC08091DB0290912B
:100E5000BB00E82FF0E0E554FD4F90838F5F809357
:100E6000DB029091DB028091DC0282C08091DB0288
:100E70009091BB00E82FF0E0E554FD4F90838F5F29
:100E80008093DB028091B502882341F085ED809349
:100E9000BC008091BC0084FDFCCF7FC081E08093CA
:100EA000B60284EA6EC085ED8093BC008091BC00E0
:100EB00084FDFCCF72C083E08093B30210921F03C5
:100EC00059C080911F03803208F056C080911F03E3
:100ED0009091BB00E82FF0E0E150FD4F90838F5FD1
:100EE00080931F0347C080911F03803230F4E0914C
:100EF0001F03F0E0E150FD4F108285ED8093BC00B0
:100F00008091BC0084FDFCCF1092B30260911F035E
:100F1000E091B902F091BA028FEF92E070E009958A
:100F200010921F032DC084E08093B3021092FD0243
:100F30001092FE02E091B702F091B80209958091FB
:100F4000FE02882329F481E08093FE021092DD02E4
:100F50009091FD02E92FF0E0E352FD4F80818093F4
:100F6000BB009F5F9093FD029091FD028091FE0275
:100F7000981710F485EC01C085E88093BC000FC081
:100F800085EC8093BC0009C01092200385ED80930E
:100F9000BC008091BC0084FDFCCF1092B302FF9195
:100FA000EF91BF91AF919F918F917F916F915F91E1
:100FB0004F913F912F910F900FBE0F901F9018955A
:100FC0001F920F920FB60F9211242F933F938F937E
:100FD0009F93AF93BF938091250390912603A09197
:100FE0002703B0912803309129030196A11DB11D5B
:100FF000232F2D5F2D3720F02D570196A11DB11DF8
:10100000209329038093250390932603A09327031D
:10101000B09328038091210390912203A091230390
:10102000B09124030196A11DB11D809321039093DB
:101030002203A0932303B0932403BF91AF919F9108
:101040008F913F912F910F900FBE0F901F90189589
:101050008FB7F89420912503309126034091270300
:10106000509128038FBFB901CA0108959B01AC01BB
:101070007FB7F8948091210390912203A0912303DC
:10108000B091240366B5A89B05C06F3F19F0019687
:10109000A11DB11D7FBFBA2FA92F982F8827860FBA
:1010A000911DA11DB11D62E0880F991FAA1FBB1FD2
:1010B0006A95D1F7BC012DC0FFB7F8948091210348
:1010C00090912203A0912303B0912403E6B5A89B3D
:1010D00005C0EF3F19F00196A11DB11DFFBFBA2F4A
:1010E000A92F982F88278E0F911DA11DB11DE2E019
:1010F000880F991FAA1FBB1FEA95D1F7861B970B74
:10110000885E9340C8F221503040404050406851C2
:101110007C4F211531054105510571F608957894EC
:1011200084B5826084BD84B5816084BD85B58260EC
:1011300085BD85B5816085BDEEE6F0E0808181608A
:101140008083E1E8F0E0108280818260808380818A
:1011500081608083E0E8F0E0808181608083E1EB62
:10116000F0E0808184608083E0EBF0E0808181604A
:101170008083EAE7F0E08081846080838081826000
:1011800080838081816080838081806880831092E9
:10119000C1000895CF93DF93482F50E0CA018656CF
:1011A0009F4FFC0134914A575F4FFA018491882385
:1011B00069F190E0880F991FFC01E859FF4FA59154
:1011C000B491FC01EE58FF4FC591D491662351F4C0
:1011D0002FB7F8948C91932F909589238C938881C5
:1011E00089230BC0623061F42FB7F8948C91932F50
:1011F000909589238C938881832B88832FBF06C089
:101200009FB7F8948C91832B8C939FBFDF91CF91E4
:101210000895482F50E0CA0182559F4FFC01249148
:10122000CA0186569F4FFC0194914A575F4FFA01BD
:101230003491332309F440C0222351F1233071F05B
:10124000243028F42130A1F0223011F514C02630CA
:10125000B1F02730C1F02430D9F404C0809180006F
:101260008F7703C0809180008F7D8093800010C0B5
:1012700084B58F7702C084B58F7D84BD09C080910D
:10128000B0008F7703C08091B0008F7D8093B00055
:10129000E32FF0E0EE0FFF1FEE58FF4FA591B49142
:1012A0002FB7F894662321F48C919095892302C07E
:1012B0008C91892B8C932FBF0895CF93DF930E943D
:1012C0008F080E943301C0E0D0E00E94CA0020973E
:1012D000E1F30E940000F9CF97FB092E07260AD000
:1012E00077FD04D00CD006D000201AF470956195DB
:1012F0007F4F0895F6F7909581959F4F0895AA1B0B
:10130000BB1B51E107C0AA1FBB1FA617B70710F0F0
:10131000A61BB70B881F991F5A95A9F78095909522
:10132000BC01CD010895EE0FFF1F0590F491E02D53
:10133000099410E0C2EDD0E004C0FE010E949509BE
:0C1340002296CC3DD107C9F7F894FFCFEE
:10134C00000000000406D3058C059505AA05BB0515
:00000001FF
