:100000000C9485000C94610D0C948E0D0C94AD0035
:100010000C94AD000C94AD000C94AD000C94AD00AC
:100020000C94AD000C94AD000C94AD000C94BD028A
:100030000C94AD000C94AD000C94AD000C94AD008C
:100040000C94BB0D0C94AD000C94AD000C94AD0061
:100050000C94AD000C94AD000C94AD000C94AD006C
:100060000C9439050C94AD00084AD73B3BCE016E89
:1000700084BCBFFDC12F3D6C74319ABD56833DDAFF
:100080003D00C77F11BED9E4BB4C3E916BAAAABE0E
:10009000000000803F00000000240027002A00002C
:1000A000000000250028002B00000000002300268F
:1000B00000290004040404040404040202020202ED
:1000C000020303030303030102040810204080011C
:1000D000020408102001020408102000000007009C
:1000E0000201000003040600000000000000000000
:1000F000B000DA030807EB093B0AAE0AC50A460B53
:10010000EC093C0AAF0ABE0A470B11241FBECFEF11
:10011000D8E0DEBFCDBF11E0A0E0B1E0E0EDF6E257
:1001200002C005900D92A231B107D9F713E0A2E108
:10013000B1E001C01D92AF3CB107E1F710E0C0E0B3
:10014000D1E004C02297FE010E945713C03FD1079F
:10015000C9F70E94C60F0C945B130C94000008951D
:1001600082E191E064E070E049E050E023E030E0BB
:100170000E94BF0908950F931F9308E111E08FEFCC
:10018000809318018EE193E0B8010E94FF098FE48B
:1001900093E0B8010E949C0B88E293E0B8010E94B2
:1001A0009C0A1F910F910895CF92DF92EF92FF92D8
:1001B0000F931F936C017B0102E111E0C8010E94C3
:1001C000A309C8010E94AA07C801B7010E941B0821
:1001D000C801B6010E940908C80161E00E944307F6
:1001E00081E065E071E041E050E00E943E0D1F912A
:1001F0000F91FF90EF90DF90CF90089582E191E012
:1002000061E371E00E94E806089582E191E00E94B6
:1002100082080895EF92FF920F931F930E940F0E92
:100220007B018C0182E191E06EEF70E04FEA50E0DB
:100230000E94F20683E293E061E371E0A801970176
:100240000E943D0A87E493E0609132010E94CC0A4B
:100250008FE493E00E943E0C8EE193E00E941A0A24
:100260008091360190913701A0913801B091390108
:10027000A8019701281B390B4A0B5B0B283C310561
:1002800041055105D8F00E94BB0082E191E060E099
:1002900070E649E10E94480982E191E068E171E07D
:1002A0000E945E0782E191E00E942D08E0923601F3
:1002B000F092370100933801109339011F910F918B
:1002C000FF90EF90089581E090E66EEF7AEC0E9447
:1002D000D40083E293E00E94910A8EE193E062E30E
:1002E00070E00E94E20987E493E00E94360B8FE4FD
:1002F00093E00E943A0D8AE061E00E94330F789407
:100300000895FC0180913A018C3090F480838F5FD6
:1003100080933A01815090E0FC01EE0FFF1FE80F3F
:10032000F91FE55CFE4F8CED95E092838183089583
:100330008FEF80830895FC0130813C3078F5818116
:10034000992787FD909548E850E0481B590B440FCA
:10035000551F440F551F6417750784F08281992734
:1003600087FD909548E552E0481B590B440F551FF7
:10037000440F551F641775070CF4AB012FB7F894A1
:10038000832F90E0FC01EE0FFF1FE80FF91FE55CE3
:10039000FE4F42505040528341832FBF0895AF9289
:1003A000BF92CF92DF92EF92FF920F931F93CF9362
:1003B000DF93EC019B0182E0603278070CF048C0CB
:1003C00077FF03C020E030E005C0653B710514F005
:1003D00024EB30E000D000D0B901882777FD80956C
:1003E000982F2981332727FD3095E8E8AE2EB12CD0
:1003F000A21AB30AAA0CBB1CAA0CBB1CCC24B7FCC7
:10040000C094DC2CEA81FF27E7FDF09528E532E077
:100410002E1B3F0B220F331F220F331F442737FDA4
:100420004095542FEDB7FEB7218332834383548325
:1004300020E030E040E050E004EBE02EF12C012D14
:10044000112D0E94D50F9B010F900F900F900F90D0
:10045000CE01B9010E949B01DF91CF911F910F91B5
:10046000FF90EF90DF90CF90BF90AF900895CF9224
:10047000DF92EF92FF921F93CF93DF93EC01162F41
:100480007A01690188818C3008F064C0862F61E0B0
:100490000E94330F888190E0FC01EE0FFF1FE80FF0
:1004A000F91FE55CFE4F1F738081807C812B808368
:1004B00080E292E08E199F0964E070E00E94F112E0
:1004C000698380E699E08C199D0964E070E00E94E0
:1004D000F1126A83A8818A2F6CE00E94E512682FCE
:1004E00070E0AB01440F551F460F571F440F551FB7
:1004F000440F551F20E030E0C901840F951FFC0117
:10050000EE0FFF1FE80FF91FE55CFE4F808186FDAF
:1005100015C02F5F3F4F2C30310571F724C010926A
:10052000800082E080938100109285001092840008
:10053000B19A80916F00826080936F008A2F90E063
:10054000FC01EE0FFF1FE80FF91FE55CFE4F8081F5
:10055000806480838881DF91CF911F91FF90EF901D
:10056000DF90CF900895672BD1F2E8CF40E252E0C0
:1005700020E639E00E94370208951F920F920FB6CD
:100580000F9211242F933F934F935F936F937F9319
:100590008F939F93AF93BF93EF93FF9380915F01EE
:1005A00087FF05C010928500109284002BC0209117
:1005B0005F01332727FD309580913A0190E028179D
:1005C000390704F580915F01992787FD9095FC011B
:1005D000EE0FFF1FE80FF91FE55CFE4F808186FFDD
:1005E00011C080915F01992787FD9095FC01EE0F66
:1005F000FF1FE80FF91FE55CFE4F80818F7360E0FD
:100600000E94720F80915F018F5F80935F01209144
:100610005F01332727FD309580913A0190E028173C
:1006200039070CF04EC080915F018C300CF049C04E
:10063000209184003091850080915F01992787FD8A
:100640009095FC01EE0FFF1FE80FF91FE55CFE4FD0
:1006500081819281280F391F30938900209388006F
:1006600080915F01992787FD9095FC01EE0FFF1F98
:10067000E80FF91FE55CFE4F808186FF2BC080915B
:100680005F01992787FD9095FC01EE0FFF1FE80F92
:10069000F91FE55CFE4F80818F7361E00E94720F4D
:1006A00019C080E29EE405C080918400909185008D
:1006B000049690938900809388008FEF80935F0168
:1006C00009C08091840090918500049680529E44D8
:1006D00040F3EACFFF91EF91BF91AF919F918F913E
:1006E0007F916F915F914F913F912F910F900FBE2E
:1006F0000F901F901895882319F48CB5806202C062
:100700008CB58F7D8CBD08959CB5937F982B9CBD37
:1007100008958AE061E00E94720F8AE061E00E9421
:10072000330F8CB580618CBD8CB580648CBD8DE041
:1007300061E00E94330F8BE061E00E94330F089567
:1007400081E08093A501609382011092A301109231
:10075000A40108952091810130E080918001281B3F
:100760003109C901089540918001809181014817A4
:1007700018F02FEF3FEF0AC0E42FF0E0E05AFE4FF1
:100780008081282F30E04F5F40938001C901089598
:10079000E091800180918101E81718F0EFEFFFEF01
:1007A00006C0F0E0E05AFE4F8081E82FF0E0CF0174
:1007B000089508951092A9011092A80188EE93E07F
:1007C000A0E0B0E08093AA019093AB01A093AC01AC
:1007D000B093AD0185E091E09093A7018093A601CD
:1007E0000895CF92DF92EF92FF920F931F93CF93D2
:1007F000DF937C016B018A018091A5018823A1F020
:10080000C0E0D0E00DC0D701ED91FC91D601AC0F56
:10081000BD1F0190F081E02DC7016C9109952196D3
:10082000C017D10780F304C0CB01642F0E941E05BE
:10083000C801DF91CF911F910F91FF90EF90DF9052
:10084000CF900895DF93CF930F92CDB7DEB7FC0121
:1008500069838091A5018823C9F08091A401803229
:1008600038F081E090E09383828320E030E015C08F
:100870008091A301E82FF0E0ED57FE4F998190831E
:100880008F5F8093A3018093A40105C0CE010196E0
:1008900061E00E941E0521E030E0C9010F90CF9178
:1008A000DF9108950F93062F8091820163E871E034
:1008B0004091A40121E00E94C9041092A30110926A
:1008C000A4011092A5010F910895413208F040E271
:1008D000862F60E671E00E94800410928001809370
:1008E000810108950E94650408951092800110927C
:1008F00081011092A3011092A4010E94CA060895DA
:10090000382F413210F040E042C08091B20188237C
:10091000E1F791E09093B2012093B4018FEF8093BF
:100920001F021092DA0141504093DB014F5F909318
:10093000B3018091B301330F832B8093B301809176
:10094000B501813041F41092B5018091B3018093DB
:10095000BB0085EC01C085EE8093BC008091B201A4
:100960008130E1F38091DA01841710F44091DA01CB
:1009700020E030E00AC0FB01E20FF31FD901A654CA
:10098000BE4F8C9180832F5F3F4F2417A0F3842F9D
:1009900008950F931F93582F122F413210F081E0CA
:1009A0004AC08091B2018823E1F782E08093B201CE
:1009B0000093B4018FEF80931F021092DA014093ED
:1009C000DB01AAEBB1E0FB0102C081918D938E2F78
:1009D000861B8417D0F31092B3018091B301550F99
:1009E000852B8093B3018091B501813041F4109241
:1009F000B5018091B3018093BB0085EC01C085EE09
:100A00008093BC00112321F08091B2018230E1F388
:100A100080911F028F3F11F480E00DC080911F0272
:100A2000803211F482E007C080911F02803311F000
:100A300084E001C083E01F910F910895482F613237
:100A400010F081E008958091B201843011F082E0CD
:100A500008956093FD01ACEDB1E0842F9C01F90194
:100A600002C081918D938E2F841B8617D0F380E076
:100A700008951F920F920FB60F9211242F933F9358
:100A80004F935F936F937F938F939F93AF93BF9396
:100A9000EF93FF938091B90090E0887F907080364B
:100AA000910509F4F2C081369105CCF588329105A3
:100AB00009F47BC089329105B4F48031910509F4C1
:100AC0006FC0813191053CF4009709F447C1089744
:100AD00009F04FC165C08831910509F466C080975F
:100AE00009F047C182C08034910509F4A4C0813463
:100AF000910544F48033910509F482C0C89709F048
:100B000038C189C08035910509F489C088359105BF
:100B100009F496C08834910509F02BC1AEC088391C
:100B2000910509F413C189399105ECF488379105D1
:100B300009F4ABC0893791054CF48836910509F466
:100B4000A4C08037910509F014C19FC08838910571
:100B500009F4FCC08039910509F49DC080389105E5
:100B600009F007C198C0803B910509F4C6C0813BDC
:100B700091054CF4803A910509F49FC0883A91059B
:100B800009F0F7C0BAC0803C910509F4E3C0883C85
:100B9000910509F4DFC0883B910509F0EAC0C2C0A5
:100BA0008091B3018093BB00CFC09091DA01809116
:100BB000DB01981768F49091DA01E92FF0E0E65430
:100BC000FE4F80818093BB009F5F9093DA01BCC091
:100BD0008091B401882309F44BC085ED8093BC005B
:100BE0008091BC0084FDFCCFC2C080E280931F02D4
:100BF00085ED8093BC008091BC0084FDFCCFB7C024
:100C000080E380931F0285ED8093BC008091BC003F
:100C100084FDFCCFACC088E380931F029BC0809111
:100C2000DA019091BB00E82FF0E0E654FE4F90838C
:100C30008F5F8093DA019091DA018091DB0182C0AD
:100C40008091DA019091BB00E82FF0E0E654FE4F6E
:100C500090838F5F8093DA018091B401882341F003
:100C600085ED8093BC008091BC0084FDFCCF7FC0EB
:100C700081E08093B50184EA6EC085ED8093BC006D
:100C80008091BC0084FDFCCF72C083E08093B201F0
:100C900010921E0259C080911E02803208F056C088
:100CA00080911E029091BB00E82FF0E0E250FE4FD1
:100CB00090838F5F80931E0247C080911E02803216
:100CC00030F4E0911E02F0E0E250FE4F108285ED1C
:100CD0008093BC008091BC0084FDFCCF1092B201D7
:100CE00060911E02E091B801F091B9018EEF91E0A0
:100CF00070E0099510921E022DC084E08093B2012D
:100D00001092FC011092FD01E091B601F091B70143
:100D100009958091FD01882329F481E08093FD01EC
:100D20001092DC019091FC01E92FF0E0E452FE4FBB
:100D300080818093BB009F5F9093FC019091FC01A8
:100D40008091FD01981710F485EC01C085E880932F
:100D5000BC000FC085EC8093BC0009C010921F023C
:100D600085ED8093BC008091BC0084FDFCCF109287
:100D7000B201FF91EF91BF91AF919F918F917F91C0
:100D80006F915F914F913F912F910F900FBE0F90F8
:100D90001F9018951092B20181E08093B4011092D7
:100DA000B50182E161E00E94720F83E161E00E947F
:100DB000720FE9EBF0E080818E7F808380818D7FF0
:100DC000808380E28093B80085E48093BC0008951E
:100DD000E8E2F2E0DB0181918D9382E0ED32F807E9
:100DE000D1F70895CF93DF93FB01EA0180912002B0
:100DF000882319F0109220020995809121028823FE
:100E000021F010922102FE010995DF91CF91089502
:100E10008BE090E090932302809322020895FF924A
:100E20000F931F93CF93DF938C01EB01F42EFC0102
:100E3000828160E00E94720FCE0123E09695879533
:100E40002A95E1F780688EBD0DB407FEFDCF8EB503
:100E50009E012295220F207E822F80618EBD0DB4CF
:100E600007FEFDCF8EB5FEBC0DB407FEFDCF8EB5DF
:100E7000F801828161E00E94720FDF91CF911F9192
:100E80000F91FF900895662321F06FE272E047E032
:100E900003C06FE272E040E00E940F070895462F02
:100EA00050E04B50504034E0440F551F3A95E1F765
:100EB000436060E072E00E940F070895EF92FF9296
:100EC0000F931F93CF93DF937C018B01CBE0D0E096
:100ED000C701BE01F80141918F010E940F072196C1
:100EE000C432D105A9F7DF91CF911F910F91FF90E7
:100EF000EF9008950F931F93CF93DF93EC01162F7C
:100F0000042F8A8160E00E94720F110F1E7711601A
:100F10001EBD0DB407FEFDCF8EB50EBD0DB407FE90
:100F2000FDCF8EB58A8161E00E94720FDF91CF9173
:100F30001F910F91089569E340E00E947A07089598
:100F400069E344E00E947A07089562E346EF0E9455
:100F50007A0708950F931F938C0168E148E90E9476
:100F60007A07C8016EE245E90E947A07C80160E08D
:100F700072E043E00E940F07C80161E072E041E0C7
:100F80000E940F07C80162E072E040E80E940F076C
:100F9000C80166E072E040E90E940F07C80167E0FF
:100FA00072E040E80E940F07C80168E072E040E18B
:100FB0000E940F07C80160E272E041E20E940F0741
:100FC000C8016AE340E80E947A07C8016FE340E67F
:100FD0000E947A07C8016EE340E40E947A07C801C4
:100FE0000E94A507C8016CE00E944F07C80166E394
:100FF00044E00E947A07C80166E340E00E947A0755
:1010000061E070E080E090E00E941D0E1F910F9162
:101010000895FF920F931F938C01F62E472F64E0E3
:101020000E947A07C80163E04F2D0E947A071F9142
:101030000F91FF900895FF920F931F938C01F62E4E
:10104000472F62E00E947A07C80161E04F2D0E949D
:101050007A071F910F91FF9008956BE145E00E9480
:101060007A070895EF92FF921F93CF93DF937C014D
:10107000EB01FC01828160E00E94720FCE0143E02F
:10108000969587954A95E1F780688EBD0DB407FE69
:10109000FDCF8EB59E012295220F207E2EBD0DB470
:1010A00007FEFDCF8EB51EBC0DB407FEFDCF1EB5ED
:1010B000F701828161E00E94720F812FDF91CF9151
:1010C0001F91FF90EF9008951F93CF93DF93EC0152
:1010D000162F8A8160E00E94720F110F1E771EBDCD
:1010E0000DB407FEFDCF8EB51EBC0DB407FEFDCFBF
:1010F0001EB58A8161E00E94720F812FDF91CF912E
:101100001F910895AF92BF92DF92EF92FF920F93DB
:101110001F93CF93DF937C0161E30E946408A82EA4
:1011200083FF5BC0809120028F5F80932002F89440
:10113000C7010E94A007C70160E073E00E94320867
:10114000D82E80912402882339F0C1E0D3E00D2D00
:1011500010E00F5F1C4F0EC008E212E0C0E0D0E0CC
:1011600018C0C701BE010E943208FE01E356F040DC
:1011700080832196C017D107A1F7EECFC65FDC4F61
:10118000C701BE010E943208F80181938F01C95046
:10119000D3408091270290E02091220230912302D7
:1011A000821B930BC817D9074CF3D09227020D2D41
:1011B00010E00F5F1C4FC701B8010E9432088093F6
:1011C0009C020F5F1F4FC701B8010E943208809335
:1011D0009D02C7010E949B077894A0FE21C08091C8
:1011E00021028F5F80932102C70164E20E9464089C
:1011F000282F30E040E0C9018E7F892B09F441E0BF
:1012000080911D03887F56E0359527955A95E1F723
:10121000922F9370990F842B892B877F80931D03C6
:10122000DF91CF911F910F91FF90EF90DF90BF90D2
:10123000AF900895FF920F931F938C0164E00E947A
:101240006408F82EC80163E00E9464085F2D40E046
:10125000282F30E0242B352BC9011F910F91FF90CF
:101260000895FF920F931F938C0162E00E9464081F
:10127000F82EC80161E00E9464085F2D40E0282F2D
:1012800030E0242B352BC9011F910F91FF90089559
:10129000DF92EF92FF920F931F938C01E62ED72ED1
:1012A000F42E60E070E049E00E940F0740912502B3
:1012B000475F4F0DC80161E070E00E940F07C80151
:1012C00062E070E041E60E940F07C80163E070E051
:1012D00048E80E940F07C80164E070E041E00E9406
:1012E0000F07C8010E943109482FF92EC80165E097
:1012F00070E00E940F07C80166E070E04F2D0E9469
:101300000F07C80167E070E04E2D0E940F07C8016B
:1013100068E070E04D2D0E940F07C8010E941A0975
:10132000482FF92EC80169E070E00E940F07C8013C
:101330006AE070E04F2D0E940F071F910F91FF9000
:10134000EF90DF9008950F931F938C01FC01808133
:1013500060E00E94720F6AE070E080E090E00E941E
:101360001D0EF801808161E00E94720F64E170E05F
:1013700080E090E00E941D0E1F910F9108950F9341
:101380001F938C01862FF8016083718353834283FE
:101390003583248361E00E94330FF801828161E08C
:1013A0000E94330FF801848160E00E94330F81E0D6
:1013B0000E947B0380E00E9484030E9489031F91A6
:1013C0000F910895FC017183608312828FEF90E08A
:1013D000948383830895089508950F931F938C0138
:1013E0008EE00E94B10E40E0F80120813181281783
:1013F00039070CF441E0842F1F910F910895EF926B
:10140000FF920F931F938C017B010E94ED09F7015E
:101410008087F80183819481F70197838683F8019F
:1014200080819181F701958384831F910F91FF90B3
:10143000EF900895CF93DF93EC010E94ED098A832A
:101440002B813C81882339F083E0203F38075CF40E
:10145000205F3F4F06C081E02F30380724F0205135
:1014600030403C832B836B817C8181E00E94D30ED2
:10147000DF91CF91089508950895EF92FF920F9311
:101480001F93CF93DF93EC01FB0188819981AA819F
:10149000BB8179018A01E81AF90A0A0B1B0BD801F2
:1014A000C7010A97A105B105A8F1288339834A83AA
:1014B0005B8320812223F9F08C81E82FF0E0822FDA
:1014C000992787FD909597FF03C0909581959F4F31
:1014D00064E170E00E94F112E617F70764F427FD5B
:1014E00003C081E161E009C081E160E00E94720F08
:1014F00080E161E006C081E160E00E94720F80E15E
:1015000060E00E94720F8C81853018F48F5F8C83AD
:1015100001C01C82DF91CF911F910F91FF90EF903E
:101520000895FC01148281E161E00E94330F80E1A3
:1015300061E00E94330F0895DC01FB0120E030E000
:101540001F968D919C915097928781872F5F3F4F77
:10155000129632962830310599F708950895089526
:10156000019759F46F5F7F4F41F487E493E00E9445
:1015700081018BE493E00E948101089580E090E076
:101580006FEF7FEF0E94B00A089581E090E06FEF67
:101590007FEF0E94B00A08954F925F926F927F9200
:1015A0008F929F92AF92BF92CF92DF92EF92FF9273
:1015B0000F931F932C01662E772467FC7094872C61
:1015C000972C00D000D084EB90E0A0E0B0E0EDB725
:1015D000FEB781839283A383B483C401B3012CE952
:1015E0003FEF4FEF5FEFF4E6EF2EF12C012D112DC1
:1015F000AA24BB2465010E94D50FF20163830F90DA
:101600000F900F900F90C20170E00E94CF0100D0A8
:1016100000D0EDB7FEB71182128213821482C4018A
:10162000B3012CE93FEF4FEF5FEFE4EBAE2EB12CAF
:10163000C12CD12C0E94D50FF20167830F900F901F
:101640000F900F90C201049670E00E94CF011F918D
:101650000F91FF90EF90DF90CF90BF90AF909F9051
:101660008F907F906F905F904F9008950F931F938E
:101670008C0165E070E00E94B602C801049666E045
:1016800070E00E94B6021F910F9108950895089589
:10169000662319F08DE061E002C08DE060E00E94F9
:1016A000720F0895AF92BF92CF92DF92EF92FF92A6
:1016B0000F931F937B01662757FD6095762FCB0113
:1016C000BA010E9480115B016C010027F7FC0095B4
:1016D000102FC801B7010E9480119B01AC01C60107
:1016E000B5010E9492105B016C0121EE3EE245E6DD
:1016F00052E40E9460127B018C0120E030E040E067
:1017000050E00E94551218161CF4C801B70108C019
:10171000C601B50121EE3EE245E652EC0E946012A0
:101720000E944D11CB011F910F91FF90EF90DF9020
:10173000CF90BF90AF9008950F931F93CF93DF93F7
:10174000EC018B016881772767FD709549815527EA
:1017500047FD50950E94520BF80192838183FE0150
:1017600090E020E0828181112F5F9F5F3196943657
:10177000C9F7FE01E959FF4F8081882321F01082CB
:101780002B3530F003C010822B3010F081E08083C5
:10179000C959DF4F8881F8018383DF91CF911F9171
:1017A0000F9108951F93CF93DF93EC01CF58DF4F34
:1017B0008881C157D040882309F45CC086EA91E053
:1017C00068E670E00E94A00386EA91E06BE30E9465
:1017D000220486EA91E060E00E94520486EA91E0E9
:1017E00068E670E046E050E021E030E00E947204DC
:1017F00086EA91E00E94B30386EA91E00E94B30377
:10180000888386EA91E00E94B30386EA91E00E9411
:10181000B30386EA91E00E94B30386EA91E00E9456
:10182000B3038983FE01EA59FF4F1081143608F58E
:101830006881772767FD7095482F552747FD50959C
:10184000CE010E94520BFE01E10FF11D40E0CE5887
:10185000DF4F2881C257D04030E0281739070CF4F9
:1018600041E04283FE01EA59FF4F80818F5F808310
:1018700001C01082DF91CF911F9108959F92AF9286
:10188000BF92CF92DF92EF92FF920F931F93CF936D
:10189000DF93EC010E94D20BFE0190E020E08281F8
:1018A00081112F5F9F5F31969436C9F7FE01E95988
:1018B000FF4F8081882321F010822B3530F003C048
:1018C00010822B3010F081E08083C959DF4F88816E
:1018D000C756D040882309F476C00E940F0E5B01E2
:1018E0006C01FE01E859FF4F808141819281538153
:1018F00064817581E680E78124EF922E980E21E0C5
:10190000981608F020E0842F8F5F31E0841708F0EC
:1019100030E0122F180F21E0181708F020E0032FF5
:10192000022B090F81E0091708F080E0F82EF50E70
:1019300081E0F51608F080E0B82FB60F81E0B61709
:1019400008F080E0A82FA70F81E0A71708F080E03B
:10195000F82FFE0D81E0FE1508F080E0E80FA601EB
:10196000950160E070E080E090E09E1780F1E9175B
:10197000D1F48F1760F1F817B1F47A1740F1A71777
:1019800091F46B1720F1B61771F45F1500F1F5169D
:1019900051F44017E0F0041731F43117C0F0131779
:1019A00011F4A914A0F08E0100591F4FF8016081B5
:1019B000FF24F3946F25CE010E94480BF80180812B
:1019C0008F25808304C0CE0160E00E94480B0E94F6
:1019D0000F0E9B01AC01FE01E859FF4F608331837C
:1019E000428353831482158216821782DF91CF912E
:1019F0001F910F91FF90EF90DF90CF90BF90AF902D
:101A00009F900895EF92FF920F931F938C010E58B1
:101A10001F4FF80160830C501040F80111928F01A4
:101A20001082075F1F4FF80111928F0136EAE32EF3
:101A300031E0F32EC7010E947504C70168E670E02B
:101A40000E94A003C7016BE60E942204C70160E068
:101A50000E942204C70161E00E9452048DE061E00F
:101A60000E94330F81E0F80180831F910F91FF9056
:101A7000EF90089564E10E94020D0895823000F510
:101A8000E82FF0E0EE0FFF1FEE53FC4F71836083F1
:101A9000882319F08130A1F408C0809169008C7FFF
:101AA000842B80936900E89A089580916900440F1F
:101AB000551F440F551F837F842B80936900E99A3B
:101AC00008951F920F920FB60F9211242F933F93F8
:101AD0004F935F936F937F938F939F93AF93BF9336
:101AE000EF93FF938091C2039091C303892B29F058
:101AF000E091C203F091C3030995FF91EF91BF916B
:101B0000AF919F918F917F916F915F914F913F9195
:101B10002F910F900FBE0F901F9018951F920F924C
:101B20000FB60F9211242F933F934F935F936F93B0
:101B30007F938F939F93AF93BF93EF93FF93809186
:101B4000C4039091C503892B29F0E091C403F0915F
:101B5000C5030995FF91EF91BF91AF919F918F912F
:101B60007F916F915F914F913F912F910F900FBE99
:101B70000F901F9018951F920F920FB60F9211247D
:101B80002F933F934F935F936F937F938F939F9385
:101B9000AF93BF932091CA033091CB034091CC0304
:101BA0005091CD037091CE03DA01C9010296A11DB7
:101BB000B11D672F6A5F6D3730F06D57DA01C901CB
:101BC0000396A11DB11D6093CE038093CA03909329
:101BD000CB03A093CC03B093CD038091C603909127
:101BE000C703A091C803B091C9030196A11DB11DFF
:101BF0008093C6039093C703A093C803B093C9030F
:101C0000BF91AF919F918F917F916F915F914F9114
:101C10003F912F910F900FBE0F901F9018958FB787
:101C2000F8942091CA033091CB034091CC0350919A
:101C3000CD038FBFB901CA0108959B01AC017FB7E5
:101C4000F8948091C6039091C703A091C803B09106
:101C5000C90366B5A89B05C06F3F19F00196A11D89
:101C6000B11D7FBFBA2FA92F982F8827860F911DEE
:101C7000A11DB11D63E0880F991FAA1FBB1F6A95A4
:101C8000D1F7BC012DC0FFB7F8948091C6039091A5
:101C9000C703A091C803B091C903E6B5A89B05C0CE
:101CA000EF3F19F00196A11DB11DFFBFBA2FA92F5B
:101CB000982F88278E0F911DA11DB11DE3E0880F7D
:101CC000991FAA1FBB1FEA95D1F7861B970B885E49
:101CD0009340C8F2215030404040504068517C4F02
:101CE000211531054105510571F60895789484B5A3
:101CF000826084BD84B5816084BD85B5826085BD08
:101D000085B5816085BDEEE6F0E0808181608083ED
:101D1000E1E8F0E0108280818260808380818160D0
:101D20008083E0E8F0E0808181608083E1EBF0E097
:101D3000808184608083E0EBF0E08081816080833B
:101D4000EAE7F0E080818460808380818260808324
:101D50008081816080838081806880831092C1004F
:101D60000895982F8E3008F09E5097708091000152
:101D70008295880F880F807C892B80937C008091CE
:101D80007A00806480937A0080917A0086FDFCCF8F
:101D90002091780040917900942F80E030E0282B4A
:101DA000392BC90108951F93CF93DF93182FEB01AF
:101DB00061E00E94330F209709F44AC0CF3FD1055C
:101DC00009F449C0E12FF0E0E552FF4F84918330E0
:101DD000C1F0843028F4813051F08230B1F50CC06C
:101DE000863019F1873049F1843079F514C084B513
:101DF000806884BDC7BD33C084B5806284BDC8BD62
:101E00002EC080918000806880938000D0938900EC
:101E1000C093880024C080918000806280938000FD
:101E2000D0938B00C0938A001AC08091B000806864
:101E30008093B000C093B30012C08091B000806264
:101E40008093B000C093B4000AC0C038D1051CF420
:101E5000812F60E002C0812F61E00E94720FDF914C
:101E6000CF911F910895CF93DF93482F50E0CA017F
:101E700089539F4FFC0134914D545F4FFA01849177
:101E8000882369F190E0880F991FFC01EB56FF4F02
:101E9000A591B491FC01E156FF4FC591D491662301
:101EA00051F42FB7F8948C91932F909589238C93AC
:101EB000888189230BC0623061F42FB7F8948C912C
:101EC000932F909589238C938881832B88832FBFB0
:101ED00006C09FB7F8948C91832B8C939FBFDF91A2
:101EE000CF910895482F50E0CA0185529F4FFC01C1
:101EF0002491CA0189539F4FFC0194914D545F4F27
:101F0000FA013491332309F440C0222351F12330E4
:101F100071F0243028F42130A1F0223011F514C0E2
:101F20002630B1F02730C1F02430D9F404C08091BC
:101F300080008F7703C0809180008F7D8093800028
:101F400010C084B58F7702C084B58F7D84BD09C071
:101F50008091B0008F7703C08091B0008F7D809317
:101F6000B000E32FF0E0EE0FFF1FE156FF4FA59109
:101F7000B4912FB7F894662321F48C91909589231E
:101F800002C08C91892B8C932FBF0895CF93DF9340
:101F90000E94760E0E946301C0E0D0E00E940A0118
:101FA0002097E1F30E940000F9CF2F923F924F92C9
:101FB0005F926F927F928F929F92AF92BF92CF92D9
:101FC000DF92EF92FF920F931F93DF93CF93CDB7E2
:101FD000DEB73B014C0119012A016D897E898F8989
:101FE000988D6A197B098C099D09621A730A840A03
:101FF000950AA40193010E94C612E218F30804098D
:102000001509A80197010E9426132A0D3B1D4C1D9E
:102010005D1DB901CA01CF91DF911F910F91FF9012
:10202000EF90DF90CF90BF90AF909F908F907F9078
:102030006F905F904F903F902F9008955058BB271E
:10204000AA270ED0F8C1E9D130F0EED120F031F45A
:102050009F3F11F41EF4B9C10EF4E095E7FBAFC148
:10206000E92FFAD180F3BA1762077307840795073F
:1020700018F071F49EF512C20EF4E0950B2EBA2FF3
:10208000A02D0B01B90190010C01CA01A00111247E
:10209000FF27591B99F0593F50F4503E68F11A162A
:1020A000F040A22F232F342F4427585FF3CF4695BB
:1020B00037952795A795F0405395C9F77EF41F16DD
:1020C000BA0B620B730B840BBAF09150A1F0FF0FA7
:1020D000BB1F661F771F881FC2F70EC0BA0F621F93
:1020E000731F841F48F4879577956795B795F79583
:1020F0009E3F08F0B3CF9395880F08F09927EE0F15
:1021000097958795089589D158F080E891E009F472
:102110009EEF8AD128F040E851E059F45EEF09C003
:1021200054C1BCC1E92FE07897D168F3092E052A84
:10213000C1F3261737074807590738F00E2E07F85E
:10214000E02569F0E025E0640AC0EF6307F8009439
:1021500007FADB01B9019D01DC01CA01AD01EF9372
:1021600043D069D10AD05F91552331F02BED3FE088
:1021700049E450FD49EC63CF0895DF93DD27B92F83
:10218000BF7740E85FE31616170648075B0710F4B1
:10219000D92F8FD19F938F937F936F93F4D1E8E6DC
:1021A000F0E016D148D12F913F914F915F9194D19A
:1021B000DD2349F09058A2EA2AED3FE049EC5FE3C5
:1021C000D0785D274DDFDF9136C10CD034C12CD1E2
:1021D00040F023D130F021F45F3F19F0F0C05111ED
:1021E0005EC1F3C039D198F39923C9F35523B1F3F4
:1021F000951B550BBB27AA2762177307840738F076
:102200009F5F5F4F220F331F441FAA1FA9F333D0D4
:102210000E2E3AF0E0E830D091505040E695001C88
:10222000CAF729D0FE2F27D0660F771F881FBB1F44
:10223000261737074807AB07B0E809F0BB0B802D1E
:10224000BF01FF2793585F4F2AF09E3F510568F06A
:10225000B6C025C15F3FECF3983EDCF386957795D9
:102260006795B795F7959F5FC9F7880F911D96956C
:10227000879597F90895E1E0660F771F881FBB1FC8
:10228000621773078407BA0720F0621B730B840B75
:10229000BA0BEE1F88F7E095089504D06894B11149
:1022A000FEC00895E1D088F09F5790F0B92F99278C
:1022B000B751A0F0D1F0660F771F881F991F1AF051
:1022C000BA95C9F712C0B13081F0E8D0B1E00895F5
:1022D000E5C0672F782F8827B85F39F0B93FCCF376
:1022E000869577956795B395D9F73EF49095809547
:1022F000709561957F4F8F4F9F4F0895E89409C067
:1023000097FB3EF490958095709561957F4F8F4F28
:102310009F4F9923A9F0F92F96E9BB279395F6953E
:10232000879577956795B795F111F8CFFAF4BB0FBC
:1023300011F460FF1BC06F5F7F4F8F4F9F4F16C020
:10234000882311F096E911C0772321F09EE8872FAA
:10235000762F05C0662371F096E8862F70E060E066
:102360002AF09A95660F771F881FDAF7880F9695DF
:10237000879597F90895990F0008550FAA0BE0E883
:10238000FEEF16161706E807F907C0F01216130637
:10239000E407F50798F0621B730B840B950B39F477
:1023A0000A2661F0232B242B252B21F408950A26DD
:1023B00009F4A140A6958FEF811D811D089597F91D
:1023C0009F6780E870E060E008959FEF80EC0895DB
:1023D000DF93CF931F930F93FF92EF92DF927B01D6
:1023E0008C01689405C0DA2EEF0176D0FE01E894E6
:1023F000A5912591359145915591AEF3EF0130DED0
:10240000FE019701A801DA9479F7DF90EF90FF9031
:102410000F911F91CF91DF91089500240A94161611
:10242000170618060906089500240A9412161306C2
:10243000140605060895092E0394000C11F4882350
:1024400052F0BB0F40F4BF2B11F460FF04C06F5F6C
:102450007F4F8F4F9F4F089557FD9058440F551F42
:1024600059F05F3F71F04795880F97FB991F61F016
:102470009F3F79F087950895121613061406551F8D
:10248000F2CF4695F1DF08C0161617061806991FF9
:10249000F1CF86957105610508940895E894BB27EE
:1024A00066277727CB0197F9089565DF08F48FEF4A
:1024B00008959B01AC0160E070E080E89FE385CE69
:1024C0000BD0B9CFAADF28F0AFDF18F0952309F0C1
:1024D00076CF7BCF1124E3CFBFDFA0F3959FD1F35D
:1024E000950F50E0551F629FF001729FBB27F00DC2
:1024F000B11D639FAA27F00DB11DAA1F649F662717
:10250000B00DA11D661F829F2227B00DA11D621F65
:10251000739FB00DA11D621F839FA00D611D221F1F
:10252000749F3327A00D611D231F849F600D211D03
:10253000822F762F6A2F11249F5750408AF0E1F0A6
:1025400088234AF0EE0FFF1FBB1F661F771F881FEF
:1025500091505040A9F79E3F510570F030CF9FCF6A
:102560005F3FECF3983EDCF3869577956795B795DA
:10257000F795E7959F5FC1F7FE2B880F911D969504
:10258000879597F908959B01AC019ACF629FD0017E
:10259000739FF001829FE00DF11D649FE00DF11D1E
:1025A000929FF00D839FF00D749FF00D659FF00DCD
:1025B0009927729FB00DE11DF91F639FB00DE11DBA
:1025C000F91FBD01CF0111240895991B79E004C0C2
:1025D000991F961708F0961B881F7A95C9F7809562
:1025E000089597FB092E07260AD077FD04D049D01D
:1025F00006D000201AF4709561957F4F0895F6F784
:10260000909581959F4F0895A1E21A2EAA1BBB1B9E
:10261000FD010DC0AA1FBB1FEE1FFF1FA217B307AE
:10262000E407F50720F0A21BB30BE40BF50B661FC4
:10263000771F881F991F1A9469F760957095809588
:1026400090959B01AC01BD01CF01089597FB092E28
:1026500005260ED057FD04D0D7DF0AD0001C38F471
:1026600050954095309521953F4F4F4F5F4F0895BE
:10267000F6F790958095709561957F4F8F4F9F4F9E
:102680000895AA1BBB1B51E107C0AA1FBB1FA617B9
:10269000B70710F0A61BB70B881F991F5A95A9F70B
:1026A00080959095BC01CD010895EE0FFF1F059018
:1026B000F491E02D099411E0C0E0D1E004C0FE01E6
:1026C0000E9457132296CA30D107C9F7F894FFCF5A
:1026D00001000000002204F103AA03B303C803D9D8
:0226E0000300F5
:00000001FF
