:100000000C9409010C94E0040C94B9040C9492042F
:100010000C946B040C9431010C9431010C94440445
:100020000C9431010C9431010C94620A0C94D40AA2
:100030000C9431010C9431010C9431010C94310178
:100040000C9431010C9407050C9431010C9431018E
:100050000C9431010C9431010C9431010C94FA038D
:100060000C9431010C9431010C9431010C94310148
:100070000C9431010C9431010C9431010C94310138
:100080000C9431010C9431010C9431010C94310128
:100090000C94FE050C9431010C9431010C94310147
:1000A0000C9431010C9431010C943101B402B7026B
:1000B000A602AA02AE02D802D802D802BB02BF0230
:1000C000C302C902CD02D802D3024F03540359031D
:1000D00063036D03B703B703B703770381038B0390
:1000E0009503A203B703AA03084AD73B3BCE016E90
:1000F00084BCBFFDC12F3D6C74319ABD56833DDA7F
:100100003D00C77F11BED9E4BB4C3E916BAAAABE8D
:10011000000000803F0000000000240027002A00AB
:100120002D00300000000000250028002B002E00CC
:10013000310004040404040304050202020204035F
:100140000202020206060606060604040202020471
:1001500004040802011040804010204080408008C4
:100160000204018040201002011080102040402035
:100170000000000200090F0000030401000C000051
:100180000000000000000000000000000000000768
:100190000605040100080A0B0C0D09080B000202F9
:1001A0000201000904000001020200000524001001
:1001B00001052401010104240206052406000107AB
:1001C00005810310004009040100020A0000000735
:1001D00005020240000007058302400000040309F5
:1001E0000412010002EF02014041233680000101A8
:1001F00002030141726475696E6F204C4C430041EB
:10020000726475696E6F204C656F6E6172646F0009
:10021000B61211241FBECFEFDAE0DEBFCDBF11E072
:10022000A0E0B1E0E2E9FDE202C005900D92A03449
:10023000B107D9F723E0A0E4B1E001C01D92AE3BC5
:10024000B207E1F711E0C9E0D1E004C02197FE0157
:100250000E94B316C830D107C9F70E94040D0C9450
:10026000C7160C9400003FB7F89480915902909102
:100270005A02A0915B02B0915C0226B5A89B05C012
:100280002F3F19F00196A11DB11D3FBFBA2FA92F15
:10029000982F8827820F911DA11DB11DBC01CD0192
:1002A00042E0660F771F881F991F4A95D1F708957E
:1002B000089585ED8093BC008091BC0084FDFCCF47
:1002C0001092FA02089540913102262F30E0240F57
:1002D000311D21323105DCF42091FA022430C9F4B9
:1002E000FC0180E090E0861758F4309131022191B2
:1002F000DC01A15FBD4FA30FB11D2C930196F3CF7D
:1003000080913102680F6093310280E0089581E0AE
:10031000089582E008950895E091BA018091B901AD
:10032000E81730F4F0E0E554FE4F808190E0089546
:100330008FEF9FEF08959091BA018091B9019817BE
:1003400050F4E92FF0E0E554FE4F208130E09F5F4C
:100350009093BA0102C02FEF3FEFC9010895809139
:10036000B90190E02091BA01821B91090895CF92C2
:10037000DF92EF92FF920F931F93CF93DF937C0155
:10038000262F972F8A018091FB02882391F0C62F98
:10039000D72F6E01C40ED51ECC15DD0571F0699105
:1003A000D701ED91FC910190F081E02DC7010995F5
:1003B000F3CF642F822F0E946301C801DF91CF9198
:1003C0001F910F91FF90EF90DF90CF900895CF9302
:1003D000DF931F92CDB7DEB769832091FB02222302
:1003E000D1F020911E03203240F021E030E0FC01EA
:1003F0003383228380E090E015C08091FC02E82FD7
:10040000F0E0E350FD4F998190838F5F8093FC0271
:1004100080931E0305C061E0CE0101960E94630136
:1004200081E090E00F90DF91CF9108950E94C21675
:10043000FF920F931F93CF93DF9381E30E94940861
:10044000F82E83FF3FC09091B8019F5F9093B80151
:10045000F89464E089E30E949E0880E093E00E94A3
:10046000B308C82F00E010E02091400130E08091F7
:10047000540390915503281B390B0217130764F49A
:100480000F5F1F4FC801875F9C4F0E94B308F801A0
:10049000E05CFE4F8083E8CFC0934001D0E0CE0106
:1004A0008F5F9C4F0E94B3088093B501CE018E5F91
:1004B0009C4F0E94B3088093B60160E089E30E94DC
:1004C0009E087894F0FE1FC08091B7018F5F8093E3
:1004D000B70184E20E94940890E0AC014E7F31E0C5
:1004E000452B09F030E020910E0230FB20F936E078
:1004F000959587953A95E1F78370880F297F822B30
:10050000877F80930E02DF91CF911F910F91FF9013
:100510000895362F90E0FC01E059FE4F4491FC0114
:10052000EF5AFE4F2491FC01EE5CFE4F849188232C
:1005300009F451C04423E1F150E0FA013197EF3062
:10054000F105B0F5EA5AFF4F0C94B3169091800074
:100550009F7707C0909180009F7D03C0909180009D
:10056000977F9093800024C094B59F7702C094B584
:100570009F7D94BD1DC0909190009F7707C0909182
:1005800090009F7D03C090919000977F9093900082
:100590000FC09091C0009F7703C09091C0009F7DD5
:1005A0009093C00005C09091C200977F9093C200C5
:1005B000E82FF0E0EE0FFF1FEC5DFE4FA591B49128
:1005C0008FB7F894EC91311103C020952E2301C010
:1005D0002E2B2C938FBF0895CF93DF9390E0FC01D7
:1005E000EF5AFE4F2491FC01EE5CFE4F849188236C
:1005F00061F190E0880F991FFC01EA5EFE4FC59102
:10060000D491FC01EC5DFE4FA591B491611109C03C
:100610009FB7F8948881209582238883EC912E23BC
:100620000BC0623061F49FB7F8943881822F8095B7
:1006300083238883EC912E2B2C939FBF06C08FB70A
:10064000F894E8812E2B28838FBFDF91CF910895F6
:100650001F93CF93DF93182FEB0161E00E94EC0210
:10066000209711F460E004C0CF3FD10539F461E078
:10067000812FDF91CF911F910C948902E12FF0E03F
:10068000E059FE4FE4914E2F50E0FA013197EF30E0
:10069000F10508F06CC0EB59FF4F0C94B31684B50C
:1006A000806884BDC7BD68C084B5806284BDC8BD94
:1006B00063C080918000806880938000D09389001F
:1006C000C093880059C08091800080628093800030
:1006D000D0938B00C0938A004FC0809180008860C7
:1006E00080938000D0938D00C0938C0045C0809192
:1006F0009000806880939000D0939900C0939800F8
:100700003BC080919000806280939000D0939B00CA
:10071000C0939A0031C080919000886080939000CF
:10072000D0939D00C0939C0027C08091C00080683A
:100730008093C0008091C0008F7B8093C000C093E5
:10074000CF001AC08091C00080628093C000C09327
:10075000D00012C08091C20088608093C200809156
:10076000C2008B7F8093C200C093D20005C0C03806
:10077000D1050CF07CCF76CFDF91CF911F910895FA
:100780008F929F92AF92BF92CF92DF92EF92FF92A1
:100790006B017C010E9433014B015C01C114D10447
:1007A000E104F104F1F00E943301DC01CB0188196E
:1007B0009909AA09BB09883E9340A105B10570F3C8
:1007C00021E0C21AD108E108F10888EE880E83E022
:1007D000981EA11CB11CC114D104E104F10419F745
:1007E000DDCFFF90EF90DF90CF90BF90AF909F90C4
:1007F0008F9008951F920F920FB60F9211242F938E
:100800003F938F939F93AF93BF938091DB01909120
:10081000DC01A091DD01B091DE013091580223E0AE
:10082000230F2D3720F40196A11DB11D05C026E828
:10083000230F0296A11DB11D209358028093DB0166
:100840009093DC01A093DD01B093DE018091590209
:1008500090915A02A0915B02B0915C020196A11D99
:10086000B11D8093590290935A02A0935B02B093FA
:100870005C02BF91AF919F918F913F912F910F900B
:100880000FBE0F901F9018951F920F920FB60F92E8
:1008900011242F933F934F935F936F937F938F9385
:1008A0009F93AF93BF93EF93FF93E0910801F09173
:1008B00009010995FF91EF91BF91AF919F918F91A0
:1008C0007F916F915F914F913F912F910F900FBE4C
:1008D0000F901F9018951F920F920FB60F92112430
:1008E0002F933F934F935F936F937F938F939F9338
:1008F000AF93BF93EF93FF93E0910601F09107014F
:100900000995FF91EF91BF91AF919F918F917F9149
:100910006F915F914F913F912F910F900FBE0F906C
:100920001F9018951F920F920FB60F9211242F93BC
:100930003F934F935F936F937F938F939F93AF9367
:10094000BF93EF93FF93E0910401F09105010995A6
:10095000FF91EF91BF91AF919F918F917F916F9197
:100960005F914F913F912F910F900FBE0F901F906D
:1009700018951F920F920FB60F9211242F933F9349
:100980004F935F936F937F938F939F93AF93BF9397
:10099000EF93FF93E0910201F09103010995FF911C
:1009A000EF91BF91AF919F918F917F916F915F91E7
:1009B0004F913F912F910F900FBE0F901F90189560
:1009C0001F920F920FB60F9211242F933F934F93C4
:1009D0005F936F937F938F939F93AF93BF93EF93A7
:1009E000FF93E0910001F09101010995FF91EF91D2
:1009F000BF91AF919F918F917F916F915F914F9137
:100A00003F912F910F900FBE0F901F9018951F923E
:100A10000F920FB60F9211242F933F934F935F9332
:100A20006F937F938F939F93AF93BF93EF93FF93B6
:100A30008091570287FF05C01092850010928400B4
:100A40001BC020915702022E000C330B80914F03E4
:100A500090E02817390784F480915702082E000C83
:100A6000990BFC01EE0FFF1F8E0F9F1FFC01E55D30
:100A7000FC4F808186FD15C0809157028F5F809367
:100A8000570220915702022E000C330B80914F0326
:100A900090E028173907C4F4809157028C3064F134
:100AA00013C080915702082E000C990BFC01EE0F29
:100AB000FF1F8E0F9F1FFC01E55DFC4F808160E0F2
:100AC0008F730E948902D8CF809184009091850015
:100AD000049680349C4918F480E49CE905C0809118
:100AE00084009091850004969093890080938800FB
:100AF0008FEF809357023BC0209184003091850096
:100B000080915702082E000C990BFC01EE0FFF1F7D
:100B10008E0F9F1FFC01E55DFC4F81819281820F4A
:100B2000931F909389008093880080915702082E2C
:100B3000000C990BFC01EE0FFF1F8E0F9F1FFC0195
:100B4000E55DFC4F808186FF12C080915702082E20
:100B5000000C990BFC01EE0FFF1F8E0F9F1FFC0175
:100B6000E55DFC4F808161E08F730E948902FF91F7
:100B7000EF91BF91AF919F918F917F916F915F9115
:100B80004F913F912F910F900FBE0F901F9018958E
:100B9000CF93CFB7F89480915602811127C0E3E438
:100BA000F1E08491E2E6F1E09491E82FF0E0EE0FBD
:100BB000FF1FEA5EFE4FA591B491EC91E92321F469
:100BC00061E081E10E94890261E081E10E94EC0222
:100BD0008CB580618CBD8CB580648CBD61E08FE08C
:100BE0000E94EC0261E080E10E94EC0280915602DA
:100BF0008F5F80935602CFBFCF9108951F920F92BF
:100C00000FB60F9211242F933F934F935F936F93DF
:100C10007F938F939F93AF93BF93EF93FF938091B5
:100C2000B900887F803609F49CC068F5883209F4E1
:100C30005BC090F4803109F454C038F4882309F47F
:100C4000F6C0883009F44DC0F6C0883109F44CC0B4
:100C5000803209F45DC0EFC0803409F468C048F404
:100C6000803309F455C0883309F0E5C08093F80259
:100C7000D8C0803509F44FC0883509F45DC0883488
:100C800009F0D9C0D6C0883909F4C7C0A8F488379C
:100C900009F467C038F4883609F463C0803709F472
:100CA00060C0C9C0883809F4B8C0803909F45FC091
:100CB000803809F0C0C05BC0803B09F486C038F4BE
:100CC000803A09F466C0883A09F47FC0B4C0803C19
:100CD00009F4A7C0883C09F4A4C0883B09F48AC081
:100CE000AAC08091D50210C09091F7028091F602BF
:100CF000981770F5E091F70281E08E0F8093F7026C
:100D0000F0E0EA52FD4F80818093BB0085EC86C005
:100D10008093F8028EC0E091F70281E08E0F8093FD
:100D2000F7028091BB00F0E0EA52FD4F8083909182
:100D3000F7028091F6026EC0E091F70281E08E0F1B
:100D40008093F7028091BB00F0E0EA52FD4F808370
:100D50008091F90281116DC081E08093D40284EA10
:100D600061C083E08093FA0210925502CFCF809148
:100D70005502803208F051C0E091550281E08E0F9B
:100D8000809355028091BB00F0E0EB5CFD4F8083C7
:100D9000BDCF85EC8093BC001092FA028091550281
:100DA000803230F4E0915502F0E0EB5CFD4F1082B0
:100DB0006091550270E0E0913302F091340285E3D6
:100DC00092E009951092550236C084E08093FA02B1
:100DD0001092320210923102E0912F02F091300213
:100DE000099580913102811105C081E08093310223
:100DF00010920F02E091320281E08E0F8093320256
:100E0000F0E0E15FFD4F80818093BB009091320262
:100E100080913102981708F479CF85E88093BC005F
:100E20000AC085EC8093BC001092FA0204C01092B4
:100E3000F8020E945901FF91EF91BF91AF919F91EC
:100E40008F917F916F915F914F913F912F910F9073
:100E50000FBE0F901F9018958EBD00000DB407FEB9
:100E6000FDCF8EB50895CF93DF9326E0880F991FAD
:100E70002A95E1F7EC01D66060E089E00E948902E2
:100E80008D2F0E942C078C2F0E942C07D82F80E0DA
:100E90000E942C07C82F61E089E00E948902DF7060
:100EA0008C2F90E09D2BDF91CF910895FC018091D4
:100EB0006002811103C08FEF9FEF08959FB7F894F0
:100EC00082E08093E9002091F20030E012161306D0
:100ED00014F421E030E02115310559F0289884E61A
:100EE00080935F028091F10080838091F2008823DB
:100EF00019F09FBFC90108958BE68093E800F9CFF0
:100F0000CF93DF931F92CDB7DEB76983DC01ED91FC
:100F1000FC910280F381E02D41E050E0BE016F5F63
:100F20007F4F09950F90DF91CF91089583E08093D3
:100F3000E9008091F200882319F08AE38093E800A9
:100F40000895CF93DF931F92CDB7DEB7FC01848560
:100F5000958597FD05C02FEF3FEF358724870BC0A0
:100F6000CE0101960E945607019719F4898190E0FD
:100F700002C08FEF9FEF0F90DF91CF9108950F93F5
:100F80001F93CF93DF931F92CDB7DEB78C01FC0187
:100F90008485958597FF0EC0CE0101960E94560765
:100FA000019719F4298130E002C02FEF3FEFF801DB
:100FB00035872487F801848595850F90DF91CF913F
:100FC0001F910F910895FC018485958597FD0BC0B5
:100FD0009FB7F89482E08093E9008091F2009FBF70
:100FE00090E0019608959FB7F89482E08093E9001D
:100FF0008091F2009FBF90E008957F928F929F9220
:10100000AF92BF92CF92DF92EF92FF920F931F9316
:10101000CF93DF936C015B017A01809111018823EA
:1010200009F46BC080916002882309F466C0809146
:101030005E0280FF05C08091E00082608093E00046
:10104000E70110E00AEF83E0982E90E4792E2AE37E
:10105000822E209709F448C08FB7F8949092E90047
:101060009091E80095FF06C09091F200272D291B72
:10107000922F01C090E08FBF91110AC0015009F476
:101080003CC061E070E080E090E00E94C003E1CFEE
:10109000292F30E0C217D3070CF49C2F8FB7F89498
:1010A0009092E9002091E80025FF1CC0292F30E034
:1010B000C21BD30BF501915020F041914093F100F8
:1010C000FACFA20EB31E112319F08092E80009C0D6
:1010D0009091E80095FD06C08092E80011E020970D
:1010E00009F010E08FBFB5CF1111B6CF5D9884E63F
:1010F00080935D021E141F0444F081E090E0F6012D
:101100009383828380E090E001C0C701DF91CF919B
:101110001F910F91FF90EF90DF90CF90BF90AF9015
:101120009F908F907F9008952F98880F8E770E94C0
:101130002C0780E00E942C072F9A0895CF93DF930D
:101140001F92CDB7DEB72F98880F8E7781606983A5
:101150000E942C076981862F0E942C072F9A0F90DE
:10116000DF91CF910895CF93DF93EC012F9823E087
:10117000969587952A95E1F780680E942C078C2F19
:101180008295880F807E0E942C0780E00E942C07A9
:101190002F9ADF91CF9108950F931F93CF93DF93F1
:1011A0001F92CDB7DEB78C012F9823E096958795D7
:1011B0002A95E1F7806869830E942C07802F829529
:1011C000880F807E80610E942C076981862F0E9493
:1011D0002C072F9A0F90DF91CF911F910F910895B7
:1011E000382F20911E0390911D03213208F049C031
:1011F0008091FA028111FCCF42E04093FA023093D1
:10120000F9023FEF3093F8021092F7022093F602B2
:10121000ADEFB2E046ED52E0FA013E2F341B32173B
:1012200018F43D913193F9CF1092D5022091D50257
:10123000990F922B9093D5029091D402913061F442
:101240001092D4029091D5029093BB009091BC0073
:1012500093FDF8CF95EC01C095EE9093BC00909172
:10126000FA029230E1F39091F8029F3F79F0809179
:10127000F802803241F08091F802803331F084E04E
:1012800005C081E003C082E001C083E01092FC024F
:1012900010921E031092FB020895E3E6F2E080E054
:1012A00094E69E0F219121118F5F9E13FBCF9091A9
:1012B000C802992321F091E08B3528F403C091E016
:1012C0008B3008F490E09093C8028091C802089592
:1012D000EFE8F1E0E49120917B00E3FB882780F9BF
:1012E00090E035E0880F991F3A95E1F7922F9F7DA6
:1012F000892B80937B00E770E064E0937C00809111
:101300007A00806480937A0080917A0086FDFCCF19
:10131000809178002091790090E0922B089580913F
:10132000600381110DC082E080935C0384E08093B0
:101330005D0310925F0310925E0381E0809360036F
:101340008CE593E008954091BC035091BD0320913A
:10135000BA033091BB0342175307B4F49091E800ED
:101360009570E1F39091E80092FD19C08093F1002F
:101370008091BC039091BD0301968F739927892BAF
:1013800019F48EEF8093E8008091BC039091BD0327
:1013900001969093BD038093BC0381E0089580E0A3
:1013A0000895DF92EF92FF920F931F93CF93DF93F5
:1013B000D82E8A017B01E40EF51EEB01CE15DF0568
:1013C00071F0D7FE03C0FE01849101C088810E94A4
:1013D000A30921968111F2CF8FEF9FEF01C0C801C1
:1013E000DF91CF911F910F91FF90EF90DF900895C3
:1013F000615030F02091F100FC0120830196F8CF7C
:10140000289884E680935F020895CF92DF92EF924E
:10141000FF920F931F93CF93DF936C017A018B019F
:10142000C0E0D0E0CE15DF0589F0D8016D918D01C7
:10143000D601ED91FC910190F081E02DC601099556
:10144000892B11F47E0102C02196ECCFC701DF91F8
:10145000CF911F910F91FF90EF90DF90CF90089563
:101460000F931F93CF93DF931F92CDB7DEB782E028
:10147000898342E450E06BE971E080E80E94D10981
:101480000E948F09DC0112960D911C911397011592
:10149000110569F0D801ED91FC910280F381E02DF6
:1014A000BE016F5F7F4FC801099597FF07C0898113
:1014B0000F90DF91CF911F910F910895F801008552
:1014C0001185E5CF1F920F920FB60F9211248F93C3
:1014D0009F938091E1009091E100937F9093E100D0
:1014E00083FF0FC01092E90091E09093EB001092FF
:1014F000EC0092E39093ED001092600298E09093DC
:10150000F00082FF20C093E09093E9009091F200F8
:10151000992319F09AE39093E80090915D02992342
:1015200039F090915D02915090935D02992389F179
:1015300090915F02992339F090915F0291509093BE
:101540005F02992341F184FF10C08091E2008E7EFA
:1015500081608093E2008091E1008F7E8093E100C2
:1015600080915E028E7E806111C080FF16C08091E6
:10157000E2008E7E80618093E2008091E1008E7EA9
:101580008093E10080915E028E7E816080935E0296
:1015900004C05D9ACDCF289AD6CF9F918F910F909E
:1015A0000FBE0F901F9018951F920F920FB60F92BB
:1015B0001124CF92DF92EF92FF920F931F932F93FC
:1015C0003F934F935F936F937F938F939F93AF93CB
:1015D000BF93EF93FF93CF93DF93CDB7DEB76C97B5
:1015E000DEBFCDBF1092E9008091E80083FFEDC11E
:1015F00068E0CE0145960E94F80982EF8093E800EA
:101600008D8987FF05C09091E80090FFFCCF03C053
:101610009EEF9093E800982F907609F0C6C09E89BF
:101620002F89188D91110CC0803829F48091B9034D
:101630008093F10002C01092F1001092F10048C1B5
:10164000422F50E0512B913051F4811141C1413072
:10165000510509F03DC18091B9038D7F0BC09330D6
:1016600061F4811135C14130510509F031C18091DA
:10167000B90382608093B9032BC1953041F4809106
:10168000E80080FFFCCF20682093E30021C1963062
:1016900009F05FC0EB8CFC8C1092E9001092BD0346
:1016A0001092BC03123091F51092BB031092BA0352
:1016B0000E94300A99E0BE016F5F7F4FDB01E92F86
:1016C0001D92EA95E9F799831A8391E09E8390EA47
:1016D00098879AEF99872091BC033091BD03275FCB
:1016E0003F4F3C832B838D831092E9001092BD0302
:1016F0001092BC03F092BB03E092BA0349E050E0C1
:1017000080E00E94D1090E94300AE2C0F092BB033F
:10171000E092BA030E948F09DC011296ED90FC90D2
:101720001397E114F10409F4C0C0D701ED91FC91C5
:101730000480F581E02DBE016B5E7F4FC7010995E6
:10174000009719F00CF0C4C0C7C0F701E084F18421
:10175000E8CF973009F4C0C0983021F481E080933D
:10176000F100B6C0993009F0B3C0837009F0B4C07D
:10177000E9E3F1E081E021E036E39081992361F033
:101780008093E9002093EB0091919093EC003093CB
:10179000ED008F5F873089F78EE78093EA00109223
:1017A000EA008F898093600293C08B8D9C8D10928C
:1017B000E9001092BD031092BC039093BB03809389
:1017C000BA03898D811156C08E899D89913A59F449
:1017D000813209F081C047E050E06AE071E080E0CA
:1017E0000E94D10975C0913209F076C0833289F424
:1017F000888D90E0982F88272F89822BA0E0B0E079
:101800008093120190931301A0931401B0931501DA
:101810005FC0803269F48091E80082FFFCCF67E00E
:101820008AE091E00E94F8098BEF8093E80006C0FF
:10183000823209F04DC08F89809311018091B803E5
:10184000882319F0EEEFFAE002C0E0E0F8E08091C2
:101850000A0190910B01A0910C01B0910D01803B08
:101860009440A105B10509F07BC08091110180FF72
:1018700093C076C00E948F09DC0112960D911C91D5
:1018800013970115110541F1D801ED91FC910190DB
:10189000F081E02DBE016B5E7F4FC801099581117B
:1018A00017C0F80100851185ECCF113009F44EC046
:1018B000133091F48F89882309F445C0823081F474
:1018C00040E860E18FEF91E00E942913882321F026
:1018D0008EEF8093E80079C081E28093EB0075C0C1
:1018E000813029F440E86BE083EF91E0EDCF833065
:1018F00099F70E948F09DC011296ED90FC901397E6
:101900008E010F5F1F4F6801E114F10479F0D701D8
:10191000ED91FC910680F781E02DB801C701099592
:10192000080F111DF701E084F184EECFD8011C925D
:10193000F60101900020E9F73197BF016C197D098C
:1019400040E0C601C1CF6DED71E002C061EE71E013
:101950006115710509F2FB01449150E080E840CF28
:101960000FB6F894A895809160008861809360001C
:10197000109260000FBEA895EE3F2AE0F20739F002
:101980008091FE0A9091FF0A91838083A1CF1092EB
:10199000FF0A1092FE0A9CCFEE3F8AE0F80731F072
:1019A000808191819093FF0A8093FE0A87E797E7F1
:1019B000918380839BE088E10FB6F894A89580938B
:1019C00060000FBE9093600083CF6C960FB6F894C2
:1019D000DEBF0FBECDBFDF91CF91FF91EF91BF91E1
:1019E000AF919F918F917F916F915F914F913F91B7
:1019F0002F911F910F91FF90EF90DF90CF900F905C
:101A00000FBE0F901F901895CF93DF93CDB7DEB721
:101A100029970FB6F894DEBF0FBECDBF789484B57A
:101A2000826084BD84B5816084BD85B5826085BDDA
:101A300085B5816085BD80916E00816080936E0068
:101A4000109281008091810082608093810080915A
:101A5000810081608093810080918000816080930B
:101A6000800080919100826080939100809191002C
:101A700081608093910080919000816080939000BC
:101A80008091C10084608093C1008091C100826018
:101A90008093C1008091C10081608093C1008091DA
:101AA000C30081608093C3008091C00082608093F6
:101AB000C0008091C20081608093C20080917A0052
:101AC000846080937A0080917A00826080937A00AB
:101AD00080917A00816080937A0080917A0080689A
:101AE00080937A00109260021092B90310925E0205
:101AF0008091D70081608093D70080EA8093D800DE
:101B000089B5806189BD89B5826089BD09B400FE4F
:101B1000FDCF61E070E080E090E00E94C003809122
:101B2000D8008F7C80618093D8008091E000807F16
:101B30008093E0008091E1008E7E8093E1008DE053
:101B40008093E200559A209AEEEFFFE785919491F9
:101B50008B3F9C4D19F481E08093B80360E0809145
:101B600056030E9489026AE070E080E090E00E94E3
:101B7000C00361E0809156030E94890264E170E035
:101B800080E090E00E94C00368E988E10E949E081E
:101B900065E98EE20E949E0863E080E092E00E9488
:101BA000CC0861E081E092E00E94CC0860E882E02D
:101BB00092E00E94CC0860E986E092E00E94CC08A6
:101BC00060E887E092E00E94CC0860E188E092E063
:101BD0000E94CC0861E280E292E00E94CC0860E8BA
:101BE0008AE30E949E0860E68FE30E949E0860E4FC
:101BF0008EE30E949E0866EF82E30E949E0863E1E6
:101C000080E092E00E94CC0864E086E30E949E0897
:101C100060E086E30E949E0861E070E080E090E072
:101C20000E94C0036AEC82E00E949E086EEF81E091
:101C30000E949E0860E684E00E949E0861E083E0C6
:101C40000E949E0867E08FE292E00E94CC0888E143
:101C500092E09093010180930001809169008C7F54
:101C6000816080936900E89A61E085E00E94EC025F
:101C700061E086E00E94EC0282E390E09093F40140
:101C80008093F3011092F5018FEF90E09093F701AC
:101C90008093F6011092F9011092F80180E090E132
:101CA0009093FB018093FA0180E09CE09093FD010A
:101CB0008093FC011092FE0161E088E00E94EC023A
:101CC00061E087E00E94EC0261E087E00E94890207
:101CD0000E94C8058CB58C7F81608CBD8DB58160FC
:101CE0008DBD809150038C3008F050C061E080E0E1
:101CF0000E94EC0280915003E82FF0E09F01220F38
:101D0000331FE20FF31FE55DFC4F9081907C9083C1
:101D100010925103109252036CE00E94A7163CE00F
:101D2000839FB001112440E050E09A01260F371F35
:101D3000F901EE0FFF1F2E0F3F1FF901E55DFC4F6C
:101D4000908196FD16C04F5F5F4F4C30510569F78B
:101D500081110FC01092800082E080938100109268
:101D6000850010928400B19A80916F008260809308
:101D70006F00E0915003F0E0CF01880F991FE80F4A
:101D8000F91FE55DFC4F80818064808384E180934E
:101D9000D3021092C7021092C8021092D102109280
:101DA000BA011092B9011092FC0210921E03109217
:101DB000FA0211E01093F9021092D40261E082E07D
:101DC0000E94890261E083E00E9489028091B9004B
:101DD0008E7F8093B9008091B9008D7F8093B90088
:101DE00088E48093B80085E48093BC001093FB02E4
:101DF00088E680931D031092FC0210921E036BE68E
:101E00008FE193E00E94E70160E08FE193E00E94A0
:101E1000E70181E00E94F00861E08DE00E94EC02A1
:101E20001093D20261E08AE00E94EC02789428E5E7
:101E3000222E22E0322E34EB432E512C612C712CB9
:101E40008091B801882381F01092B80180914101FE
:101E500080930702809142018093080280910D02D5
:101E600041E0842780930D028091B7018111109287
:101E7000B70110910702612F012E000C770B61153D
:101E80007105C9F054F0660F771F6F5F7F4F85E0D3
:101E90000E94280360E086E014C060E085E00E94B4
:101EA00089025EEF1502B00111246F5F7F4F86E05B
:101EB0000E94280308C060E085E00E94890260E07B
:101EC00085E00E94890220910802822F220F990B3F
:101ED000AA0BBB0B9C01AD012C593F4F4F4F5F4FDD
:101EE000A4EBB0E00E94851328EC30E040E050E025
:101EF0000E946613209353039091520380915103E3
:101F0000109150031C3008F051C06101C91AD1086A
:101F100097FDD394CC0CDD1CCC0CDD1C08E8E02E26
:101F2000F12CE81AF10887FDF394EE0CFF1CEE0C7F
:101F3000FF1C47010F2C000CAA08BB08A22FB0E021
:101F4000A53BB10514F0A4EBB0E0A6010D2C000CEC
:101F5000660B770B9A01AB01281939094A095B090D
:101F60000E949013A30192010E946613820E931E99
:101F7000A41EB51E8E149F042CF07401C814D9043D
:101F80000CF4760182E0E81AF108EE0CFF1C4FB762
:101F9000F894812F90E09C01220F331F820F931F32
:101FA000FC01E55DFC4FF282E1824FBF8091D202DD
:101FB000882309F4C4C091E09093FB02A8E6A093A3
:101FC0001D031092FC0210921E036BE38FE193E05D
:101FD0000E94E70180E00E94F0088091FA028111DE
:101FE000FCCFB1E0B093FA02B093F9028FEF809387
:101FF000F8021092F70285E08093F602B093D502C2
:102000008091D502806D8093D5028091D402813079
:1020100061F41092D4028091D5028093BB0080912C
:10202000BC0083FDF8CF85EC01C085EE8093BC0039
:102030008091FA028130E1F38091F702863018F442
:102040008091F70201C086E0A6EDB2E0EBEBF1E093
:102050009E2F2BEB31E0921B981718F49D919193D2
:10206000F7CF1092BA018093B9018FE193E00E94FB
:102070009B018FE193E00E949B01809361028FE1BD
:1020800093E00E949B018FE193E00E949B018FE10E
:1020900093E00E949B018FE193E00E949B01F82E48
:1020A00080936202B090C70233E63B1508F445C046
:1020B0000B2D10E060916102062E000C770B880B4F
:1020C000990B0E94E1149B01AC016F2DFF0C770B63
:1020D000880B990B2D833E834F8358870E94E11410
:1020E0002D813E814F8158850E94DC1321EE3EE216
:1020F00045E652E40E94A1156B017C0120E030E02E
:10210000A9010E94941518161CF4C701B60103C05A
:10211000C701B60190580E94A914F801EF59FD4F6C
:102120008091D30290E021E0861797070CF020E021
:102130002283B394B092C70202C01092C7020E94D9
:102140004D09882309F44AC08FB7F8948090DB01C9
:102150009090DC01A090DD01B090DE018FBF209156
:10216000C9023091CA024091CB025091CC026091D9
:10217000CD027091CE028091CF029091D0022C506E
:102180003E4F4F4F5F4F6F4F7F4F8F4F9F4F298372
:102190003987B42FA52FF62FE72F8C019401A501C5
:1021A00060E070E080E090E0A980B984CB2EDA2E68
:1021B000EF2EFE2E0E94B916A8F08091D102811157
:1021C00002C061E001C060E08DE00E948902809160
:1021D000D10241E084278093D10204C060E08DE009
:1021E0000E9489028FB7F8940091DB011091DC0105
:1021F0002091DD013091DE018FBF0093C902109361
:10220000CA022093CB023093CC021092CD021092DE
:10221000CE021092CF021092D00200E010E061E0F6
:1022200088E00E948902C8010E94330760E088E0CC
:102230000E948902C8010E9433070F5F1F4F0830B8
:10224000110569F70E94680921E04091F30150915E
:10225000F401481759070CF020E02093F501809114
:10226000F6019091F701222331F0803F53E095076A
:102270005CF4409605C08F30A1E09A072CF040979F
:102280009093F7018093F6016091F6017091F70148
:102290008AE00E9428038FB7F8948090DB01909029
:1022A000DC01A090DD01B090DE018FBF80910902BA
:1022B00090910A02A0910B02B0910C02A501940129
:1022C000281B390B4A0B5B0B283C31054105510596
:1022D00008F43FC18FEF8093DF010E9468092091CD
:1022E000F3013091F40141E0281739070CF040E088
:1022F0004093E7018091F6019091F7019093E601F8
:102300008093E5013093E4012093E301809152032F
:102310006101C81AD10887FDD394CC0CDD1CCC0C0C
:10232000DD1CC601DD0CAA0BBB0B89839A83AB8332
:10233000BC8380915103A8E8B0E0A81BB10987FDD8
:10234000B395CD01880F991F880F991F6C01990FC4
:10235000EE08FF08809150038F3FC1F090E09C0190
:10236000220F331F820F931FFC01E55DFC4F21817B
:10237000328153E0220F331F5A95E1F764E036951E
:1023800027956A95E1F72E5F3F4F02C020E030E0CD
:102390002F5F3F4FC901330FAA0BBB0B9C01AD014F
:1023A0002C193D094E095F09A4EBB0E00E9485138A
:1023B00029813A814B815C812C193D094E095F09C5
:1023C0000E9466133093F0012093EF016091610247
:1023D000062E000C770B880B990B0E94E1149B01D1
:1023E000AC0160916202062E000C770B880B990BF2
:1023F0002D833E834F8358870E94E1142D813E81B7
:102400004F8158850E94DC1321EE3EE245E652E4FE
:102410000E94A1156B017C0120E030E0A9010E941F
:10242000941518161CF4C701B60103C0C701B60104
:1024300090580E94A9147093E1016093E0010E94FA
:102440004D098093E2018091FE018093EE0180911D
:10245000FA019091FB019093EB018093EA01809146
:10246000F8019091F9019093E9018093E80180913E
:10247000FC019091FD019093ED018093EC0169E0E6
:1024800080E090E00E94CC086DE181E090E00E9445
:10249000CC0861E682E090E00E94CC0868E883E026
:1024A00090E00E94CC0861E084E090E00E94CC08BB
:1024B00082E00E949408082F81E00E94940810E0B6
:1024C000102F0027082B602F85E090E00E94CC0899
:1024D000612F86E090E00E94CC0862E087E090E007
:1024E0000E94CC0862E488E090E00E94CC0884E07E
:1024F0000E949408082F83E00E94940810E0102F97
:102500000027082B602F89E090E00E94CC08612F03
:102510008AE090E00E94CC083FEDE32E31E0F32EFC
:102520000BE010E0F70161917F01C8010E94CC0827
:102530000F5F1F4F0F311105A9F765E08BE10E9476
:102540009E088092090290920A02A0920B02B09219
:102550000C0260910D028AE00E94890220E030E0C6
:10256000232B09F46DCC0E9400006ACC10926B03FF
:1025700010926A0388EE93E0A0E0B0E080936C03D1
:1025800090936D03A0936E03B0936F032AE131E043
:1025900030936903209368032FEF3FEF3093750367
:1025A000209374031092220310922103809323033B
:1025B00090932403A0932503B09326038AE291E02D
:1025C0009093200380931F0380914F038C30A0F4DD
:1025D00091E0980F90934F038093500390E0FC019B
:1025E000EE0FFF1F8E0F9F1FFC01E55DFC4F88EB78
:1025F0009BE09283818303C08FEF809350038BE035
:1026000090E0909355038093540389E090E0909379
:102610005703809356038FEF9FEF90935903809356
:10262000580382E090E090935B0380935A0361E04B
:1026300089E00E94EC02279A60E080915A030E9490
:10264000EC028CB58F7D8CBD8CB5837F8CBD0C94DA
:10265000C805CF92DF92EF92FF920F931F93CF9313
:10266000DF931F92CDB7DEB7182F062FE42E862FEB
:10267000880F8E5F99830E94A30983E00E94A309BB
:10268000F12EC12E9981D92E8C2D8F19801798F497
:10269000F601E7FE02C0849101C080810E94A30977
:1026A000182F80E00E94A3098123FFEFCF1ADF0AD1
:1026B0008111EACF01C081E00F90DF91CF911F918E
:1026C0000F91FF90EF90DF90CF900895052E97FB2C
:1026D0001EF400940E947D1357FD07D00E949813AA
:1026E00007FC03D04EF40C947D1350954095309523
:1026F00021953F4F4F4F5F4F08959095809570956E
:1027000061957F4F8F4F9F4F08950E94BA13A59FE9
:10271000900DB49F900DA49F800D911D11240895DC
:10272000B7FF0C9485130E948513821B930B0895A9
:10273000A1E21A2EAA1BBB1BFD010DC0AA1FBB1FC5
:10274000EE1FFF1FA217B307E407F50720F0A21B37
:10275000B30BE40BF50B661F771F881F991F1A94A4
:1027600069F760957095809590959B01AC01BD01CE
:10277000CF010895A29FB001B39FC001A39F700D28
:10278000811D1124911DB29F700D811D1124911D79
:1027900008950E944C1560F080E891E009F49EEFE6
:1027A0000E94531528F040E851E071F45EEF0CC030
:1027B0000C9422150C948D15E92FE0780E946B156E
:1027C00040F3092E052AB1F32617370748075907A2
:1027D00038F00E2E07F8E02569F0E025E0640AC025
:1027E000EF6307F8009407FADB01B9019D01DC01F2
:1027F000CA01AD01EF930E944E140E945A150E9427
:102800000C145F91552339F02BED3FE049E450FD66
:1028100049EC0C9413160895DF93DD27B92FBF7789
:1028200040E85FE31616170648075B0718F4D92F30
:102830000E9499159F938F937F936F930E940E161A
:10284000E8EEF0E00E9425150E945A152F913F9165
:102850004F915F910E94B415DD2351F09058A2EA88
:102860002AED3FE049EC5FE3D0785D270E942A160D
:10287000DF910C945A150E94531558F00E944C1584
:1028800040F029F45F3F29F00C941C1551110C9471
:102890008E150C9422150E946B1568F39923B1F3E1
:1028A000552391F3951B550BBB27AA276217730776
:1028B000840738F09F5F5F4F220F331F441FAA1F0A
:1028C000A9F335D00E2E3AF0E0E832D091505040C6
:1028D000E695001CCAF72BD0FE2F29D0660F771F74
:1028E000881FBB1F261737074807AB07B0E809F05A
:1028F000BB0B802DBF01FF2793585F4F3AF09E3FDF
:10290000510578F00C941C150C948E155F3FE4F380
:10291000983ED4F3869577956795B795F7959F5F21
:10292000C9F7880F911D9695879597F90895E1E06D
:10293000660F771F881FBB1F621773078407BA07CC
:1029400020F0621B730B840BBA0BEE1F88F7E09527
:1029500008950E94B0146894B1110C948E150895D6
:102960000E94731588F09F5798F0B92F9927B75197
:10297000B0F0E1F0660F771F881F991F1AF0BA9523
:10298000C9F714C0B13091F00E948D15B1E00895DF
:102990000C948D15672F782F8827B85F39F0B93FD1
:1029A000CCF3869577956795B395D9F73EF49095D6
:1029B0008095709561957F4F8F4F9F4F0895E89454
:1029C00009C097FB3EF490958095709561957F4F77
:1029D0008F4F9F4F9923A9F0F92F96E9BB27939525
:1029E000F695879577956795B795F111F8CFFAF435
:1029F000BB0F11F460FF1BC06F5F7F4F8F4F9F4F66
:102A000016C0882311F096E911C0772321F09EE8C3
:102A1000872F762F05C0662371F096E8862F70E029
:102A200060E02AF09A95660F771F881FDAF7880F03
:102A30009695879597F9089597F99F6780E870E0D4
:102A400060E008959FEF80EC0895DF93CF931F938C
:102A50000F93FF92EF92DF927B018C01689406C086
:102A6000DA2EEF010E94B415FE01E894A59125919C
:102A7000359145915591A6F3EF010E942A16FE016A
:102A80009701A801DA9469F7DF90EF90FF900F911A
:102A90001F91CF91DF91089500240A94161617060E
:102AA00018060906089500240A941216130614063F
:102AB00005060895092E0394000C11F4882352F0A2
:102AC000BB0F40F4BF2B11F460FF04C06F5F7F4F5A
:102AD0008F4F9F4F089557FD9058440F551F59F041
:102AE0005F3F71F04795880F97FB991F61F09F3FFB
:102AF00079F087950895121613061406551FF2CF24
:102B00004695F1DF08C0161617061806991FF1CF73
:102B100086957105610508940895E894BB2766279A
:102B20007727CB0197F908950E94831608F48FEF59
:102B300008959B01AC0160E070E080E89FE30C9495
:102B40007F160E94B4150C945A150E944C1538F04B
:102B50000E94531520F0952311F00C941C150C9431
:102B6000221511240C948E150E946B1570F3959FFD
:102B7000C1F3950F50E0551F629FF001729FBB2774
:102B8000F00DB11D639FAA27F00DB11DAA1F649F10
:102B90006627B00DA11D661F829F2227B00DA11DC3
:102BA000621F739FB00DA11D621F839FA00D611D49
:102BB000221F749F3327A00D611D231F849F600D6A
:102BC000211D822F762F6A2F11249F5750409AF093
:102BD000F1F088234AF0EE0FFF1FBB1F661F771F1F
:102BE000881F91505040A9F79E3F510580F00C94EA
:102BF0001C150C948E155F3FE4F3983ED4F3869534
:102C000077956795B795F795E7959F5FC1F7FE2B89
:102C1000880F911D9695879597F908959B01AC01B2
:102C20000C94A1155058BB27AA270E942A160C9471
:102C30005A150E944C1538F00E94531520F039F4B3
:102C40009F3F19F426F40C9422150EF4E095E7FB4F
:102C50000C941C15E92F0E946B1558F3BA176207E4
:102C600073078407950720F079F4A6F50C948D1569
:102C70000EF4E0950B2EBA2FA02D0B01B901900197
:102C80000C01CA01A0011124FF27591B99F0593FDB
:102C900050F4503E68F11A16F040A22F232F342F23
:102CA0004427585FF3CF469537952795A795F04071
:102CB0005395C9F77EF41F16BA0B620B730B840B86
:102CC000BAF09150A1F0FF0FBB1F661F771F881F3E
:102CD000C2F70EC0BA0F621F731F841F48F4879596
:102CE00077956795B795F7959E3F08F0B0CF939588
:102CF000880F08F09927EE0F9795879508950E9401
:102D00004B140C945A15990F0008550FAA0BE0E8C4
:102D1000FEEF16161706E807F907C0F0121613069D
:102D2000E407F50798F0621B730B840B950B39F4DD
:102D30000A2661F0232B242B252B21F408950A2643
:102D400009F4A140A6958FEF811D811D0895991B5F
:102D500079E004C0991F961708F0961B881F7A9592
:102D6000C9F780950895EE0FFF1F0590F491E02DAF
:102D700009942A153B054C055D056E057F05800706
:102D80009107089581E090E0F8940C94C716F894A8
:022D9000FFCF73
:102D92005801580158015801580100E10000000093
:102DA2000000FFFFFFFF000000008007FD07E307B0
:102DB200A107BF07960700000000E701B701AF01B6
:102DC2009B018C018B01090000C180810000000081
:00000001FF
