:100000000C9474000C949C000C949C000C949C0028
:100010000C949C000C949C000C949C000C949C00F0
:100020000C949C000C949C000C949C000C94C503B4
:100030000C949C000C949C000C949C000C949C00D0
:100040000C947B030C949C000C9487020C9461022A
:100050000C949C000C949C000C949C000C949C00B0
:100060000C94BC040C949C00084AD73B3BCE016E18
:1000700084BCBFFDC12F3D6C74319ABD56833DDAFF
:100080003D00C77F11BED9E4BB4C3E916BAAAABE0E
:10009000000000803F000000000800020100000393
:1000A0000407000000000000000000000000240021
:1000B00027002A0000000000250028002B0004046F
:1000C0000404040404040202020202020303030300
:1000D00003030102040810204080010204081020DC
:1000E000010204081020A20D11241FBECFEFD8E09A
:1000F000DEBFCDBF11E0A0E0B1E0E2EFF2E202C06E
:1001000005900D92AA32B107D9F723E0AAE2B1E037
:1001100001C01D92A231B207E1F710E0C4E7D0E0C0
:1001200004C02197FE010E946C11C337D107C9F7A3
:100130000E949F080C9477110C940000FC01538DD1
:10014000448D252F30E0842F90E0821B930B5417B1
:1001500010F0CF96089501970895FC01918D828D3E
:10016000981761F0828DDF01A80FB11D5D968C910B
:10017000928D9F5F9F73928F90E008958FEF9FEF16
:100180000895FC01918D828D981731F0828DE80FD2
:10019000F11D858D90E008958FEF9FEF0895FC018C
:1001A000918D228D892F90E0805C9F4F821B910959
:1001B0008F739927089588E392E00E94CF0021E091
:1001C000892B09F420E0822F0895FC01848DDF0142
:1001D000A80FB11DA35ABF4F2C91848D90E00196BA
:1001E0008F739927848FA689B7892C93A089B189A9
:1001F0008C9180648C93938D848D981306C00288B3
:10020000F389E02D80818F7D80830895EF92FF92A6
:100210000F931F93CF93DF93EC0181E0888F9B8D29
:100220008C8D981305C0E889F989808185FD24C0EB
:10023000F62E0B8D10E00F5F1F4F0F731127E02E6E
:100240008C8DE8120CC00FB607FCFACFE889F9894B
:10025000808185FFF5CFCE010E94E500F1CF8B8D27
:10026000FE01E80FF11DE35AFF4FF0820B8FEA8980
:10027000FB898081806207C0EE89FF896083E889FD
:10028000F98980818064808381E090E0DF91CF9163
:100290001F910F91FF90EF900895CF93DF93EC01A2
:1002A000888D8823C9F0EA89FB89808185FD05C096
:1002B000A889B9898C9186FD0FC00FB607FCF5CFD0
:1002C000808185FFF2CFA889B9898C9185FFEDCF18
:1002D000CE010E94E500E7CFDF91CF91089580E045
:1002E00090E0892B29F00E94DB0081110C94000022
:1002F00008953FB7F8948091C7019091C801A091EB
:10030000C901B091CA0126B5A89B05C02F3F19F0BD
:100310000196A11DB11D3FBFBA2FA92F982F882785
:10032000820F911DA11DB11DBC01CD0142E0660FE0
:10033000771F881F991F4A95D1F7089585ED8093FF
:10034000BC008091BC0084FDFCCF10923702089560
:1003500040919F01262F30E0240F311D21323105BD
:10036000DCF4209137022430C9F4FC0180E090E0F5
:10037000861758F430919F012191DC01A358BE4F9C
:10038000A30FB11D2C930196F3CF80919F01680FAD
:1003900060939F0180E0089581E0089582E00895D0
:1003A0000895E091CC018091CB01E81730F4F0E0A2
:1003B000EF50FE4F808190E008958FEF9FEF0895FA
:1003C0009091CC018091CB01981750F4E92FF0E087
:1003D000EF50FE4F208130E09F5F9093CC0102C030
:1003E0002FEF3FEFC90108958091CB0190E020915C
:1003F000CC01821B91090895CF92DF92EF92FF9278
:100400000F931F93CF93DF937C01262F972F8A01A1
:100410008091CD01882391F0C62FD72F6E01C40E95
:10042000D51ECC15DD0571F06991D701ED91FC91D8
:100430000190F081E02DC7010995F3CF642F822F41
:100440000E94A801C801DF91CF911F910F91FF90E9
:10045000EF90DF90CF900895CF93DF931F92CDB7A9
:10046000DEB769832091CD012223D1F02091F001E4
:10047000203240F021E030E0FC013383228380E031
:1004800090E015C08091CE01E82FF0E0E153FE4FDF
:10049000998190838F5F8093CE018093F00105C096
:1004A00061E0CE0101960E94A80181E090E00F90EA
:1004B000DF91CF910895089580E090E008950E9423
:1004C00072111F920F920FB60F9211242F933F9328
:1004D0004F935F936F937F938F939F93AF93BF934C
:1004E000EF93FF9388E392E00E94E500FF91EF9184
:1004F000BF91AF919F918F917F916F915F914F913C
:100500003F912F910F900FBE0F901F9018951F9243
:100510000F920FB60F9211242F938F939F93EF9307
:10052000FF93E0914802F09149028081E0914E02F0
:10053000F0914F0282FD12C09081809151028F5F35
:100540008F7320915202821751F0E0915102F0E036
:10055000E85CFD4F958F8093510201C08081FF912F
:10056000EF919F918F912F910F900FBE0F901F9041
:10057000189590E0FC01EA56FF4F3491FC01EE52D1
:10058000FF4F2491FC01E254FF4FE491EE2309F464
:100590003BC0332339F1333091F038F43130A9F0D6
:1005A000323001F584B58F7D12C0373091F038308C
:1005B000A1F03430B9F4809180008F7D03C0809128
:1005C00080008F77809380000DC084B58F7784BDC5
:1005D00009C08091B0008F7703C08091B0008F7DFB
:1005E0008093B000F0E0EE0FFF1FEC54FF4FA59199
:1005F000B4918FB7F894EC91611103C020952E232C
:1006000001C02E2B2C938FBF0895CF93DF9390E0E2
:10061000FC01EE52FF4F2491FC01E254FF4F849104
:10062000882361F190E0880F991FFC01E655FF4F88
:10063000C591D491FC01EC54FF4FA591B491611187
:1006400009C09FB7F8948881209582238883EC9114
:100650002E230BC0623061F49FB7F8943881822F4B
:10066000809583238883EC912E2B2C939FBF06C00B
:100670008FB7F894E8812E2B28838FBFDF91CF911D
:1006800008958F929F92AF92BF92CF92DF92EF9296
:10069000FF926B017C010E9479014B015C01C11446
:1006A000D104E104F104F1F00E947901DC01CB01F5
:1006B00088199909AA09BB09883E9340A105B1058B
:1006C00070F321E0C21AD108E108F10888EE880E23
:1006D00083E0981EA11CB11CC114D104E104F104F3
:1006E00019F7DDCFFF90EF90DF90CF90BF90AF90E4
:1006F0009F908F9008951F920F920FB60F92112422
:100700002F933F938F939F93AF93BF9380912A0131
:1007100090912B01A0912C01B0912D013091C60137
:1007200023E0230F2D3720F40196A11DB11D05C034
:1007300026E8230F0296A11DB11D2093C6018093C8
:100740002A0190932B01A0932C01B0932D0180914D
:10075000C7019091C801A091C901B091CA01019649
:10076000A11DB11D8093C7019093C801A093C90139
:10077000B093CA01BF91AF919F918F913F912F91FB
:100780000F900FBE0F901F9018951F920F920FB6EB
:100790000F9211242F933F934F935F936F937F9307
:1007A0008F939F93AF93BF93EF93FF938091C50176
:1007B00087FF05C010928500109284001BC0209115
:1007C000C501022E000C330B8091050390E0281721
:1007D000390784F48091C501082E000C990BFC01A7
:1007E000EE0FFF1F8E0F9F1FFC01EF51FD4F808109
:1007F00086FD15C08091C5018F5F8093C501209152
:10080000C501022E000C330B8091050390E02817E0
:100810003907C4F48091C5018C3064F113C0809114
:10082000C501082E000C990BFC01EE0FFF1F8E0F67
:100830009F1FFC01EF51FD4F808160E08F730E948C
:10084000B902D8CF809184009091850004968034BD
:100850009C4918F480E49CE905C080918400909143
:100860008500049690938900809388008FEF809391
:10087000C5013BC020918400309185008091C50165
:10088000082E000C990BFC01EE0FFF1F8E0F9F1F0F
:10089000FC01EF51FD4F81819281820F931F909354
:1008A0008900809388008091C501082E000C990B67
:1008B000FC01EE0FFF1F8E0F9F1FFC01EF51FD4F3C
:1008C000808186FF12C08091C501082E000C990B13
:1008D000FC01EE0FFF1F8E0F9F1FFC01EF51FD4F1C
:1008E000808161E08F730E94B902FF91EF91BF9107
:1008F000AF919F918F917F916F915F914F913F91B8
:100900002F910F900FBE0F901F901895CF93CFB7D8
:10091000F8948091C401811127C0E8ECF0E0849143
:10092000ECEDF0E09491E82FF0E0EE0FFF1FE655BC
:10093000FF4FA591B491EC91E92321F461E08AE0A5
:100940000E94B90261E08AE00E9405038CB58061D3
:100950008CBD8CB580648CBD61E08DE00E94050388
:1009600061E08BE00E9405038091C4018F5F80935A
:10097000C401CFBFCF9108951F920F920FB60F926F
:1009800011242F933F934F935F936F937F938F9394
:100990009F93AF93BF93EF93FF938091B900887FAC
:1009A000803609F49CC068F5883209F45BC090F485
:1009B000803109F454C038F4882309F4F6C0883033
:1009C00009F44DC0F6C0883109F44CC0803209F4F6
:1009D0005DC0EFC0803409F468C048F4803309F486
:1009E00055C0883309F0E5C080933502D8C0803502
:1009F00009F44FC0883509F45DC0883409F0D9C0C6
:100A0000D6C0883909F4C7C0A8F4883709F467C08C
:100A100038F4883609F463C0803709F460C0C9C06F
:100A2000883809F4B8C0803909F45FC0803809F00B
:100A3000C0C05BC0803B09F486C038F4803A09F43A
:100A400066C0883A09F47FC0B4C0803C09F4A7C0EE
:100A5000883C09F4A4C0883B09F48AC0AAC08091EC
:100A6000320210C09091340280913302981770F5D1
:100A7000E091340281E08E0F80933402F0E0EF5E6B
:100A8000FD4F80818093BB0085EC86C0809335024A
:100A90008EC0E091340281E08E0F80933402809109
:100AA000BB00F0E0EF5EFD4F8083909134028091B7
:100AB00033026EC0E091340281E08E0F80933402E5
:100AC0008091BB00F0E0EF5EFD4F808380913602A5
:100AD00081116DC081E08093310284EA61C083E0BE
:100AE000809337021092C301CFCF8091C30180322F
:100AF00008F051C0E091C30181E08E0F8093C301E3
:100B00008091BB00F0E0ED55FE4F8083BDCF85ECBA
:100B10008093BC00109237028091C301803230F480
:100B2000E091C301F0E0ED55FE4F10826091C301EA
:100B300070E0E091A101F091A20183EA91E00995B2
:100B40001092C30136C084E0809337021092A00156
:100B500010929F01E0919D01F0919E010995809175
:100B60009F01811105C081E080939F0110927D015A
:100B7000E091A00181E08E0F8093A001F0E0E358A6
:100B8000FE4F80818093BB009091A00180919F01D6
:100B9000981708F479CF85E88093BC000AC085ECEB
:100BA0008093BC001092370204C0109235020E945C
:100BB0009E01FF91EF91BF91AF919F918F917F9196
:100BC0006F915F914F913F912F910F900FBE0F90BA
:100BD0001F9018951092370281E080933602109290
:100BE000310261E082E10E94B90261E083E10E948A
:100BF000B902E9EBF0E080818E7F808380818D7F78
:100C0000808388E48093B80085E48093BC000895D5
:100C1000CF93DF931F92CDB7DEB7FC018081806256
:100C200091E09093CD018093EF011092CE0110924C
:100C3000F00185ED92E049830E942C024981642FE6
:100C400085ED92E00E942C0281E00F90DF91CF9120
:100C50000C947C07CF93DF93EC019881906281E044
:100C60008093CD019093EF011092CE011092F0018C
:100C700085ED92E00E942C0281E00E947C07888131
:100C800041E061E080620E9438071092CC018093BD
:100C9000CB0185ED92E00E94E001DF91CF910895B4
:100CA000EF92FF921F93CF93DF931F92CDB7DEB7E2
:100CB0007C01162F60E049830E942A064981411178
:100CC00008C041E050E001C0440F1A95EAF7482BF4
:100CD00008C041E050E001C0440F1A95EAF7409582
:100CE000482360E0C7010F90DF91CF911F91FF90E3
:100CF000EF900C9408068EBD00000DB407FEFDCFEA
:100D00008EB50895CF93DF9326E0880F991F2A951B
:100D1000E1F7EC01D66060E08AE00E94B9028D2F15
:100D20000E947B068C2F0E947B06D82F80E00E94B9
:100D30007B06C82F61E08AE00E94B902DF708C2F29
:100D400090E09D2BDF91CF910895CF92DF92EF92AB
:100D5000FF920F931F93CF93DF936C017A018B0166
:100D6000C0E0D0E0CE15DF0589F0D8016D918D018E
:100D7000D601ED91FC910190F081E02DC60109951D
:100D8000892B11F47E0102C02196ECCFC701DF91BF
:100D9000CF911F910F91FF90EF90DF90CF9008952A
:100DA0000F931F93CF93DF93C82FD62F0AE013E042
:100DB00060E0F80182810E94B902CC0F8C2F8E77FF
:100DC00081600E947B068D2F0E947B0661E0F80106
:100DD0008281DF91CF911F910F910C94B902FF9204
:100DE0000F931F93CF93DF93EC01F62E0AE013E0ED
:100DF00060E0F80182810E94B902CE0123E096955D
:100E000087952A95E1F780680E947B068C2F829552
:100E1000880F807E80610E947B068F2D0E947B065A
:100E200061E0F8018281DF91CF911F910F91FF90D6
:100E30000C94B9020F931F93CF93C82F0AE013E0CD
:100E400060E0F80182810E94B9028C2F880F8E77B2
:100E50000E947B0680E00E947B06C82F61E0F801BB
:100E600082810E94B9028C2FCF911F910F9108951A
:100E7000909137029111FCCF91E09093370240930B
:100E800036022FEF2093350210923402260F209362
:100E900033029093320290913202880F892B809313
:100EA000320280913102813061F4109231028091DE
:100EB00032028093BB008091BC0083FDF8CF85ECAB
:100EC00001C085EE8093BC00809137028130E1F350
:100ED00080913402861710F460913402A1E1B2E0EF
:100EE00021EF31E0F9018E2F821B861718F48D91C6
:100EF0008193F9CF862F0895382F2091F00190919A
:100F0000EF01213208F049C0809137028111FCCFF6
:100F100042E040933702309336023FEF3093350280
:100F20001092340220933302AFECB1E041E152E081
:100F3000FA013E2F341B321718F43D913193F9CF4B
:100F40001092320220913202990F922B909332022A
:100F500090913102913061F41092310290913202FD
:100F60009093BB009091BC0093FDF8CF95EC01C02D
:100F700095EE9093BC00909137029230E1F39091FE
:100F800035029F3F79F080913502803241F08091A7
:100F90003502803331F084E005C081E003C082E097
:100FA00001C083E01092CE011092F0011092CD01A9
:100FB0000895CF93DF93EC0118821092CC01109228
:100FC000CB011092CE011092F0010E94EA058881B7
:100FD000806291E09093CD018093EF0160E085ED18
:100FE00092E00E942C026FEF85ED92E00E942C02AD
:100FF00060E085ED92E00E942C0260E085ED92E0D9
:101000000E942C0260E085ED92E00E942C0260E0DC
:1010100085ED92E00E942C0260E085ED92E00E9456
:101020002C0260E085ED92E00E942C0260E085EDEC
:1010300092E00E942C0260E085ED92E00E942C027A
:1010400060E085ED92E00E942C0281E0DF91CF917B
:101050000C947C0780E480937C0080917A0080640B
:1010600080937A0080917A0086FDFCCF8091780091
:101070002091790090E0922B0895CF9382E00E9416
:101080001A07C82F81E00E941A072C2F30E0322F58
:101090002227A901482BCA01CF9108958F929F92D0
:1010A000AF92BF920F931F93CF93DF93CDB7DEB76D
:1010B000A1970FB6F894DEBF0FBECDBF19A2423084
:1010C00008F44AE08E010F5D1F4F842E912CA12C55
:1010D000B12CA50194010E94710EE62FB901CA013D
:1010E00001501109EA3014F4E05D01C0E95CD80157
:1010F000EC93232B242B252B61F70115110571F09F
:10110000F80101900020E9F73197AF01401B510B26
:10111000B80188E392E00E94A50602C080E090E05A
:10112000A1960FB6F894DEBF0FBECDBFDF91CF9171
:101130001F910F91BF90AF909F908F900895CF9384
:10114000DF93CDB7DEB72A970FB6F894DEBF0FBE98
:10115000CDBF789484B5826084BD84B5816084BD40
:1011600085B5826085BD85B5816085BD80916E0045
:10117000816080936E001092810080918100826076
:1011800080938100809181008160809381008091B3
:1011900080008160809380008091B10084608093A2
:1011A000B1008091B00081608093B00080917A009E
:1011B000846080937A0080917A00826080937A00C4
:1011C00080917A00816080937A0080917A008068B3
:1011D00080937A001092C10060E080910A030E941F
:1011E000B9026AE070E080E090E00E94410361E0B3
:1011F00080910A030E94B90264E170E080E090E00F
:101200000E94410368E988E10E94D00665E98EE208
:101210000E94D00663E080E092E00E94EF0661E069
:1012200081E092E00E94EF0660E882E092E00E9496
:10123000EF0668E283E092E00E94EF0660E986E054
:1012400092E00E94EF0660E887E092E00E94EF06DD
:1012500060E188E092E00E94EF0661E280E292E0C5
:101260000E94EF0660E88AE30E94D00660E68FE302
:101270000E94D00660E48EE30E94D00663E180E025
:1012800092E00E94EF0664E086E30E94D00660E0F0
:1012900086E30E94D00661E070E080E090E00E946A
:1012A00041038EE291E00E94D90740E064E08EE2C3
:1012B00091E00E94500666E08EE291E00E942A06CC
:1012C000482F406166E08EE291E00E94080669E0E6
:1012D0008EE291E00E942A0684FF05C063EF80E061
:1012E00092E00E94EF066AEC82E00E94D0066EEF68
:1012F00081E00E94D00660E684E00E94D00661E0B2
:1013000083E00E94D00684E30E941A07682F616080
:1013100084E30E94D00683E30E941A07682F61606D
:1013200083E30E94D00667E08FE292E00E94EF061E
:1013300061E080E00E94D00661E081E10E94050347
:1013400061E080E10E94050361E083E00E94050303
:1013500083E591E00E94D90741E065E083E591E0F3
:101360000E94500641E066E083E591E00E9450064D
:1013700041E067E083E591E00E94500661E088E08B
:101380000E94050361E08AE00E94050361E08AE0B3
:101390000E94B9020E9486048CB58C7F81608CBD4E
:1013A0008DB581608DBD809106038C3008F051C0F1
:1013B00061E085E00E94050380910603E82FF0E0DC
:1013C0009F01220F331FE20FF31FEF51FD4F90815A
:1013D000907C9560908310920703109208036CE054
:1013E0000E9457112CE0829FB001112440E050E090
:1013F0009A01260F371FF901EE0FFF1F2E0F3F1F17
:10140000F901EF51FD4F908196FD16C04F5F5F4F80
:101410004C30510569F781110FC01092800082E0B5
:10142000809381001092850010928400B19A80917F
:101430006F00826080936F00E0910603F0E0CF01BF
:10144000880F991FE80FF91FEF51FD4F80818064CD
:10145000808361E087E00E9405031092CC01109226
:10146000CB011092CE011092F0010E94EA0581E0BA
:101470008093CD0188E68093EF011092CE01109207
:10148000F0016BE685ED92E00E942C0260E085EDB4
:1014900092E00E942C0281E00E947C07E0914802C9
:1014A000F091490282E08083E0914402F09145028C
:1014B0001082E0914602F09147028FEC80831092F7
:1014C0005002E0914C02F0914D0286E08083E09161
:1014D0004A02F0914B02808180618083E0914A0250
:1014E000F0914B02808188608083E0914A02F09104
:1014F0004B02808180688083E0914A02F0914B0228
:1015000080818F7D808368EE73E080E090E00E94B0
:1015100041038FB7F89440902A0150902B016090BE
:101520002C0170902D018FBF80917901181614F451
:1015300061E003C060E0811105C081E10E94B90251
:1015400060E004C081E10E94B90261E080E10E9494
:10155000B90290917901191624F4092F000F110B8B
:1015600004C03EEF93028001112461E083E00E94F9
:1015700005030115110511F460E043C0E9E9F0E04D
:1015800084918330F9F048F48130B9F08230A1F5CC
:1015900084B5806284BD08BD37C08730E9F08830EB
:1015A00019F1843049F58091800080628093800039
:1015B00010938B0000938A0027C084B5806884BD97
:1015C00007BD22C0809180008068809380001093C6
:1015D00089000093880018C08091B00080688093D3
:1015E000B0000093B30010C08091B000806280937F
:1015F000B0000093B40008C0003811050CF4BCCF53
:1016000061E083E00E94B902A0917A019091080301
:1016100080910703B0900603FBE0FB1508F454C06B
:1016200008E512E0091B110997FD1395000F111F22
:10163000000F111F78E8872E912C881A910887FDDA
:101640009394880C991C880C991C6401092C000C3B
:10165000EE08FF080A2E000CBB0BB7FF02C0A0E08B
:10166000B0E0A801012E000C660B770B9A01AB01CC
:101670002C193D094E095F090E94690E24EB30E0E8
:1016800040E050E00E943F0EC20ED31EE41EF51E45
:10169000C814D9042CF046010C151D050CF44801A2
:1016A000B40162507109660F771F4FB7F8948B2D04
:1016B00090E09C01220F331F820F931FFC01EF511A
:1016C000FD4F728361834FBF81E08093CD0128E697
:1016D0002093EF011092CE011092F0016BE385EDA3
:1016E00092E00E942C0280E00E947C0741E066E0CC
:1016F00088E60E9438071092CC018093CB0185EDDB
:1017000092E00E94E001182F85ED92E00E94E00136
:10171000312E212C822993299093650180936401B5
:1017200085ED92E00E94E001182F85ED92E00E9485
:10173000E0011A83198249815A81842B952B909359
:1017400067018093660185ED92E00E94E001182F09
:1017500085ED92E00E94E0011C831B820B811C81BD
:10176000082B192B109369010093680160916401A3
:1017700070916501072E000C880B990B0E94BA0F1F
:101780009B01AC01B801110F880B990B2D833E838F
:101790004F8358870E94BA0F2D813E814F81588513
:1017A0000E94B50E21EE3EE245E652E40E9475101D
:1017B0000E94820F70936B0160936A01625F7F4F9A
:1017C00081E06D32710508F480E090917501891314
:1017D0000AC08091770190917801019690937801E9
:1017E0008093770106C01092780110927701809360
:1017F000750180917701909178014A9720F080914E
:101800007501809376018FB7F89480902A019090AB
:101810002B01A0902C01B0902D018FBF20916C0165
:1018200030916D0140916E0150916F016091700196
:1018300070917101809172019091730126503F4F18
:101840004F4F5F4F6F4F7F4F8F4F9F4F29873A8783
:10185000B42FA52FF62FE72F8C019401A50160E08E
:1018600070E080E090E0A984BA84CB2EDA2EEF2ECF
:10187000FE2E0E94631181F178F180917601882318
:1018800039F09091740181E089278093740102C03E
:10189000109274016091740187E00E94B9022FB721
:1018A000F89480912A0190912B01A0912C01B09184
:1018B0002D012FBF8C019D0180936C0110936D0150
:1018C00020936E0130936F0110927001109271019C
:1018D000109272011092730134E5E32E31E0F32E81
:1018E0006701A12CB12C60E088E00E94B902C5011B
:1018F0000E9482068C0161E088E00E94B902C50165
:101900000E948206081B190B17FF02C000E010E0BE
:10191000D6010D931D936D01BFEFAB1ABB0AE8E032
:10192000AE16B10401F70E942A0811E084970CF06A
:1019300010E069E083E591E00E942A06482F112318
:1019400011F0406201C04F7D69E083E591E00E94A3
:10195000080669E083E591E00E942A06482F1123DA
:1019600011F0406401C04F7B69E083E591E00E9483
:10197000080680907901082C000C9908AA08BB0879
:10198000B7FE14C0E0913802F09139020190F08165
:10199000E02D6DE288E392E0099566277727CB0179
:1019A000681979098A099B094AE003C04AE0C50120
:1019B000B4010E944E0842E050E066E271E088E324
:1019C00092E00E94A50680914A0190914B01A0915E
:1019D0004C01B0914D01A3019201281B390B4A0B18
:1019E0005B0B243631054105510508F4A8C00E945F
:1019F0003D088E3F9A4C21F41092790110927A01A1
:101A000069E080E090E00E94EF0664E281E090E00F
:101A10000E94EF0661E682E090E00E94EF0668E82F
:101A200083E090E00E94EF0661E084E090E00E9495
:101A3000EF060E943D08192F682F85E090E00E9474
:101A4000EF06612F86E090E00E94EF0660E087E0FD
:101A500090E00E94EF0660E688E090E00E94EF06CA
:101A600084E00E941A07182F83E00E941A07212F92
:101A700030E0322F2227B901682B89E090E06D8396
:101A80007E830E94EF067E81672F8AE090E00E94AD
:101A9000EF066AE28BE090E00E94EF062FE2C22E92
:101AA00021E0D22E0CE010E0D6016D916D01C8014D
:101AB0000E94EF060F5F1F4F07321105A9F765E07F
:101AC0008BE10E94D006BFEFB0932F010E942A083D
:101AD00021E084970CF020E02093370180915101A0
:101AE00090915201909336018093350180914E017F
:101AF00090914F01909334018093330180916A015A
:101B000090916B0190933101809330018091760127
:101B100080933201E8E3F1E0D7018D919D917D0141
:101B200081939193B4E6EB16B1E0FB06A9F74092DE
:101B30004A0150924B0160924C0170924D010E94FB
:101B40006F01E7CC10923B0210923A0288EE93E0CC
:101B5000A0E0B0E080933C0290933D02A0933E024F
:101B6000B0933F0224E031E03093390220933802F1
:101B700025EC30E0309345022093440224EC30E021
:101B8000309347022093460220EC30E03093490224
:101B90002093480221EC30E030934B0220934A021C
:101BA00022EC30E030934D0220934C0226EC30E0E2
:101BB00030934F0220934E02109251021092520223
:101BC00010925302109254021092D8021092D7022F
:101BD0008093D9029093DA02A093DB02B093DC02E7
:101BE00086E191E09093D6028093D502809105031F
:101BF0008C30A0F491E0980F909305038093060336
:101C000090E0FC01EE0FFF1F8E0F9F1FFC01EF51B4
:101C1000FD4F88EB9BE09283818303C08FEF80931D
:101C200006038BE090E0909311038093100384E00F
:101C300090E090930B0380930A0389E090E09093E7
:101C40000D0380930C0383E090E090930F03809347
:101C50000E0361E084E00E94050361E080910C03C3
:101C60000E94050360E080910E030E9405038CB57D
:101C70008F7D8CBD8CB5837F8CBD0C948604052E26
:101C800097FB1EF400940E94560E57FD07D00E9449
:101C9000710E07FC03D04EF40C94560E50954095EF
:101CA000309521953F4F4F4F5F4F08959095809508
:101CB000709561957F4F8F4F9F4F08950E94930EAF
:101CC000A59F900DB49F900DA49F800D911D112490
:101CD0000895B7FF0C945E0E0E945E0E821B930B5C
:101CE0000895A1E21A2EAA1BBB1BFD010DC0AA1F5D
:101CF000BB1FEE1FFF1FA217B307E407F50720F075
:101D0000A21BB30BE40BF50B661F771F881F991FEF
:101D10001A9469F760957095809590959B01AC0138
:101D2000BD01CF010895A29FB001B39FC001A39F41
:101D3000700D811D1124911DB29F700D811D112404
:101D4000911D08950E94251060F080E891E009F44B
:101D50009EEF0E942C1028F040E851E071F45EEFF5
:101D60000CC00C94FB0F0C946610E92FE0780E94D5
:101D7000441040F3092E052AB1F326173707480708
:101D8000590738F00E2E07F8E02569F0E025E064E9
:101D90000AC0EF6307F8009407FADB01B9019D015F
:101DA000DC01CA01AD01EF930E94270F0E9433109E
:101DB0000E94E50E5F91552339F02BED3FE049E499
:101DC00050FD49EC0C94E7100895DF93DD27B92FFF
:101DD000BF7740E85FE31616170648075B0718F45D
:101DE000D92F0E946D109F938F937F936F930E94C2
:101DF000E210E8E6F0E00E94FE0F0E9433102F91FF
:101E00003F914F915F910E948810DD2351F09058CF
:101E1000A2EA2AED3FE049EC5FE3D0785D270E941B
:101E2000FE10DF910C9433100E942C1058F00E9489
:101E3000251040F029F45F3F29F00C94F50F511163
:101E40000C9467100C94FB0F0E94441068F39923C4
:101E5000B1F3552391F3951B550BBB27AA276217A6
:101E60007307840738F09F5F5F4F220F331F441FB3
:101E7000AA1FA9F335D00E2E3AF0E0E832D09150E7
:101E80005040E695001CCAF72BD0FE2F29D0660FD4
:101E9000771F881FBB1F261737074807AB07B0E817
:101EA00009F0BB0B802DBF01FF2793585F4F3AF01D
:101EB0009E3F510578F00C94F50F0C9467105F3F2E
:101EC000E4F3983ED4F3869577956795B795F795A3
:101ED0009F5FC9F7880F911D9695879597F908958B
:101EE000E1E0660F771F881FBB1F62177307840727
:101EF000BA0720F0621B730B840BBA0BEE1F88F736
:101F0000E09508950E94890F6894B1110C946710B0
:101F100008950E944C1088F09F5798F0B92F992788
:101F2000B751B0F0E1F0660F771F881F991F1AF0C4
:101F3000BA95C9F714C0B13091F00E946610B1E0B3
:101F400008950C946610672F782F8827B85F39F0B2
:101F5000B93FCCF3869577956795B395D9F73EF45D
:101F600090958095709561957F4F8F4F9F4F089505
:101F7000E89409C097FB3EF4909580957095619523
:101F80007F4F8F4F9F4F9923A9F0F92F96E9BB27D9
:101F90009395F695879577956795B795F111F8CF55
:101FA000FAF4BB0F11F460FF1BC06F5F7F4F8F4FC0
:101FB0009F4F16C0882311F096E911C0772321F0B6
:101FC0009EE8872F762F05C0662371F096E8862F4E
:101FD00070E060E02AF09A95660F771F881FDAF7A5
:101FE000880F9695879597F9089597F99F6780E8E8
:101FF00070E060E008959FEF80EC0895DF93CF9349
:102000001F930F93FF92EF92DF927B018C016894F4
:1020100006C0DA2EEF010E948810FE01E894A59117
:102020002591359145915591A6F3EF010E94FE103F
:10203000FE019701A801DA9469F7DF90EF90FF9015
:102040000F911F91CF91DF91089500240A941616E5
:10205000170618060906089500240A941216130696
:10206000140605060895092E0394000C11F4882324
:1020700052F0BB0F40F4BF2B11F460FF04C06F5F40
:102080007F4F8F4F9F4F089557FD9058440F551F16
:1020900059F05F3F71F04795880F97FB991F61F0EA
:1020A0009F3F79F087950895121613061406551F61
:1020B000F2CF4695F1DF08C0161617061806991FCD
:1020C000F1CF86957105610508940895E894BB27C2
:1020D00066277727CB0197F908959B01AC0160E053
:1020E00070E080E89FE30C9453110E9488100C94D8
:1020F00033100E94251038F00E942C1020F09523F8
:1021000011F00C94F50F0C94FB0F11240C94671034
:102110000E94441070F3959FC1F3950F50E0551F36
:10212000629FF001729FBB27F00DB11D639FAA272C
:10213000F00DB11DAA1F649F6627B00DA11D661F7B
:10214000829F2227B00DA11D621F739FB00DA11D9C
:10215000621F839FA00D611D221F749F3327A00D56
:10216000611D231F849F600D211D822F762F6A2FF2
:1021700011249F5750409AF0F1F088234AF0EE0F57
:10218000FF1FBB1F661F771F881F91505040A9F784
:102190009E3F510580F00C94F50F0C9467105F3F43
:1021A000E4F3983ED4F3869577956795B795F795C0
:1021B000E7959F5FC1F7FE2B880F911D9695879538
:1021C00097F908959B01AC010C9475105058BB27EA
:1021D000AA270E94FE100C9433100E94251038F09C
:1021E0000E942C1020F039F49F3F19F426F40C942F
:1021F000FB0F0EF4E095E7FB0C94F50FE92F0E941E
:10220000441058F3BA17620773078407950720F044
:1022100079F4A6F50C9466100EF4E0950B2EBA2F07
:10222000A02D0B01B90190010C01CA01A0011124DC
:10223000FF27591B99F0593F50F4503E68F11A1688
:10224000F040A22F232F342F4427585FF3CF469519
:1022500037952795A795F0405395C9F77EF41F163B
:10226000BA0B620B730B840BBAF09150A1F0FF0F05
:10227000BB1F661F771F881FC2F70EC0BA0F621FF1
:10228000731F841F48F4879577956795B795F795E1
:102290009E3F08F0B0CF9395880F08F09927EE0F76
:1022A0009795879508950E94240F0C943310991BDD
:1022B00079E004C0991F961708F0961B881F7A953D
:1022C000C9F7809508952A153B054C055D056E05F7
:1022D0007F05800791070895EE0FFF1F0590F49189
:1022E000E02D099481E090E0F8940C947711F89433
:0222F000FFCF1E
:1022F200000000000601A5069E004D01CF00AD00C2
:10230200C100000000002C02FC015C02D001F401BB
:0A231200E001D10109000D0A0000EE
:00000001FF
