:100000000C946E000C9496000C9496000C94960040
:100010000C9496000C9496000C9496000C94960008
:100020000C9496000C9496000C9496000C94A304E7
:100030000C9496000C9496000C9496000C949600E8
:100040000C9475080C9496000C9496000C949600F1
:100050000C9496000C9496000C9496000C949600C8
:100060000C94C6060C9496000000000024002700A3
:100070002A0000000000250028002B0000000000DE
:1000800023002600290004040404040404040202DA
:100090000202020203030303030301020408102007
:1000A0004080010204081020010204081020000012
:1000B0000007000201000003040600000000000029
:1000C0000000980046011A041C041E0421042604A2
:1000D000C0051B041D041F042004270411241FBE97
:1000E000CFEFD8E0DEBFCDBF11E0A0E0B1E0E8E2A5
:1000F000F4E102C005900D92A031B107D9F713E0E9
:10010000A0E1B1E001C01D92A939B107E1F710E00B
:10011000C2EDD0E004C02297FE010E94030AC23C57
:10012000D107C9F70E94F2090C94070A0C94000049
:1001300080E191E064E070E049E050E023E030E0ED
:100140000E94F7030895CF92DF92EF92FF920F93F0
:100150001F936C017B0100E111E0C8010E94DB03E9
:10016000C8010E94E101C801B7010E945502C801FF
:10017000B6010E944302C80161E00E942703C80142
:1001800061E00E94D7011F910F91FF90EF90DF90E7
:10019000CF900895EF92FF920F931F930E94BD0896
:1001A0007B018C0187E392E00E943A048091330145
:1001B00090913401A0913501B0913601A8019701C9
:1001C000281B390B4A0B5B0B2436310541055105C1
:1001D000E8F18091310180932F0180913201809369
:1001E000300186E68093160180E191E00E949E0234
:1001F00080E191E061E371E00E943E0180E191E0E5
:1002000060E070E64BE10E947A0380E191E066E1F4
:1002100071E00E94900180E191E00E946702E0920B
:100220003301F0923401009335011093360180912F
:100230003701882329F01092370181E060E004C083
:1002400081E08093370161E00E949E091F910F9128
:10025000FF90EF90089581E090E66EEF7AEC0E94B7
:10026000A30081E061E00E945F0981E061E00E94FB
:100270009E0987E392E00E9485040895FB01809126
:100280003E01808380913F01818308958BE090E05F
:1002900090933901809338010895FF920F931F9333
:1002A000CF93DF938C01EB01F42EFC01828160E09F
:1002B0000E949E09CE0123E0969587952A95E1F745
:1002C00080688EBD0DB407FEFDCF8EB59E012295D0
:1002D000220F207E822F80618EBD0DB407FEFDCFE0
:1002E0008EB5FEBC0DB407FEFDCF8EB5F801828140
:1002F00061E00E949E09DF91CF911F910F91FF90C5
:100300000895462F50E04B50504034E0440F551FA5
:100310003A95E1F7436060E072E00E944D01089574
:10032000EF92FF920F931F93CF93DF937C018B018A
:10033000CCE0D0E0C701BE01F80141918F010E94DD
:100340004D012196C732D105A9F7DF91CF911F91B9
:100350000F91FF90EF9008950F931F93CF93DF932A
:10036000EC01162F042F8A8160E00E949E09110F74
:100370001E7711601EBD0DB407FEFDCF8EB50EBDFC
:100380000DB407FEFDCF8EB58A8161E00E949E0903
:10039000DF91CF911F910F91089569E340E00E9492
:1003A000AC01089569E344E00E94AC01089566231E
:1003B00019F060E041E002C060E040E00E94AC0162
:1003C00008950F931F938C0168E148E90E94AC01E6
:1003D000C8016EE245E90E94AC01C80160E072E02C
:1003E00043E00E944D01C80161E072E041E00E94DB
:1003F0004D01C80162E072E040E80E944D01C80171
:1004000063E072E048E20E944D01C80166E072E0DC
:1004100040E90E944D01C80167E072E040E80E9497
:100420004D01C80168E072E040E10E944D01C80141
:1004300060E272E041E20E944D01C8016AE340E8D7
:100440000E94AC01C8016FE340E60E94AC01C80104
:100450006EE340E40E94AC01C8016CE00E9481019F
:10046000C80166E344E00E94AC01C80166E340E0D5
:100470000E94AC0161E070E080E090E00E94CB0857
:100480001F910F910895FF920F931F938C01F62EE9
:10049000472F64E00E94AC01C80163E04F2D0E9429
:1004A000AC011F910F91FF900895FF920F931F933E
:1004B0008C01F62E472F62E00E94AC01C80161E07A
:1004C0004F2D0E94AC011F910F91FF9008956BE199
:1004D00045E00E94AC010895EF92FF921F93CF93E5
:1004E000DF937C01EB01FC01828160E00E949E09A8
:1004F000CE0143E0969587954A95E1F780688EBDD9
:100500000DB407FEFDCF8EB59E012295220F207EF1
:100510002EBD0DB407FEFDCF8EB51EBC0DB407FE7B
:10052000FDCF1EB5F701828161E00E949E09812FF7
:10053000DF91CF911F91FF90EF900895CF92DF92BE
:10054000EF92FF920F931F93CF93DF937C010E9452
:10055000D201C70160E073E00E946C02D82E809146
:100560003A01882399F0C1E0D3E00D2D10E00F5F30
:100570001C4F09C0C701BE010E946C02FE01ED5470
:10058000F14080832196C017D107A1F7C7016AE027
:1005900073E00E946C02C82EC1E0D0E00BC0BE0127
:1005A000665F7C4FC7010E946C02FE01E35CFE4F58
:1005B0008083219680913D0190E020913801309117
:1005C0003901821B930BC817D9074CF3D0923D0118
:1005D0000D2D10E00F5F1C4FC701B8010E946C0287
:1005E0008093B2010F5F1F4FC701B8010E946C02D8
:1005F0008093B301C7010E94CD018C2DC11081E011
:10060000DF91CF911F910F91FF90EF90DF90CF90EE
:1006100008951F93CF93DF93EC01162F8A8160E03A
:100620000E949E09110F1E771EBD0DB407FEFDCF5F
:100630008EB51EBC0DB407FEFDCF1EB58A8161E0EC
:100640000E949E09812FDF91CF911F910895CF9332
:10065000DF93EC016623C1F064E30E940903482F95
:100660004860CE0164E30E94AC01CE0163E30E94C6
:100670000903482F4860CE0163E30E94AC01CE011C
:100680006FE272E047E003C06FE272E040E00E9478
:100690004D01DF91CF910895FF920F931F938C012D
:1006A00064E00E940903F82EC80163E00E94090378
:1006B0005F2D40E0282F30E0242B352BC9011F91FE
:1006C0000F91FF900895FF920F931F938C0162E0AA
:1006D0000E940903F82EC80161E00E9409035F2D02
:1006E00040E0282F30E0242B352BC9011F910F91BA
:1006F000FF900895DF92EF92FF920F931F938C016A
:10070000E62ED72EF42E60E070E049E00E944D0105
:1007100040913B01475F4F0DC80161E070E00E94CE
:100720004D01C80162E070E041E60E944D01C80140
:1007300063E070E048E80E944D01C80164E070E0A9
:1007400041E00E944D01C8010E946303482FF92E29
:10075000C80165E070E00E944D01C80166E070E0EC
:100760004F2D0E944D01C80167E070E04E2D0E94A0
:100770004D01C80168E070E04D2D0E944D01C80197
:100780000E944C03482FF92EC80169E070E00E94D6
:100790004D01C8016AE070E04F2D0E944D01C80173
:1007A0006BE070E04AE20E944D011F910F91FF90B3
:1007B000EF90DF9008950F931F938C01FC018081CF
:1007C00060E00E949E096AE070E080E090E00E9494
:1007D000CB08F801808161E00E949E0964E170E02D
:1007E00080E090E00E94CB081F910F9108950F9335
:1007F0001F938C01862FF80160837183538342839A
:100800003583248361E00E945F09F801828161E001
:100810000E945F09F801848160E00E945F0981E025
:100820000E94610580E00E946A050E946F051F9189
:100830000F910895089508950895089508950895CD
:10084000089583E392E00E9489040895089508952D
:10085000FC01EF58FF4F8081882359F086E193E037
:1008600068E670E00E94860586E193E061E00E9400
:10087000380608950F931F938C010E9428040E944C
:10088000BD089B01AC0108591F4FF801208331833B
:100890004283538314821582168217821F910F910F
:1008A0000895EF92FF920F931F938C010E581F4FE4
:1008B000F80160830C501040F80111928F011082F2
:1008C000075F1F4FF80111928F0186E1E82E83E048
:1008D000F82EC7010E944B06C70168E670E00E942F
:1008E0008605C7016BE60E940806C70160E00E940A
:1008F0000806C70161E00E94380681E0F8018083A4
:100900001F910F91FF90EF90089564E10E945104B0
:100910000895FC018091AA028C3090F480838F5F4F
:100920008093AA02815090E0FC01EE0FFF1FE80FB8
:10093000F91FE555FD4F88EB9BE092838183089575
:100940008FEF808308951F920F920FB60F9211249C
:100950002F933F934F935F936F937F938F939F93C7
:10096000AF93BF93EF93FF938091CF0287FF05C0B2
:1009700010928500109284002BC02091CF02332763
:1009800027FD30958091AA0290E02817390704F5D9
:100990008091CF02992787FD9095FC01EE0FFF1FF4
:1009A000E80FF91FE555FD4F808186FF11C080914A
:1009B000CF02992787FD9095FC01EE0FFF1FE80FEE
:1009C000F91FE555FD4F80818F7360E00E949E09FD
:1009D0008091CF028F5F8093CF022091CF02332787
:1009E00027FD30958091AA0290E0281739070CF076
:1009F0004EC08091CF028C300CF049C02091840011
:100A0000309185008091CF02992787FD9095FC0158
:100A1000EE0FFF1FE80FF91FE555FD4F8181928111
:100A2000280F391F30938900209388008091CF02CE
:100A3000992787FD9095FC01EE0FFF1FE80FF91F26
:100A4000E555FD4F808186FF2BC08091CF0299270D
:100A500087FD9095FC01EE0FFF1FE80FF91FE5558C
:100A6000FD4F80818F7361E00E949E0919C080E470
:100A70009CE905C080918400909185000496909334
:100A80008900809388008FEF8093CF0209C0809106
:100A9000840090918500049680549C4940F3EACFED
:100AA000FF91EF91BF91AF919F918F917F916F9146
:100AB0005F914F913F912F910F900FBE0F901F901C
:100AC0001895882319F48CB5806202C08CB58F7D8F
:100AD0008CBD08959CB5937F982B9CBD08958AE0AA
:100AE00061E00E949E098AE061E00E945F098CB586
:100AF00080618CBD8CB580648CBD8DE061E00E940E
:100B00005F098BE061E00E945F09089581E08093B6
:100B100015036093F20210921303109214030895C8
:100B20002091F10230E08091F002281B3109C901C7
:100B300008954091F0028091F102481718F02FEFCC
:100B40003FEF0AC0E42FF0E0E053FD4F8081282FF3
:100B500030E04F5F4093F002C9010895E091F00248
:100B60008091F102E81718F0EFEFFFEF06C0F0E018
:100B7000E053FD4F8081E82FF0E0CF010895089504
:100B8000109219031092180388EE93E0A0E0B0E0F1
:100B900080931A0390931B03A0931C03B0931D032F
:100BA00084E091E090931703809316030895CF9209
:100BB000DF92EF92FF920F931F93CF93DF937C010D
:100BC0006B018A01809115038823A1F0C0E0D0E079
:100BD0000DC0D701ED91FC91D601AC0FBD1F019066
:100BE000F081E02DC7016C9109952196C017D107BE
:100BF00080F304C0CB01642F0E94AB06C801DF91D3
:100C0000CF911F910F91FF90EF90DF90CF900895BB
:100C1000DF93CF930F92CDB7DEB7FC01698380914C
:100C200015038823C9F080911403803238F081E0E5
:100C300090E09383828320E030E015C0809113031D
:100C4000E82FF0E0ED50FD4F998190838F5F809306
:100C500013038093140305C0CE01019661E00E9446
:100C6000AB0621E030E0C9010F90CF91DF910895EC
:100C70000F93062F8091F20263EF72E0409114030C
:100C800021E00E9456061092130310921403109252
:100C900015030F9108951092F0021092F102109234
:100CA0001303109214030E94570808950F931F9383
:100CB000582F122F413210F081E04AC08091220358
:100CC0008823E1F782E080932203009324038FEFCF
:100CD00080938F0310924A0340934B03AAE2B3E040
:100CE000FB0102C081918D938E2F861B8417D0F358
:100CF0001092230380912303550F852B80932303A8
:100D000080912503813041F41092250380912303C3
:100D10008093BB0085EC01C085EE8093BC0011235D
:100D200021F0809122038230E1F380918F038F3F85
:100D300011F480E00DC080918F03803211F482E0C5
:100D400007C080918F03803311F084E001C083E0FD
:100D50001F910F910895482F613210F081E008959E
:100D600080912203843011F082E0089560936D0336
:100D7000ACE4B3E0842F9C01F90102C081918D9312
:100D80008E2F841B8617D0F380E008951F920F9258
:100D90000FB60F9211242F933F934F935F936F934E
:100DA0007F938F939F93AF93BF93EF93FF93809124
:100DB000B90090E0887F90708036910509F4F2C008
:100DC00081369105CCF58832910509F47BC08932D2
:100DD0009105B4F48031910509F46FC0813191051A
:100DE0003CF4009709F447C1089709F04FC165C06A
:100DF0008831910509F466C0809709F047C182C027
:100E00008034910509F4A4C08134910544F4803301
:100E1000910509F482C0C89709F038C189C08035AE
:100E2000910509F489C08835910509F496C0883484
:100E3000910509F02BC1AEC08839910509F413C1A1
:100E400089399105ECF48837910509F4ABC08937ED
:100E500091054CF48836910509F4A4C080379105BA
:100E600009F014C19FC08838910509F4FCC080398D
:100E7000910509F49DC08038910509F007C198C01B
:100E8000803B910509F4C6C0813B91054CF4803A42
:100E9000910509F49FC0883A910509F0F7C0BAC0DE
:100EA000803C910509F4E3C0883C910509F4DFC05A
:100EB000883B910509F0EAC0C2C08091230380936A
:100EC000BB00CFC090914A0380914B03981768F400
:100ED00090914A03E92FF0E0E65DFC4F808180931A
:100EE000BB009F5F90934A03BCC08091240388237A
:100EF00009F44BC085ED8093BC008091BC0084FD5B
:100F0000FCCFC2C080E280938F0385ED8093BC004C
:100F10008091BC0084FDFCCFB7C080E380938F0339
:100F200085ED8093BC008091BC0084FDFCCFACC0FB
:100F300088E380938F039BC080914A039091BB000C
:100F4000E82FF0E0E65DFC4F90838F5F80934A03CB
:100F500090914A0380914B0382C080914A03909103
:100F6000BB00E82FF0E0E65DFC4F90838F5F80933D
:100F70004A0380912403882341F085ED8093BC00CF
:100F80008091BC0084FDFCCF7FC081E0809325036D
:100F900084EA6EC085ED8093BC008091BC0084FD26
:100FA000FCCF72C083E08093220310928E0359C05D
:100FB00080918E03803208F056C080918E0390910C
:100FC000BB00E82FF0E0E259FC4F90838F5F8093E5
:100FD0008E0347C080918E03803230F4E0918E03FF
:100FE000F0E0E259FC4F108285ED8093BC008091C7
:100FF000BC0084FDFCCF1092220360918E03E0912F
:101000002803F09129038EE693E070E00995109291
:101010008E032DC084E08093220310926C03109203
:101020006D03E0912603F0912703099580916D03EC
:10103000882329F481E080936D0310924C039091F2
:101040006C03E92FF0E0E45BFC4F80818093BB00F0
:101050009F5F90936C0390916C0380916D03981740
:1010600010F485EC01C085E88093BC000FC085ECCE
:101070008093BC0009C010928F0385ED8093BC0063
:101080008091BC0084FDFCCF10922203FF91EF9170
:10109000BF91AF919F918F917F916F915F914F9190
:1010A0003F912F910F900FBE0F901F9018951092A7
:1010B000220381E0809324031092250382E161E002
:1010C0000E949E0983E161E00E949E09E9EBF0E045
:1010D00080818E7F808380818D7F808388E4809370
:1010E000B80085E48093BC0008951F920F920FB65C
:1010F0000F9211242F933F938F939F93AF93BF939E
:101100008091940390919503A0919603B0919703D9
:10111000309198030196A11DB11D232F2D5F2D370E
:1011200020F02D570196A11DB11D209398038093A7
:10113000940390939503A0939603B09397038091A3
:10114000900390919103A0919203B0919303019623
:10115000A11DB11D8093900390939103A0939203DE
:10116000B0939303BF91AF919F918F913F912F9136
:101170000F900FBE0F901F9018958FB7F894209185
:1011800094033091950340919603509197038FBF3C
:10119000B901CA0108959B01AC017FB7F894809111
:1011A000900390919103A0919203B091930366B53F
:1011B000A89B05C06F3F19F00196A11DB11D7FBF0F
:1011C000BA2FA92F982F8827860F911DA11DB11D19
:1011D00062E0880F991FAA1FBB1F6A95D1F7BC0157
:1011E0002DC0FFB7F8948091900390919103A09146
:1011F0009203B0919303E6B5A89B05C0EF3F19F0A9
:101200000196A11DB11DFFBFBA2FA92F982F8827C6
:101210008E0F911DA11DB11DE2E0880F991FAA1F1D
:10122000BB1FEA95D1F7861B970B885E9340C8F2E7
:10123000215030404040504068517C4F21153105CD
:101240004105510571F60895789484B5826084BD96
:1012500084B5816084BD85B5826085BD85B58160BA
:1012600085BDEEE6F0E0808181608083E1E8F0E01A
:101270001082808182608083808181608083E0E849
:10128000F0E0808181608083E1EBF0E08081846028
:101290008083E0EBF0E0808181608083EAE7F0E02A
:1012A000808184608083808182608083808181608E
:1012B00080838081806880831092C1000895CF93DD
:1012C000DF93482F50E0CA0186569F4FFC013491AE
:1012D0004A575F4FFA018491882369F190E0880FA3
:1012E000991FFC01E859FF4FA591B491FC01EE58FC
:1012F000FF4FC591D491662351F42FB7F8948C9188
:10130000932F909589238C93888189230BC0623019
:1013100061F42FB7F8948C91932F909589238C9337
:101320008881832B88832FBF06C09FB7F8948C9148
:10133000832B8C939FBFDF91CF910895482F50E06E
:10134000CA0182559F4FFC012491CA0186569F4FC6
:10135000FC0194914A575F4FFA013491332309F409
:1013600040C0222351F1233071F0243028F4213081
:10137000A1F0223011F514C02630B1F02730C1F0B1
:101380002430D9F404C0809180008F7703C080910D
:1013900080008F7D8093800010C084B58F7702C05D
:1013A00084B58F7D84BD09C08091B0008F7703C064
:1013B0008091B0008F7D8093B000E32FF0E0EE0FBE
:1013C000FF1FEE58FF4FA591B4912FB7F8946623F5
:1013D00021F48C919095892302C08C91892B8C9358
:1013E0002FBF0895CF93DF930E9424090E942B0101
:1013F000C0E0D0E00E94CA002097E1F30E94000004
:10140000F9CFEE0FFF1F0590F491E02D099410E045
:10141000C2EDD0E004C0FE010E94030A2296CC3D3A
:08142000D107C9F7F894FFCFD2
:10142800000000000806D70590059905AE05BF0520
:00000001FF
