:1000000004C100002CC100002AC1000028C100006A
:1000100026C1000024C1000022C1000020C1000050
:100020001EC100001CC100001AC1000018C1000060
:1000300016C1000014C1000012C1000010C1000070
:100040000EC100000CC100000AC1000008C1000080
:1000500006C1000004C1000002C10000A4C50000E8
:10006000FEC00000FCC00000FAC00000F8C00000A4
:10007000F6C00000F4C00000F2C00000F0C00000B4
:10008000EEC00000ECC00000EAC00000E8C00000C4
:10009000E6C00000E4C00000E2C00000E0C00000D4
:1000A000DEC00000DCC00000DAC00000D8C00000E4
:1000B000D6C00000D4C00000D2C00000D0C00000F4
:1000C000CEC00000CCC00000CAC00000C8C0000004
:1000D000C6C00000C4C00000C2C00000C0C0000014
:1000E000BEC0000000002100240027002A002D00CF
:1000F0003000330001010000040107010A01000083
:100100002200250028002B002E00310034000201BF
:100110000000050108010B0100002000230026005B
:1001200029002C002F00320000010000030106010D
:10013000090105050505070508080808020202026D
:100140000A0A080804040404010101010101010173
:100150000303030303030303040707070C0C0C0C3E
:100160000C0C0C0C02020202060606060606060627
:100170000B0B0B0B0B0B0B0B0102102020080810B4
:100180002040102040800201020108040201010207
:1001900004081020408080402010080402018004E0
:1001A000020180402010080402010804020101023B
:1001B0000408102040800102040810204080000044
:1001C000090A02080B0C0D070603040100000000D9
:1001D000000000000000000000000000000000001F
:1001E0000000000000000000000011100F000000DF
:1001F00000000000000000000000000000000000FF
:10020000000000005301F7014E0111241FBECFEF83
:10021000D1E2DEBFCDBF00E00CBF12E0A0E0B2E053
:10022000ECE7F1E100E00BBF02C007900D92A230B5
:10023000B107D9F71BBE13E0A2E0B2E001C01D92E6
:10024000AF34B107E1F712E0C8E0D2E003C0229773
:10025000FE0184D7C430D107D1F7CFD683C7D0CE23
:100260000197D9F46F5F7F4FC1F485E292E066E0B9
:100270003CD38AE292E065E038D38FE292E060E01E
:1002800070E048E32AE312D483E492E06FE070E088
:1002900040E150E023E030E00BC3089580E090E0BF
:1002A0006FEF7FEFDDCF81E090E06FEF7FEFD8CF92
:1002B000CF92DF92EF92FF920F931F936C017B011D
:1002C00003E412E0C801DCD2C8011AD1C801B701A9
:1002D00078D1C801B60165D1C80161E034D2C80146
:1002E00061E006D11F910F91FF90EF90DF90CF90CA
:1002F000089580E090E66EEF7AECDADF7894089566
:10030000EF92FF920F931F9396D460933F027093E6
:10031000400280934102909342028FE292E0F2D237
:1003200080931F028FE292E057D38093200283D400
:100330007B018C018091210290912202A0912302E5
:10034000B0912402A8019701281B390B4A0B5B0BC3
:100350002431310541055105F0F083E492E074D178
:1003600083E492E062E072E038D083E492E061E0FE
:1003700070E642E032D283E492E06FE172E07DD039
:1003800083E492E02ED1E0922102F09222020093C7
:100390002302109324021F910F91FF90EF90089574
:1003A000DF92EF92FF920F931F938B01E5E4EE2E05
:1003B000E3E0FE2EC701D0D3D82E0F5F1F4FC70139
:1003C000B801CAD3382F20E02D0D311DC9011F916E
:1003D0000F91FF90EF90DF900895E0E5F2E0DB01F0
:1003E00081918D9382E0ED36F807D1F708958BE087
:1003F00090E090934B0280934A020895FF920F93EE
:100400001F93CF93DF938C01EB01F42EFC018281CB
:1004100060E0C1D5CE0123E0969587952A95E1F756
:1004200080688EBD0DB407FEFDCF8EB59E0122956E
:10043000220F207E822F80618EBD0DB407FEFDCF7E
:100440008EB5FEBC0DB407FEFDCF8EB5F8018281DE
:1004500061E0A1D5DF91CF911F910F91FF90089599
:10046000462F50E04B50504034E0440F551F3A9512
:10047000E1F7436060E072E0C1CFEF92FF920F932B
:100480001F937C018B016CE070E0F8014081B6DFC6
:10049000C7016DE070E0F8014181B0DF1F910F915D
:1004A000FF90EF9008950F931F93CF93DF93EC018C
:1004B000162F042F8A8160E06ED5110F1E77116010
:1004C0001EBD0DB407FEFDCF8EB50EBD0DB407FEEB
:1004D000FDCF8EB58A8161E05ED5DF91CF911F910E
:1004E0000F91089569E340E0DECF69E344E0DBCF9C
:1004F000662319F060E041E002C060E040E0D3CF45
:100500000F931F938C0168E148E9CDDFC8016EE2CB
:1005100045E9C9DFC80160E072E043E06FDFC80170
:1005200061E072E041E06ADFC80162E072E040E849
:1005300065DFC80163E072E048E260DFC80166E0A1
:1005400072E040E95BDFC80167E072E040E856DF37
:10055000C80168E072E040E151DFC80160E272E08A
:1005600041E24CDFC8016AE340E89DDFC8016FE368
:1005700040E699DFC8016EE340E495DFC8016CE016
:100580006FDFC80166E344E08EDFC80166E340E048
:100590008ADF61E070E080E090E05BD31F910F9113
:1005A0000895FF920F931F938C01F62E472F64E05E
:1005B0007ADFC80163E04F2D76DF1F910F91FF9026
:1005C0000895FF920F931F938C01F62E472F62E040
:1005D0006ADFC80161E04F2D66DF1F910F91FF9028
:1005E00008956BE145E05FCFEF92FF921F93CF93A9
:1005F000DF937C01EB01FC01828160E0CCD4CE0171
:1006000043E0969587954A95E1F780688EBD0DB4D5
:1006100007FEFDCF8EB59E012295220F207E2EBDB6
:100620000DB407FEFDCF8EB51EBC0DB407FEFDCF89
:100630001EB5F701828161E0AED4812FDF91CF91A9
:100640001F91FF90EF900895CF92DF92EF92FF926B
:100650000F931F93CF93DF937C0147DFC70160E0C7
:1006600073E0C2DFD82E80914C02882391F0C1E064
:10067000D3E00D2D10E00F5F1C4F08C0C701BE0175
:10068000B3DFFE01EB53F04080832196C017D10702
:10069000A9F7C7016AE073E0A7DFC82EC1E0D0E088
:1006A0000AC0BE01665F7C4FC7019EDFFE01E15BB1
:1006B000FD4F8083219680914F0290E020914A0265
:1006C00030914B02821B930BC817D90754F3D09279
:1006D0004F020D2D10E00F5F1C4FC701B80184DFE2
:1006E0008093C4020F5F1F4FC701B8017DDF809365
:1006F000C502C701F7DE8C2DC11081E0DF91CF91DB
:100700001F910F91FF90EF90DF90CF9008951F936E
:10071000CF93DF93EC01162F8A8160E03CD4110F58
:100720001E771EBD0DB407FEFDCF8EB51EBC0DB4E9
:1007300007FEFDCF1EB58A8161E02DD4812FDF91A8
:10074000CF911F910895CF93DF93EC016623A1F021
:1007500064E3DDDF482F4860CE0164E3A4DECE0110
:1007600063E3D5DF482F4860CE0163E39CDECE0112
:100770006FE272E047E003C06FE272E040E03EDE0D
:10078000DF91CF910895FF920F931F938C0164E046
:10079000BEDFF82EC80163E0BADF5F2D40E0282FEE
:1007A00030E0242B352BC9011F910F91FF90089544
:1007B000FF920F931F938C0162E0A9DFF82EC8010E
:1007C00061E0A5DF5F2D40E0282F30E0242B352BA2
:1007D000C9011F910F91FF900895DF92EF92FF9250
:1007E0000F931F938C01E62ED72EF42E60E070E05D
:1007F00049E004DE40914D02475F4F0DC80161E0C2
:1008000070E0FCDDC80162E070E041E6F7DDC801A0
:1008100063E070E048E8F2DDC80164E070E041E0C8
:10082000EDDDC801C5DF482FF92EC80165E070E095
:10083000E5DDC80166E070E04F2DE0DDC80167E04E
:1008400070E04E2DDBDDC80168E070E04D2DD6DD97
:10085000C80199DF482FF92EC80169E070E0CEDDAC
:10086000C8016AE070E04F2DC9DDC8016BE070E09F
:100870004AE2C4DD1F910F91FF90EF90DF90089541
:100880000F931F938C01FC01808160E084D36AE0A8
:1008900070E080E090E0DDD1F801808161E07BD301
:1008A00064E170E080E090E0D4D11F910F91089551
:1008B0000F931F938C01862FF801608371835383FC
:1008C00042833583248361E0B3D2F801828161E001
:1008D000AFD2F801848160E0ABD281E044D180E006
:1008E0004BD14FD11F910F9108951F93FC01162FEB
:1008F00060831182862F60E09BD2812F61E04BD311
:100900001F910895AF92BF92CF92DF92EF92FF9224
:100910000F931F93CF93DF93EC018B8155D29C01F2
:10092000EC84FD848E159F0509F449C08E199F093A
:10093000489708F444C0E216F306E8F400D00F929A
:10094000B901882777FD8095982F970140E050E006
:10095000EC80FD8000E010E0FFE7AF2EB12CC12C51
:10096000D12CEDB7FEB7A182B282C382D482AA2471
:10097000BB2465011EC02E153F0508F500D00F925F
:10098000B901882777FD8095982F2E813F8140E01F
:1009900050E000E010E0EDB7FEB711821282138242
:1009A0001482E1E8AE2EEFEFBE2EEFEFCE2EEFEF8A
:1009B000DE2E2FD30F900F900F900F9001C060E0AC
:1009C000862FDF91CF911F910F91FF90EF90DF90D5
:1009D000CF90BF90AF900895AF92BF92CF92DF9229
:1009E000EF92FF920F931F93CF93DF93EC018A81D5
:1009F000EBD19C01EE84FF848E159F0509F449C05C
:100A00008E199F09489708F444C0E216F306E8F4EB
:100A100000D00F92B901882777FD8095982F970114
:100A200040E050E0E884F98400E010E0BFE7AB2E3E
:100A3000B12CC12CD12CEDB7FEB7A182B282C382FA
:100A4000D482AA24BB2465011EC02E153F0508F5DB
:100A500000D00F92B901882777FD8095982F2A85BD
:100A60003B8540E050E000E010E0EDB7FEB71182BA
:100A7000128213821482A1E8AA2EAFEFBA2EAFEF32
:100A8000CA2EAFEFDA2EC5D20F900F900F900F90B5
:100A900001C060E0862FDF91CF911F910F91FF90F1
:100AA000EF90DF90CF90BF90AF900895CF93DF93FA
:100AB000EC01798368834A832B8389E492E070DCBC
:100AC0009D838C83688179816E5F7F4F89E492E09A
:100AD00067DC9F838E838C819D81892B21F480E04C
:100AE00094E09F838E83688179816C5F7F4F89E476
:100AF00092E056DC99878887688179816A5F7F4FA9
:100B000089E492E04DDC9B878A87892B21F480E081
:100B100094E09B878A8768817981685F7F4F89E449
:100B200092E03EDC9D878C87892B21F480E092E067
:100B30009D878C8768817981665F7F4F89E492E029
:100B40002FDC9F878E87892B21F480E092E09F879E
:100B50008E87DF91CF910895F999FECF72BD61BD67
:100B6000F89A80B50895882319F48CB5806202C084
:100B70008CB58F7D8CBD08959CB5937F982B9CBDC3
:100B8000089585E361E007D285E361E051D18CB53A
:100B900080618CBD8CB580648CBD84E361E048D1FC
:100BA00083E361E045C11F920F920FB60F921124AB
:100BB0002F933F938F939F93AF93BF9380914A035B
:100BC00090914B03A0914C03B0914D0330914E0393
:100BD0000196A11DB11D232F2D5F2D3720F02D571C
:100BE0000196A11DB11D20934E0380934A0390935B
:100BF0004B03A0934C03B0934D0380914603909117
:100C00004703A0914803B09149030196A11DB11D6E
:100C10008093460390934703A0934803B0934903FE
:100C2000BF91AF919F918F913F912F910F900FBEE8
:100C30000F901F9018958FB7F89420914A03309128
:100C40004B0340914C0350914D038FBFB901CA0132
:100C500008959B01AC017FB7F89480914603909171
:100C60004703A0914803B091490366B5A89B05C00E
:100C70006F3F19F00196A11DB11D7FBFBA2FA92F9B
:100C8000982F8827860F911DA11DB11D62E0880F46
:100C9000991FAA1FBB1F6A95D1F7BC012DC0FFB7D2
:100CA000F8948091460390914703A0914803B09136
:100CB0004903E6B5A89B05C0EF3F19F00196A11DB9
:100CC000B11DFFBFBA2FA92F982F88278E0F911D16
:100CD000A11DB11DE2E0880F991FAA1FBB1FEA9555
:100CE000D1F7861B970B885E9340C8F221503040A5
:100CF0004040504068517C4F211531054105510558
:100D000071F60895789484B5826084BD84B581605D
:100D100084BD85B5826085BD85B5816085BDEEE603
:100D2000F0E0808181608083E1E8F0E010828081E2
:100D300082608083808181608083E0E8F0E0808150
:100D400081608083E1EBF0E0808184608083E0EB70
:100D5000F0E0808181608083E1E9F0E08081826061
:100D60008083808181608083E0E9F0E08081816020
:100D70008083E1EAF0E0808182608083808181600D
:100D80008083E0EAF0E0808181608083E1E2F1E04D
:100D9000808182608083808181608083E0E2F1E0F5
:100DA000808181608083EAE7F0E0808184608083D5
:100DB000808182608083808181608083808180687F
:100DC00080831092C1000895382F863308F036537F
:100DD00020917B00832F86958695869590E0817083
:100DE000907043E0880F991F4A95E1F7277F282BE1
:100DF00020937B003770809100028295880F880FC6
:100E0000807C832B80937C0080917A008064809327
:100E10007A0080917A0086FDFCCF20917800409185
:100E20007900942F80E030E0282B392BC9010895F8
:100E3000CF93DF93482F50E0CA0188589E4FFC01A2
:100E400034914E5C5E4FFA018491882369F190E001
:100E5000880F991FFC01EC51FF4FA591B491FC0143
:100E6000E250FF4FC591D491662351F42FB7F89407
:100E70008C91932F909589238C93888189230BC023
:100E8000623061F42FB7F8948C91932F9095892359
:100E90008C938881832B88832FBF06C09FB7F894DB
:100EA0008C91832B8C939FBFDF91CF9108958930D4
:100EB00009F449C08A30A0F4843051F1853040F4FF
:100EC000823079F1833000F5813009F063C026C0AB
:100ED000873079F1883098F5863009F05BC025C0FD
:100EE0008D3009F442C08E3028F48B30B1F18C3053
:100EF000C0F52DC0803109F442C0813109F445C0EC
:100F00008F3009F047C037C0809180008F7703C0D1
:100F1000809180008F7D80938000089584B58F77C5
:100F200002C084B58F7D84BD08958091B0008F7715
:100F300003C08091B0008F7D8093B00008958091B0
:100F400090008F7707C0809190008F7D03C08091C3
:100F50009000877F8093900008958091A0008F7704
:100F600007C08091A0008F7D03C08091A000877F83
:100F70008093A0000895809120018F7703C0809115
:100F800020018F7D80932001089580912001877F2B
:100F9000809320010895FF920F931F93F62E482F00
:100FA00050E0CA0182549E4FFC012491CA01885826
:100FB0009E4FFC0114914E5C5E4FFA010491002398
:100FC000C1F0222311F0822F72DFE02FF0E0EE0F4C
:100FD000FF1FE250FF4FA591B4919FB7F894FF20F7
:100FE00021F48C911095812302C08C91812B8C93DC
:100FF0009FBF1F910F91FF900895CF93DF9382DEE3
:1010000078D9C0E0D0E07CD92097E9F30E940000B5
:10101000FACF2F923F924F925F926F927F928F9270
:101020009F92AF92BF92CF92DF92EF92FF920F9377
:101030001F93DF93CF93CDB7DEB73B014C0119016E
:101040002A016E897F89888D998D6A197B098C099F
:101050009D09621A730A840A950AA401930120D09B
:10106000E218F30804091509A801970138D02A0DE0
:101070003B1D4C1D5D1DB901CA01CF91DF911F9130
:101080000F91FF90EF90DF90CF90BF90AF909F9027
:101090008F907F906F905F904F903F902F9008952A
:1010A000629FD001739FF001829FE00DF11D649F4C
:1010B000E00DF11D929FF00D839FF00D749FF00DD8
:1010C000659FF00D9927729FB00DE11DF91F639F79
:1010D000B00DE11DF91FBD01CF011124089597FB4B
:1010E000092E05260ED057FD04D014D00AD0001CBE
:1010F00038F450954095309521953F4F4F4F5F4FB5
:101100000895F6F790958095709561957F4F8F4F74
:101110009F4F0895A1E21A2EAA1BBB1BFD010DC013
:10112000AA1FBB1FEE1FFF1FA217B307E407F50797
:1011300020F0A21BB30BE40BF50B661F771F881F73
:10114000991F1A9469F760957095809590959B0109
:10115000AC01BD01CF010895EE0FFF1F0590F49182
:10116000E02D199412E0C8E0D2E003C0FE01F6DFE2
:0C1170002296CA30D107D1F7F894FFCFC7
:02117C00010070
:00000001FF
