:1000000013C100000C94E11A0C94121B0C94431BB6
:100010000C94741B0C94A51B0C94D61B0C94071CFD
:100020000C94381C2EC100002CC100002AC1000015
:1000300028C1000026C1000024C1000022C1000028
:1000400020C100001EC100001CC100001AC1000038
:1000500018C1000016C1000014C100000C94691CF6
:1000600010C100000EC100000CC100000AC1000058
:1000700008C1000006C1000004C1000002C1000068
:1000800000C10000FEC00000FCC00000FAC000007B
:10009000F8C00000F6C00000F4C00000F2C000008C
:1000A000F0C00000EEC00000ECC00000EAC000009C
:1000B000E8C00000E6C00000E4C00000E2C00000AC
:1000C000E0C00000DEC00000DCC00000DAC00000BC
:1000D000D8C00000D6C00000D4C00000D2C00000CC
:1000E000D0C0000005A84CCDB2D44EB93836A90214
:1000F0000C50B9918688083CA6AAAA2ABE00000026
:10010000803F00002100240027002A002D0030003D
:10011000330001010000040107010A010000220070
:10012000250028002B002E003100340002010000C1
:10013000050108010B010000200023002600290012
:100140002C002F003200000100000301060109010C
:1001500005050505070508080808020202020A0A43
:100160000808040404040101010101010101030361
:10017000030303030303040707070C0C0C0C0C0C0C
:100180000C0C0202020206060606060606060B0B09
:100190000B0B0B0B0B0B010210202008081020404A
:1001A000102040800201020108040201010204083B
:1001B00010204080804020100804020180040201C9
:1001C0008040201008040201080402010102040812
:1001D0001020408001020408102040800000090A1D
:1001E00002080B0C0D0706030401000000000000CC
:1001F00000000000000000000000000000000000FF
:10020000000000000000000011100F0000000000BE
:1002100000000000000000000000000000000000DE
:1002200000000A04E607050411241FBECFEFD1E247
:10023000DEBFCDBF00E00CBF12E0A0E0B2E0E0EF17
:10024000F9E400E00BBF02C007900D92A436B1079D
:10025000D9F71BBE13E0A4E6B2E001C01D92AB3C8F
:10026000B107E1F712E0C6E2D2E004C02297FE0136
:100270000E94B124C232D107C9F70E94C21E0C9459
:10028000EC24BECEFB01DC0102C001900D92415076
:100290005040D8F70895FB01DC0101900D92002039
:1002A000E1F70895AEE0B0E0E8E5F1E00C94C32496
:1002B0000E891F8986E08C831A8309838FEF9FE75D
:1002C0009E838D839E01265E3F4FCE010196688DF1
:1002D000798DA9010AD02F813885020F131FF801EB
:1002E00010822E96E4E00C94DF24ABE0B0E0EBE764
:1002F000F1E00C94B5243C012B015A01FC0117825A
:100300001682838181FD03C06FEF7FEFB9C19AE050
:10031000892E1E010894211C311CF3012381F20156
:1003200023FD859123FF81912F01882309F4A5C125
:10033000853239F423FD859123FF81912F01853288
:1003400021F490E0B301B7D1E8CF982FFF24EE2439
:100350009924FFE1FF15D0F09B3269F09C3228F41C
:10036000903259F0933291F40EC09D3249F090339F
:1003700069F441E024C052E0F52A84E0F82A28C05C
:1003800098E0F92A25C0E0E1FE2A22C0F7FC29C046
:10039000892F80538A3070F4F6FE05C0989C902C0B
:1003A0001124980E15C0E89CE02C1124E80EF0E210
:1003B000FF2A0EC09E3229F4F6FC5FC140E4F42A05
:1003C00007C09C3619F450E8F52A02C0983649F463
:1003D000F20123FD959123FF91912F01992309F0BB
:1003E000B8CF892F8554833018F08052833038F489
:1003F00044E050E0A40EB51E5FE359830FC093366E
:1004000031F0933779F0933509F052C01FC0F501F0
:100410008081898342E050E0A40EB51E610101E0B5
:1004200010E011C0F501C080D180F6FC03C06FEF71
:100430007FEF02C0692D70E042E050E0A40EB51ECF
:10044000C6012ED18C015FE7F52213C0F501C080F3
:10045000D180F6FC03C06FEF7FEF02C0692D70E022
:1004600042E050E0A40EB51EC6010FD18C0150E849
:10047000F52AF3FE06C018C080E290E0B3011BD15C
:10048000EA948E2D90E008171907B0F30DC0F6011D
:10049000F7FC8591F7FE81916F0190E0B3010BD1DC
:1004A000E110EA94015010400115110581F7E2C0F6
:1004B000943611F0993661F5F7FE08C0F5012081F8
:1004C00031814281538184E090E00AC0F50180814E
:1004D00091819C01442737FD4095542F82E090E0A4
:1004E000A80EB91E9FE6F92257FF09C05095409506
:1004F000309521953F4F4F4F5F4FE0E8FE2ACA01EC
:10050000B901A1012AE030E002D1D82ED2183FC0B3
:10051000953729F41F2D1F7E2AE030E01DC01F2DC6
:10052000197F9F3661F0903720F4983509F0A5C007
:100530000FC0903739F0983709F09FC004C028E009
:1005400030E00AC0106114FD146020E130E004C006
:1005500014FD166020E132E017FF08C0F50160814C
:1005600071818281938144E050E008C0F50180816F
:100570009181BC0180E090E042E050E0A40EB51E05
:10058000A101C5D0D82ED2188FE7F82EF122F6FEA1
:100590000BC05EEFF522D91438F4F4FE07C0F2FC6C
:1005A00005C08FEEF82202C01D2D01C0192DF4FEEA
:1005B0000DC0FE01ED0DF11D8081803319F499EE1F
:1005C000F92208C01F5FF2FE05C003C08F2D867898
:1005D00009F01F5F0F2DF3FC13C0F0FE0EC01E15B7
:1005E00010F09D2C0AC09D2C9E0C911A1E2D05C04A
:1005F00080E290E0B3015FD01F5F1E15C8F304C016
:100600001E1510F4E11A01C0EE2404FF0EC080E3B1
:1006100090E0B30150D002FF1BC001FD03C088E78A
:1006200090E00EC088E590E00BC0802F867881F0C6
:1006300001FF02C08BE201C080E2F7FC8DE290E096
:10064000B30139D005C080E390E0B30134D09A946F
:10065000D914C8F3DA94F101ED0DF11D808190E019
:10066000B30129D0DD20B1F705C080E290E0B301ED
:1006700022D0EA94EE20C9F750CEF301668177814B
:10068000CB012B96E2E10C94D124FC010590615042
:1006900070400110D8F7809590958E0F9F1F089598
:1006A000FC016150704001900110D8F78095909541
:1006B0008E0F9F1F08950F931F93CF93DF938C018D
:1006C000EB018B8181FF1BC082FF0DC02E813F811A
:1006D0008C819D812817390764F4E881F9810193A1
:1006E000F983E88306C0E885F985802F1995892B61
:1006F00031F48E819F8101969F838E8302C00FEF1C
:100700001FEFC801DF91CF911F910F910895FA015A
:10071000AA27283051F1203181F1E8946F936E7F40
:100720006E5F7F4F8F4F9F4FAF4FB1E03ED0B4E031
:100730003CD0670F781F891F9A1FA11D680F791F72
:100740008A1F911DA11D6A0F711D811D911DA11D83
:1007500020D009F468943F912AE0269F1124301993
:10076000305D3193DEF6CF010895462F4770405D2E
:100770004193B3E00FD0C9F7F6CF462F4F70405DDD
:100780004A3318F0495D31FD4052419302D0A9F738
:10079000EACFB4E0A6959795879577956795BA9532
:1007A000C9F700976105710508959B01AC010A2EF8
:1007B00006945795479537952795BA95C9F7620FCF
:1007C000731F841F951FA01D089508950197E1F4DC
:1007D0006F5F7F4FC9F487E892E066E0F7D48CE85A
:1007E00092E065E0F3D481E992E060E070E048E3F4
:1007F0002AE30E94C51985EA92E06FE070E040E1CB
:1008000050E023E030E0A6C4089580E090E06FEF70
:100810007FEFDCCF81E090E06FEF7FEFD7CF85EA0D
:1008200092E064E672E0C7C185EA92E0F2C2CF923C
:10083000DF92EF92FF920F931F936C017B0105EA09
:1008400012E0C8016BD4C801C8D3C801B7012FD2C8
:10085000C801B60147D2C80161E0AED381E064E1CE
:1008600074E041E050E00E94651A1F910F91FF90E3
:10087000EF90DF90CF9008950F931F9381E992E05E
:100880000E94AD188AEA93E00E94E80D8AEA93E09C
:1008900061E040E00E948C138AEA93E00E94EE0E31
:1008A0008CE892E076D48823D9F381E992E00E9423
:1008B0009A188AEA93E00E94E80D8AEA93E061E0E0
:1008C00041E00E948C138AEA93E00E94EE0E8CE8CD
:1008D00092E05FD48823D9F381E992E00E948518E1
:1008E0008AEA93E00E94E80D8AEA93E060E042E041
:1008F0000E948C138AEA93E00E94EE0E8CE892E04C
:1009000048D4882311F400E005C081E992E00E94F8
:10091000EE1801E060E570E080E090E00E94BF1C0E
:10092000002361F38AEA93E00E94E80D8AEA93E0EB
:1009300060E043E00E948C138AEA93E00E94EE0E8E
:100940008CE892E026D4882311F410E005C081E9F8
:1009500092E00E94D918102F60E570E080E090E0EE
:100960000E94BF1C112361F31F910F910895AF9254
:10097000BF92CF92DF92EF92FF920F931F9385EA7F
:1009800092E06FE074E045EE53E000D387E892E038
:1009900003D48CE892E000D487E892E0FAD38CE8A4
:1009A00092E0F7D3882309F067DF81E992E00E94A3
:1009B0000319A82E81E992E00E946419B82E809351
:1009C0008202A09281020E94B11C7B018C01809165
:1009D000830290918402A0918502B0918602A801C1
:1009E0009701281B390B4A0B5B0B2431310541055C
:1009F0005105B0F085EA92E061E070E642E0AED1E8
:100A000085EA92E061E872E01BD185EA92E0C4D009
:100A1000E0928302F0928402009385021093860292
:100A20000E94B11C6B017C018091A1029091A202F5
:100A3000A091A302B091A402A7019601281B390B33
:100A40004A0B5B0B243131054105510508F456C0B2
:100A50008AEA93E00E94E80D8AEA93E067D78AEA7F
:100A600093E0609164020E94631560916D02709141
:100A70006E0240916F02509170022091710230918C
:100A8000720200917302109174028AEA93E00E944C
:100A90001C118AEA93E060916C024ED66091750257
:100AA00070917602409177025091780220917902FC
:100AB00030917A0200917B0210917C028AEA93E0E5
:100AC0000E943F0F8AEA93E0609165020E948414BD
:100AD0008AEA93E06A2D0E9408148AEA93E06B2D5B
:100AE0000E94CD158AEA93E00E94EE0EC092A10208
:100AF000D092A202E092A302F092A4021F910F9161
:100B0000FF90EF90DF90CF90BF90AF9008958AEA6A
:100B100093E00E94591880E090E66EEF7AEC87DE51
:100B200078940895DF92EF92FF920F931F938B01B9
:100B3000EDEAEE2EE3E0FE2EC7010E94211AD82E28
:100B40000F5F1F4FC701B8010E94211A382F20E004
:100B50002D0D311DC9011F910F91FF90EF90DF9076
:100B60000895DF92EF92FF920F931F938B01D52E82
:100B7000ADEAEA2EA3E0FA2EC7010E94281A0F5F01
:100B80001F4FC701B8014D2D0E94281A1F910F91C8
:100B9000FF90EF90DF9008952F9887E38EBD0DB4FE
:100BA00007FEFDCF8EB585E08EBD0DB407FEFDCFEF
:100BB0008EB52F9A0895E4EBF2E0DB0181918D93DD
:100BC00082E0E13DF807D1F708952F98CB0123E0AB
:100BD000969587952A95E1F780688EBD0DB407FE3E
:100BE000FDCF8EB5862F8295880F807E8EBD0DB489
:100BF00007FEFDCF8EB51EBC0DB407FEFDCF8EB532
:100C00002F9A08952F98CB0133E0969587953A95C2
:100C1000E1F780688EBD0DB407FEFDCF8EB5862F3F
:100C20008295880F807E80618EBD0DB407FEFDCF5A
:100C30008EB54EBD0DB407FEFDCF8EB52F9A08952B
:100C4000EF92FF920F931F937C018B016BE070E09A
:100C5000F8014081D7DFC7016CE070E0F801418105
:100C6000D1DF1F910F91FF90EF9008952F9884E0AE
:100C70008EBD0DB407FEFDCF8EB51EBC0DB407FEB4
:100C8000FDCF3EB52F9A2F9882E08EBD0DB407FEA2
:100C9000FDCF8EB51EBC0DB407FEFDCF2EB52F9A2D
:100CA000932F80E030E0282B392BC90108952F982D
:100CB00085E08EBD0DB407FEFDCF8EB57EBD0DB4B3
:100CC00007FEFDCF8EB52F9A2F9883E08EBD0DB411
:100CD00007FEFDCF8EB56EBD0DB407FEFDCF8EB500
:100CE0002F9A08952F9889E08EBD0DB407FEFDCF91
:100CF0008EB57EBD0DB407FEFDCF8EB52F9A2F9811
:100D000087E08EBD0DB407FEFDCF8EB56EBD0DB470
:100D100007FEFDCF8EB52F9A08952F9888E08EBDDF
:100D20000DB407FEFDCF8EB51EBC0DB407FEFDCF82
:100D30003EB52F9A2F9886E08EBD0DB407FEFDCFED
:100D40008EB51EBC0DB407FEFDCF2EB52F9A932F86
:100D500080E030E0282B392BC9010895DF92EF9213
:100D6000FF920F931F938C01E62ED72EF42E60E096
:100D700070E049E047DF4091B102475F4F0DC80185
:100D800061E070E03FDFC80162E070E041E63ADF19
:100D9000C80163E070E048E835DFC80164E070E056
:100DA00041E030DFC80162DF482FF92EC80165E05D
:100DB00070E028DFC80166E070E04F2D23DFC80136
:100DC00067E070E04E2D1EDFC80168E070E04D2D39
:100DD00019DFC801A2DF482FF92EC80169E070E0D1
:100DE00011DFC8016AE070E04F2D0CDF1F910F91F9
:100DF000FF90EF90DF900895462F50E04B50504009
:100E000064E0440F551F6A95E1F7436060E072E0CB
:100E1000F9CEAF92BF92CF92DF92EF92FF920F93F3
:100E20001F93CF93DF937C012F9882E68EBD0DB484
:100E300007FEFDCF8EB51EBC0DB407FEFDCF8EB5EF
:100E40002F9AA82E83FF6BC08091AC028F5F809396
:100E5000AC02F8942F9883E78EBD0DB407FEFDCF4A
:100E60008EB584E08EBD0DB407FEFDCF8EB52F9AF2
:100E7000C70160E073E0A9DEB82E8091B00288233C
:100E800039F0C1E0D3E00B2D10E00F5F1C4F11C013
:100E9000C090AE02D090AF0204EB12E0C0E0D0E010
:100EA00016C0C701BE0191DEFE01E75DFF4F8083E2
:100EB0002196C017D107A9F7EBCFC65FDC4FC7015A
:100EC000BE0183DEF80181938F01C950D340809128
:100ED000B30290E08C199D09C817D90774F3B0923A
:100EE000B3020B2D10E00F5F1C4FC701B8016DDE80
:100EF000809328030F5F1F4FC701B80166DE809300
:100F000029032F9883E78EBD0DB407FEFDCF8EB564
:100F10001EBC0DB407FEFDCF8EB52F9A7894A0FEAF
:100F20002AC08091AD028F5F8093AD022F9888E434
:100F30008EBD0DB407FEFDCF8EB51EBC0DB407FEF1
:100F4000FDCF8EB52F9A282F30E040E0C9018E7F6B
:100F5000892B09F441E08091A903887F76E03595DB
:100F600027957A95E1F7922F9370990F842B892B0F
:100F7000877F8093A903DF91CF911F910F91FF90FD
:100F8000EF90DF90CF90BF90AF900895CF93DF9315
:100F9000FB01EA018091AC02882319F01092AC02A7
:100FA00019958091AD02882321F01092AD02FE01C7
:100FB0001995DF91CF910895662321F06FE272E0D9
:100FC00047E003C06FE272E040E01CCE8BE090E0AF
:100FD0009093AF028093AE020895CF93DF93EC011C
:100FE0002F9881E38EBD0DB407FEFDCF8EB588E945
:100FF0008EBD0DB407FEFDCF8EB52F9A2F988DE5CF
:101000008EBD0DB407FEFDCF8EB585E98EBD0DB446
:1010100007FEFDCF8EB52F9ACE0160E072E043E06F
:10102000F1DDCE0161E072E041E0ECDDCE0162E095
:1010300072E040E8E7DDCE0166E072E040E9E2DD23
:10104000CE0167E072E040E8DDDDCE0168E072E0ED
:1010500040E1D8DDCE0160E272E041E2D3DD2F98BD
:1010600085E78EBD0DB407FEFDCF8EB580E88EBD41
:101070000DB407FEFDCF8EB52F9A2F988FE78EBD4A
:101080000DB407FEFDCF8EB580E68EBD0DB407FE14
:10109000FDCF8EB52F9A2F988DE78EBD0DB407FE2C
:1010A000FDCF8EB580E48EBD0DB407FEFDCF8EB5AD
:1010B0002F9A2F9885E68EBD0DB407FEFDCF8EB515
:1010C00086EF8EBD0DB407FEFDCF8EB52F9ACE01F3
:1010D0006CE092DE2F988DE68EBD0DB407FEFDCF3D
:1010E0008EB584E08EBD0DB407FEFDCF8EB52F9A70
:1010F0002F988DE68EBD0DB407FEFDCF8EB51EBCBC
:101100000DB407FEFDCF8EB52F9A61E070E080E050
:1011100090E00E94BF1CDF91CF9108950F931F9321
:101120008C01FC01808160E00E94611E6AE070E039
:1011300080E090E00E94BF1CF801808161E00E9485
:10114000611E64E170E080E090E00E94BF1C1F918E
:101150000F9108950F931F938C01862FF8016083E0
:101160007183538342833583248361E00E94AE1DE3
:10117000279AF801848160E00E94AE1D81E00E9400
:10118000341A80E00E943D1A0E94531A1F910F9159
:101190000895FC0182810895CF93DF93EC011A82B8
:1011A0001B8288810E94931E2C81892B31F022237F
:1011B00011F081E08B831C8206C0222311F481E0B0
:1011C0008A8381E08C83DF91CF9108951F93FC0186
:1011D000162F60831182862F60E00E94AE1D812F42
:1011E00061E00E94611E1F910895FF920F931F936B
:1011F000FC01F42E052F162F808160E00E94611EF5
:1012000010681EBD0DB407FEFDCF8EB50EBD0DB42A
:1012100007FEFDCF8EB5FEBC0DB407FEFDCF8EB52B
:101220001F910F91FF900895EF92FF920F931F93DC
:10123000CF93DF93EC01888161E00E94611EEC8412
:10124000FD841F2DCE0148EE54E260E170E0CDDF59
:10125000EEBC0DB407FEFDCF8EB51EBD0DB407FE6E
:10126000FDCF8EB51EBC0DB407FEFDCF8EB51EBCE6
:101270000DB407FEFDCF8EB5888161E00E94611E2E
:101280001B82DF91CF911F910F91FF90EF900895F6
:101290000F931F93CF93DF93EC01122F032FA5DF42
:1012A0001EBD0DB407FEFDCF8EB50EBD0DB407FEFD
:1012B000FDCF8EB5888161E00E94611EDF91CF91E4
:1012C0001F910F9108950F931F93182F092F6623D5
:1012D00009F073C048E454E260E170E020E030E0DF
:1012E000D7DF812F902F4CE454E260E170E022E0E0
:1012F00030E0CEDF812F902F40E454E260E170E0D7
:101300002DE030E0C5DF812F902F4CE354E260E107
:1013100070E027E031E0BCDF812F902F44E354E2FE
:1013200060E170E020E030E0B3DF812F902F48E3F0
:1013300054E260E170E02AE030E0AADF812F902FD4
:101340004CE254E260E170E026E430E0A1DF812F5E
:10135000902F48E254E260E170E028E931E098DF44
:10136000812F902F40E354E260E170E020E431E00F
:101370008FDF812F902F44E454E260E170E020EF92
:1013800030E086DF812F902F48E654E260E170E084
:1013900020E030E07DDF812F902F40E654E260E1D5
:1013A00070E022E030E074DF812F902F4CE654E2B1
:1013B00060E170E028E030E072C048E454E260E1AF
:1013C00070E020E030E064DF812F902F4CE454E2A5
:1013D00060E170E02AE030E05BDF812F902F40E495
:1013E00054E260E170E02CE030E052DF812F902F7A
:1013F0004CE354E260E170E024E231E049DF812F08
:10140000902F44E354E260E170E020E030E040DF00
:10141000812F902F48E354E260E170E029E230E050
:1014200037DF812F902F4CE254E260E170E02BE235
:1014300030E02EDF812F902F48E254E260E170E02F
:1014400024E232E025DF812F902F40E354E260E177
:1014500070E020EE31E01CDF812F902F44E454E255
:1014600060E170E020E131E013DF812F902F48E64A
:1014700054E260E170E021E030E00ADF812F902F3C
:1014800040E654E260E170E020E030E001DF812FCF
:10149000902F4CE654E260E170E025E030E0F8DEA9
:1014A0001F910F9108951F93CF93DF93EC01122F9B
:1014B0009CDE1EBD0DB407FEFDCF8EB5888161E0B8
:1014C0000E94611EDF91CF911F910895FF920F93AB
:1014D0001F93FC01F42E052F162F808160E00E94DF
:1014E000611E1EBD0DB407FEFDCF8EB50EBD0DB441
:1014F00007FEFDCF8EB5FEBC0DB407FEFDCF8EB549
:101500001EBC0DB407FEFDCF8EB51F910F91FF904D
:1015100008950F931F93CF93DF93EC01D7DF1EBC89
:101520000DB407FEFDCF0EB51EBC0DB407FEFDCFFA
:101530001EB5888161E00E94611EC801DF91CF91D4
:101540001F910F910895CF92DF92EF92FF920F9328
:101550001F93CF93DF93EC018B018E859F858617B8
:10156000970708F045C08B81882321F0CE015CDE0F
:1015700081E08B83DC2ECD2E2C853D85CE0148EE7F
:1015800054E260E170E084DE8CEFE82E8FE0F82E0C
:101590001AC08D2D9C2D44EE54E260E170E0B9DF5D
:1015A0009C018FE02F3F380719F422E330E022C07E
:1015B0008C859D85821B930B8C7F9F709701281BC8
:1015C000390B3F872E878E859F858017910708F3FB
:1015D0008B81882369F04C855D8560E070E0405028
:1015E00050486F4E7F4F8D2D9C2DFFDD81E08B830A
:1015F00020E030E0C901DF91CF911F910F91FF9062
:10160000EF90DF90CF900895EF92FF920F931F938A
:10161000CF93DF93EC01142F052FF62EE72E8E8546
:101620009F85049748F4CE0164E070E08CDFC29798
:1016300019F422E330E021C01EBD0DB407FEFDCF3A
:101640008EB50EBD0DB407FEFDCF8EB5FEBC0DB43C
:1016500007FEFDCF8EB5EEBC0DB407FEFDCF8EB5F7
:101660008C859D8504969F709D878C878E859F8530
:1016700004979F878E8720E030E0C901DF91CF91EA
:101680001F910F91FF90EF900895EF92FF920F93AB
:101690001F93CF93DF93EC017A018B018B81882319
:1016A000A1F44C855D8560E070E0405050486F4E7D
:1016B0007F4FCE019ADD81E08B83CE01B801A70177
:1016C000A3DF8C01CE01B0DD03C0CE019DDF8C0114
:1016D000C801DF91CF911F910F91FF90EF90089576
:1016E000AB0160E070E05F70607070707E60CDCFC5
:1016F00070707460CACF0F931F938B01662757FDDC
:101700006095762F5F77607070707064222717FD88
:101710002095322F1F7720703070EFE0000F111FDF
:10172000221F331FEA95D1F7402B512B622B732BCD
:10173000ACDF1F910F910895CF93DF93EC01888167
:10174000882309F478C0662309F475C089819A81D9
:1017500060E270E0C5DF89819A814FEF5DE76CE25E
:1017600070E0C6DF89819A8144E050E060E07FE16B
:101770008CDF89819A8160E37BE040E259E0BBDF46
:1017800089819A8160EC7BE040E259E0B4DF898195
:101790009A8160E27CE040E759E0ADDF89819A817F
:1017A00060E27CE040E75AE0A6DF89819A8160EC44
:1017B0007BE040EC5AE09FDF89819A8160E37BE027
:1017C00040EC5AE098DF89819A8160E37BE040E257
:1017D00059E091DF89819A8143E050E060E07FE148
:1017E00054DF89819A8160EF7AE040E759E083DF36
:1017F00089819A8160E47AE040E759E07CDF898161
:101800009A8160EF7AE040EF59E075DF89819A8133
:1018100060E47AE040EF59E06EDF89819A8160EF01
:101820007AE040E75AE067DF89819A8160E47AE0F4
:1018300040E75AE060DFDF91CF9108952F923F9209
:101840004F925F926F927F928F929F92AF92BF92D0
:10185000CF92DF92EF92FF920F931F93DF93CF937C
:1018600000D00F92CDB7DEB71C017A8369832A01BD
:101870003C832B8343E15FEF6FEF7FEF06DF66244E
:1018800057FC6094762C32015524442429813A81F6
:10189000B90180E090E0462A572A682A792AC101D6
:1018A000B301A201F2DE20E030E0B8015527442761
:1018B0002B813C81C901A0E0B0E0482B592B6A2B59
:1018C0007B2BC101E2DEA60160E070E0BA01552782
:1018D000442700E010E04E295F29602B712BC101E5
:1018E000D4DEA40160E070E0BA0155274427CC247F
:1018F000DD244A295B296C297D29C101C6DE0F90B0
:101900000F900F900F90CF91DF911F910F91FF904B
:10191000EF90DF90CF90BF90AF909F908F907F908F
:101920006F905F904F903F902F9008958F929F926D
:10193000AF92BF92CF92DF92EF92FF920F931F93DD
:10194000CF93DF93EC018881882309F434C1898126
:101950009A8143E050E060E07FE197DE89819A81DF
:101960004FEF5FEF6FEF70E0C3DE89819A8160EA2D
:1019700070E0B6DE89819A8160E075E040E754E06E
:10198000BADE89819A8160E075E040E95CE0B3DE0F
:1019900089819A8160E770E0A3DE89819A8160E89D
:1019A00072E040E754E0A7DE89819A8160E877E041
:1019B00040E754E0A0DE89819A8160E872E040E966
:1019C0005CE099DE89819A8160E877E040E95CE03B
:1019D00092DE89819A8144E050E060E07FE155DE4B
:1019E00089819A8160E370E07BDE89819A814FEF83
:1019F0005FEF6FEF70E07CDE89819A8160E77AE0CB
:101A000040EB5BE078DE89819A8160EC7DE040EB21
:101A10005BE071DE89819A8160EC7DE040EF5DE002
:101A20006ADE89819A8160E77AE040EF5DE063DEFB
:101A300089819A8160E77AE040E45DE05CDE89813B
:101A40009A8160E27AE040E45DE055DE89819A8126
:101A500060E27AE040E65CE04EDE89819A8160E7F0
:101A60007AE040E65CE047DE89819A8160E77AE0CF
:101A700040EB5BE040DE89819A814FEF5FEF6FEFD3
:101A800070E036DE09811A81C80149E05FEF6FEF2F
:101A90007FEFFBDDC80142E252E262E270E0F5DD79
:101AA00089819A8166E671E048E850E02EE630E0F0
:101AB00000E010E4AAE0EA2EF12CFAE0CF2ED12CBF
:101AC000AA24BB24E4E68E2E912CB8DE89819A816B
:101AD00041E154EC60E070E00BDE89819A8160E2C4
:101AE00070E0FEDD89819A8144E050E060E07FE1B2
:101AF000CCDD89819A8160EB7DE040E259E0FBDD3D
:101B000089819A8160E47EE040E259E0F4DD8981D8
:101B10009A8160EA7EE040E759E0EDDD89819A81B3
:101B200060EA7EE040E75AE0E6DD89819A8160E480
:101B30007EE040EC5AE0DFDD89819A8160EB7DE058
:101B400040EC5AE0D8DD89819A8160EB7DE040E28B
:101B500059E0D1DD89819A8143E050E060E07FE186
:101B600094DD89819A8160E77DE040E759E0C3DD3B
:101B700089819A8160EC7CE040EB59E0BCDD898191
:101B80009A8160E77DE040EF59E0B5DD89819A8177
:101B900060EC7CE040E35AE0AEDD89819A8160E749
:101BA0007DE040E75AE0A7DD89819A8160EC7CE026
:101BB00040EB5AE0A0DDDF91CF911F910F91FF9094
:101BC000EF90DF90CF90BF90AF909F908F9008954F
:101BD0000F931F93CF93DF93EC0188818823E1F06B
:101BE00009811A81C80140E05FEF6FEF7FEF4DDDA3
:101BF000C80147E050E060E076E247DD89819A81E4
:101C000040E050E060E072E040DD89819A8147E089
:101C100050E060E076E239DDDF91CF911F910F91C6
:101C200008955F926F927F928F929F92AF92BF9230
:101C3000CF92DF92EF92FF920F931F93CF93DF9398
:101C4000EC014B0179018A0183E090E0A0E0B0E073
:101C5000E80EF91E0A1F1B1F8CEF9FEFAFEFBFEFBF
:101C6000E822F9220A231B233E01552453949DC0E8
:101C70008E859F85A0E0B0E08E159F05A007B10777
:101C800008F06FC08B818823B1F0CE01CDDA2C85AE
:101C90003D85C30148EE54E260E170E0F9DA4C851D
:101CA0005D8560E070E0405050486F4E7F4FC3014B
:101CB0009CDA5B8208C02C853D85C30148EE54E266
:101CC00060E170E0E5DA8E859F85A0E0B0E0570125
:101CD00068018E159F05A007B10710F45C016D0126
:101CE00020E030E040E050E00DC0F401E20FF31FCF
:101CF00080818EBD0DB407FEFDCF8EB52F5F3F4FA7
:101D00004F4F5F4F2A153B054C055D0570F38A0C5C
:101D10009B1C2C853D852A0D3B1D3F703D872C87E4
:101D20002E853F852A193B093F872E87EA18FB0835
:101D30000C091D09A801970191E0E91698E0F90640
:101D400090E0090790E0190720F020E038E040E03B
:101D500050E0CE01B901F7DBC29739F522E330E05C
:101D60002CC020E030E040E050E0F401E20FF31F2F
:101D700080818EBD0DB407FEFDCF8EB52F5F3F4F26
:101D80004F4F5F4F2E153F054007510770F32C85CD
:101D90003D852E0D3F1D3F703D872C872E853F854D
:101DA0002E193F093F872E8706C0E114F104010573
:101DB000110509F05DCF20E030E0C901DF91CF913E
:101DC0001F910F91FF90EF90DF90CF90BF90AF9059
:101DD0009F908F907F906F905F9008950F931F93C7
:101DE000CF93DF93EC018881882389F109811A81DF
:101DF000C80140E050E060E070E047DCC80141E02D
:101E00005FEF6FEF7FEF41DC0980DA81C02D8B81BE
:101E1000882311F0CE0108DA1C2F0D2F2C853D856B
:101E2000CE0148EE54E260E170E032DA03C02F5F89
:101E30003F4069F0812F902F44EE54E260E170E062
:101E400068DB9C018C859D852817390781F7DF9118
:101E5000CF911F910F9108951F93CF93DF93EC01C2
:101E600035DB1EBC0DB407FEFDCF1EB5888161E0D9
:101E70000E94611E812FDF91CF911F9108952F92B3
:101E80003F924F925F926F927F928F929F92AF920A
:101E9000BF92CF92DF92EF92FF920F931F93DF9347
:101EA000CF93CDB7DEB72A970FB6F894DEBF0FBE3B
:101EB000CDBF9A878987FB015C834B833E832D834B
:101EC00018870F83DC018C91882309F49CC100D012
:101ED0000F92BF01882777FD8095982FA3EE6A2E79
:101EE000712C812C912CEDB7FEB7618272828382B6
:101EF000948220E030E040E050E0E12CF0E1FF2E61
:101F0000012D112DE0E1AE2EE1E0BE2EC12CD12C31
:101F10000E94D21E1B012C012B813C81B901882714
:101F200077FD8095982FADB7BEB711966D927D92D3
:101F30008D929C92149720E030E040E050E00E94A7
:101F4000D21E2B01ED81FE81BF01882777FD809590
:101F5000982FADB7BEB711966D927D928D929C92DF
:101F6000149720E030E040E050E00E94D21E7A83D7
:101F70006983EF81F885BF01882777FD8095982FC9
:101F8000ADB7BEB711966D927D928D929C921497CB
:101F900020E030E040E050E00E94D21E4B010F9064
:101FA0000F900F900F90E985FA858181928148E02A
:101FB00050E060E07FE169DBA985BA8511968D91DB
:101FC0009C91129740E450EB6CEF70E091DBE98557
:101FD000FA858181928145E550E060E070E155DB52
:101FE000810194E0000F111F9A95E1F7A985BA8548
:101FF00011968D919C91129760E871E0A8017BDBAE
:10200000E985FA858181928160E473E0A80173DB40
:10201000720184E0EE0CFF1C8A95E1F7A985BA8570
:1020200011968D919C91129760E473E0A70163DB98
:10203000E985FA858181928160E075E0A7015BDB2B
:10204000C980DA80B4E0CC0CDD1CBA95E1F7A98533
:10205000BA8511968D919C91129760E075E0A6016A
:102060004ADBE985FA858181928160EC76E0A60100
:1020700042DB5401A4E0AA0CBB1CAA95E1F7A98598
:10208000BA8511968D919C91129760EC76E0A5012E
:1020900032DBE985FA858181928160E878E0A501EB
:1020A0002ADBA985BA8511968D919C9112974FEFE5
:1020B00050E060E070E1E9DAE985FA85818192819A
:1020C00043E050E060E07FE1E0DAA985BA8511964F
:1020D0008D919C91129760E570E002DBE985FA85AD
:1020E00081819281FBEE2F1631042CF444E25CE1F5
:1020F0006DEE70E004C040E450EB6CEF70E0F8DA95
:10210000A985BA8511968D919C91129760ED71E029
:10211000A801F1DAE985FA858181928160EF72E0A8
:10212000A801E9DAA985BA8511968D919C9112973B
:10213000BBEE4B1651042CF444E25CE16DEE70E012
:1021400004C040E450EB6CEF70E0D2DAE985FA8528
:102150008181928160E973E0A701CDDAA985BA8512
:1021600011968D919C91129760EB74E0A701C3DAF0
:10217000E985FA858181928129813A812B3E310559
:102180002CF444E25CE16DEE70E004C040E450EBFE
:102190006CEF70E0ADDAA985BA8511968D919C91AE
:1021A000129760E575E0A601A6DAE985FA858181D6
:1021B000928160E776E0A6019EDAA985BA8511963C
:1021C0008D919C911297BBEE8B1691042CF444E2F6
:1021D0005CE16DEE70E004C040E450EB6CEF70E049
:1021E00087DAE985FA858181928160E177E0A5014E
:1021F00082DAA985BA8511968D919C91129760E338
:1022000078E0A50178DA2A960FB6F894DEBF0FBE03
:10221000CDBFCF91DF911F910F91FF90EF90DF9095
:10222000CF90BF90AF909F908F907F906F905F9076
:102230004F903F902F9008952F923F924F925F9230
:102240006F927F928F929F92AF92BF92CF92DF92C6
:10225000EF92FF920F931F93DF93CF93CDB7DEB72B
:102260002A970FB6F894DEBF0FBECDBF9A87898735
:10227000FB015C834B833E832D8318870F83DC0136
:102280008C91882309F499C100D00F92BF0188274F
:1022900077FD8095982FFDE26F2E712C812C912C6B
:1022A000EDB7FEB7618272828382948220E030E0D3
:1022B00040E050E0E12CE0E1FE2E012D112DAA249A
:1022C000BB2465010E94D21E1B012C012B813C8185
:1022D000B901882777FD8095982FADB7BEB71196C5
:1022E0006D927D928D929C92149720E030E040E0B8
:1022F00050E00E94D21E2B01ED81FE81BF01882794
:1023000077FD8095982FADB7BEB711966D927D92EF
:102310008D929C92149720E030E040E050E00E94C3
:10232000D21E7A836983EF81F885BF01882777FD04
:102330008095982FADB7BEB711966D927D928D9214
:102340009C92149720E030E040E050E00E94D21EC2
:102350004B010F900F900F900F90E985FA858181C6
:10236000928147E050E060E07FE18FD9A985BA858E
:1023700011968D919C91129740E450EB6CEF70E0B8
:10238000B7D9E985FA858181928145E550E060E021
:1023900070E17BD9810124E0000F111F2A95E1F73C
:1023A000A985BA8511968D919C91129760E871E08C
:1023B000A801A1D9E985FA858181928160E473E061
:1023C000A80199D9720194E0EE0CFF1C9A95E1F7EF
:1023D000A985BA8511968D919C91129760E473E05E
:1023E000A70189D9E985FA858181928160E075E04C
:1023F000A70181D9C980DA8084E0CC0CDD1C8A95E4
:10240000E1F7A985BA8511968D919C91129760E0AC
:1024100075E0A60170D9E985FA858181928160EC29
:1024200076E0A60168D95401B4E0AA0CBB1CBA95A9
:10243000E1F7A985BA8511968D919C91129760EC70
:1024400076E0A50158D9E985FA858181928160E815
:1024500078E0A50150D9A985BA8511968D919C91F6
:1024600012974FEF50E060E070E10FD9E985FA85EF
:102470008181928143E050E060E07FE106D9A98547
:10248000BA8511968D919C91129760E570E028D9DC
:10249000E985FA8581819281F6E22F1631042CF0CC
:1024A00044E25CE16DEE70E004C040E450EB6CEFA0
:1024B00070E01ED9A985BA8511968D919C911297CD
:1024C00060ED71E0A80117D9E985FA8581819281D3
:1024D00060EF72E0A8010FD9A985BA8511968D9198
:1024E0009C911297B6E24B1651042CF044E25CE149
:1024F0006DEE70E004C040E450EB6CEF70E0F8D893
:10250000E985FA858181928160E973E0A701F3D8BA
:10251000A985BA8511968D919C91129760EB74E014
:10252000A701E9D8E985FA858181928129813A81DB
:10253000263231052CF044E25CE16DEE70E004C01F
:1025400040E450EB6CEF70E0D3D8A985BA851196C2
:102550008D919C91129760E575E0A601CCD8E98534
:10256000FA858181928160E776E0A601C4D8A985C9
:10257000BA8511968D919C911297B6E28B169104B3
:102580002CF044E25CE16DEE70E004C040E450EBFE
:102590006CEF70E0ADD8E985FA858181928160E1C8
:1025A00077E0A501A8D8A985BA8511968D919C914F
:1025B000129760E378E0A5019ED82A960FB6F894AA
:1025C000DEBF0FBECDBFCF91DF911F910F91FF9066
:1025D000EF90DF90CF90BF90AF909F908F907F90C3
:1025E0006F905F904F903F902F9008952F923F9261
:1025F0004F925F926F927F928F929F92AF92BF9213
:10260000CF92DF92EF92FF920F931F93DF93CF93BE
:1026100000D00F920F92CDB7DEB79D838C831B0144
:102620005A0129833801EA82FB824CE05FEF6FEFA9
:102630007FEF2BD8CC24B7FCC094DC2C6501BB24E5
:10264000AA2444245524A228B328C428D5288C8140
:102650009D81B601A50119D88824992443017724C6
:1026600066248981282F30E040E050E0622A732AF6
:10267000842A952A8C819D81B401A30106D8AA8160
:10268000BB81FD0101900020E9F7EA1BFB0B7F01F4
:1026900000E010E0EC81FD8183818823E1F4448532
:1026A000558560E070E0405050486F4E7F4FCF013D
:1026B0000E94F50881E0EC81FD8183838C819D81FE
:1026C0006A817B81A8019701ACDA8C018C819D81A4
:1026D0000E94140908C08C819D816A817B81A801B8
:1026E00097019FDA8C01C8010F900F900F900F9007
:1026F0000F90CF91DF911F910F91FF90EF90DF909E
:10270000CF90BF90AF909F908F907F906F905F9091
:102710004F903F902F900895CF92DF92EF92FF92CB
:102720000F931F93DF93CF93CDB7DEB727970FB6E5
:10273000F894DEBF0FBECDBF6C01E62EF42EFC0177
:102740008081882309F455C08E010F5F1F4FC80197
:1027500060E072E00E94B71FEE2021F4C80166E03D
:1027600072E003C0C8016BE072E00E94791F8E0125
:102770000F5F1F4FC80161E172E00E94791FF1E015
:10278000FF1681F0FF151CF0FF2041F018C082E019
:10279000F81661F0E3E0FE1691F40CC0C8016CE19C
:1027A00072E00BC0C80164E272E007C0C8016EE2CB
:1027B00072E003C0C8016BE372E00E94791FF6016A
:1027C000818192814FEF5FEF6FEF70E00E94780B95
:1027D000E980FA80F6018181928160EF70E04DE737
:1027E00050E02EE100E016E001DFCE0101960E94EC
:1027F000D01F27960FB6F894DEBF0FBECDBFCF9186
:10280000DF911F910F91FF90EF90DF90CF9008958F
:102810007F928F929F92AF92BF92CF92DF92EF9270
:10282000FF920F931F93CF93DF93EC01762E888155
:10283000882309F45BC089819A814CEB55E76FE0EE
:1028400070E00E94780B89819A81A72CBB24A7FC99
:10285000B094B7FE04C0B094A194B108B39466E6F6
:1028600071E048E850E02EE630E000E010E3EAE0F6
:10287000EE2EF12CBAE0CB2ED12CA4E68A2E912C90
:102880000E941E0C89819A814FEF5FEF6FEF70E01D
:102890000E94780B171474F489819A8166E671E0BE
:1028A0004CED50E02FE100E016E0F7E4EF2EF2E00F
:1028B000FF2E1BC089819A81772061F066E671E066
:1028C0004CED50E02FE100E016E0E9E4EE2EE2E00E
:1028D000FE2E0BC066E671E04CED50E02FE100E00B
:1028E00016E03BE4E32E32E0F32E80DEDF91CF9161
:1028F0001F910F91FF90EF90DF90CF90BF90AF901E
:102900009F908F907F900895AF92BF92CF92DF9269
:10291000EF92FF920F931F93CF93DF93EC01E62E7C
:102920008881882309F4C4C0262F332727FD3095DA
:1029300037FF03C0309521953F4F2E3231053CF0D3
:1029400089819A8144E25CE16DEE70E00EC089817C
:102950009A81253131052CF040E450EB6CEF70E0AA
:1029600004C04FEF5FEF6FEF70E00E94780B89813A
:102970009A8142E050E060E07FE10E94450B89814E
:102980009A8140E852E060E07DE00E94450B898139
:102990009A8160E87CE040E456E00E947B0B8981EC
:1029A0009A814CEB55E76FE070E00E94780B8981CB
:1029B0009A8140E550E060E07DE00E94450B89810E
:1029C0009A8160E87CE040E456E00E947B0B6E2D2B
:1029D000772767FD7095872F972F0E94812225E327
:1029E0003AEF4EE85CE30E944F237B018C01C80163
:1029F0000E944B225B016C01B701C8010E94B22307
:102A00007B018C0189819A8160E370E00E94700BE8
:102A100089819A8143E050E060E07FE10E94450BAC
:102A2000C601B50120E030E040EF51E40E944F23A1
:102A30000E944E225B016C01BB24A7FCB094C8012C
:102A4000B70120E030E040EF51E40E944F230E94A4
:102A50004E227B018C01FF24E7FCF094B501685302
:102A60007F4F14E0660F771F1A95E1F7A7014C59C5
:102A70005F4FB4E0440F551FBA95E1F789819A8101
:102A80000E947B0B68EC70E06A197B09A4E0660F7A
:102A9000771FAA95E1F744E650E04E195F09F4E08C
:102AA000440F551FFA95E1F789819A810E947B0BAB
:102AB000DF91CF911F910F91FF90EF90DF90CF901A
:102AC000BF90AF900895DF92EF92FF920F931F9304
:102AD000DF93CF9300D0CDB7DEB78C01D62EDC01CB
:102AE0008C91882309F44EC0B9E0B61744F0F80180
:102AF0008181928144E25CE16DEE70E011C0D80109
:102B000011968D919C911297B8E1B6172CF040E484
:102B100050EB6CEF70E004C04FEF5FEF6FEF70E0D1
:102B20000E94780B00D000D0EDB7FEB731967E0141
:102B30000894E11CF11CADB7BEB71296FC92EE9260
:102B400011978DE492E0938382838D2D992787FDE1
:102B50009095958384830E945201EDB7FEB7369617
:102B60000FB6F894FEBF0FBEEDBFD80111968D9140
:102B70009C91129769ED70E04DEC50E02EE100E081
:102B80001CE034DD0F900F900F90CF91DF911F91DB
:102B90000F91FF90EF90DF9008952F923F924F9208
:102BA0005F926F927F928F929F92AF92BF92CF92DD
:102BB000DF92EF92FF920F931F93DF93CF9300D09A
:102BC0000F92CDB7DEB79A838983FC018081882379
:102BD00009F404C100D00F92772767FD7095872F05
:102BE000972F28E030E040E050E0EDB7FEB72183BA
:102BF0003283438354832CE93FEF4FEF5FEF14E6BA
:102C0000E12EF12C012D112DB8EFAB2EBFEFBB2E15
:102C1000BFEFCB2EBFEFDB2E0E94D21E262E7727D2
:102C200067FD7095872F972F0E9481229B01AC0131
:102C30000E944F239B01AC010F900F900F900F90BB
:102C400060E070E080E893E40E94E6210E94BC23EB
:102C50007B018C01E981FA818181928143E050E01E
:102C600060E07FE10E94450BE981FA8181819281D8
:102C700060E870E00E94700BE981FA8181819281A5
:102C80004CEB55E76FE070E00E94780B822D99279E
:102C900087FD909580961C01A4E0220C331CAA9518
:102CA000E1F780979C838B83C801B7010E944E2275
:102CB0007B018C01FF24E7FCF094F7E4CF2ED12CAC
:102CC000CE18DF08E4E0CC0CDD1CEA95E1F7E981E1
:102CD000FA8181819281B101A6010E947B0B70E291
:102CE000872E912C8B819C81881A990A64E0880C2C
:102CF000991C6A95E1F7E7E4F0E0EE0EFF1E37015C
:102D000054E0660C771C5A95E1F789EB9FEFE80ECB
:102D1000F91EE981FA8181819281B401A3010E94A7
:102D20007B0B8B819C8180589F4F2C0144E0440C8D
:102D3000551C4A95E1F7805890409C838B83E9812C
:102D4000FA8181819281B201A6010E947B0B30E859
:102D5000A32EB12C8B819C81A81AB90A24E0AA0C5D
:102D6000BB1C2A95E1F7E981FA8181819281B50145
:102D7000A3010E947B0B99ECC92ED12CCE18DF0841
:102D800084E0CC0CDD1C8A95E1F7E981FA81818130
:102D90009281B401A6010E947B0B89EC90E0E80EC1
:102DA000F91E04E0EE0CFF1C0A95E1F7E981FA81B7
:102DB00081819281B101A7010E947B0BE981FA8197
:102DC00081819281B501A6010E947B0BE981FA8184
:102DD00081819281B201A7010E947B0B0F900F901D
:102DE0000F900F90CF91DF911F910F91FF90EF9077
:102DF000DF90CF90BF90AF909F908F907F906F901B
:102E00005F904F903F902F900895BA015527442727
:102E100023D864E170E080E090E0B1C5EF92FF92CA
:102E20000F931F93DF93CF93CDB7DEB72C970FB6D9
:102E3000F894DEBF0FBECDBF8C01DE011196E8E530
:102E4000F2E08CE001900D928150E1F784E01AD31A
:102E5000C80140E050E060E070E0D7DF64E170E07E
:102E600080E090E08CD5F02EE12EC80140E050E0EB
:102E700060E170E00E94F508FE0131969E01235F3B
:102E80003F4F81918EBD0DB407FEFDCF8EB5E21789
:102E9000F307B9F7F801808161E013D78F2D9E2DDC
:102EA00040E554E260E170E022E00E94530AF8013C
:102EB000158614868CEF9FE0978786872C960FB631
:102EC000F894DEBF0FBECDBFCF91DF911F910F9160
:102ED000FF90EF9008950F931F938C01FC01828166
:102EE00061E0EFD664E170E080E090E048D5F80161
:102EF000828160E0E6D664E170E080E090E03FD55A
:102F0000F801828161E0DDD664E170E080E090E06C
:102F100036D5C80183DF1F910F9108950F931F933A
:102F2000CF93DF93EC01162F042F8A8161E016D630
:102F30008A8161E0C6D6888599852FEF8F3F9207F9
:102F400011F060E00BD6888161E008D6888161E0ED
:102F5000B8D6A9D284E096D281E086D280E08DD224
:102F6000CE01B9DFCE01612F0E94630900FF06C0C8
:102F7000CE0148E450E060E070E005C0CE0144E4DA
:102F800050E060E070E041DF84E07CD280E090E0DF
:102F9000DF91CF911F910F910895CF92DF92EF9221
:102FA000FF920F931F93CF93DF936C01FC018181FC
:102FB000928161E040E050E0B1DF64E170E080E0E8
:102FC00090E0DDD4F601C181D281CE0140E050E035
:102FD0006CE070E00E94660A1EBC0DB407FEFDCFD7
:102FE0003EB51EBC0DB407FEFDCF2EB51EBC0DB404
:102FF00007FEFDCF9EB51EBC0DB407FEFDCF8EB5FE
:10300000E32EF22E092F182F888161E05AD6F8E0BE
:10301000EF16F0E0FF06F1E00F07F0E01F0719F0F0
:1030200021E030E03CC0F60101811281C1E0D0E036
:103030007E01F801028402C0EE0CFF1C0A94E2F744
:10304000C80140E954E260E170E00E942C0FE82AD8
:10305000C80140E954E260E170E02E2D0E94530A5D
:10306000F60101811281F801038402C0CC0FDD1F3B
:103070000A94E2F7CE018095E82EC80140E954E2B7
:1030800060E170E00E942C0FE822C80140E954E2A0
:1030900060E170E02E2D0E94530A20E030E0C9016B
:1030A000DF91CF911F910F91FF90EF90DF90CF9024
:1030B00008951F93CF93DF93EC0180E190E070D6E9
:1030C000FC01118214821582168217828FEF9FEF06
:1030D00091878087158614868CEF9FE09787868777
:1030E00097E0928711E01387138288E080839283B0
:1030F000FA83E983CE0151DF892B11F0188201C0D8
:103100001883DF91CF911F9108950F931F938C0126
:10311000FC018381EFD4AC01F80186835783608181
:1031200071816E5F7F4F8BEA92E00E94B1051F9123
:103130000F9108950F931F938C01FC018381DAD4C2
:10314000AC01F80184835583608171818BEA92E040
:103150000E94B1051F910F910895EF92FF920F9376
:103160001F938C01FC018381C5D4F8019587848766
:103170008281C0D4F801978786878BEAE82E82E0A7
:10318000F82E60817181685F7F4F44855585C70146
:103190000E94B105F80160817181665F7F4F4685AD
:1031A0005785C7010E94B1051F910F91FF90EF90C5
:1031B00008950F931F938C01FC0182819BD4AC0175
:1031C000F80182875387608171816A5F7F4F8BEA44
:1031D00092E00E94B1051F910F9108950F931F93E4
:1031E0008C01FC01828186D4AC01F8018087518773
:1031F000608171816C5F7F4F8BEA92E00E94B10524
:103200001F910F910895AF92BF92CF92DF92EF92EC
:10321000FF920F931F93CF93DF93EC018B816AD4BE
:103220009C01EC84FD84E816F906E0F400D00F92CE
:10323000B901882777FD8095982F2A853B8540E046
:1032400050E000E010E0EDB7FEB711821282138269
:103250001482F0E8AF2EFFEFBF2EFFEFCF2EFFEF6F
:10326000DF2E21C08E159F0510F060E021C000D038
:103270000F92B901882777FD8095982F970140E03C
:1032800050E0EA84FB8400E010E0E0E8AE2EB12CD0
:10329000C12CD12CEDB7FEB7A182B282C382D482F9
:1032A000AA24BB2465017ED50F900F900F900F903C
:1032B000862FDF91CF911F910F91FF90EF90DF90BC
:1032C000CF90BF90AF900895AF92BF92CF92DF9210
:1032D000EF92FF920F931F93CF93DF93EC018A81BC
:1032E00009D49C01EE84FF84E816F906E0F400D0CE
:1032F0000F92B901882777FD8095982F2A853B8505
:1033000040E050E000E010E0EDB7FEB7118212821D
:1033100013821482B0E8AB2EBFEFBB2EBFEFCB2ED3
:10332000BFEFDB2E21C08E159F0510F060E021C09D
:1033300000D00F92B901882777FD8095982F9701CB
:1033400040E050E0EA84FB8400E010E0A0E8AA2E10
:10335000B12CC12CD12CEDB7FEB7A182B282C382B1
:10336000D482AA24BB2465011DD50F900F900F9025
:103370000F90862FDF91CF911F910F91FF90EF90CB
:10338000DF90CF90BF90AF900895CF93DF93EC0183
:10339000798368834A832B838BEA92E00E949205AB
:1033A0009D838C83688179816E5F7F4F8BEA92E089
:1033B0000E9492059F838E838C819D81892B21F4AD
:1033C00080E094E09F838E83688179816C5F7F4F7A
:1033D0008BEA92E00E9492059987888768817981BB
:1033E0006A5F7F4F8BEA92E00E9492059B878A87F3
:1033F000892B21F480E094E09B878A87688179811A
:10340000685F7F4F8BEA92E00E9492059D878C87D0
:10341000892B21F480E092E09D878C8768817981F7
:10342000665F7F4F8BEA92E00E9492059F878E87AE
:10343000892B21F480E092E09F878E87DF91CF91E6
:103440000895F999FECF72BD61BDF89A80B50895CF
:10345000F999FECF1FBA72BD61BD40BD0FB6F89499
:10346000FA9AF99A0FBE0895882319F48CB58062F0
:1034700002C08CB58F7D8CBD08959CB5937F982B31
:103480009CBD08952CB5382F33702C7F322B3CBD5A
:103490002DB590E0959587959595879581702E7FB0
:1034A000822B8DBD089585E361E00BD485E361E057
:1034B00055D38CB580618CBD8CB580648CBD84E3A4
:1034C00061E04CD383E361E049C3883008F078C001
:1034D000E82FF0E0EE0FFF1FE255FC4F7183608391
:1034E0008330D9F0843030F4813009F444C0823024
:1034F00060F439C0853051F18530D8F0863009F458
:1035000046C0873009F05CC04FC0809169008C7F55
:10351000842B80936900E89A089580916900440F94
:10352000551F440F551F837F842B80936900E99AB0
:1035300008958091690074E0440F551F7A95E1F772
:103540008F7C842B80936900EA9A089580916900AA
:1035500066E0440F551F6A95E1F78F73842B8093C3
:103560006900EB9A089580916A008C7F842B809388
:103570006A00EC9A089580916A00440F551F440F29
:10358000551F837F842B80936A00ED9A0895809164
:103590006A0024E0440F551F2A95E1F78F7C842BA5
:1035A00080936A00EE9A089580916A0096E0440F35
:1035B000551F9A95E1F78F73842B80936A00EF9AD9
:1035C00008951F920F920FB60F920BB60F9211240F
:1035D0002F933F934F935F936F937F938F939F931B
:1035E000AF93BF93EF93FF938091B2039091B30396
:1035F000892B29F0E091B203F091B3031995FF9163
:10360000EF91BF91AF919F918F917F916F915F915A
:103610004F913F912F910F900BBE0F900FBE0F90C7
:103620001F9018951F920F920FB60F920BB60F9224
:1036300011242F933F934F935F936F937F938F93B7
:103640009F93AF93BF93EF93FF938091B4039091B7
:10365000B503892B29F0E091B403F091B5031995D6
:10366000FF91EF91BF91AF919F918F917F916F915A
:103670005F914F913F912F910F900BBE0F900FBE16
:103680000F901F9018951F920F920FB60F920BB6C6
:103690000F9211242F933F934F935F936F937F93D8
:1036A0008F939F93AF93BF93EF93FF938091B60354
:1036B0009091B703892B29F0E091B603F091B703FD
:1036C0001995FF91EF91BF91AF919F918F917F914C
:1036D0006F915F914F913F912F910F900BBE0F9083
:1036E0000FBE0F901F9018951F920F920FB60F925A
:1036F0000BB60F9211242F933F934F935F936F93C9
:103700007F938F939F93AF93BF93EF93FF9380919A
:10371000B8039091B903892B29F0E091B803F09197
:10372000B9031995FF91EF91BF91AF919F918F913F
:103730007F916F915F914F913F912F910F900BBEB1
:103740000F900FBE0F901F9018951F920F920FB6FB
:103750000F920BB60F9211242F933F934F935F93C9
:103760006F937F938F939F93AF93BF93EF93FF9349
:103770008091AE039091AF03892B29F0E091AE03C5
:10378000F091AF031995FF91EF91BF91AF919F9188
:103790008F917F916F915F914F913F912F910F90FA
:1037A0000BBE0F900FBE0F901F9018951F920F9297
:1037B0000FB60F920BB60F9211242F933F934F9396
:1037C0005F936F937F938F939F93AF93BF93EF9389
:1037D000FF938091B0039091B103892B29F0E09180
:1037E000B003F091B1031995FF91EF91BF91AF91A3
:1037F0009F918F917F916F915F914F913F912F9109
:103800000F900BBE0F900FBE0F901F9018951F9238
:103810000F920FB60F920BB60F9211242F933F9376
:103820004F935F936F937F938F939F93AF93BF93C8
:10383000EF93FF938091BA039091BB03892B29F0FA
:10384000E091BA03F091BB031995FF91EF91BF91FD
:10385000AF919F918F917F916F915F914F913F9128
:103860002F910F900BBE0F900FBE0F901F901895C9
:103870001F920F920FB60F920BB60F9211242F9337
:103880003F934F935F936F937F938F939F93AF93E8
:10389000BF93EF93FF938091BC039091BD03892B5D
:1038A00029F0E091BC03F091BD031995FF91EF91D0
:1038B000BF91AF919F918F917F916F915F914F9148
:1038C0003F912F910F900BBE0F900FBE0F901F9046
:1038D00018951F920F920FB60F9211242F933F93BA
:1038E0008F939F93AF93BF938091C2039091C30333
:1038F000A091C403B091C5033091C6030196A11DE8
:10390000B11D232F2D5F2D3720F02D570196A11DBE
:10391000B11D2093C6038093C2039093C303A09369
:10392000C403B093C5038091BE039091BF03A091DF
:10393000C003B091C1030196A11DB11D8093BE03C8
:103940009093BF03A093C003B093C103BF91AF9105
:103950009F918F913F912F910F900FBE0F901F90CD
:1039600018958FB7F8942091C2033091C30340910A
:10397000C4035091C5038FBFB901CA0108959B01CB
:10398000AC017FB7F8948091BE039091BF03A091E2
:10399000C003B091C10366B5A89B05C06F3F19F085
:1039A0000196A11DB11D7FBFBA2FA92F982F88277F
:1039B000860F911DA11DB11D62E0880F991FAA1FDE
:1039C000BB1F6A95D1F7BC012DC0FFB7F894809159
:1039D000BE039091BF03A091C003B091C103E6B5AF
:1039E000A89B05C0EF3F19F00196A11DB11DFFBFB7
:1039F000BA2FA92F982F88278E0F911DA11DB11DB9
:103A0000E2E0880F991FAA1FBB1FEA95D1F7861B1A
:103A1000970B885E9340C8F22150304040405040A0
:103A200068517C4F211531054105510571F6089506
:103A3000789484B5826084BD84B5816084BD85B589
:103A4000826085BD85B5816085BDEEE6F0E0808150
:103A500081608083E1E8F0E0108280818260808371
:103A6000808181608083E0E8F0E0808181608083F4
:103A7000E1EBF0E0808184608083E0EBF0E0808126
:103A800081608083E1E9F0E08081826080838081D1
:103A900081608083E0E9F0E0808181608083E1EAF9
:103AA000F0E0808182608083808181608083E0EAB1
:103AB000F0E0808181608083E1E2F1E080818260DA
:103AC0008083808181608083E0E2F1E08081816099
:103AD0008083EAE7F0E08081846080838081826077
:103AE0008083808181608083808180688083109260
:103AF000C1000895382F863308F0365320917B009B
:103B0000832F86958695869590E08170907043E02E
:103B1000880F991F4A95E1F7277F282B20937B0078
:103B20003770809151028295880F880F807C832B9B
:103B300080937C0080917A00806480937A008091E9
:103B40007A0086FDFCCF2091780040917900942F77
:103B500080E030E0282B392BC9010895CF93DF9303
:103B6000482F50E0CA018A569E4FFC013491405BB9
:103B70005E4FFA018491882369F190E0880F991FC4
:103B8000FC01EE5FFE4FA591B491FC01E45EFE4F97
:103B9000C591D491662351F42FB7F8948C91932F4B
:103BA000909589238C93888189230BC0623061F4BE
:103BB0002FB7F8948C91932F909589238C938881BB
:103BC000832B88832FBF06C09FB7F8948C91832BDB
:103BD0008C939FBFDF91CF910895893009F449C03C
:103BE0008A30A0F4843051F1853040F4823079F18C
:103BF000833000F5813009F063C026C0873079F149
:103C0000883098F5863009F05BC025C08D3009F406
:103C100042C08E3028F48B30B1F18C30C0F52DC00D
:103C2000803109F442C0813109F445C08F3009F078
:103C300047C037C0809180008F7703C0809180009B
:103C40008F7D80938000089584B58F7702C084B5FE
:103C50008F7D84BD08958091B0008F7703C08091DF
:103C6000B0008F7D8093B0000895809190008F7791
:103C700007C0809190008F7D03C080919000877F66
:103C80008093900008958091A0008F7707C0809165
:103C9000A0008F7D03C08091A000877F8093A0004B
:103CA0000895809120018F7703C0809120018F7D3E
:103CB00080932001089580912001877F80932001C7
:103CC0000895FF920F931F93F62E482F50E0CA01DC
:103CD00084529E4FFC012491CA018A569E4FFC01DA
:103CE0001491405B5E4FFA0104910023C1F022233E
:103CF00011F0822F72DFE02FF0E0EE0FFF1FE45E85
:103D0000FE4FA591B4919FB7F894FF2021F48C91B8
:103D10001095812302C08C91812B8C939FBF1F91A2
:103D20000F91FF9008950F931F93482F50E0CA0101
:103D300084529E4FFC012491CA018A569E4FFC0179
:103D40000491405B5E4FFA011491112319F420E0B5
:103D500030E014C0222311F0822F3FDF812F90E04A
:103D6000880F991F8A5C9E4FFC01A591B4918C919C
:103D700020E030E0802311F021E030E0C9011F9104
:103D80000F910895CF93DF9353DE0E948705C0E023
:103D9000D0E00E94B7042097E1F30E940000F9CF21
:103DA00003C108952F923F924F925F926F927F923C
:103DB0008F929F92AF92BF92CF92DF92EF92FF923B
:103DC0000F931F93DF93CF93CDB7DEB73B014C0129
:103DD00019012A016E897F89888D998D6A197B095D
:103DE0008C099D09621A730A840A950AA401930139
:103DF0005AD5E218F30804091509A801970172D5EC
:103E00002A0D3B1D4C1D5D1DB901CA01CF91DF91EB
:103E10001F910F91FF90EF90DF90CF90BF90AF90E8
:103E20009F908F907F906F905F904F903F902F90DA
:103E300008950F931F93CF93DF93EC018B016F5F76
:103E40007F4F88819981E5D1009711F480E005C00A
:103E5000998388831B830A8381E0DF91CF911F912F
:103E60000F910895CF93DF93EC0188819981892B7D
:103E700029F08A819B818617970758F4CE01D9DFF4
:103E8000882341F08C819D81892B19F4E881F98187
:103E9000108281E0DF91CF910895EF92FF920F930E
:103EA0001F93CF93DF93EC017B016C817D81E11443
:103EB000F104B9F04115510591F08A01060F171F61
:103EC000B801D0DF882369F0888199812C813D81F8
:103ED000820F931FB7010E944B011D830C8381E069
:103EE00001C080E0DF91CF911F910F91FF90EF9083
:103EF00008956115710511F480E00895DB010D90BE
:103F00000020E9F71197A61BB70BAD01C6CFCF93E1
:103F1000DF93EC0188819981009709F0E2D0198242
:103F200018821D821C821B821A82DF91CF91089514
:103F3000EF92FF920F931F93CF93DF93EC017B01DE
:103F40008A01BA018FDF882319F4CE01E0DF07C0B0
:103F50001D830C8388819981B7010E944B01CE019A
:103F6000DF91CF911F910F91FF90EF900895CF9324
:103F7000DF93EC01198218821B821A821D821C8237
:103F80001E826115710549F0DB010D900020E9F7F3
:103F90001197A61BB70BAD01CBDFDF91CF91089531
:103FA000FC01808191819DC00F931F93CF93DF937C
:103FB000BC018230910510F462E070E0E091C90329
:103FC000F091CA0340E050E0A0E0B0E024C080815E
:103FD000918186179707D0F08617970771F4828131
:103FE0009381109729F013969C938E9312972CC06F
:103FF0009093CA038093C90327C04115510519F056
:104000008417950718F48D01AC01EF01DF0182815F
:1040100093819C01F9013097D1F641155105F9F0D2
:10402000CA01861B970B8430910580F48A819B819D
:104030000115110521F0F8019383828304C0909348
:10404000CA038093C903FE01329645C0FE01E80F02
:10405000F91F619371930297998388833CC0809183
:10406000C7039091C803892B41F480915402909129
:1040700055029093C8038093C70340915602509114
:1040800057024115510541F44DB75EB78091520278
:1040900090915302481B590B2091C7033091C803DC
:1040A00024173507B0F4CA01821B930B86179707B4
:1040B00080F0AB014E5F5F4F8417950750F0420FC1
:1040C000531F5093C8034093C703F9016193719341
:1040D00002C0E0E0F0E0CF01DF91CF911F910F919E
:1040E0000895CF93DF939C01009709F48FC0EC01F2
:1040F00022971B821A826091C9037091CA036115CD
:10410000710581F488819981820F931F2091C703E3
:104110003091C8032817390739F5D093C803C093E5
:10412000C70374C0DB0140E050E0AC17BD0708F1E5
:10413000BB83AA83FE0121913191E20FF31FAE17D9
:10414000BF0779F48D919C911197280F391F2E5F2D
:104150003F4F3983288312968D919C9113979B83AF
:104160008A834115510571F4D093CA03C093C903E2
:104170004DC012968D919C911397AD01009711F04F
:10418000DC01D3CFDA011396DC93CE931297FA01B8
:1041900021913191E20FF31FCE17DF0769F4888177
:1041A0009981280F391F2E5F3F4FFA0131832083F9
:1041B0008A819B8193838283E0E0F0E0DB011296A9
:1041C0008D919C911397009719F0BC01FD01F6CFDA
:1041D000AB014E5F5F4FDB018D919C91840F951F6A
:1041E0002091C7033091C8032817390779F4309715
:1041F00029F41092CA031092C90302C013821282DA
:10420000425050405093C8034093C703DF91CF9171
:1042100008956F927F928F929F92AF92BF92CF92AA
:10422000DF92EF92FF920F931F93CF93DF938C0156
:10423000009721F4CB01B8DE8C01B8C08EEFE82ED8
:104240008FEFF82EE00EF11E4801860E971E8E1499
:104250009F0408F4A9C0D7014D915C9111974617AE
:104260005707B0F04530510508F4A0C0CA010497C3
:104270008617970708F49AC042505040461B570BC8
:10428000F401419351936D937C93CF012ADF8EC04B
:104290005B01A41AB50A3801640E751EA091C9030A
:1042A000B091CA03E0E0F0E0CC24DD2447C0A615BD
:1042B000B705A9F5CD91DC911197CE0102968A152B
:1042C0009B0568F1CE018A199B09029612962C91E2
:1042D000129713963C91059758F0F401228333838B
:1042E000CA19DB09D183C083D7016D937C9309C0C0
:1042F0004E5F5F4F4C0F5D1FF70151834083C90133
:10430000FC01C114D10431F0D6011396FC93EE9355
:1043100012974CC0F093CA03E093C90347C08D9134
:104320009C911197E817F90708F4FC016D011296AA
:104330008C91129713969C919C01D901109709F0CA
:10434000B6CF8091C7039091C80386159705E9F40D
:10435000E617F707D0F42091560230915702211545
:10436000310541F42DB73EB780915202909153022E
:10437000281B390B82169306B8F49092C8038092DA
:10438000C703F7017183608311C0CB010DDEEC011F
:10439000009751F0D7014D915C91B8010E94420104
:1043A000C8019FDE8E0102C000E010E0C801DF916D
:1043B000CF911F910F91FF90EF90DF90CF90BF9022
:1043C000AF909F908F907F906F9008955058BB272B
:1043D000AA270ED019C1D9D030F0DED020F031F4A8
:1043E0009F3F11F41EF4CEC00EF4E095E7FBC4C06D
:1043F000E92F2CD180F3BA1762077307840795075A
:1044000018F071F49EF544C10EF4E0950B2EBA2F0E
:10441000A02D0B01B90190010C01CA01A0011124CA
:10442000FF27591B99F0593F50F4503E68F11A1676
:10443000F040A22F232F342F4427585FF3CF469507
:1044400037952795A795F0405395C9F77EF41F1629
:10445000BA0B620B730B840BBAF09150A1F0FF0FF3
:10446000BB1F661F771F881FC2F70EC0BA0F621FDF
:10447000731F841F48F4879577956795B795F795CF
:104480009E3F08F0B3CF9395880F08F09927EE0F61
:1044900097958795089588D0E395C7C004D0689410
:1044A000B111F7C00895DAD088F09F5790F0B92F76
:1044B0009927B751A0F0D1F0660F771F881F991F79
:1044C0001AF0BA95C9F712C0B13081F0E1D0B1E06D
:1044D0000895DEC0672F782F8827B85F39F0B93F7D
:1044E000CCF3869577956795B395D9F73EF490957B
:1044F0008095709561957F4F8F4F9F4F0895E894F9
:1045000009C097FB3EF490958095709561957F4F1B
:104510008F4F9F4F9923A9F0F92F96E9BB279395C9
:10452000F695879577956795B795F111F8CFFAF4D9
:10453000BB0F11F460FF1BC06F5F7F4F8F4F9F4F0A
:1045400016C0882311F096E911C0772321F09EE868
:10455000872F762F05C0662371F096E8862F70E0CE
:1045600060E02AF09A95660F771F881FDAF7880FA8
:104570009695879597F9089597F99F6780E870E079
:1045800060E008959FEF80EC089500240A941616C9
:10459000170618060906089500240A941216130631
:1045A000140605060895EECF59D0E8F3E894EFEF2E
:1045B000BB273FE048EC5FE76B3D73078407950737
:1045C00008F1FF279F57B25A6A4D7F40894CF0404F
:1045D00032F4BE556542704F8643FF4F0894EE1F7C
:1045E000915030F0BB0F661F771F881FFF1FEBCF66
:1045F0009EE7882332F0BB0F661F771F881F9A95AE
:10460000C1F79395E09502C1092E0394000C11F4B3
:10461000882352F0BB0F40F4BF2B11F460FF04C09D
:104620006F5F7F4F8F4F9F4F0895EF93E0FF06C05E
:10463000A2EA2AED3FE049EC5FEBDADEE5DF0F901E
:10464000039401FC9058E4EEF0E0F7C057FD905859
:10465000440F551F59F05F3F71F04795880F97FB46
:10466000991F61F09F3F79F0879508951216130600
:104670001406551FF2CF4695F1DF08C0161617062F
:104680001806991FF1CF8695710561050894089564
:10469000E894BB2766277727CB0197F908950BD0BD
:1046A000B3CF73DF28F078DF18F0952309F064CFDB
:1046B00069CF1124EECFCADFA0F3959FD1F3950FF8
:1046C00050E0551F629FF001729FBB27F00DB11D96
:1046D000639FAA27F00DB11DAA1F649F6627B00D26
:1046E000A11D661F829F2227B00DA11D621F739F0F
:1046F000B00DA11D621F839FA00D611D221F749F1D
:104700003327A00D611D231F849F600D211D822F63
:10471000762F6A2F11249F5750408AF0E1F08823AA
:104720004AF0EE0FFF1FBB1F661F771F881F9150B7
:104730005040A9F79E3F510570F01ECFAACF5F3FB2
:10474000ECF3983EDCF3869577956795B795F795EA
:10475000E7959F5FC1F7FE2B880F911D9695879572
:1047600097F908959F9320DF0F9007FCEE5F5DCFD0
:1047700011F40EF407CF4AC071DFD0F39923D9F3B7
:10478000CEF39F57550B87FF51D056959795B0E0C4
:1047900020F4660F771F881FBB1F1F930F93002401
:1047A0009001A0018001F001A0E80E0F1F1F0A1E5A
:1047B000511D601B710B8009B50B48F4600F711F10
:1047C000801DB51F0E1B1F0B0A0A510907C02E0FB3
:1047D0003F1F4A1F0E0F1F1F0A1E511D660F771F16
:1047E000881FBB1FA695F795E795F8F606171707DC
:1047F00008065B07211D311D411D0F911F91B90155
:10480000842F9158880F9695879508959F3F49F07A
:10481000915028F4869577956795B7959F5F803876
:104820009F4F880F9695879597F90895915050401E
:10483000660F771F881FD2F708959F938F937F93FA
:104840006F93FF93EF939B01AC0129DFEF91FF91F1
:1048500005D02F913F914F915F9121CFDF93CF935F
:104860001F930F93FF92EF92DF927B018C0168946C
:1048700005C0DA2EEF011FDFFE01E894A591259116
:10488000359145915591AEF3EF01B2DDFE019701EF
:10489000A801DA9479F7DF90EF90FF900F911F91C4
:1048A000CF91DF910895629FD001739FF001829FA5
:1048B000E00DF11D649FE00DF11D929FF00D839FAF
:1048C000F00D749FF00D659FF00D9927729FB00D4C
:1048D000E11DF91F639FB00DE11DF91FBD01CF015F
:1048E0001124089597FB092E05260ED057FD04D0FC
:1048F00014D00AD0001C38F450954095309521957D
:104900003F4F4F4F5F4F0895F6F790958095709504
:1049100061957F4F8F4F9F4F0895A1E21A2EAA1BDA
:10492000BB1BFD010DC0AA1FBB1FEE1FFF1FA2175F
:10493000B307E407F50720F0A21BB30BE40BF50B5C
:10494000661F771F881F991F1A9469F760957095E5
:10495000809590959B01AC01BD01CF010895EE0FAC
:10496000FF1F0590F491E02D19942F923F924F92E2
:104970005F926F927F928F929F92AF92BF92CF92EF
:10498000DF92EF92FF920F931F93CF93DF93CDB7F8
:10499000DEB7CA1BDB0B0FB6F894DEBF0FBECDBF70
:1049A00019942A88398848885F846E847D848C8431
:1049B0009B84AA84B984C884DF80EE80FD800C814A
:1049C0001B81AA81B981CE0FD11D0FB6F894DEBF2D
:1049D0000FBECDBFED01089512E0C6E2D2E003C0E4
:1049E000FE01BFDF2296C832D107D1F7F894FFCF7E
:1049F0004D6F766520006C65667400726967687437
:104A000000206A6F79737469636B20007570776139
:104A100072647300646F776E776172647300746F91
:104A20002074686520726967687400746F20746808
:104A300065206C656674004400520050002533699F
:104A400000018000CB0300000000000207000026E8
:044A50000000000062
:00000001FF
