:100000000C9464000C948C000C948C000C948C0068
:100010000C948C000C948C000C948C000C948C0030
:100020000C948C000C948C000C948C000C948C0020
:100030000C948C000C948C000C948C000C948C0010
:100040000C94E5040C948C000C948C000C948C00A3
:100050000C948C000C948C000C948C000C948C00F0
:100060000C948C000C948C000000000024002700ED
:100070002A0000000000250028002B0000000000DE
:1000800023002600290004040404040404040202DA
:100090000202020203030303030301020408102007
:1000A0004080010204081020010204081020000012
:1000B0000007000201000003040600000000000029
:1000C0000000AD005201A60011241FBECFEFD8E002
:1000D000DEBFCDBF11E0A0E0B1E0E6E9FEE002C086
:1000E00005900D92A230B107D9F712E0A2E0B1E07D
:1000F00001C01D92A134B107E1F710E0C6ECD0E0D9
:1001000004C02297FE010E943A07C23CD107C9F7FA
:100110000E9484060C943E070C9400000197A9F4F9
:100120006F5F7F4F91F483E291E060E070E042E125
:1001300023E10E94220487E391E06EE070E041E158
:1001400050E023E030E00E94FF03089580E090E05B
:100150006FEF7FEF0E948E00089581E090E06FEFD7
:100160007FEF0E948E000895CF92DF92EF92FF9270
:100170000F931F936C017B0107E311E0C8010E94FC
:10018000E303C8010E94E901C801B7010E945D02B2
:10019000C801B6010E944B02C80161E00E942F0312
:1001A000C80161E00E94DF011F910F91FF90EF9065
:1001B000DF90CF900895EF92FF920F931F930E94CC
:1001C0002D05609333017093340180933501909332
:1001D00036018EEC80931D0183E291E00E9454046D
:1001E00080931E010E942D057B018C0180911F01CF
:1001F00090912001A0912101B0912201A8019701C5
:10020000281B390B4A0B5B0B243131054105510585
:1002100078F187E391E00E946B0360E08E5F9A4C77
:1002200009F461E085E00E94300687E391E00E94D6
:10023000A60287E391E062E071E00E94480187E353
:1002400091E061E070E642E00E94820387E391E082
:100250006DE171E00E949C0187E391E00E946F02D2
:10026000E0921F01F09220010093210110932201DE
:100270001F910F91FF90EF90089585E061E00E943B
:10028000F10580E090E66EEF7AEC0E94B4000895EC
:10029000E3E4F1E0DB0181918D9381E0EE35F80735
:1002A000D1F708958BE090E090933E0180933D015B
:1002B0000895FF920F931F93CF93DF938C01EB016F
:1002C000F42EFC01828160E00E943006CE0123E022
:1002D000969587952A95E1F780688EBD0DB407FE47
:1002E000FDCF8EB59E012295220F207E822F806148
:1002F0008EBD0DB407FEFDCF8EB5FEBC0DB407FE5E
:10030000FDCF8EB5F801828161E00E943006DF9159
:10031000CF911F910F91FF900895462F50E04B50C1
:10032000504034E0440F551F3A95E1F7436060E0D8
:1003300072E00E9459010895EF92FF920F931F936C
:100340007C018B016CE070E0F80140810E94590152
:10035000C7016DE070E0F80141810E9459011F91D1
:100360000F91FF90EF9008950F931F93CF93DF931A
:10037000EC01162F042F8A8160E00E943006110FD5
:100380001E7711601EBD0DB407FEFDCF8EB50EBDEC
:100390000DB407FEFDCF8EB58A8161E00E94300664
:1003A000DF91CF911F910F91089569E340E00E9482
:1003B000B401089569E344E00E94B40108956623FE
:1003C00019F060E041E002C060E040E00E94B4014A
:1003D00008950F931F938C0168E148E90E94B401CE
:1003E000C8016EE245E90E94B401C80160E072E014
:1003F00043E00E945901C80161E072E041E00E94BF
:100400005901C80162E072E040E80E945901C80148
:1004100063E072E048E20E945901C80166E072E0C0
:1004200040E90E945901C80167E072E040E80E947B
:100430005901C80168E072E040E10E945901C80119
:1004400060E272E041E20E945901C8016AE340E8BB
:100450000E94B401C8016FE340E60E94B401C801E4
:100460006EE340E40E94B401C8016CE00E948D017B
:10047000C80166E344E00E94B401C80166E340E0BD
:100480000E94B40161E070E080E090E00E943B05D2
:100490001F910F910895FF920F931F938C01F62ED9
:1004A000472F64E00E94B401C80163E04F2D0E9411
:1004B000B4011F910F91FF900895FF920F931F9326
:1004C0008C01F62E472F62E00E94B401C80161E062
:1004D0004F2D0E94B4011F910F91FF9008956BE181
:1004E00045E00E94B4010895EF92FF921F93CF93CD
:1004F000DF937C01EB01FC01828160E00E94300609
:10050000CE0143E0969587954A95E1F780688EBDC8
:100510000DB407FEFDCF8EB59E012295220F207EE1
:100520002EBD0DB407FEFDCF8EB51EBC0DB407FE6B
:10053000FDCF1EB5F701828161E00E943006812F58
:10054000DF91CF911F91FF90EF900895CF92DF92AE
:10055000EF92FF920F931F93CF93DF937C010E9442
:10056000DA01C70160E073E00E947402D82E809126
:100570003F01882399F0C1E0D3E00D2D10E00F5F1B
:100580001C4F09C0C701BE010E947402FE01E8545D
:10059000F14080832196C017D107A1F7C7016AE017
:1005A00073E00E947402C82EC1E0D0E00BC0BE010F
:1005B000665F7C4FC7010E947402FE01EE5BFE4F36
:1005C000808321968091420190E020913D013091FD
:1005D0003E01821B930BC817D9074CF3D0924201FE
:1005E0000D2D10E00F5F1C4FC701B8010E9474026F
:1005F0008093B7010F5F1F4FC701B8010E947402BB
:100600008093B801C7010E94D5018C2DC11081E0F3
:10061000DF91CF911F910F91FF90EF90DF90CF90DE
:1006200008951F93CF93DF93EC01162F8A8160E02A
:100630000E943006110F1E771EBD0DB407FEFDCFC0
:100640008EB51EBC0DB407FEFDCF1EB58A8161E0DC
:100650000E943006812FDF91CF911F910895CF9393
:10066000DF93EC016623C1F064E30E941103482F7D
:100670004160CE0164E30E94B401CE0163E30E94B5
:100680001103482F4160CE0163E30E94B401CE0103
:100690006FE272E047E003C06FE272E040E00E9468
:1006A0005901DF91CF910895FF920F931F938C0111
:1006B00064E00E941103F82EC80163E00E94110358
:1006C0005F2D40E0282F30E0242B352BC9011F91EE
:1006D0000F91FF900895FF920F931F938C0162E09A
:1006E0000E941103F82EC80161E00E9411035F2DE2
:1006F00040E0282F30E0242B352BC9011F910F91AA
:10070000FF900895DF92EF92FF920F931F938C0159
:10071000E62ED72EF42E60E070E049E00E945901E9
:1007200040914001475F4F0DC80161E070E00E94B9
:100730005901C80162E070E041E60E945901C80118
:1007400063E070E048E80E945901C80164E070E08D
:1007500041E00E945901C8010E946B03482FF92E05
:10076000C80165E070E00E945901C80166E070E0D0
:100770004F2D0E945901C80167E070E04E2D0E9484
:100780005901C80168E070E04D2D0E945901C8016F
:100790000E945403482FF92EC80169E070E00E94BE
:1007A0005901C8016AE070E04F2D0E945901C8014B
:1007B0006BE070E04AE20E9459011F910F91FF9097
:1007C000EF90DF9008950F931F938C01FC018081BF
:1007D00060E00E9430066AE070E080E090E00E94F5
:1007E0003B05F801808161E00E94300664E170E021
:1007F00080E090E00E943B051F910F9108950F93B8
:100800001F938C01862FF801608371835383428389
:100810003583248361E00E94F105F801828161E063
:100820000E94F105F801848160E00E94F10581E0F9
:100830000E94C00480E00E94C9040E94CE041F915F
:100840000F910895FC017183608342832383848127
:100850009581892B11F41582148284819581892BCD
:1008600021F480E094E09783868380859185892BAD
:1008700011F41186108682859385892B21F480E0FE
:1008800094E09387828784859585892B21F480E085
:1008900092E09587848786859785892B21F480E06F
:1008A00092E0978786870895AF92BF92CF92DF92AA
:1008B000EF92FF920F931F93CF93DF93EC018A8106
:1008C0000E94CF059C01EE84FF848E159F0509F4DC
:1008D0004AC08E199F09489708F445C0E216F306EE
:1008E000E8F400D000D0B901882777FD8095982FD3
:1008F000970140E050E0E884F98400E010E0BFE7B1
:10090000AB2EB12CC12CD12CEDB7FEB7A182B28297
:10091000C382D482AA24BB2465011EC02E153F05C4
:1009200010F500D000D0B901882777FD8095982F69
:100930002A853B8540E050E000E010E0EDB7FEB7CF
:100940001182128213821482A1E8AA2EAFEFBA2E6E
:10095000AFEFCA2EAFEFDA2E0E9493060F900F90E2
:100960000F900F9001C060E0862FDF91CF911F9113
:100970000F91FF90EF90DF90CF90BF90AF900895D0
:10098000882319F48CB5806202C08CB58F7D8CBD34
:1009900008959CB5937F982B9CBD08958AE061E0F3
:1009A0000E9430068AE061E00E94F1058CB580610A
:1009B0008CBD8CB580648CBD8DE061E00E94F1053A
:1009C0008BE061E00E94F10508951F920F920FB62F
:1009D0000F9211242F933F938F939F93AF93BF93C5
:1009E00080913C0290913D02A0913E02B0913F0265
:1009F000309140020196A11DB11D232F2D5F2D378F
:100A000020F02D570196A11DB11D20934002809327
:100A10003C0290933D02A0933E02B0933F0280912E
:100A2000380290913902A0913A02B0913B020196AE
:100A3000A11DB11D8093380290933902A0933A0210
:100A4000B0933B02BF91AF919F918F913F912F91B6
:100A50000F900FBE0F901F9018958FB7F8942091AC
:100A60003C0230913D0240913E0250913F028FBFC7
:100A7000B901CA0108959B01AC017FB7F894809138
:100A8000380290913902A0913A02B0913B0266B5CA
:100A9000A89B05C06F3F19F00196A11DB11D7FBF36
:100AA000BA2FA92F982F8827860F911DA11DB11D40
:100AB00062E0880F991FAA1FBB1F6A95D1F7BC017E
:100AC0002DC0FFB7F8948091380290913902A0911F
:100AD0003A02B0913B02E6B5A89B05C0EF3F19F082
:100AE0000196A11DB11DFFBFBA2FA92F982F8827EE
:100AF0008E0F911DA11DB11DE2E0880F991FAA1F45
:100B0000BB1FEA95D1F7861B970B885E9340C8F20E
:100B1000215030404040504068517C4F21153105F4
:100B20004105510571F60895789484B5826084BDBD
:100B300084B5816084BD85B5826085BD85B58160E1
:100B400085BDEEE6F0E0808181608083E1E8F0E041
:100B50001082808182608083808181608083E0E870
:100B6000F0E0808181608083E1EBF0E0808184604F
:100B70008083E0EBF0E0808181608083EAE7F0E051
:100B800080818460808380818260808380818160B5
:100B900080838081806880831092C1000895982F9F
:100BA0008E3008F09E509770809100018295880FDA
:100BB000880F807C892B80937C0080917A008064F0
:100BC00080937A0080917A0086FDFCCF2091780096
:100BD00040917900942F80E030E0282B392BC90117
:100BE0000895CF93DF93482F50E0CA0186569F4F58
:100BF000FC0134914A575F4FFA018491882369F1CF
:100C000090E0880F991FFC01E859FF4FA591B4911E
:100C1000FC01EE58FF4FC591D491662351F42FB7D4
:100C2000F8948C91932F909589238C9388818923B4
:100C30000BC0623061F42FB7F8948C91932F90958C
:100C400089238C938881832B88832FBF06C09FB70D
:100C5000F8948C91832B8C939FBFDF91CF91089553
:100C6000482F50E0CA0182559F4FFC012491CA01D0
:100C700086569F4FFC0194914A575F4FFA01349179
:100C8000332309F440C0222351F1233071F0243082
:100C900028F42130A1F0223011F514C02630B1F033
:100CA0002730C1F02430D9F404C0809180008F77C0
:100CB00003C0809180008F7D8093800010C084B538
:100CC0008F7702C084B58F7D84BD09C08091B0004C
:100CD0008F7703C08091B0008F7D8093B000E32FA9
:100CE000F0E0EE0FFF1FEE58FF4FA591B4912FB724
:100CF000F894662321F48C919095892302C08C91FD
:100D0000892B8C932FBF0895CF93DF930E94940576
:100D10000E943D01C0E0D0E00E94DB002097E1F39B
:100D20000E940000F9CF2F923F924F925F926F92F4
:100D30007F928F929F92AF92BF92CF92DF92EF926B
:100D4000FF920F931F93DF93CF93CDB7DEB73B0195
:100D50004C0119012A016D897E898F89988D6A1944
:100D60007B098C099D09621A730A840A950AA401F9
:100D700093010E94DC06E218F30804091509A80192
:100D800097010E94FB062A0D3B1D4C1D5D1DB901FC
:100D9000CA01CF91DF911F910F91FF90EF90DF90EB
:100DA000CF90BF90AF909F908F907F906F905F900B
:100DB0004F903F902F900895629FD001739FF00154
:100DC000829FE00DF11D649FE00DF11D929FF00DDB
:100DD000839FF00D749FF00D659FF00D9927729F12
:100DE000B00DE11DF91F639FB00DE11DF91FBD019D
:100DF000CF011124089597FB092E05260ED057FD2B
:100E000004D014D00AD0001C38F450954095309589
:100E100021953F4F4F4F5F4F0895F6F7909580957E
:100E2000709561957F4F8F4F9F4F0895A1E21A2EC5
:100E3000AA1BBB1BFD010DC0AA1FBB1FEE1FFF1F7E
:100E4000A217B307E407F50720F0A21BB30BE40BCE
:100E5000F50B661F771F881F991F1A9469F7609515
:100E60007095809590959B01AC01BD01CF010895CF
:100E7000EE0FFF1F0590F491E02D099410E0C6ECF1
:100E8000D0E004C0FE010E943A072296C83CD10778
:060E9000C9F7F894FFCF42
:020E9600010059
:00000001FF
