:1000000004C10000B5C70000E4C700000C941A0842
:100010000C944B080C947C080C94AD080C94DE08EE
:100020000C940F091FC100001DC100001BC100007E
:1000300019C1000017C1000015C1000013C1000064
:1000400011C10000CCC600000DC100000BC10000B2
:1000500009C1000007C1000005C100000C9440095F
:1000600001C100000C946B0B0C94AF0CFBC00000A2
:10007000F9C00000F7C00000F5C00000F3C00000A8
:1000800081C60000EFC00000EDC00000EBC0000022
:100090000C94AB0B0C94EE0CE5C00000E3C0000028
:1000A000E1C00000DFC0000040C60000DBC000006F
:1000B000D9C00000D7C00000D5C0000009C60000AC
:1000C000D1C00000CFC00000CDC000000C94EB0BED
:1000D0000C942D0DC7C000000C942B0C0C946C0DCF
:1000E000C1C0000000002100240027002A002D00CC
:1000F0003000330001010000040107010A01000083
:100100002200250028002B002E00310034000201BF
:100110000000050108010B0100002000230026005B
:1001200029002C002F00320000010000030106010D
:10013000090105050505070508080808020202026D
:100140000A0A080804040404010101010101010173
:100150000303030303030303040707070C0C0C0C3E
:100160000C0C0C0C02020202060606060606060627
:100170000B0B0B0B0B0B0B0B0102102020080810B4
:100180002040102040800201020108040201010207
:1001900004081020408080402010080402018004E0
:1001A000020180402010080402010804020101023B
:1001B0000408102040800102040810204080000044
:1001C000090A02080B0C0D070603040100000000D9
:1001D000000000000000000000000000000000001F
:1001E0000000000000000000000011100F000000DF
:1001F00000000000000000000000000000000000FF
:100200000000000033014F02DB0E11241FBECFEFB0
:10021000D1E2DEBFCDBF00E00CBF12E0A0E0B2E053
:10022000E4EBF4E200E00BBF02C007900D92A234B1
:10023000B107D9F71BBE16E0A2E4B2E001C01D92DF
:10024000A83CB107E1F712E0CAE0D2E004C022976F
:10025000FE010E945412C430D107C9F70E94111048
:100260000C945812CDCE82E492E062E270E048E154
:1002700050E022E030E081D389E692E09BC382E443
:1002800092E00AD1FC01808180FD13C080E496E0F9
:1002900060E072E00E946B1182E492E0FDD0FC010C
:1002A000808183FF06C080E496E06BE072E00C94EE
:1002B0006B1108950F931F9300E416E0C80168E1E5
:1002C00072E00E94691160916502772767FD709561
:1002D000C8014AE050E00E944C11C80166E272E099
:1002E0000E946911C801609166024AE050E00E94D4
:1002F000F2101F910F910895AF92BF92CF92DF92AB
:10030000EF92FF920F931F9382E492E06AE571E00F
:100310004FE351E0ABD0FCD760936C0270936D0259
:1003200080936E0290936F0220917002309171025F
:100330004091720250917302621B730B840B950BF8
:10034000643671058105910510F1809167028093F3
:10035000650282E492E061E070E642E0A8D282E4C5
:1003600092E067E672E0EDD082E492E098D180916D
:100370006C0290916D02A0916E02B0916F02809319
:10038000700290937102A0937202B093730286E39D
:100390000E94510A00D00F92AA2797FDA095BA2F6C
:1003A0002EE730E040E050E0EDB7FEB72183328326
:1003B00043835483BC01CD0120E030E040E050E0B5
:1003C000F0E2EF2EF3E0FF2E012D112DE2E8AE2E2C
:1003D000EFEFBE2EEFEFCE2EEFEFDE2E0E947C1160
:1003E0008EE7809367020F900F900F900F901F91F0
:1003F0000F91FF90EF90DF90CF90BF90AF90089556
:1004000082E492E09BC10F931F9380E496E040E862
:1004100055E260E070E00E94AB0D02E412E0C8011A
:1004200094D2C801CED0C8016EEF7AEC28D1C801B1
:1004300060E070E614D1C80161E06CD080E060E05B
:1004400072E041E050E018D563D7609348027093A2
:10045000490280934A0290934B0289E692E066E15A
:1004600070E071D378941F910F910895CF93DF932B
:10047000FB01EA0180917402882319F01092740242
:10048000199580917502882321F010927502FE0162
:100490001995DF91CF91089581E793E008958BE05E
:1004A00090E090937702809376020895FF920F93E5
:1004B0001F93CF93DF938C01EB01F42EFC0182811B
:1004C00060E00E94380BCE0123E0969587952A952F
:1004D000E1F780688EBD0DB407FEFDCF8EB59E019D
:1004E0002295220F207E822F80618EBD0DB407FEE3
:1004F000FDCF8EB5FEBC0DB407FEFDCF8EB5F80165
:10050000828161E00E94380BDF91CF911F910F91A2
:10051000FF900895662321F06FE272E047E003C088
:100520006FE272E040E0C2CF462F50E04B505040A7
:1005300034E0440F551F3A95E1F7436060E072E004
:10054000B5CFEF92FF920F931F937C018B016BE06D
:1005500070E0F8014081AADFC7016CE070E0F801AB
:100560004181A4DF1F910F91FF90EF9008950F93A9
:100570001F93CF93DF93EC01162F042F8A8160E045
:100580000E94380B110F1E7711601EBD0DB407FEBF
:10059000FDCF8EB50EBD0DB407FEFDCF8EB58A81A1
:1005A00061E00E94380BDF91CF911F910F91089568
:1005B00069E340E0DCCF69E344E0D9CF62E346EF92
:1005C000D6CF0F931F938C0168E148E9D0DFC801B3
:1005D0006EE245E9CCDFC80160E072E043E066DF2F
:1005E000C80161E072E041E061DFC80162E072E0F1
:1005F00040E85CDFC80166E072E040E957DFC8010F
:1006000067E072E040E852DFC80168E072E040E174
:100610004DDFC80160E272E041E248DFC8016AE3F1
:1006200040E8A5DFC8016FE340E6A1DFC8016EE343
:1006300040E49DDFC801C2DFC8016CE075DFC8017E
:1006400066E344E094DFC80166E340E090DF61E0E8
:1006500070E080E090E06AD61F910F910895FF92BC
:100660000F931F938C01F62E472F64E080DFC801A3
:1006700063E04F2D7CDF1F910F91FF900895FF9253
:100680000F931F938C01F62E472F62E070DFC80195
:1006900061E04F2D6CDF1F910F91FF9008956BE18A
:1006A00045E065CFEF92FF921F93CF93DF937C01DC
:1006B000EB01FC01828160E0DBD7CE0143E096953F
:1006C00087954A95E1F780688EBD0DB407FEFDCF92
:1006D0008EB59E012295220F207E2EBD0DB407FE01
:1006E000FDCF8EB51EBC0DB407FEFDCF1EB5F701C4
:1006F000828161E0BDD7812FDF91CF911F91FF9063
:10070000EF9008951F93CF93DF93EC01162F8A810A
:1007100060E0AED7110F1E771EBD0DB407FEFDCFF2
:100720008EB51EBC0DB407FEFDCF1EB58A8161E0FB
:100730009FD7812FDF91CF911F910895AF92BF92E4
:10074000DF92EF92FF920F931F93CF93DF937C0181
:1007500061E3D8DFA82E83FF54C0809174028F5FBD
:1007600080937402F894C70126DFC70160E073E04C
:1007700099DFD82E80917802882339F0C1E0D3E048
:100780000D2D10E00F5F1C4F0DC00CE712E0C0E014
:10079000D0E016C0C701BE0185DFFE01EF50F0407A
:1007A00080832196C017D107A9F7EFCFC65FDC4F32
:1007B000C701BE0177DFF80181938F01C950D34093
:1007C00080917B0290E02091760230917702821B2B
:1007D000930BC817D90754F3D0927B020D2D10E06C
:1007E0000F5F1C4FC701B8015DDF8093F0020F5F00
:1007F0001F4FC701B80156DF8093F102C701D8DE51
:100800007894A0FE20C0809175028F5F809375025E
:10081000C70164E277DF282F30E040E0C9018E7F16
:10082000892B09F441E080917103887F56E035956A
:1008300027955A95E1F7922F9370990F842B892B66
:10084000877F80937103DF91CF911F910F91FF906C
:10085000EF90DF90BF90AF900895FF920F931F939A
:100860008C0164E04FDFF82EC80163E04BDF5F2DA1
:1008700040E0282F30E0242B352BC9011F910F9128
:10088000FF900895FF920F931F938C0162E03ADF6F
:10089000F82EC80161E036DF5F2D40E0282F30E000
:1008A000242B352BC9011F910F91FF900895DF92E2
:1008B000EF92FF920F931F938C01E62ED72EF42E0A
:1008C00060E070E049E0F2DD40917902475F4F0D52
:1008D000C80161E070E0EADDC80162E070E041E675
:1008E000E5DDC80163E070E048E8E0DDC80164E0F0
:1008F00070E041E0DBDDC801C5DF482FF92EC801FB
:1009000065E070E0D3DDC80166E070E04F2DCEDD1C
:10091000C80167E070E04E2DC9DDC80168E070E0F5
:100920004D2DC4DDC80199DF482FF92EC80169E0BB
:1009300070E0BCDDC8016AE070E04F2DB7DD1F91AB
:100940000F91FF90EF90DF9008950F931F938C010C
:10095000FC01808160E08CD66AE070E080E090E08D
:10096000E5D4F801808161E083D664E170E080E045
:1009700090E0DCD41F910F9108950F931F938C0189
:10098000862FF801608371835383428335832483E8
:1009900061E0BBD5F801828161E0B7D5F8018481BF
:1009A00060E0B3D581E048D280E04FD253D21F91AE
:1009B0000F910895FC0180917203803390F480833D
:1009C0008F5F80937203815090E0FC01EE0FFF1F58
:1009D000E80FF91FED58FC4F88EB9BE09283818371
:1009E00008958FEF80830895CF92DF92EF92FF9268
:1009F0001F93CF93DF93EC01162F7A016901888151
:100A0000803308F092C0862F61E07FD5888190E026
:100A1000FC01EE0FFF1FE80FF91FED58FC4F1F738D
:100A20008081807C812B808380E292E08E199F09F7
:100A300064E070E00E94EE11698380E699E08C1911
:100A40009D0964E070E00E94EE116A83A8818A2FFC
:100A50006CE00E94E211682F70E0AB01440F551F5B
:100A6000460F571F440F551F440F551F20E030E01D
:100A7000C901840F951FFC01EE0FFF1FE80FF91F3E
:100A8000ED58FC4F808186FD44C02F5F3F4F2C30D6
:100A9000310571F753C01092800082E0809381008D
:100AA0001092850010928400B19A80916F0082604C
:100AB00080936F002EC06230710569F4109290002F
:100AC00082E080939100109295001092940088BB70
:100AD000809371001EC06330710569F41092A0000C
:100AE00082E08093A1001092A5001092A40089BB1F
:100AF000809372000EC0672B61F41092200182E097
:100B00008093210110922501109224018ABB8093C9
:100B100073008A2F90E0FC01EE0FFF1FE80FF91F12
:100B2000ED58FC4F8081806480838881DF91CF9174
:100B30001F91FF90EF90DF90CF9008956130710585
:100B400009F0B9CFA8CF40E252E020E639E04CCF1F
:100B5000EF92FF920F931F93CF93DF938B017A0154
:100B6000EC01DC01AD5FBB4F8C9187FF04C0FB0142
:100B70001182108236C0AE01440F551F4C0F5D1F0D
:100B8000440F551F440F551F2C91332727FD3095D7
:100B9000240F351F8091720390E0281739070CF558
:100BA0008C91992787FD9095840F951FFC01EE0F7E
:100BB000FF1FE80FF91FED58FC4F808186FF11C021
:100BC0008C91992787FD9095840F951FFC01EE0F5E
:100BD000FF1FE80FF91FED58FC4F80818F7360E015
:100BE00047D5DE01AD5FBB4F8C918F5F8C93AE011B
:100BF000440F551F4C0F5D1F440F551F440F551FC9
:100C00002C91332727FD3095240F351F80917203D7
:100C100090E0281739070CF04CC08C918C300CF008
:100C200048C0F801208131818C91992787FD9095EA
:100C3000840F951FFC01EE0FFF1FE80FF91FED5801
:100C4000FC4F81819281280F391FF7013183208366
:100C50008C91992787FD9095840F951FFC01EE0FCD
:100C6000FF1FE80FF91FED58FC4F808186FF29C058
:100C70008C91992787FD9095840F951FFC01EE0FAD
:100C8000FF1FE80FF91FED58FC4F80818F7361E063
:100C9000EFD417C080E49CE904C0F8018081918101
:100CA0000496F70191838083CD5FDB4F8FEF8883BC
:100CB00008C0F80180819181049680549C4950F3CA
:100CC000ECCFDF91CF911F910F91FF90EF9008959E
:100CD0001F920F920FB60F920BB60F9211242F9303
:100CE0003F934F935F936F937F938F939F93AF93B4
:100CF000BF93EF93FF9380E090E064E271E048E2FD
:100D000051E026DFFF91EF91BF91AF919F918F91BD
:100D10007F916F915F914F913F912F910F900BBEFB
:100D20000F900FBE0F901F9018951F920F920FB645
:100D30000F920BB60F9211242F933F934F935F9313
:100D40006F937F938F939F93AF93BF93EF93FF9393
:100D500083E090E064EA70E048EA50E0F9DEFF9159
:100D6000EF91BF91AF919F918F917F916F915F9123
:100D70004F913F912F910F900BBE0F900FBE0F9090
:100D80001F9018951F920F920FB60F920BB60F92ED
:100D900011242F933F934F935F936F937F938F9380
:100DA0009F93AF93BF93EF93FF9382E090E064E94A
:100DB00070E048E950E0CCDEFF91EF91BF91AF9138
:100DC0009F918F917F916F915F914F913F912F9163
:100DD0000F900BBE0F900FBE0F901F9018951F9293
:100DE0000F920FB60F920BB60F9211242F933F93D1
:100DF0004F935F936F937F938F939F93AF93BF9323
:100E0000EF93FF9381E090E064E870E048E850E001
:100E10009FDEFF91EF91BF91AF919F918F917F9155
:100E20006F915F914F913F912F910F900BBE0F905B
:100E30000FBE0F901F901895882319F48CB580620F
:100E400002C08CB58F7D8CBD08959CB5937F982B87
:100E50009CBD089585E361E00BD485E361E055D343
:100E60008CB580618CBD8CB580648CBD84E361E001
:100E70004CD383E361E049C3883008F078C0E82FA1
:100E8000F0E0EE0FFF1FE95FFB4F7183608383305B
:100E9000D9F0843030F4813009F444C0823060F4F9
:100EA00039C0853051F18530D8F0863009F446C01C
:100EB000873009F05CC04FC0809169008C7F842B23
:100EC00080936900E89A089580916900440F551F46
:100ED000440F551F837F842B80936900E99A0895FE
:100EE0008091690074E0440F551F7A95E1F78F7C7B
:100EF000842B80936900EA9A08958091690066E0E6
:100F0000440F551F6A95E1F78F73842B8093690016
:100F1000EB9A089580916A008C7F842B80936A00FD
:100F2000EC9A089580916A00440F551F440F551F95
:100F3000837F842B80936A00ED9A089580916A00E4
:100F400024E0440F551F2A95E1F78F7C842B809372
:100F50006A00EE9A089580916A0096E0440F551F4A
:100F60009A95E1F78F73842B80936A00EF9A089526
:100F70001F920F920FB60F920BB60F9211242F9360
:100F80003F934F935F936F937F938F939F93AF9311
:100F9000BF93EF93FF9380910B0490910C04892BE6
:100FA00029F0E0910B04F0910C041995FF91EF9159
:100FB000BF91AF919F918F917F916F915F914F9171
:100FC0003F912F910F900BBE0F900FBE0F901F906F
:100FD00018951F920F920FB60F920BB60F92112415
:100FE0002F933F934F935F936F937F938F939F9331
:100FF000AF93BF93EF93FF9380910D0490910E04F4
:10100000892B29F0E0910D04F0910E041995FF91C0
:10101000EF91BF91AF919F918F917F916F915F9170
:101020004F913F912F910F900BBE0F900FBE0F90DD
:101030001F9018951F920F920FB60F920BB60F923A
:1010400011242F933F934F935F936F937F938F93CD
:101050009F93AF93BF93EF93FF9380910F04909171
:101060001004892B29F0E0910F04F09110041995D8
:10107000FF91EF91BF91AF919F918F917F916F9170
:101080005F914F913F912F910F900BBE0F900FBE2C
:101090000F901F9018951F920F920FB60F920BB6DC
:1010A0000F9211242F933F934F935F936F937F93EE
:1010B0008F939F93AF93BF93EF93FF93809111040E
:1010C00090911204892B29F0E0911104F0911204FF
:1010D0001995FF91EF91BF91AF919F918F917F9162
:1010E0006F915F914F913F912F910F900BBE0F9099
:1010F0000FBE0F901F9018951F920F920FB60F9270
:101100000BB60F9211242F933F934F935F936F93DE
:101110007F938F939F93AF93BF93EF93FF938091B0
:10112000070490910804892B29F0E0910704F091BD
:1011300008041995FF91EF91BF91AF919F918F9105
:101140007F916F915F914F913F912F910F900BBEC7
:101150000F900FBE0F901F9018951F920F920FB611
:101160000F920BB60F9211242F933F934F935F93DF
:101170006F937F938F939F93AF93BF93EF93FF935F
:101180008091090490910A04892B29F0E0910904C7
:10119000F0910A041995FF91EF91BF91AF919F9142
:1011A0008F917F916F915F914F913F912F910F9010
:1011B0000BBE0F900FBE0F901F9018951F920F92AD
:1011C0000FB60F920BB60F9211242F933F934F93AC
:1011D0005F936F937F938F939F93AF93BF93EF939F
:1011E000FF938091130490911404892B29F0E091CE
:1011F0001304F09114041995FF91EF91BF91AF91F1
:101200009F918F917F916F915F914F913F912F911E
:101210000F900BBE0F900FBE0F901F9018951F924E
:101220000F920FB60F920BB60F9211242F933F938C
:101230004F935F936F937F938F939F93AF93BF93DE
:10124000EF93FF938091150490911604892B29F058
:10125000E0911504F09116041995FF91EF91BF915B
:10126000AF919F918F917F916F915F914F913F913E
:101270002F910F900BBE0F900FBE0F901F901895DF
:101280001F920F920FB60F9211242F933F938F93BB
:101290009F93AF93BF9380911B0490911C04A091E6
:1012A0001D04B0911E0430911F040196A11DB11DB3
:1012B000232F2D5F2D3720F02D570196A11DB11D35
:1012C00020931F0480931B0490931C04A0931D047F
:1012D000B0931E048091170490911804A0911904F2
:1012E000B0911A040196A11DB11D8093170490932B
:1012F0001804A0931904B0931A04BF91AF919F9161
:101300008F913F912F910F900FBE0F901F901895C6
:101310008FB7F89420911B0430911C0440911D0458
:1013200050911E048FBFB901CA0108959B01AC0101
:101330007FB7F8948091170490911804A091190434
:10134000B0911A0466B5A89B05C06F3F19F00196CD
:10135000A11DB11D7FBFBA2FA92F982F8827860FF7
:10136000911DA11DB11D62E0880F991FAA1FBB1F0F
:101370006A95D1F7BC012DC0FFB7F894809117048E
:1013800090911804A0911904B0911A04E6B5A89B95
:1013900005C0EF3F19F00196A11DB11DFFBFBA2F87
:1013A000A92F982F88278E0F911DA11DB11DE2E056
:1013B000880F991FAA1FBB1FEA95D1F7861B970BB1
:1013C000885E9340C8F22150304040405040685100
:1013D0007C4F211531054105510571F6089578942A
:1013E00084B5826084BD84B5816084BD85B582602A
:1013F00085BD85B5816085BDEEE6F0E080818160C8
:101400008083E1E8F0E010828081826080838081C7
:1014100081608083E0E8F0E0808181608083E1EB9F
:10142000F0E0808184608083E0EBF0E08081816087
:101430008083E1E9F0E08081826080838081816047
:101440008083E0E9F0E0808181608083E1EAF0E080
:10145000808182608083808181608083E0EAF0E027
:10146000808181608083E1E2F1E08081826080831D
:10147000808181608083E0E2F1E08081816080830F
:10148000EAE7F0E0808184608083808182608083ED
:101490008081816080838081806880831092C10018
:1014A0000895382F863308F0365320917B00832F20
:1014B00086958695869590E08170907043E0880FC0
:1014C000991F4A95E1F7277F282B20937B003770DF
:1014D000809131028295880F880F807C832B8093C6
:1014E0007C0080917A00806480937A0080917A00F9
:1014F00086FDFCCF2091780040917900942F80E008
:1015000030E0282B392BC9010895CF93DF93482F62
:1015100050E0CA0188589E4FFC0134914E5C5E4FEA
:10152000FA018491882369F190E0880F991FFC01EA
:10153000EC51FF4FA591B491FC01E250FF4FC591D2
:10154000D491662351F42FB7F8948C91932F9095F2
:1015500089238C93888189230BC0623061F42FB773
:10156000F8948C91932F909589238C938881832B69
:1015700088832FBF06C09FB7F8948C91832B8C93E0
:101580009FBFDF91CF910895893009F449C08A3017
:10159000A0F4843051F1853040F4823079F1833009
:1015A00000F5813009F063C026C0873079F18830BA
:1015B00098F5863009F05BC025C08D3009F442C033
:1015C0008E3028F48B30B1F18C30C0F52DC08031D5
:1015D00009F442C0813109F445C08F3009F047C099
:1015E00037C0809180008F7703C0809180008F7D0D
:1015F00080938000089584B58F7702C084B58F7D75
:1016000084BD08958091B0008F7703C08091B000B1
:101610008F7D8093B0000895809190008F7707C0F0
:10162000809190008F7D03C080919000877F809390
:10163000900008958091A0008F7707C08091A0004E
:101640008F7D03C08091A000877F8093A0000895C4
:10165000809120018F7703C0809120018F7D80933E
:101660002001089580912001877F809320010895B3
:10167000FF920F931F93F62E482F50E0CA01825419
:101680009E4FFC012491CA0188589E4FFC01149181
:101690004E5C5E4FFA0104910023C1F0222311F049
:1016A000822F72DFE02FF0E0EE0FFF1FE250FF4FBE
:1016B000A591B4919FB7F894FF2021F48C911095D7
:1016C000812302C08C91812B8C939FBF1F910F911E
:1016D000FF90089508951F920F920FB60F920BB6C8
:1016E0000F9211242F933F934F938F939F93EF93D8
:1016F000FF938091C00082FD1DC04091C6002091E3
:101700006004309161042F5F3F4F2F7330708091E0
:101710006204909163042817390771F0E091600426
:10172000F0916104E05EFB4F4083309361042093AD
:10173000600402C08091C600FF91EF919F918F914C
:101740004F913F912F910F900BBE0F900FBE0F90B6
:101750001F90189508951F920F920FB60F920BB617
:101760000F9211242F933F934F938F939F93EF9357
:10177000FF938091C80082FD1DC04091CE00209152
:10178000E8043091E9042F5F3F4F2F733070809150
:10179000EA049091EB042817390771F0E091E8040E
:1017A000F091E904E855FB4F40833093E90420931E
:1017B000E80402C08091CE00FF91EF919F918F913C
:1017C0004F913F912F910F900BBE0F900FBE0F9036
:1017D0001F90189508951F920F920FB60F920BB697
:1017E0000F9211242F933F934F938F939F93EF93D7
:1017F000FF938091D00082FD1DC04091D6002091C2
:101800007005309171052F5F3F4F2F7330708091BD
:101810007205909173052817390771F0E0917005F2
:10182000F0917105E05DFA4F40833093710520938C
:10183000700502C08091D600FF91EF919F918F912A
:101840004F913F912F910F900BBE0F900FBE0F90B5
:101850001F90189508951F920F920FB60F920BB616
:101860000F9211242F933F934F938F939F93EF9356
:10187000FF938091300182FD1DC04091360120917F
:10188000F8053091F9052F5F3F4F2F73307080912D
:10189000FA059091FB052817390771F0E091F805DA
:1018A000F091F905E854FA4F40833093F9052093FD
:1018B000F80502C080913601FF91EF919F918F91C1
:1018C0004F913F912F910F900BBE0F900FBE0F9035
:1018D0001F901895E0914C06F0914D06E05CFF4F8B
:1018E0008191919120813181821B930B8F73907034
:1018F000892B09F0EFDEE0916E06F0916F06E05C57
:10190000FF4F8191919120813181821B930B8F73C5
:101910009070892B09F01EDFE0919006F0919106FE
:10192000E05CFF4F8191919120813181821B930B6B
:101930008F739070892B09F04DDFE091B206F09122
:10194000B306E05CFF4F8191919120813181821B30
:10195000930B8F739070892B09F07CCF08951F92A1
:101960000F920FB60F920BB60F9211242F933F9345
:101970008F939F93EF93FF932091A4043091A5043C
:101980008091A6049091A7042817390731F480911B
:10199000C1008F7D8093C10014C0E091A604F09136
:1019A000A704EC59FB4F20818091A6049091A704D5
:1019B00001968F7390709093A7048093A604209350
:1019C000C600FF91EF919F918F913F912F910F90C2
:1019D0000BBE0F900FBE0F901F9018951F920F9285
:1019E0000FB60F920BB60F9211242F933F938F9344
:1019F0009F93EF93FF9320912C0530912D058091BB
:101A00002E0590912F052817390731F48091C900D0
:101A10008F7D8093C90014C0E0912E05F0912F05B1
:101A2000E451FB4F208180912E0590912F05019666
:101A30008F73907090932F0580932E052093CE0086
:101A4000FF91EF919F918F913F912F910F900BBE3E
:101A50000F900FBE0F901F9018951F920F920FB608
:101A60000F920BB60F9211242F933F938F939F9356
:101A7000EF93FF932091B4053091B5058091B605A1
:101A80009091B7052817390731F48091D1008F7DE7
:101A90008093D10014C0E091B605F091B705EC58E1
:101AA000FA4F20818091B6059091B70501968F730A
:101AB00090709093B7058093B6052093D600FF9160
:101AC000EF919F918F913F912F910F900BBE0F90AF
:101AD0000FBE0F901F9018951F920F920FB60F9286
:101AE0000BB60F9211242F933F938F939F93EF93F5
:101AF000FF9320913C0630913D0680913E069091E7
:101B00003F062817390731F4809131018F7D80938A
:101B1000310114C0E0913E06F0913F06E450FA4FC7
:101B2000208180913E0690913F0601968F739070C0
:101B300090933F0680933E0620933601FF91EF91EC
:101B40009F918F913F912F910F900BBE0F900FBEE1
:101B50000F901F901895AF92BF92DF92EF92FF9275
:101B60000F931F93CF93DF93EC017A018B01DD2458
:101B7000403081EE580780E0680780E0780711F078
:101B8000DD24D39491E0A92EB12CEC89FD89DD20D0
:101B900069F0C50108A002C0880F991F0A94E2F7F6
:101BA000808360E079E08DE390E005C0108260E81A
:101BB00074E88EE190E0A801970123D421503040D1
:101BC00040405040569547953795279580E1203005
:101BD000380720F0DD2011F0DD24D7CFE889F9891E
:101BE0003083EA89FB89208319A2EE89FF8940812D
:101BF00021E030E0C9010C8C02C0880F991F0A94C3
:101C0000E2F7482B4083EE89FF894081C9010D8CA2
:101C100002C0880F991F0A94E2F7482B4083EE898F
:101C2000FF894081C9010E8C02C0880F991F0A9458
:101C3000E2F7482B4083EE89FF8980810F8C02C038
:101C4000220F331F0A94E2F7209528232083DF9187
:101C5000CF911F910F91FF90EF90DF90BF90AF90C9
:101C60000895DC011C96ED91FC911D97E05CFF4FFF
:101C70002191319180819181281B390B2F73307014
:101C8000C9010895DC011C96ED91FC911D97E05C63
:101C9000FF4F20813181E054F040DF01AE5BBF4F48
:101CA0008D919C9111972817390719F42FEF3FEF69
:101CB00007C08D919C91E80FF91F8081282F30E09B
:101CC000C9010895DC011C96ED91FC911D97E05C23
:101CD000FF4F20813181E054F040DF01AE5BBF4F08
:101CE0008D919C9111972817390719F42FEF3FEF29
:101CF00010C08D919C911197E80FF91F20818D9153
:101D00009C91119701968F73907011969C938E936E
:101D100030E0C9010895DC0191968C919197882358
:101D200039F05496ED91FC915597808186FFF9CF5B
:101D300091961C920895CF93DF93EC01EE85FF8579
:101D4000E05CFF4F20813181E054F0402F5F3F4F36
:101D50002F733070DF01AE5BBF4F8D919C91119757
:101D600028173907D1F3E05CFF4F80819181E0545F
:101D7000F040E80FF91F6083EE85FF85E05CFF4FC0
:101D800031832083EE89FF89208181E090E00F8CF0
:101D900002C0880F991F0A94E2F7282B208381E064
:101DA00089A3EC89FD8980818064808381E090E053
:101DB000DF91CF9108951F9310924306109242062F
:101DC00028EE33E040E050E020934406309345068F
:101DD000409346065093470666E372E070934106CF
:101DE0006093400680E294E090934D0680934C0609
:101DF00084E694E090934F0680934E0685EC90E045
:101E0000909351068093500684EC90E09093530693
:101E10008093520680EC90E0909355068093540690
:101E200081EC90E0909357068093560682EC90E008
:101E3000909359068093580686EC90E090935B0649
:101E400080935A0614E010935C06B3E0B0935D06ED
:101E5000A7E0A0935E06F5E0F0935F06E1E0E09373
:101E60006006109265061092640620936606309311
:101E70006706409368065093690670936306609303
:101E8000620688EA94E090936F0680936E068CEE6B
:101E900094E090937106809370068DEC90E090939F
:101EA0007306809372068CEC90E090937506809395
:101EB000740688EC90E0909377068093760689EC20
:101EC00090E090937906809378068AEC90E0909366
:101ED0007B0680937A068EEC90E090937D0680934B
:101EE0007C0610937E06B0937F06A0938006F09345
:101EF0008106E09382061092870610928606209350
:101F000088063093890640938A0650938B06709317
:101F100085066093840680E395E090939106809314
:101F2000900684E795E0909393068093920685ED62
:101F300090E0909395068093940684ED90E09093C2
:101F400097068093960680ED90E090939906809393
:101F5000980681ED90E090939B0680939A0682ED1F
:101F600090E090939D0680939C0686ED90E0909380
:101F70009F0680939E061093A006B093A106A0939F
:101F8000A206F093A306E093A4061092A90610926D
:101F9000A8062093AA063093AB064093AC06509354
:101FA000AD067093A7066093A60688EB95E0909324
:101FB000B3068093B2068CEF95E09093B5068093BC
:101FC000B40685E391E09093B7068093B60684E368
:101FD00091E09093B9068093B80680E391E09093E6
:101FE000BB068093BA0681E391E09093BD0680938F
:101FF000BC0682E391E09093BF068093BE0686E321
:1020000091E09093C1068093C0061093C206B093EE
:10201000C306A093C406F093C506E093C6061F91BD
:102020000895CF93DF93DBD90E940302CAE6DCE078
:102030000E947C012097E1F34DDCFACFCF92DF9232
:10204000EF92FF920F931F93CF93DF937C016B016D
:102050008A01C0E0D0E00FC0D6016D916D01D701BB
:10206000ED91FC910190F081E02DC7011995C80F09
:10207000D91F015010400115110571F7CE01DF91F4
:10208000CF911F910F91FF90EF90DF90CF90089527
:10209000EF92FF920F931F938C01DC01ED91FC9165
:1020A0000190F081E02D6DE019957C01D801ED9152
:1020B000FC910190F081E02DC8016AE019959C0126
:1020C0002E0D3F1DC9011F910F91FF90EF900895B4
:1020D000CF93DF93EC016115710519F420E030E036
:1020E0000FC0DB010D900020E9F71197A61BB70B7D
:1020F000E881F9810280F381E02DAD0119959C0101
:10210000C901DF91CF9108954F925F927F928F9294
:102110009F92AF92BF92CF92DF92EF92FF920F9376
:102120001F93DF93CF93CDB7DEB7A1970FB6F89487
:10213000DEBF0FBECDBF2C01742ECB01223008F4C0
:102140002AE019A231E2C32ED12CCC0EDD1E822E44
:102150009924AA24BB24672D752FA501940151D180
:1021600079018A01C801B701A50194010CD1472D5D
:10217000461B0894C108D1084A3014F4405D01C0E0
:10218000495CF6014083E114F1040105110521F0D9
:102190007E2C5F2DC801DFCFC201B60199DFA19669
:1021A0000FB6F894DEBF0FBECDBFCF91DF911F9168
:1021B0000F91FF90EF90DF90CF90BF90AF909F90E6
:1021C0008F907F905F904F900895DC01211531052D
:1021D00041F4ED91FC910190F081E02D642F19956F
:1021E000089592CFCF92DF92EF92FF920F931F93B9
:1021F0006C01E62E9A01FF2400E010E0B801A7016F
:10220000E4DF8C01C60144DF080F191FC8011F91CC
:102210000F91FF90EF90DF90CF900895CF92DF92D3
:10222000EF92FF920F931F93CF93DF93EC016A011C
:102230007B012115310541F4E881F9810190F0819C
:10224000E02D642F19951DC02A303105C9F477FFA0
:1022500016C0E881F9810190F081E02D6DE21995B9
:102260008C0144275527BA014C195D096E097F0975
:10227000CE012AE049DF9801280F391F03C02AE068
:1022800043DF9C01C901DF91CF911F910F91FF9016
:10229000EF90DF90CF900895CF92DF92EF92FF9270
:1022A0000F931F936C017B019A010027F7FC0095A7
:1022B000102FB801A701B2DF8C01C601E9DE080FBB
:1022C000191FC8011F910F91FF90EF90DF90CF90E1
:1022D0000895FECE0895EF92FF920F931F937C0115
:1022E000F7DE8C01C701D4DE080F191FC8011F914A
:1022F0000F91FF90EF9008952F923F924F925F922F
:102300006F927F928F929F92AF92BF92CF92DF9205
:10231000EF92FF920F931F93DF93CF93CDB7DEB76A
:102320003B014C0119012A016E897F89888D998DA5
:102330006A197B098C099D09621A730A840A950A35
:10234000A401930120D0E218F30804091509A8019B
:10235000970179D02A0D3B1D4C1D5D1DB901CA01A5
:10236000CF91DF911F910F91FF90EF90DF90CF9071
:10237000BF90AF909F908F907F906F905F904F90A5
:102380003F902F900895629FD001739FF001829F2C
:10239000E00DF11D649FE00DF11D929FF00D839FF4
:1023A000F00D749FF00D659FF00D9927729FB00D91
:1023B000E11DF91F639FB00DE11DF91FBD01CF01A4
:1023C00011240895991B79E004C0991F961708F00D
:1023D000961B881F7A95C9F78095089597FB092E5B
:1023E00007260AD077FD04D049D006D000201AF481
:1023F000709561957F4F0895F6F7909581959F4F61
:102400000895A1E21A2EAA1BBB1BFD010DC0AA1F35
:10241000BB1FEE1FFF1FA217B307E407F50720F04D
:10242000A21BB30BE40BF50B661F771F881F991FC8
:102430001A9469F760957095809590959B01AC0111
:10244000BD01CF01089597FB092E05260ED057FD3B
:1024500004D0D7DF0AD0001C38F450954095309551
:1024600021953F4F4F4F5F4F0895F6F79095809518
:10247000709561957F4F8F4F9F4F0895AA1BBB1B8F
:1024800051E107C0AA1FBB1FA617B70710F0A61B74
:10249000B70B881F991F5A95A9F780959095BC0195
:1024A000CD010895EE0FFF1F0590F491E02D1994D2
:0424B000F894FFCFCE
:1024B4005458206661696C656421006368616E6EBE
:1024C400656C2062757379005468726F74746C65FE
:1024D4002066623A200053746565722066623A2071
:1024E4000001000000009B0E1E10310E620E420E11
:0224F4008B0E4D
:00000001FF
