:1000000004C1000025C7000054C7000083C70000DA
:10001000B2C70000E1C700000C941D080C944E0804
:100020000C947F081FC100001DC100001BC100000F
:1000300019C1000017C1000015C1000013C1000064
:1000400011C100003CC600000DC100000BC1000042
:1000500009C1000007C1000005C100000C94B008F0
:1000600001C100000C94A70A0C94EB0BFBC000002C
:10007000F9C00000F7C00000F5C00000F3C00000A8
:10008000F1C50000EFC00000EDC00000EBC00000B3
:100090000C94E70A0C942A0CE5C00000E3C00000B1
:1000A000E1C00000DFC00000B0C50000DBC0000000
:1000B000D9C00000D7C00000D5C0000079C500003D
:1000C000D1C00000CFC00000CDC000000C94270BB1
:1000D0000C94690CC7C000000C94670B0C94A80C1E
:1000E000C1C0000000002100240027002A002D00CC
:1000F0003000330001010000040107010A01000083
:100100002200250028002B002E00310034000201BF
:100110000000050108010B0100002000230026005B
:1001200029002C002F00320000010000030106010D
:10013000090105050505070508080808020202026D
:100140000A0A080804040404010101010101010173
:100150000303030303030303040707070C0C0C0C3E
:100160000C0C0C0C02020202060606060606060627
:100170000B0B0B0B0B0B0B0B0102102020080810B4
:100180002040102040800201020108040201010207
:1001900004081020408080402010080402018004E0
:1001A000020180402010080402010804020101023B
:1001B0000408102040800102040810204080000044
:1001C000090A02080B0C0D070603040100000000D9
:1001D000000000000000000000000000000000001F
:1001E0000000000000000000000011100F000000DF
:1001F00000000000000000000000000000000000FF
:10020000000000003401EE02170E11241FBECFEFD4
:10021000D1E2DEBFCDBF00E00CBF12E0A0E0B2E053
:10022000E0E0F2E200E00BBF02C007900D92A439BB
:10023000B107D9F71BBE17E0A4E9B2E001C01D92D7
:10024000AA31B107E1F712E0CAE0D2E004C0229778
:10025000FE010E94FA10C430D107C9F70E944D0F69
:100260000C94FE10CDCE089584E992E062E270E035
:1002700048E150E022E030E0A4D389EB92E0BEC335
:1002800084E992E0A8D1FC01808180FD13C082E95D
:1002900096E060E072E00E94A61084E992E09BD1B3
:1002A000FC01808183FF0CC082E996E06BE072E084
:1002B0000C94A61082E996E068E172E00C94A61016
:1002C000089582E996E06EE172E00E94A41084E94C
:1002D00092E06EE972E05FD18091BC029091BD0224
:1002E000A091BE02B091BF028093C4029093C50258
:1002F000A093C602B093C70208951F9384E992E0C9
:1003000061E671E040E451E050D172D76093BC02E5
:100310007093BD028093BE029093BF022091C002F1
:100320003091C1024091C2025091C302621B730B13
:10033000840B950B623371058105910508F488C023
:1003400084E992E05FD2182F82E996E06EE272E0D3
:100350000E94A41082E996E0612F70E04AE050E02C
:100360000E9487101A3209F063C084E992E06EE9B6
:1003700072E011D13DD7AB01BC0182E996E02AE0E1
:1003800030E00E94211082E996E06BE372E00E9467
:10039000A61060919E02772767FD709582E996E02E
:1003A0004AE050E00E94871060919F027091A00285
:1003B00082E996E04AE050E00E9487108091A10215
:1003C000882319F46FE372E002C06AE472E082E904
:1003D00096E00E94A6106091B702772767FD70959E
:1003E00082E996E04AE050E00E94871082E996E0B8
:1003F0006EE272E00E94A41082E996E06AE270E088
:100400004AE050E00E94871082E996E00E94840F43
:100410008091BC029091BD02A091BE02B091BF023A
:100420008093C4029093C502A093C602B093C70202
:100430008091BC029091BD02A091BE02B091BF021A
:100440008093C0029093C102A093C202B093C302F2
:100450008091BC029091BD02A091BE02B091BF02FA
:100460002091C4023091C5024091C6025091C7024A
:10047000821B930BA40BB50B885E9340A040B04049
:1004800008F448C082E996E061E572E00E94A61097
:1004900082E996E06AE672E00E94A41084E992E0A4
:1004A00069E311D2682F82E996E070E04AE050E0FB
:1004B0000E942E1082E996E063E772E00E94A41089
:1004C00084E992E051D2BC0182E996E04AE050E032
:1004D0000E942E1082E996E069E772E00E94A41063
:1004E00084E992E02CD2BC0182E996E04AE050E037
:1004F0000E942E108091BC029091BD02A091BE027C
:10050000B091BF028093C4029093C502A093C6022B
:10051000B093C7021F910895CF92DF92EF92FF929E
:100520000F931F936C017B0104E912E0C80131D2E3
:10053000C801C7D0C801B70125D1C801B60112D181
:10054000C80161E0DCD1C80161E0B3D084E063E3BD
:1005500071E041E050E000D41F910F91FF90EF90C7
:10056000DF90CF90089582E996E040E855E260E0A0
:1005700070E00E94E70C80E090E66EEF7AECCCDF52
:1005800037D660939A0270939B0280939C0290935B
:100590009D0278940895EEECF2E0DB0181918D9359
:1005A00082E0E93EF807D1F70895CF93DF93FB018E
:1005B000EA018091C802882319F01092C8021995A7
:1005C0008091C902882321F01092C902FE01199579
:1005D000DF91CF91089583EC93E008958BE090E054
:1005E0009093CB028093CA020895FF920F931F93BA
:1005F000CF93DF938C01EB01F42EFC01828160E04C
:1006000073D7CE0123E0969587952A95E1F7806808
:100610008EBD0DB407FEFDCF8EB59E012295220F33
:10062000207E822F80618EBD0DB407FEFDCF8EB57A
:10063000FEBC0DB407FEFDCF8EB5F801828161E0EE
:1006400053D7DF91CF911F910F91FF900895462FBF
:1006500050E04B50504034E0440F551F3A95E1F7BD
:10066000436060E072E0C1CF0F931F93CF93DF939D
:10067000EC01162F042F8A8160E036D7110F1E7708
:1006800011601EBD0DB407FEFDCF8EB50EBD0DB4BD
:1006900007FEFDCF8EB58A8161E026D7DF91CF912D
:1006A0001F910F91089569E340E0DECF69E344E0D4
:1006B000DBCF662319F060E041E002C060E040E07B
:1006C000D3CF0F931F938C0168E148E9CDDFC801B8
:1006D0006EE245E9C9DFC80160E072E043E085DF12
:1006E000C80161E072E041E080DFC80162E072E0D1
:1006F00040E87BDFC80163E072E048E276DFC801D2
:1007000066E072E040E971DFC80167E072E040E84E
:100710006CDFC80168E072E040E167DFC80160E2B9
:1007200072E041E262DFC8016AE340E89DDFC80190
:100730006FE340E699DFC8016EE340E495DFC8014E
:100740006CE085DFC80166E344E08EDFC80166E344
:1007500040E08ADF61E070E080E090E057D51F91D3
:100760000F910895FF920F931F938C01F62E472F40
:1007700064E07ADFC80163E04F2D76DF1F910F91AF
:10078000FF900895FF920F931F938C01F62E472F31
:1007900062E06ADFC80161E04F2D66DF1F910F91B3
:1007A000FF900895EF92FF921F93CF93DF937C0108
:1007B000EB01FC01828160E097D6CE0143E0969583
:1007C00087954A95E1F780688EBD0DB407FEFDCF91
:1007D0008EB59E012295220F207E2EBD0DB407FE00
:1007E000FDCF8EB51EBC0DB407FEFDCF1EB5F701C3
:1007F000828161E079D6812FDF91CF911F91FF90A7
:10080000EF900895CF92DF92EF92FF920F931F9394
:10081000CF93DF937C014ADFC70160E073E0C2DF62
:10082000D82E8091CC02882391F0C1E0D3E00D2D29
:1008300010E00F5F1C4F08C0C701BE01B3DFFE010F
:10084000ED5BFF4F80832196C017D107A9F7C70141
:100850006AE073E0A7DFC82EC1E0D0E00AC0BE01A5
:10086000665F7C4FC7019EDFFE01E353FD4F80832F
:1008700021968091CD0290E02091CA023091CB0266
:10088000821B930BC817D90754F3D092CD020D2DBC
:1008900010E00F5F1C4FC701B80184DF8093420353
:1008A0000F5F1F4FC701B8017DDF80934303C7016E
:1008B000FADE8C2DDF91CF911F910F91FF90EF9079
:1008C000DF90CF9008951F93CF93DF93EC01162F05
:1008D0008A8160E009D6110F1E771EBD0DB407FE98
:1008E000FDCF8EB51EBC0DB407FEFDCF1EB58A81AF
:1008F00061E0FAD5812FDF91CF911F910895CF93B9
:10090000DF93EC016623A1F064E3DDDF482F48604C
:10091000CE0164E3A9DECE0163E3D5DF482F486052
:10092000CE0163E3A1DECE016FE272E047E003C0D7
:100930006FE272E040E059DEDF91CF910895FF92BF
:100940000F931F938C0164E0BEDFF82EC80163E0B3
:10095000BADF5F2D40E0282F30E0242B352BC90172
:100960001F910F91FF900895FF920F931F938C0199
:1009700062E0A9DFF82EC80161E0A5DF5F2D40E04D
:10098000282F30E0242B352BC9011F910F91FF90A8
:1009900008950F931F938C01FC01808160E0A4D522
:1009A0006AE070E080E090E031D4F801808161E09D
:1009B0009BD564E170E080E090E028D41F910F9116
:1009C00008950F931F938C01862FF8016083718324
:1009D000538342833583248361E0D3D4F801828139
:1009E00061E0CFD4F801848160E0CBD481E094D180
:1009F00080E09BD19FD11F910F910895FC018091C0
:100A0000C403803390F480838F5F8093C40381504C
:100A100090E0FC01EE0FFF1FE80FF91FEB53FC4FB6
:100A200088EB9BE09283818308958FEF8083089504
:100A3000EF92FF920F931F93CF93DF938B017A0175
:100A4000EC01DC01AB5ABB4F8C9187FF04C0FB016A
:100A50001182108236C0AE01440F551F4C0F5D1F2E
:100A6000440F551F440F551F2C91332727FD3095F8
:100A7000240F351F8091C40390E0281739070CF527
:100A80008C91992787FD9095840F951FFC01EE0F9F
:100A9000FF1FE80FF91FEB53FC4F808186FF11C049
:100AA0008C91992787FD9095840F951FFC01EE0F7F
:100AB000FF1FE80FF91FEB53FC4F80818F7360E03D
:100AC00013D5DE01AB5ABB4F8C918F5F8C93AE0177
:100AD000440F551F4C0F5D1F440F551F440F551FEA
:100AE0002C91332727FD3095240F351F8091C403A7
:100AF00090E0281739070CF04CC08C918C300CF02A
:100B000048C0F801208131818C91992787FD90950B
:100B1000840F951FFC01EE0FFF1FE80FF91FEB5329
:100B2000FC4F81819281280F391FF7013183208387
:100B30008C91992787FD9095840F951FFC01EE0FEE
:100B4000FF1FE80FF91FEB53FC4F808186FF29C080
:100B50008C91992787FD9095840F951FFC01EE0FCE
:100B6000FF1FE80FF91FEB53FC4F80818F7361E08B
:100B7000BBD417C080E49CE904C0F8018081918156
:100B80000496F70191838083CB5ADB4F8FEF8883E4
:100B900008C0F80180819181049680549C4950F3EB
:100BA000ECCFDF91CF911F910F91FF90EF900895BF
:100BB0001F920F920FB60F920BB60F9211242F9324
:100BC0003F934F935F936F937F938F939F93AF93D5
:100BD000BF93EF93FF9380E090E064E271E048E21E
:100BE00051E026DFFF91EF91BF91AF919F918F91DF
:100BF0007F916F915F914F913F912F910F900BBE1D
:100C00000F900FBE0F901F9018951F920F920FB666
:100C10000F920BB60F9211242F933F934F935F9334
:100C20006F937F938F939F93AF93BF93EF93FF93B4
:100C300083E090E064EA70E048EA50E0F9DEFF917A
:100C4000EF91BF91AF919F918F917F916F915F9144
:100C50004F913F912F910F900BBE0F900FBE0F90B1
:100C60001F9018951F920F920FB60F920BB60F920E
:100C700011242F933F934F935F936F937F938F93A1
:100C80009F93AF93BF93EF93FF9382E090E064E96B
:100C900070E048E950E0CCDEFF91EF91BF91AF9159
:100CA0009F918F917F916F915F914F913F912F9184
:100CB0000F900BBE0F900FBE0F901F9018951F92B4
:100CC0000F920FB60F920BB60F9211242F933F93F2
:100CD0004F935F936F937F938F939F93AF93BF9344
:100CE000EF93FF9381E090E064E870E048E850E023
:100CF0009FDEFF91EF91BF91AF919F918F917F9177
:100D00006F915F914F913F912F910F900BBE0F907C
:100D10000FBE0F901F901895882319F48CB5806230
:100D200002C08CB58F7D8CBD08959CB5937F982BA8
:100D30009CBD089585E361E0D7D385E361E021D3CD
:100D40008CB580618CBD8CB580648CBD84E361E022
:100D500018D383E361E015C3883008F078C0E82F2A
:100D6000F0E0EE0FFF1FE75AFB4F71836083833083
:100D7000D9F0843030F4813009F444C0823060F41A
:100D800039C0853051F18530D8F0863009F446C03D
:100D9000873009F05CC04FC0809169008C7F842B44
:100DA00080936900E89A089580916900440F551F67
:100DB000440F551F837F842B80936900E99A08951F
:100DC0008091690074E0440F551F7A95E1F78F7C9C
:100DD000842B80936900EA9A08958091690066E007
:100DE000440F551F6A95E1F78F73842B8093690038
:100DF000EB9A089580916A008C7F842B80936A001F
:100E0000EC9A089580916A00440F551F440F551FB6
:100E1000837F842B80936A00ED9A089580916A0005
:100E200024E0440F551F2A95E1F78F7C842B809393
:100E30006A00EE9A089580916A0096E0440F551F6B
:100E40009A95E1F78F73842B80936A00EF9A089547
:100E50001F920F920FB60F920BB60F9211242F9381
:100E60003F934F935F936F937F938F939F93AF9332
:100E7000BF93EF93FF9380915D0490915E04892B63
:100E800029F0E0915D04F0915E041995FF91EF91D6
:100E9000BF91AF919F918F917F916F915F914F9192
:100EA0003F912F910F900BBE0F900FBE0F901F9090
:100EB00018951F920F920FB60F920BB60F92112436
:100EC0002F933F934F935F936F937F938F939F9352
:100ED000AF93BF93EF93FF9380915F049091600471
:100EE000892B29F0E0915F04F09160041995FF913E
:100EF000EF91BF91AF919F918F917F916F915F9192
:100F00004F913F912F910F900BBE0F900FBE0F90FE
:100F10001F9018951F920F920FB60F920BB60F925B
:100F200011242F933F934F935F936F937F938F93EE
:100F30009F93AF93BF93EF93FF9380916104909140
:100F40006204892B29F0E0916104F0916204199503
:100F5000FF91EF91BF91AF919F918F917F916F9191
:100F60005F914F913F912F910F900BBE0F900FBE4D
:100F70000F901F9018951F920F920FB60F920BB6FD
:100F80000F9211242F933F934F935F936F937F930F
:100F90008F939F93AF93BF93EF93FF9380916304DD
:100FA00090916404892B29F0E0916304F09164042A
:100FB0001995FF91EF91BF91AF919F918F917F9183
:100FC0006F915F914F913F912F910F900BBE0F90BA
:100FD0000FBE0F901F9018951F920F920FB60F9291
:100FE0000BB60F9211242F933F934F935F936F9300
:100FF0007F938F939F93AF93BF93EF93FF938091D2
:10100000590490915A04892B29F0E0915904F091E8
:101010005A041995FF91EF91BF91AF919F918F91D4
:101020007F916F915F914F913F912F910F900BBEE8
:101030000F900FBE0F901F9018951F920F920FB632
:101040000F920BB60F9211242F933F934F935F9300
:101050006F937F938F939F93AF93BF93EF93FF9380
:1010600080915B0490915C04892B29F0E0915B04F2
:10107000F0915C041995FF91EF91BF91AF919F9111
:101080008F917F916F915F914F913F912F910F9031
:101090000BBE0F900FBE0F901F9018951F920F92CE
:1010A0000FB60F920BB60F9211242F933F934F93CD
:1010B0005F936F937F938F939F93AF93BF93EF93C0
:1010C000FF938091650490916604892B29F0E0914B
:1010D0006504F09166041995FF91EF91BF91AF916E
:1010E0009F918F917F916F915F914F913F912F9140
:1010F0000F900BBE0F900FBE0F901F9018951F9270
:101100000F920FB60F920BB60F9211242F933F93AD
:101110004F935F936F937F938F939F93AF93BF93FF
:10112000EF93FF938091670490916804892B29F0D5
:10113000E0916704F09168041995FF91EF91BF91D8
:10114000AF919F918F917F916F915F914F913F915F
:101150002F910F900BBE0F900FBE0F901F90189500
:101160001F920F920FB60F9211242F933F938F93DC
:101170009F93AF93BF9380916D0490916E04A09163
:101180006F04B0917004309171040196A11DB11DDE
:10119000232F2D5F2D3720F02D570196A11DB11D56
:1011A0002093710480936D0490936E04A0936F0458
:1011B000B09370048091690490916A04A0916B04CB
:1011C000B0916C040196A11DB11D809369049093A8
:1011D0006A04A0936B04B0936C04BF91AF919F918C
:1011E0008F913F912F910F900FBE0F901F901895E8
:1011F0008FB7F89420916D0430916E0440916F0484
:10120000509170048FBFB901CA0108959B01AC01D0
:101210007FB7F8948091690490916A04A0916B045F
:10122000B0916C0466B5A89B05C06F3F19F001969C
:10123000A11DB11D7FBFBA2FA92F982F8827860F18
:10124000911DA11DB11D62E0880F991FAA1FBB1F30
:101250006A95D1F7BC012DC0FFB7F894809169045D
:1012600090916A04A0916B04B0916C04E6B5A89BC0
:1012700005C0EF3F19F00196A11DB11DFFBFBA2FA8
:10128000A92F982F88278E0F911DA11DB11DE2E077
:10129000880F991FAA1FBB1FEA95D1F7861B970BD2
:1012A000885E9340C8F22150304040405040685121
:1012B0007C4F211531054105510571F6089578944B
:1012C00084B5826084BD84B5816084BD85B582604B
:1012D00085BD85B5816085BDEEE6F0E080818160E9
:1012E0008083E1E8F0E010828081826080838081E9
:1012F00081608083E0E8F0E0808181608083E1EBC1
:10130000F0E0808184608083E0EBF0E080818160A8
:101310008083E1E9F0E08081826080838081816068
:101320008083E0E9F0E0808181608083E1EAF0E0A1
:10133000808182608083808181608083E0EAF0E048
:10134000808181608083E1E2F1E08081826080833E
:10135000808181608083E0E2F1E080818160808330
:10136000EAE7F0E08081846080838081826080830E
:101370008081816080838081806880831092C10039
:101380000895CF93DF93482F50E0CA0188589E4FAD
:10139000FC0134914E5C5E4FFA018491882369F11F
:1013A00090E0880F991FFC01EC51FF4FA591B4917B
:1013B000FC01E250FF4FC591D491662351F42FB741
:1013C000F8948C91932F909589238C93888189230D
:1013D0000BC0623061F42FB7F8948C91932F9095E5
:1013E00089238C938881832B88832FBF06C09FB766
:1013F000F8948C91832B8C939FBFDF91CF910895AC
:10140000893009F449C08A30A0F4843051F1853024
:1014100040F4823079F1833000F5813009F063C007
:1014200026C0873079F1883098F5863009F05BC0A6
:1014300025C08D3009F442C08E3028F48B30B1F1D4
:101440008C30C0F52DC0803109F442C0813109F4DF
:1014500045C08F3009F047C037C0809180008F773A
:1014600003C0809180008F7D80938000089584B5B3
:101470008F7702C084B58F7D84BD08958091B000C0
:101480008F7703C08091B0008F7D8093B000089566
:10149000809190008F7707C0809190008F7D03C06E
:1014A00080919000877F8093900008958091A000A4
:1014B0008F7707C08091A0008F7D03C08091A0002E
:1014C000877F8093A0000895809120018F7703C0CB
:1014D000809120018F7D80932001089580912001CB
:1014E000877F809320010895FF920F931F93F62E1C
:1014F000482F50E0CA0182549E4FFC012491CA013A
:1015000088589E4FFC0114914E5C5E4FFA01049185
:101510000023C1F0222311F0822F72DFE02FF0E0D0
:10152000EE0FFF1FE250FF4FA591B4919FB7F894C3
:10153000FF2021F48C911095812302C08C91812B86
:101540008C939FBF1F910F91FF90089508951F9254
:101550000F920FB60F920BB60F9211242F933F9359
:101560004F938F939F93EF93FF938091C00082FDE1
:101570001DC04091C6002091B2043091B3042F5F8A
:101580003F4F2F7330708091B4049091B5042817A9
:10159000390771F0E091B204F091B304EE58FB4FBB
:1015A00040833093B3042093B20402C08091C600FC
:1015B000FF91EF919F918F914F913F912F910F90BC
:1015C0000BBE0F900FBE0F901F90189508951F929D
:1015D0000F920FB60F920BB60F9211242F933F93D9
:1015E0004F938F939F93EF93FF938091C80082FD59
:1015F0001DC04091CE0020913A0530913B052F5FF0
:101600003F4F2F73307080913C0590913D05281716
:10161000390771F0E0913A05F0913B05E650FB4F38
:10162000408330933B0520933A0502C08091CE0061
:10163000FF91EF919F918F914F913F912F910F903B
:101640000BBE0F900FBE0F901F90189508951F921C
:101650000F920FB60F920BB60F9211242F933F9358
:101660004F938F939F93EF93FF938091D00082FDD0
:101670001DC04091D6002091C2053091C3052F5F57
:101680003F4F2F7330708091C4059091C505281786
:10169000390771F0E091C205F091C305EE57FA4F9A
:1016A00040833093C3052093C20502C08091D600C9
:1016B000FF91EF919F918F914F913F912F910F90BB
:1016C0000BBE0F900FBE0F901F90189508951F929C
:1016D0000F920FB60F920BB60F9211242F933F93D8
:1016E0004F938F939F93EF93FF938091300182FDEF
:1016F0001DC04091360120914A0630914B062F5F64
:101700003F4F2F73307080914C0690914D062817F3
:10171000390771F0E0914A06F0914B06E65FF94F08
:10172000408330934B0620934A0602C080913601D5
:10173000FF91EF919F918F914F913F912F910F903A
:101740000BBE0F900FBE0F901F901895E0919E0654
:10175000F0919F06E05CFF4F819191912081318152
:10176000821B930B8F739070892B09F0EFDEE09151
:10177000C006F091C106E05CFF4F819191912081FC
:101780003181821B930B8F739070892B09F01EDFC0
:10179000E091E206F091E306E05CFF4F81919191C8
:1017A00020813181821B930B8F739070892B09F0FC
:1017B0004DDFE0910407F0910507E05CFF4F819158
:1017C000919120813181821B930B8F739070892BB3
:1017D00009F07CCF08951F920F920FB60F920BB6AF
:1017E0000F9211242F933F938F939F93EF93FF9327
:1017F0002091F6043091F7048091F8049091F90457
:101800002817390731F48091C1008F7D8093C10082
:1018100014C0E091F804F091F904EA54FB4F2081E0
:101820008091F8049091F90401968F7390709093D1
:10183000F9048093F8042093C600FF91EF919F91E3
:101840008F913F912F910F900BBE0F900FBE0F9075
:101850001F9018951F920F920FB60F920BB60F9212
:1018600011242F933F938F939F93EF93FF93209196
:101870007E0530917F058091800590918105281724
:10188000390731F48091C9008F7D8093C90014C05D
:10189000E0918005F0918105E25CFA4F2081809112
:1018A00080059091810501968F73907090938105CA
:1018B000809380052093CE00FF91EF919F918F91AF
:1018C0003F912F910F900BBE0F900FBE0F901F9066
:1018D00018951F920F920FB60F920BB60F9211240C
:1018E0002F933F938F939F93EF93FF93209106063F
:1018F000309107068091080690910906281739074C
:1019000031F48091D1008F7D8093D10014C0E0919B
:101910000806F0910906EA53FA4F208180910806E3
:101920009091090601968F739070909309068093A9
:1019300008062093D600FF91EF919F918F913F91E0
:101940002F910F900BBE0F900FBE0F901F90189508
:101950001F920F920FB60F920BB60F9211242F9376
:101960003F938F939F93EF93FF9320918E06309137
:101970008F0680919006909191062817390731F4CF
:10198000809131018F7D8093310114C0E0919006E8
:10199000F0919106E25BF94F208180919006909141
:1019A000910601968F7390709093910680939006A4
:1019B00020933601FF91EF919F918F913F912F914D
:1019C0000F900BBE0F900FBE0F901F901895AF9207
:1019D000BF92DF92EF92FF920F931F93CF93DF930B
:1019E000EC017A018B01DD24403081EE580780E064
:1019F000680780E0780711F0DD24D39491E0A92EE8
:101A0000B12CEC89FD89DD2069F0C50108A002C078
:101A1000880F991F0A94E2F7808360E079E08DE3F4
:101A200090E005C0108260E874E88EE190E0A801C3
:101A30009701BCD3215030404040504056954795C7
:101A40003795279580E12030380720F0DD2011F010
:101A5000DD24D7CFE889F9893083EA89FB8920839F
:101A600019A2EE89FF89408121E030E0C9010C8C88
:101A700002C0880F991F0A94E2F7482B4083EE8931
:101A8000FF894081C9010D8C02C0880F991F0A94FB
:101A9000E2F7482B4083EE89FF894081C9010E8C13
:101AA00002C0880F991F0A94E2F7482B4083EE8901
:101AB000FF8980810F8C02C0220F331F0A94E2F746
:101AC000209528232083DF91CF911F910F91FF90C4
:101AD000EF90DF90BF90AF900895DC011C96ED91E0
:101AE000FC911D97E05CFF4F2191319180819181A4
:101AF000281B390B2F733070C9010895DC011C9627
:101B0000ED91FC911D97E05CFF4F20813181E05405
:101B1000F040DF01AE5BBF4F8D919C91119728176C
:101B2000390719F42FEF3FEF07C08D919C91E80F13
:101B3000F91F8081282F30E0C9010895DC011C962F
:101B4000ED91FC911D97E05CFF4F20813181E054C5
:101B5000F040DF01AE5BBF4F8D919C91119728172C
:101B6000390719F42FEF3FEF10C08D919C91119719
:101B7000E80FF91F20818D919C91119701968F7329
:101B8000907011969C938E9330E0C9010895DC010A
:101B900091968C919197882339F05496ED91FC9110
:101BA0005597808186FFF9CF91961C920895CF9327
:101BB000DF93EC01EE85FF85E05CFF4F20813181F2
:101BC000E054F0402F5F3F4F2F733070DF01AE5B6A
:101BD000BF4F8D919C91119728173907D1F3E05C85
:101BE000FF4F80819181E054F040E80FF91F60833E
:101BF000EE85FF85E05CFF4F31832083EE89FF890E
:101C0000208181E090E00F8C02C0880F991F0A9418
:101C1000E2F7282B208381E089A3EC89FD8980816C
:101C20008064808381E090E0DF91CF9108951F93DD
:101C3000109295061092940628EE33E040E050E0B2
:101C400020939606309397064093980650939906F2
:101C500067E872E0709393066093920682E794E0DF
:101C600090939F0680939E0686EB94E09093A10646
:101C70008093A00685EC90E09093A3068093A20643
:101C800084EC90E09093A5068093A40680EC90E00D
:101C90009093A7068093A60681EC90E09093A90606
:101CA0008093A80682EC90E09093AB068093AA06FE
:101CB00086EC90E09093AD068093AC0614E0109310
:101CC000AE06B3E0B093AF06A7E0A093B006F5E090
:101CD000F093B106E1E0E093B2061092B7061092DD
:101CE000B6062093B8063093B9064093BA065093CF
:101CF000BB067093B5066093B4068AEF94E09093A8
:101D0000C1068093C0068EE395E09093C30680934E
:101D1000C2068DEC90E09093C5068093C4068CECCF
:101D200090E09093C7068093C60688EC90E090936D
:101D3000C9068093C80689EC90E09093CB06809307
:101D4000CA068AEC90E09093CD068093CC068EEC88
:101D500090E09093CF068093CE061093D006B09378
:101D6000D106A093D206F093D306E093D406109246
:101D7000D9061092D8062093DA063093DB064093FA
:101D8000DC065093DD067093D7066093D60682E892
:101D900095E09093E3068093E20686EC95E09093BD
:101DA000E5068093E40685ED90E09093E706809346
:101DB000E60684ED90E09093E9068093E80680EDD6
:101DC00090E09093EB068093EA0681ED90E090938B
:101DD000ED068093EC0682ED90E09093EF06809301
:101DE000EE0686ED90E09093F1068093F006109356
:101DF000F206B093F306A093F406F093F506E09391
:101E0000F6061092FB061092FA062093FC06309319
:101E1000FD064093FE065093FF067093F90660930B
:101E2000F8068AE096E090930507809304078EE415
:101E300096E0909307078093060785E391E09093DF
:101E400009078093080784E391E090930B07809340
:101E50000A0780E391E090930D0780930C0781E3DC
:101E600091E090930F0780930E0782E391E09093A7
:101E700011078093100786E391E0909313078093F6
:101E8000120710931407B0931507A0931607F09349
:101E90001707E09318071F910895CF93DF930FDA88
:101EA0000E94B302C6EADBE00E947D012097E1F3C5
:101EB0004DDCFACFCF92DF92EF92FF920F931F93F8
:101EC000CF93DF937C016B018A01C0E0D0E00FC0AB
:101ED000D6016D916D01D701ED91FC910190F081DA
:101EE000E02DC7011995C80FD91F015010400115E9
:101EF000110571F7CE01DF91CF911F910F91FF90E6
:101F0000EF90DF90CF900895EF92FF920F931F9381
:101F10008C01DC01ED91FC910190F081E02D6DE0F0
:101F200019957C01D801ED91FC910190F081E02D93
:101F3000C8016AE019959C012E0D3F1DC9011F9132
:101F40000F91FF90EF900895CF93DF93EC0161150F
:101F5000710519F420E030E00FC0DB010D90002086
:101F6000E9F71197A61BB70BE881F9810280F3818D
:101F7000E02DAD0119959C01C901DF91CF91089524
:101F80004F925F927F928F929F92AF92BF92CF9229
:101F9000DF92EF92FF920F931F93DF93CF93CDB712
:101FA000DEB7A1970FB6F894DEBF0FBECDBF2C01F0
:101FB000742ECB01223008F42AE019A231E2C32E9C
:101FC000D12CCC0EDD1E822E9924AA24BB24672D91
:101FD000752FA5019401EAD079018A01C801B701E2
:101FE000A5019401C4D0472D461B0894C108D1080F
:101FF0004A3014F4405D01C0495CF6014083E114AD
:10200000F1040105110521F07E2C5F2DC801DFCF01
:10201000C201B60199DFA1960FB6F894DEBF0FBEDC
:10202000CDBFCF91DF911F910F91FF90EF90DF9087
:10203000CF90BF90AF909F908F907F905F904F9088
:102040000895DC012115310541F4ED91FC910190D9
:10205000F081E02D642F1995089592CFCF92DF92F1
:10206000EF92FF920F931F936C017B019A0100E0A6
:1020700010E0B801A701E5DF8C01C60145DF080FBC
:10208000191FC8011F910F91FF90EF90DF90CF9023
:102090000895CF92DF92EF92FF920F931F93CF9309
:1020A000DF93EC016A017B012115310541F4E881E0
:1020B000F9810190F081E02D642F19951DC02A301F
:1020C0003105C9F477FF16C0E881F9810190F081EC
:1020D000E02D6DE219958C0144275527BA014C1962
:1020E0005D096E097F09CE012AE04ADF9801280FB9
:1020F000391F03C02AE044DF9C01C901DF91CF9161
:102100001F910F91FF90EF90DF90CF900895CF92A5
:10211000DF92EF92FF920F931F936C017B019A0164
:102120000027F7FC0095102FB801A701B2DF8C0142
:10213000C601EADE080F191FC8011F910F91FF9019
:10214000EF90DF90CF900895FFCE0895EF92FF9229
:102150000F931F937C01F8DE8C01C701D5DE080FB9
:10216000191FC8011F910F91FF90EF900895629F72
:10217000D001739FF001829FE00DF11D649FE00D7F
:10218000F11D929FF00D839FF00D749FF00D659FE0
:10219000F00D9927729FB00DE11DF91F639FB00DDF
:1021A000E11DF91FBD01CF0111240895A1E21A2EEE
:1021B000AA1BBB1BFD010DC0AA1FBB1FEE1FFF1FEB
:1021C000A217B307E407F50720F0A21BB30BE40B3B
:1021D000F50B661F771F881F991F1A9469F7609582
:1021E0007095809590959B01AC01BD01CF0108953C
:1021F000EE0FFF1F0590F491E02D1994F894FFCF96
:102200005458206661696C656421006368616E6E74
:10221000656C2062757379007478206F6B0052656D
:1022200063656976656420646174613A200046697B
:1022300072737420627974653A20006D733A004EAF
:102240006F742074696C7465640054696C7465649F
:10225000004572726F722C2073746F707065642009
:10226000726563656976696E67004242524547311F
:102270003A200050414E3A200041444452455353C5
:102280003A200000000000D70D5A0F6D0D9E0D7E04
:042290000DC70D0069
:00000001FF
